:020000040800F2
:10000000F03F0020254D0008554D0008574D0008D1
:1000100000000000000000000000000000000000E0
:10002000000000000000000000000000594D000822
:1000300000000000000000004F260008F12E00081C
:100040005F4D000800000000614D0008634D00088E
:10005000654D0008674D0008694D00086B4D0008AC
:10006000000000006D4D00086F4D0008FD2E0008D7
:10007000734D0008754D0008774D00080000000022
:10008000794D00087B4D00087D4D00087F4D00082C
:10009000814D0008834D0008854D0008874D0008FC
:1000A000894D00088B4D00088D4D00088F4D0008CC
:1000B000914D0008934D000800000000954D000888
:1000C00070B505000022064B1A60064E1C0032680F
:1000D000236801332360002AFAD028009047F6E70E
:1000E000E817002030000020F0B587B005923248B4
:1000F00002F088F9314C25004035200002F082F9E9
:100100000834AC42F9D12E4802F07CF92D4C250080
:100110004035200002F076F90834AC42F9D12A4C7F
:100120002A4D661CFF360027200002F06BF92F8055
:1001300008340235B442F7D1254802F063F90023B0
:10014000244A1360244A1360244A1360244A13602B
:10015000244A1360244A1360244A1360244803612C
:100160000122002101F064FA041E21D1214800225D
:10017000C264214B8533FF334021029101926032EA
:100180000092413A1D4901F07BFD041E10D10599F2
:100190001B4802F039FA174B124A1360104A1360D9
:1001A00002F08EFD041E03D102F0A0FE02F02EFA32
:1001B000200007B0F0BDC046EC170020241A002034
:1001C00000180020A8170020E41A0020E41B0020DB
:1001D0006C1A0020641A0020FC170020241C002048
:1001E000F8170020F4170020681A0020E8170020F4
:1001F000101A0020741A002030000020C1000008EE
:100200000818002070B504000D00114B1B68012B6D
:1002100012D102F079FA002811D1631E1D2B11D8DA
:100220000C4B9D4211D802F05DFA64000A4BE55276
:1002300002F05CFA00200AE00220404207E00220BF
:10024000404204E00520404201E00520404270BDEC
:10025000FC170020FEFF0000E41B002070B51E4BC1
:100260001B68012B33D102F04FFA01282FD102F085
:1002700039FA0400194A136801331360184B1B68DC
:100280005D6C6900174A8A5A002A1DD0196E013127
:10029000914201DA196617E000221A66EB00124E4D
:1002A0009E19300002F0B2F800280DD1ED000E4B7F
:1002B0005D196B685B689E4206D0300002F0DCF886
:1002C0000100300002F0D2F8200002F00FFA0748D7
:1002D00001F02EFA70BDC046FC170020681A0020FD
:1002E000F4170020E41B0020E41A0020101A00205C
:1002F00010B502F0F7F9034B1C6802F0F7F9200083
:1003000010BDC046681A0020F0B5474680B482B0E0
:1003100007000E0014001D0000283ED02F4B99420C
:100320003ED802F0F1F901283DD0002C3ED0002E3D
:100330003FD0072D40D9FB6A002B40D1A846A044EE
:10034000BC62380002F0CEF808239C46BC446346E9
:100350000193604602F0C6F8444536D2F600A6196D
:10036000002501E0A04507D92100019802F0C6F858
:1003700008340135A642F5D17D62002D22D0380027
:10038000103002F03FF83800183002F03BF87B6A7A
:100390003B62134BFB6200201BE00520404218E04B
:1003A0000520404215E00220404212E00520404274
:1003B0000FE0052040420CE00520404209E0082003
:1003C000404206E00520404203E000237B62052016
:1003D000404202B004BC9046F0BDC046FFFF0000A2
:1003E000896C8A0C70B5040002F08EF901281BD0CC
:1003F000E36A1B011B09114A934218D1104B1B6879
:10040000012B17D102F06EF905002000183001F021
:10041000F9FB2000103001F0F5FB0023E362280017
:1004200002F064F9002007E00220404204E00920C5
:10043000404201E00220404270BDC046896C8A0CF7
:10044000FC17002010B5041E0FD002F05DF9012842
:1004500005D102F047F9246A02F048F907E002F0FA
:1004600041F9246A02F042F901E0012464422000CB
:1004700010BDC04610B5041E17D002F045F9012882
:1004800009D102F02FF9236A646A1C1B63425C41A4
:1004900002F02CF90AE002F025F9236A646A1C1BB9
:1004A00063425C4102F022F900E00024200010BD0C
:1004B00070B50C0016001D0002F018F8002811D1CC
:1004C000059B002B09D0002C09D01A0004992800A4
:1004D00001F0CCFA0B24644209E0002C07D1306013
:1004E000002404E0059B0024002BF6D0F7E7200051
:1004F00070BDC04670B504000D0001F087FF0028F4
:1005000014D1200001F0B8FF002812D0041F002CE5
:1005100012D0280001F0EAFF002810D0E066200089
:1005200001F0DEFA01280DD10C380DE00820404220
:100530000AE00820404207E00820404204E008208A
:10054000404201E00820404270BDC046F0B585B091
:1005500004000E00150000287AD000297BD0C36A61
:100560001B011B09414A934278D102F0CDF80128C2
:100570002ED1002D75D102F0B5F8070023001033FD
:10058000002201920832009203AA0621494220006B
:10059000FFF78EFF0500380002F0A8F8002D62DB9F
:1005A000039B5B68336002F09DF807002600083665
:1005B0000399300001F0A2FF236A01332362200077
:1005C00018303100FFF796FF380002F08FF84AE04C
:1005D00002F088F8070023001033019508220092EA
:1005E00003AA062149422000FFF762FF05003800F8
:1005F00002F07CF82B000B330BD102F06BF81C4B94
:100600001B689D6D2A000C3203D1DB6E039300251D
:1006100001E0002D27DB039B5B68336002F062F88A
:100620000700260008360399300001F067FF236AAF
:1006300001332362200018303100FFF75BFF040014
:10064000380002F053F80B340DD102F043F80AE001
:1006500005256D4207E005256D4204E009256D4240
:1006600001E002256D42280005B0F0BD896C8A0CBE
:10067000F4170020F0B587B004000E0017001D002D
:10068000002800D190E0C36A1B011B094C4A934229
:1006900000D08CE002F038F801283AD1002F00D0C9
:1006A00088E002F01FF8039023001833220008327C
:1006B0001000002201921032009205AA0121494245
:1006C000FFF7F6FE071E06D1236A013B236203985B
:1006D00002F00CF804E0039802F008F8002F6BDB3E
:1006E000059B5E6001F0FEFF0600012D04D1059917
:1006F000200001F00FFF03E00599200001F0FEFE4D
:10070000200010302100FFF7F5FE300001F0EEFF71
:1007100052E001F0E7FF0390230018332200083273
:10072000100001971022009205AA01214942FFF70B
:10073000BFFE071E06D1236A013B2362039801F026
:10074000D5FF13E0039801F0D1FF3B000B330BD131
:1007500001F0C0FF1B4B1B689F6D3A000C3203D1A8
:10076000DB6E0593002701E0002F25DB059B5E6013
:1007700001F0B8FF0600012D04D10599200001F019
:10078000C9FE03E00599200001F0B8FE20001030FA
:100790002100FFF7AFFE0400300001F0A7FF0B348B
:1007A0000AD101F097FF07E005277F4204E00927FF
:1007B0007F4201E002277F42380007B0F0BDC0460B
:1007C000896C8A0CF4170020CB0605D5806802409E
:1007D0001000421E904104E080681040821A50428E
:1007E00050417047F0B5474680B405004068002787
:1007F000082398461FE0466800281BD0041F002CE1
:1008000018D0026E416E2800FFF7DEFF071E012F91
:1008100010D1201D01F04AFE200001F061F9A36E05
:100820004246134203D0636EAA689A43AA60AB683B
:10083000002B02D03000A842DDD1380004BC904625
:10084000F0BDC04670B504000D00002810D04B1C50
:1008500011D0C368002B11D101F056FF012810D030
:10086000200001F0CFFDA560074BE36000200AE007
:100870000520404207E00520404204E008204042B5
:1008800001E00220404270BD254F220E70B582B0BB
:10089000040000230193002802D1053B019321E0CD
:1008A000C3681B011B09114A934203D009235B4211
:1008B000019317E001F028FF012803D102235B42D6
:1008C00001930FE001F00EFF0600200001F09AF9FD
:1008D00005000023E360300001F008FF012D01D185
:1008E00001F0F8FE019802B070BDC046254F220EFF
:1008F000F0B583B005000C00160000921F00002820
:1009000071D0002972D0C3681B011B09404A934271
:100910006FD101F0F9FE012825D1089B002B6BD186
:1009200001F0E0FE0190220031002800FFF74CFFAB
:1009300001280BD1002F01D0AB683B600026009B43
:100940001B070CD5AB68A343AB6008E0002F04D0B5
:10095000AB683B600426764201E0042676420198AB
:1009600001F0C4FE51E001F0BDFE019022000099AB
:100970002800FFF729FF01280AD1002F01D0AB681A
:100980003B60009B1B0708D5AB68A343AB6004E04A
:10099000002F36D0AB683B6033E0019801F0A6FE33
:1009A000002632E01B4E3368009A9A665C66089A0D
:1009B0000421280001F05AF8019801F097FE01F097
:1009C00089FE33689E6D32000C321ED105E001981D
:1009D00001F08CFE0426764217E0002F0FD05B6EEC
:1009E0003B60002611E0052676420EE005267642A1
:1009F0000BE00926764208E00226764205E0002652
:100A000003E0089B002BE2D0CCE7300003B0F0BD40
:100A1000254F220EF417002070B504000D000028A9
:100A20002DD000292ED0C3681B011B09184A934200
:100A30002BD101F069FE01280DD101F053FE060013
:100A4000A3681D43A5602000FFF7CCFE300001F035
:100A50004DFE00201BE001F045FE0600A3681D438B
:100A6000A5602000FFF7BEFE0400300001F03EFE4E
:100A70000020012C0BD101F02DFE002007E0052005
:100A8000404204E00520404201E00920404270BDA0
:100A9000254F220E70B504000D0000281DD04B1C00
:100AA0001ED0C3681B011B09104A93421BD101F0E1
:100AB0002BFE012808D101F015FEA3681D40A5609A
:100AC00001F014FE002010E001F00CFEA3681D40B0
:100AD000A56001F00BFE002007E00520404204E085
:100AE0000520404201E00920404270BD254F220E02
:100AF000F0B54F464646C0B483B00700894616009D
:100B00001C00002845D0374B994245D8036B002B79
:100B100045D1002C46D0002947D0002A48D01300E8
:100B200009330A9A934246D801F0EEFD012845D0D8
:100B30000A9B9846A044FC62BE62380001F0D2FCD9
:100B400008239C46BC4463460193604601F0CAFCFE
:100B5000444539D20025083601E0444508D2210039
:100B6000019801F0CBFCA4190135A945F5D130E07D
:100B70007D62002D25D03800103001F043FC380094
:100B8000183001F03FFC7B6A3B62174B3B6300204F
:100B900022E0052040421FE0052040421CE00820E2
:100BA000404219E00520404216E00520404213E093
:100BB0000520404210E0052040420DE00220404266
:100BC0000AE00520404207E000237B620520404206
:100BD00002E04B467B62CEE703B00CBC90469946E0
:100BE000F0BDC046FFFF0000BD9E280470B50400A4
:100BF00001F08AFD01281BD0236B1B011B09114A40
:100C0000934218D1104B1B68012B17D101F06AFDDC
:100C100005002000183000F0F5FF2000103000F033
:100C2000F1FF00232363280001F060FD002007E0AE
:100C30000220404204E00920404201E002204042FC
:100C400070BDC046BD9E2804FC170020F0B587B0DB
:100C500004000E0017001D00002800D18DE00029BF
:100C600000D18DE0002A00D18DE0036B1B011B0930
:100C70004A4A934200D089E001F046FD012836D16E
:100C8000002D00D085E001F02DFD039023001033EE
:100C9000002201920832009205AA06214942200052
:100CA000FFF706FC0500039801F020FD002D72DB24
:100CB00005994D68BD4200D93D0008312A00300039
:100CC00003F0F0FD01F00EFD07002600083605993F
:100CD000300001F013FC236A013323622000183036
:100CE0003100FFF707FC380001F000FD53E001F090
:100CF000F9FC03902300103301950822009205AA05
:100D0000062149422000FFF7D3FB0500039801F0BC
:100D1000EDFC2B000B330AD101F0DCFC204B1B68EF
:100D20009D6D2A000C3202D1DB6E059301E0002D8F
:100D300031DB05994D68BD4200D93D0008312A00DC
:100D4000300003F0AFFD01F0CDFC070026000836AF
:100D50000599300001F0D2FB236A013323622000A1
:100D600018303100FFF7C6FB0400380001F0BEFC6C
:100D70000B3410D101F0AEFC0DE005256D420AE008
:100D800005256D4207E005256D4204E009256D4209
:100D900001E002256D42280007B0F0BDBD9E280489
:100DA000F4170020F0B587B004000D0017001E00F6
:100DB000002800D1A9E0002900D1A9E0002A00D133
:100DC000A9E0036B1B011B09584A934200D0A5E020
:100DD00001F09AFC012844D1002E00D0A1E001F0DE
:100DE00081FC0390230018332200083210000022F7
:100DF00001921032009205AA01214942FFF758FBE7
:100E0000061E06D1236A013B2362039801F06EFCA3
:100E100005E0039801F06AFC002E00DA83E0A26A84
:100E2000BA4200D93A00059842600830290003F020
:100E300039FD01F057FC05000C9B012B04D10599ED
:100E4000200001F067FB03E00599200001F056FB4C
:100E5000200010302100FFF74DFB280001F046FC78
:100E600061E001F03FFC03902300183322000832B8
:100E7000100001961022009205AA01214942FFF7B5
:100E800017FB061E06D1236A013B2362039801F07B
:100E90002DFC13E0039801F029FC33000B330BD138
:100EA00001F018FC224B1B689E6D32000C3203D1FE
:100EB000DB6E0593002601E0002E34DBA26ABA4205
:100EC00000D93A00059842600830290003F0EAFC96
:100ED00001F008FC05000C9B012B04D105992000B2
:100EE00001F018FB03E00599200001F007FB20004A
:100EF00010302100FFF7FEFA0400280001F0F6FB95
:100F00000B3410D101F0E6FB0DE0052676420AE035
:100F10000526764207E00526764204E00926764259
:100F200001E002267642300007B0F0BDBD9E2804E5
:100F3000F417002010B5041E0FD001F0E5FB0128C6
:100F400005D101F0CFFB246A01F0D0FB07E001F0EE
:100F5000C9FB246A01F0CAFB01E0012464422000BD
:100F600010BDC04610B5041E17D001F0CDFB0128FE
:100F700009D101F0B7FB236A646A1C1B63425C4120
:100F800001F0B4FB0AE001F0ADFB236A646A1C1BAC
:100F900063425C4101F0AAFB00E00024200010BD88
:100FA00070B504000D0001F031FA00280FD12000C7
:100FB00001F062FA002816D00438002816D0C56661
:100FC00000F08EFD012814D00920404216E0E369AC
:100FD000E268934210D2A3692B60A561E3690133F3
:100FE000E36100200AE00920404207E00920404276
:100FF00004E00B20404201E00120404270BDC046A9
:10100000F0B5474680B404000F0090461D0000284C
:101010004ED000294FD0036A002B4FD1012D01D9AA
:10102000032A07D80023E361E3602362A36105205C
:1010300040424CE001F068FB012842D0200001F062
:10104000E1F96761FE1C03229643266143460333A0
:101050009343A36041466943C91918006843801946
:10106000E560814230D2013D00E03D00C01A6F1EB4
:101070008142FAD3E560012D26D80023E361E360C5
:10108000A3610520404222E00B003360A26899185A
:1010900001301E00E268013A8242F5D800221A604F
:1010A0002369A361E368E3610A4B236200200EE039
:1010B000052040420BE00520404208E00520404268
:1010C00005E00220404202E0F3180020DDE704BC06
:1010D0009046F0BD8BCEB70670B5041E20D0036AD3
:1010E0001B011B09144A93421DD101F00DFB01287D
:1010F0001CD0124B1B68012B1BD101F0F3FA060028
:10110000200000F07FFD050000232362300001F085
:10111000EDFA0020012D0ED101F0DCFA00200AE0EA
:101120000520404207E00920404204E002204042FE
:1011300001E00220404270BD8BCEB706FC170020B4
:10114000F8B504000D001700002850D0002951D038
:10115000036A1B011B09344A93424ED101F0D4FAB1
:10116000012818D1002F4BD101F0BCFAE369002B04
:1011700009D0A2691168A161013BE361002A05D091
:101180002A60002404E00624644201E0062464424C
:1011900001F0ACFA45E001F0A5FA0600E369002B86
:1011A0003AD0A2691168A161013BE361002A2AD00B
:1011B0002A600024002F16D02AE03A0080218901FD
:1011C000200000F053FC300001F090FA01F082FAA8
:1011D000164B1A68D26E2A601B689C6D23000C3374
:1011E0001FD100241DE0300001F080FA19E0052431
:1011F000644216E00524644213E00924644210E0CE
:10120000022464420DE0002FD7D106246442EAE7AD
:1012100001F06CFA002404E0002FCED106246442D1
:10122000E1E72000F8BDC0468BCEB706F4170020DA
:1012300070B504000D0000282DD000292ED0036ABF
:101240001B011B09194A93422BD101F05DFA0128B9
:101250000FD101F047FA060029002000FFF7A0FE99
:10126000040003000B3300D10024300001F03EFAEB
:1012700019E001F037FA060029002000FFF790FE80
:101280000400300001F032FA23000B330BD101F0DF
:1012900021FA002407E00524644204E005246442A6
:1012A00001E009246442200070BDC0468BCEB70621
:1012B00070B504000D0000281AD0436A002B1AD123
:1012C000012901D0042919D101F01EFA012818D0F2
:1012D000200001F097F82000083001F093F8256114
:1012E0000023A3612362084A6262636100200AE06E
:1012F0000520404207E00520404204E0052040422E
:1013000001E00220404270BD459E120770B5040006
:101310000D00002843D0436A1B011B09364A934243
:1013200040D101F0F1F901283FD001F0DBF90600CE
:10133000A369324A1068834254D0002B0FD1A061B8
:1013400021000831203001F091F8236900245B0767
:101350004DD52A4B1A68936A0133936247E0002DFA
:1013600043D023695B0723D42FE06169002904D1AE
:1013700001316161D96A0131D962516CA069436C54
:1013800099422BD200F0B8FA28E001F0A3F91B4BE8
:101390001B689C6D23000C332CD100242AE005240B
:1013A000644227E00924644224E00224644221E0EC
:1013B0002A004021200000F059FB104B1A68A36955
:1013C000516C186C8142D0D308E02A002021200003
:1013D00000F04CFB300001F089F9D6E7300001F055
:1013E00085F9D2E70824644201E006246442300013
:1013F00001F07CF9200070BD459E1207F417002013
:10140000F0B5474680B40C008D6985426AD1002D45
:101410006BD00F000837380001F048F800239846D9
:1014200023695B0719D56369012B07D10023636129
:10143000EB6A013BEB625A425A419046AB6A013B70
:10144000AB62EA6A934208D12A6CAA64002B04D1E9
:101450006B6C9A4201D001239846200000F0D6FF21
:10146000012803D10023A361002733E0200001F00D
:1014700003F8002827D0061F002E27D0300000F0E8
:101480002FFBA66130002030390000F0EFFF00276D
:1014900023695B071ED5B36A0133B362200000F0F5
:1014A000B5FF002816D16368002B12D0043B002B37
:1014B00010D05B6C326C93420CD201236361F36AEF
:1014C0000133F36206E002277F4203E002277F42F6
:1014D00000E000274346012B09D1A96C280000F049
:1014E0000BFA04E008277F4201E008277F4238001A
:1014F00004BC9046F0BDC04670B5041E20D0436ABF
:101500001B011B09134A93421DD101F0FDF801286C
:101510001CD001F0E7F80600200000F073FB050086
:101520002100A069FFF76CFF00236362300001F027
:10153000DDF80020012D0BD101F0CCF8002007E0F0
:101540000520404204E00920404201E002204042E0
:1015500070BDC046459E120730B583B0041E03D14E
:1015600005235B4201931FE0436A1B011B09104ADC
:10157000934203D009235B42019315E001F0C4F8C4
:10158000012803D102235B4201930DE001F0AAF888
:101590000500084B18682100FFF732FF0190280072
:1015A00001F0A4F801F096F8019803B030BDC046F0
:1015B000459E1207F417002070B505000400203482
:1015C0000BE0200000F058FF002806D00100083989
:1015D000002902D02800FFF713FF200000F016FFBB
:1015E0000028EED070BDC04610B54469002C1DD057
:1015F000200000F00BFF002813D16368002B15D0EA
:10160000043B002B12D0A269002A0FD0906C516CC1
:10161000814200D901005B6C8B4200D90B005364FE
:1016200004E0A369002B01D09A6C5A6410BDC04637
:1016300070B504000E001500002813D0002A14D045
:101640008A4215D30369002B15D101F05DF80128FA
:1016500014D0200000F0D6FEA660E560094B23619F
:1016600000200DE0052040420AE00520404207E04E
:101670000520404204E00520404201E002204042B3
:1016800070BDC046EB73A10F70B5041E1CD003697A
:101690001B011B09114A934219D101F035F80128A9
:1016A00018D001F01FF80600200000F0ABFA05008A
:1016B00000232361300001F019F80020012D0BD127
:1016C00001F008F8002007E00520404204E009206E
:1016D000404201E00220404270BDC046EB73A10FC2
:1016E00010B5040000F092FE00280ED1200000F09A
:1016F000C3FE002811D00438002810D000F0F0F903
:1017000001280ED00920404210E0A368E26893420D
:101710000AD20133A360002008E0002006E0002088
:1017200004E00B20404201E00120404210BDC046D1
:1017300070B5041E25D003691B011B09144A93428E
:1017400022D100F0E1FF01280AD100F0CBFF050013
:101750002000FFF7C5FF0400280000F0C7FF15E0D8
:1017600000F0C0FF05002000FFF7BAFF04002800CA
:1017700000F0BCFF23000B3308D100F0ABFF0024C6
:1017800004E00524644201E009246442200070BDA5
:10179000EB73A10F10B58368002B08D0013B836069
:1017A000002008E000F062F90B20404203E0002A2C
:1017B000F8D10620404210BD70B504000D0000288D
:1017C00031D003691B011B091C4A93422ED100F042
:1017D0009BFF01280ED1002D2BD100F083FF0500C7
:1017E000002202212000FFF7D5FF0400280000F0AE
:1017F0007DFF20E000F076FF06002A000221200095
:10180000FFF7C8FF0400300000F070FF23000B3327
:1018100011D100F05FFF0A4B1B689C6D23000C3355
:1018200009D1002407E00524644204E0092464424D
:1018300001E002246442200070BDC046EB73A10F9A
:10184000F417002070B50400051D280000F02EFEDE
:10185000626C6069290000F0E9FD70BD0E4B1B68E9
:10186000DB070BD4012302220B4801680A4206D190
:1018700052000133202BF8D1002300E00023DB00CD
:10188000064AD3185B68002B01D0043B00E000231C
:10189000034A13607047C046241C0020E41A00204D
:1018A000F817002070B504000E00051D280000F098
:1018B000FDFDF0000E4BC01800F0A8FD012805D179
:1018C0000C490B680122B24093430B60636CD80053
:1018D000074BC018290000F0C9FD06490A68606C72
:1018E0000123834013430B60FFF7B8FF70BDC04670
:1018F000E41A0020241C002070B504000D00C36A07
:10190000002B15D1416CA94212D2836C026C9A4211
:1019100000D12B006364236D012B03D12000FFF75E
:10192000C1FF21E05B071FD52000FFF78BFF1BE005
:101930000426002C18D0616C8D4215D26564236D8D
:10194000012B03D12000FFF7ADFF0DE01E42F0D0C8
:101950002000FFF777FF636D402B05D16369002BF3
:1019600002D09C69002CE4D170BDC04670B5040063
:10197000456C0123026D9A432265043000F096FD08
:10198000E8000F4BC01800F041FD012808D10D49B7
:101990000B680122AA4093430B60FFF75FFF0EE044
:1019A000094B1B689C420AD1ED00054B5D196B6821
:1019B000002B01D0043B00E00023034A136070BDFC
:1019C000E41A0020241C0020F817002070B5040041
:1019D000466C0125056500234361011DF000094B9C
:1019E000C01800F043FD084A1368B5401D43156058
:1019F000064B1B68002B04D05B6C9E4201D2034B4C
:101A00001C6070BDE41A0020241C0020F817002080
:101A10007047C04610B54B1E03331DD807290ED89A
:101A20000F4B1B68C91807230B40C36501000C311D
:101A3000DB000C48181800F019FD00200EE0084BE0
:101A40001B68072213405918C16501000C31064874
:101A500000F00CFD002001E00520404210BDC04612
:101A6000681A0020241A0020EC170020F8B50400A2
:101A70000F0015000F4E3068FFF778FF3168042320
:101A80000B654F65CD65002C03D1081D00F0BAFC35
:101A900007E04A6C0431200000F0C8FC054B1B68CD
:101AA0005C616B1E033304D8024B18682900FFF7F2
:101AB000B1FFF8BDF417002070B5050004000C3428
:101AC000200000F0A3FC002808D101235B42EB6555
:101AD000200000F0EBFC200000F094FC70BDC0463C
:101AE00010B50400002343610C3B8365FFF7E4FF5E
:101AF000236D1B0704D42000FFF768FF012002E0DC
:101B00000823236500200023636510BD10B5040081
:101B1000043000F077FC2000FFF7CEFF2000FFF735
:101B20004BFD0023E362A3626361A26C6264102236
:101B300022656365A365E366113AE265236610BD1D
:101B4000F0B5474680B482B02B4B1B6807271F4077
:101B500000F0C8FD0190002F29D1284A5368934214
:101B600025D0254A9046254E5D68002B1CD00C3BA5
:101B70001C1E19D0DB6D083BE365072B14D80C2322
:101B80009C46A44463460093604600F08FFC4246A6
:101B90001068E36DC01807231840C000184A944627
:101BA0006044009900F062FC2B1EB342DCD1FC00C3
:101BB000134BE4180025260011E0706800280ED0B1
:101BC0000C38071E0BD0FFF777FF381D00F06EFCB6
:101BD0003800FFF785FF04235B42BB650125200029
:101BE00000F014FC0028E8D0019800F07FFD2800E8
:101BF00002B004BC9046F0BD681A0020EC1700202B
:101C0000241A0020F0B5474680B4050000260A23B8
:101C10005B42984601270FE0280000F02DFC0028C9
:101C20000AD0041F002C07D02000FFF759FF01281D
:101C300002D14346A3653E00280000F0E7FB0028E0
:101C4000EAD0300004BC9046F0BDC04610B5036D2C
:101C50001A070FD4102B10D0012B06D107330365C0
:101C6000FFF784FE0B20404209E00822134303657E
:101C7000002004E00120404201E00320404210BD6A
:101C8000F0B5474680B405000F0016001C00002A7E
:101C900003D1089B1B0608D468E01F2A03D1089BC8
:101CA0005B0602D465E01F2A66D8069B3F2B66D9E7
:101CB000002F67D0002D68D0002C69D0EB6C002B72
:101CC00069D100F021FD012868D0374B1B68002244
:101CD0009046012B02D100F005FD8046AF63079BC3
:101CE000EB632C63069B6B632E646E64AE642F4BB8
:101CF000EB64069B002B07D000232D4A043C626056
:101D00000133696B9942F9D82800203000F07AFB42
:101D10000023AB62EB622C001834200000F072FB51
:101D200028000C3000F06EFB2800FFF7EFFEEA6B96
:101D3000296BA86B00F0F6FB286021001D4800F01D
:101D400095FB1D4A136801331360C123089A13429F
:101D500002D02800FFF73AFE134B1B680020012B2E
:101D60001ED1404600F0C2FC002019E00520404290
:101D700016E00520404213E00520404210E0052017
:101D800040420DE0052040420AE00520404207E0C5
:101D90000520404204E00520404201E0022040428C
:101DA00004BC9046F0BDC046FC17002069CFAB07CD
:101DB000EFBEADDE6C1A0020641A002010B5154B82
:101DC0001C6800F0A1FC002823D1134B1B68012BD9
:101DD0001FD100F087FC2000FFF7EEFB2000FFF78B
:101DE000C5FD2000FFF792FE2000183000F05EFBDA
:101DF0000A4A1368013B1360A022D205E36C13402A
:101E0000934201D1E26401E00023E364200000F08A
:101E100044FC10BDF4170020FC170020641A0020B9
:101E200070B5041E4FD0C36C1B011B092C4A934292
:101E30004CD100F069FC01284BD02A4B1B68012BC8
:101E400003D0294B1B689C4246D000F04BFC050098
:101E50002000FFF7B1FB236D012B03D12000FFF71A
:101E600085FD11E05B070FD5201D00F01FFBE36D22
:101E7000013303D020000C3000F018FB636D402BC1
:101E800002D12000FFF7B0FB2000FFF73FFE20004B
:101E9000183000F00BFB154A1368013B1360E02378
:101EA000DB05E26C1340A022D205934201D1E2642B
:101EB00001E00023E364280000F018FC2000FFF795
:101EC000A7FD00200AE00520404207E0092040422B
:101ED00004E00220404201E00220404270BDC046C2
:101EE00069CFAB07FC170020F4170020641A00200C
:101EF00070B5041E2DD0C36C1B011B091A4A9342F6
:101F00002AD11A4B1B68012B29D100F0FDFB0128B7
:101F10000ED100F0E7FB05002000FFF797FE04005C
:101F2000280000F0E3FB23000B331AD1002418E053
:101F300000F0D8FB05002000FFF788FE0400280011
:101F400000F0D4FB23000B330BD100F0C3FB0024C3
:101F500007E00524644204E00924644201E002240D
:101F60006442200070BDC04669CFAB07FC1700205B
:101F700070B5041E39D0C36C1B011B09264A93425D
:101F800036D1264B1B68012B35D100F0BDFB012853
:101F900014D100F0A7FB0500236D1A072ED55A07B0
:101FA00007D42000FFF712FD280000F09FFB00245B
:101FB0002FE0082293432365002421E000F092FBE8
:101FC0000500236D1A071FD55A0709D42000FFF713
:101FD000FDFC280000F08AFB00F07CFB002418E0E8
:101FE000082293432365002410E00524644210E096
:101FF000092464420DE0022464420AE0032464429E
:10200000280000F073FB04E003246442280000F081
:102010006DFB200070BDC04669CFAB07FC170020E8
:1020200070B5041E16D000F06FFB012815D00E4BC2
:102030001B68012B14D100F055FB05002200012183
:102040000020FFF713FD280000F050FB00F042FBDA
:10205000002007E00520404204E00220404201E069
:102060000220404270BDC046FC17002070B5041E1F
:102070002ED0C36C1B011B091D4A93422BD11D4B53
:102080001B68012B2AD100F03FFB012810D100F082
:1020900029FB0500236D102B04D12000FFF796FCCF
:1020A000002401E002246442280000F01FFB1CE031
:1020B00000F018FB0500236D102B12D12000FFF754
:1020C00085FC280000F012FB00F004FB00240CE06B
:1020D0000524644209E00924644206E002246442C3
:1020E00003E000F003FB02246442200070BDC04600
:1020F00069CFAB07FC17002070B504000D00002865
:1021000025D0C36C1B011B09184A934222D100F051
:10211000FBFA012821D0164B1B68012B20D16B1E26
:102120001D2B20D800F0DEFA0600A36C9D4203D3DD
:10213000A36AE26A934200D1A564256429002000C5
:10214000FFF7DAFB300000F0D1FA00200DE00520A7
:1021500040420AE00920404207E00220404204E0F9
:102160000220404201E00520404270BD69CFAB072C
:10217000FC17002010B5040000F048F9002807D132
:102180000023E360200000F091F9200000F03AF90C
:1021900010BDC04610B50100C368072B0BD80B4A11
:1021A00010681B1807200340CB60DB000848181894
:1021B00000F05CF908E0054A126807201040C318D7
:1021C000CB60044800F052F910BDC046681A0020E8
:1021D000A81700200018002070B504000D0016009C
:1021E000002814D0002915D08369002B15D100F0E8
:1021F0008BFA012814D0200000F004F90023A3601A
:10220000E36026616561084BA36100200AE00520B8
:10221000404207E00520404204E00520404201E042
:102220000220404270BDC04647D4040B70B5041E66
:1022300016D083691B011B090E4A934213D100F08B
:1022400063FA012812D000F04DFA05002000FFF7D4
:1022500091FF0023A361280000F048FA002007E066
:102260000520404204E00920404201E002204042B3
:1022700070BDC04647D4040BF8B504000D0016002D
:1022800000281DD000291ED0531C1FD083691B01BC
:102290001B09134A93421CD100F036FA01281BD0C7
:1022A00000F020FA07002000FFF764FFE560A66059
:1022B0002000FFF76FFF380000F018FA00200DE053
:1022C000052040420AE00520404207E00520404248
:1022D00004E00920404201E002204042F8BDC0462F
:1022E00047D4040B70B5041E14D083691B011B096D
:1022F0000D4A934211D100F007FA012810D000F0E6
:10230000F1F905002000FFF735FF280000F0EEF995
:10231000002007E00520404204E00920404201E09F
:102320000220404270BDC04647D4040BF0B547467A
:1023300080B484B002A800F065F82F4B1B68072713
:102340001F4000F0CFF90190002F22D12B4B5C6889
:102350009C421ED0284B9846284D6668002C15D00C
:10236000E368083BE360072B10D8200000F09EF8DC
:1023700043461868E3689C46604407231840C00041
:102380001F4B9C466044210000F070F8341EAC42A4
:10239000E3D1FE001A4BF618370013E07C68002CDE
:1023A00010D02000FFF7E6FEA368002B04D0E36006
:1023B000210002A800F05AF86369002B02D02169BD
:1023C00020009847300000F021F80028E6D006E011
:1023D00002A800F051F8002801D0FFF7DBFE02A8A8
:1023E00000F014F80028F3D0019800F07FF90020E5
:1023F00004B004BC9046F0BD681A0020001800200C
:10240000A8170020406000607047C0460023426863
:10241000904203D10368181A4342434118007047A1
:1024200043684B60086019604160704710B54368AD
:1024300098420DD0002B05D01C1F002C02D01C6C24
:10244000944203D85B689842F4D101E0984205D1E8
:102450004B601A680A605160196005E01A685160A3
:102460001A680A6019604B6010BDC0464860036876
:102470000B60596001607047031E07D040688342BB
:1024800006D04268136042685A6002E0002000E013
:10249000002070470368984204D01A6850601A6898
:1024A000026000E0002318007047C04603684268DD
:1024B0005A60436802681A607047C0464368984291
:1024C00009D08B4202D108E0994208D05B6898425B
:1024D000FAD1002004E0002002E0012000E0012009
:1024E0007047C04600230360436070470368002BB9
:1024F00001D01A68026018007047C04600230B60C4
:102500000368002B02D10160416002E0436819605A
:102510004160704703680B600368002B00D1416085
:102520000160704770B50C00160080235B040B60DF
:1025300000F0E3F8231F012528431860194800F034
:10254000DDF82300083B05431D60043B164A1A6072
:10255000043B164A1A60043B154A1A60043B154AAC
:102560001A60300000F0CBF823001C3B1860043BDD
:10257000114A1A60043B114A1A60043B104A1A605F
:10258000043B104A1A60043B0F4A1A60043B0F4A8E
:102590001A60043B0E4A1A6020003C380D4B036061
:1025A00070BDC046BD1D00081212121203030303C2
:1025B000020202020101010111111111101010108B
:1025C0000909090908080808070707070606060693
:1025D000050505050404040410B5044CE26B216BE9
:1025E000A06BFFF79FFF206010BDC046741A00204B
:1025F000436B9A00036B9B1A5A68024B9A4200D0B5
:10260000FEE77047EFBEADDE7047C046444908683C
:10261000444A1043086044490120087043490A684D
:1026200010681030F0C8A046A946B246BB46203814
:10263000F0C8103080F30988BFF36F8F0421704613
:10264000084386463A493B48086062B6FEE772B6E0
:10265000364B1968384A126891421CD0EFF3098052
:1026600020380860F0C044464D4656465F46F0C0EC
:102670001A6010681030F0C8A046A946B246BB46A2
:102680002038F0C8103080F30988BFF36F8F042121
:1026900070460843864662B6704724490A68114668
:1026A0002648006880F3098804217046084386465E
:1026B000104623498847EFF30880203080F30888CC
:1026C000002080F31488BFF36F8F19491948086000
:1026D00062B6FEE716491748086070471449154866
:1026E00008607047EFF3108072B6704780F310886F
:1026F0007047EFF31080704770477047704770471E
:1027000072B6704762B67047EFF30580800601D05D
:10271000012070470020704701380028FCD1704725
:1027200020ED00E00000C000FC170020F41700209E
:1027300004ED00E000000010F81700200000002069
:10274000111A000810B500281BD000291CD02F2A10
:102750001DD9CB1D0724A3438360521AD218A2436C
:10276000190008398918C1600360002119600368E5
:102770005A6042600162103001220131FEF758FFB9
:1027800007E00520404204E00520404201E005202A
:10279000404210BD70B505000C00002850D0002943
:1027A00050DD2F4B1B68012B04D110300121494211
:1027B000FFF702F8073407239C43210008312A68F9
:1027C000002A32D05368994227DC43E05C68A1427A
:1027D00022DC641A0F2C0DDDC8181E6806604460E8
:1027E000002A01D1286000E0106059606A68511A1F
:1027F00069600CE0002A04D11A0013682B601300F2
:1028000001E0196811606A685968521A6A6000220A
:102810001A60181E06D109E01A001368002BD5D1E2
:10282000002003E00833180000E0002004000C4BF7
:102830001B68012B12D128001030FEF779FF0DE044
:1028400000240BE0002409E0881814680460436049
:102850001300C7E75B1A0F2BF6DCCEE7200070BD34
:10286000FC170020F0B5474680B405000C00002896
:1028700000D1D0E0002900D1D0E0724B1B68012BC1
:1028800004D1103001214942FEF796FF210008399A
:102890004C68630700D0AAE00B68002B00D0A9E0C9
:1028A000AB68994200D2A8E00B199C461F00083F74
:1028B000EB689F4200D9A3E02B6898460020002BCC
:1028C00008D129604B686A68944663446B600024B1
:1028D00098E01300994225D29F4200D3A1E09C4585
:1028E00014D16A68944664446C60002804D142465E
:1028F000126829600A6002E0026801600A605B6891
:102900004A68944663444B6000247BE06A689446BE
:1029100064446C60002801D1296000E001600B6014
:1029200000246FE099427FD0586818181A68002A6E
:102930003DD0914255D2974279D2944521D18142DE
:1029400011D16A68944664446C604A6859688C4640
:1029500062445A6019684868844662445A600A684A
:102960001A6000244EE06A68944664446C601868FB
:102970004268006819604B689B184B60086000242F
:1029800040E081420AD16A68944664446C604A68B7
:1029900059688C4662445A60002433E06A68944661
:1029A00064446C601A6819600A6000242AE002001E
:1029B000083A91423ED981420AD16A6894466444F9
:1029C0006C604A6859688C4662445A60002419E079
:1029D0006A68944664446C601A6819600A6000244E
:1029E00010E01800002A00D073E700240AE0012458
:1029F000644207E00124644204E00124644201E0EF
:102A0000012464420F4B1B68012B16D128001030A3
:102A1000FEF78EFE11E0052464420EE005246442B8
:102A20000BE001246442EDE701246442EAE701245B
:102A30006442E7E701246442E4E7200004BC9046D6
:102A4000F0BDC046FC17002010B5024800F002FCA3
:102A5000002010BDFC4A000810B5024800F0FAFB47
:102A6000002010BD144B000810B5024800F0F2FB26
:102A7000002010BD244B000810B5024800F0EAFB0E
:102A8000002010BD384B000810B5024800F0E2FBF2
:102A9000002010BD4C4B0008F0B54F4680B482B00A
:102AA00001900D009146002806DA2D230B704C1C76
:102AB00043420193012603E00C00002600E01C00C5
:102AC0000A21019801F0E8FE0F000A21019801F0A7
:102AD000FDFD019030372770631C0136002802DDB0
:102AE0004E45ECD301E04E4501D300222A7000226E
:102AF0001A7023782A7822702B70013C0135AC4281
:102B0000F7D802B004BC9146F0BDC046F0B55746B8
:102B10004646C0B48BB03C4800F09CFB3B4B5E6823
:102B20009E426BD03A4F3B4B984673689A46002EB4
:102B300001D0183E00E00026336B1C1D736B9B0018
:102B4000E41A354B22689A4203D1043422689A422F
:102B5000FBD004AD3B680493BB88AB80BB79AB7101
:102B600010226946306CFFF797FF6946280001F094
:102B700047FF280001F074FF28180322274901F0BD
:102B800091FE280000F066FB2B00424603CA03C3F7
:102B9000336B181D001B800810226946FFF77CFF6D
:102BA0006946280001F02CFF280001F059FF281881
:102BB00003221A4901F076FE280000F04BFB184B67
:102BC0001A6804929A88AA809B79AB71706B102264
:102BD0006946FFF761FF6946280001F011FF2800F0
:102BE00001F03EFF281803220E4901F05BFE280089
:102BF00000F030FB5646054B9E4296D100200BB0AC
:102C00000CBC90469A46F0BD604B00086C1A002040
:102C1000A44B0008B04B0008EFBEADDEAC4B000883
:102C2000B84B00081C4C000870B501256D42064CDD
:102C300029002000FEF7C0FD0028F9DBFEF780FF29
:102C4000FFF774FBF4E7C046101A0020F0B589B016
:102C5000094F0A4E20226946380000F039FA051E55
:102C6000F8DD00246B46E15C300001F0D9FB013453
:102C7000A542F7DCEEE7C046581C0020C00100204A
:102C8000F0B583B00B4D0C4E0C4F01246442220072
:102C900001A92800FDF75AFC0028F8DB019B012B55
:102CA00003D1380001F03CFCEFE7300000F0D2FA2D
:102CB000EBE7C046281C0020EC4B0008C0010020B8
:102CC00000B585B00022354B1A600132FF3234491D
:102CD0006831344800F026F900285DD132480021DF
:102CE000B423C150314B952292009446634468301E
:102CF000D53AFF3A02920191009200222C49FEF748
:102D0000BFFF002848D12B480022A423C2502A4BE1
:102D10002A498C46634458300121029101920132C4
:102D2000FF320092FD3A2649FEF7AAFF002833D170
:102D3000244800229423C250234B24498C466344E8
:102D40004830012102910192802292000092FB3AC8
:102D5000FF3A1F49FEF794FF00281DD11D480022AD
:102D60008423C2501C4B1D498C46634438300121DA
:102D7000029101920132FF320092F83A1849FEF7AF
:102D80007FFF002808D117480023C3624033164A4A
:102D900028320821FDF7B8FA05B000BD3000002048
:102DA00040020020581C002040030020C0030020E7
:102DB000292C0008C0050020400600204404000023
:102DC0004D2C0008400A0020C00A002034080000F2
:102DD000812C0008C01200204013002024040000B1
:102DE0007D2E0008281C00204017002000B583B06D
:102DF00001218020800200F057FE01236A461371F2
:102E00000233537100239371D371203300936946C9
:102E10009020C00500F048FB03B000BD10B50020B5
:102E2000FFF7E4FF0D4801F083FA0D4A0D4B5360A4
:102E30000D490B6A1B021B0AC020000603430B62EC
:102E40000023936007331360002200210020FDF768
:102E50004BF9002800D0FEE7002010BDC001002083
:102E600010E000E07FBB000000ED00E09022D20502
:102E7000516920234B4053617047C046F0B587B07D
:102E80000020FFF7F3FF6420FFF7CAF8012501AC2B
:102E9000144E0020FFF7EAFF6420FFF7C1F8013568
:102EA0000A21280001F00EFC0029F2D133682360CA
:102EB000B388A380200001F0D3FD27180A21280041
:102EC00001F07AFB14223900FFF7E6FD200001F043
:102ED000C7FD20180322044901F0E4FC200000F0A3
:102EE000B9F9D6E7FC4B00081C4C00087047C046F7
:102EF00010B5FDF7B3F9FFF7F1FB10BD10B5802059
:102F0000800100F06DFA012806D18020400100F018
:102F100073FA0348FEF70CFCFFF7E0FB10BDC04658
:102F20006C1C0020F0B5474680B404000F009046AA
:102F300000286FD0FFF7D6FBE36B002B6DD1023377
:102F4000E363FFF7D3FB4346A362E76201235B42DF
:102F5000636323630023A36314220021200001F094
:102F6000DFFC2600143614220021300001F0D8FCCA
:102F7000012201212000FEF75BFB051E51D1012239
:102F800000213000FEF754FB051E4AD1274B59693A
:102F90008020800201435961DA690243DA615A698B
:102FA00001210A435A619022D2051368F02083431D
:102FB000503803431360106A1D4B034088204001C2
:102FC000034313621B4B1A688A431A60A222FF3222
:102FD000DA60E13A9A60B33A1A6019003332CB6989
:102FE0001A42FCD04022134B1A62134B1A68012676
:102FF000B2431A60A0221A6042465A600F4A9A6091
:10300000DF601A6832431A60FFF76CFBE663FFF774
:103010006DFB06E005256D4203E0FFF767FB082521
:103020006D42280004BC9046F0BDC046001002402E
:10303000FF00FFFF004400405800024024440040CD
:10304000F8B5041E34D0FFF74DFBE36B012B32D1F2
:103050000133E363FFF74AFB8021C9008023184A4C
:10306000D150184F380000F013F9174E300000F01F
:103070000FF9164D00224021280001F02FF8002200
:103080008021280001F02AF80021380000F074F9AE
:103090000021300000F070F90021280000F086FEC9
:1030A000FFF720FB0023E363FFF720FB002005E090
:1030B0000520404202E0FFF719FB0020F8BDC046A2
:1030C00000E100E05800024044000240004400409B
:1030D000F8B54F464646C0B4041E88463DD0002988
:1030E0003ED0002A3FD0436B0363836A161E9E4284
:1030F00000D91E000025274F002399467B68A26B4C
:103100009B18A16A8B4213D1002D3EDC636B002B10
:1031100033D0E36B012B33D10120FEF781FF636BCA
:103120000133EBD0236B013B2363002B2BD0E5E76E
:10313000E36A9B5C424653550135B54216DAA36BF0
:103140000133A363A26A9342D8D34B4600E0012324
:103150004A46A263002BD1D017E005256D4214E04A
:1031600005256D4211E005256D420EE0A36B01338C
:10317000A363A26A9342EAD207E004256D4204E009
:1031800008256D4201E004256D4228000CBC9046E4
:103190009946F8BD58000240F8B54F464646C0B4BF
:1031A00004000F00904600283AD000293BD0002AA6
:1031B0003CD001214942FEF7FFFA061E38D11F4DCF
:1031C0002A6801239A432A601D4A2A6042466A609F
:1031D0001C4AAA60EF602A6813432B601A4A93685E
:1031E000802188460B439360184FC2229200BB583F
:1031F0001B021B0ABB5080231B0199463B60200029
:1032000014301349FEF7D8FA06000021280000F018
:10321000B3F843464A46FA502000FEF789FA07E021
:103220000526764204E00526764201E00526764230
:1032300030000CBC90469946F8BDC04644000240A0
:103240009A200000284400400044004000E100E0D3
:103250008813000010B5041E08D001F001FC020420
:10326000120C21000348FFF797FF01E008204042BD
:1032700010BDC046581C002000B583B001A90870DD
:1032800001220248FFF788FF03B000BD581C002050
:1032900002681C4B1340036000230360436083609B
:1032A000C360194B984205D1184A51680F230B434C
:1032B000536025E0164B984205D1144A5168F0231B
:1032C0000B4353601CE0134B984206D10F4A5368DE
:1032D000F02109010B43536012E00F4B984206D1D5
:1032E0000A4A5368F02109020B43536008E00B4B74
:1032F000984205D1054A5368F02109030B435360F6
:103300007047C046FEFF0000080002400000024077
:103310001C000240300002404400024058000240BD
:1033200010B502680C4B1A408B680C6A23430C6979
:1033300023434C6923438C692343CC6923434C6A60
:1033400023438C6A234313430360CB6843600B68B9
:1033500083604B68C36010BD0F80FFFF00230360D4
:1033600043608360C360036143618361C36103623F
:10337000436283627047C046002904D0026801237B
:103380001343036003E00268014B1340036070477E
:10339000FEFF00007047C04641607047406880B241
:1033A0007047C046002A03D003681943016002E059
:1033B00003688B43036070470023C20001D4034BB2
:1033C0001B680340581E8341D8B27047000002407A
:1033D000C30001D4014B58607047C0460000024052
:1033E0000023C20001D4034B1B680340581E8341D5
:1033F000D8B2704700000240C30001D4014B5860AE
:103400007047C0460000024010B59023DB0598428B
:103410000AD18024A4020121200000F06FFB0021CA
:10342000200000F06BFB36E01B4B98420AD1802451
:10343000E4020121200000F061FB0021200000F0E7
:103440005DFB28E0154B98420AD18024240301211A
:10345000200000F053FB0021200000F04FFB1AE099
:103460000F4B98420AD1802464030121200000F010
:1034700045FB0021200000F041FB0CE0094B984285
:1034800009D18024E4030121200000F037FB002152
:10349000200000F033FB10BD000400480008004885
:1034A000000C004800140048F0B5474680B40025E1
:1034B000002301229046032744469C400A6822408C
:1034C000944233D10A79013A012A19D882683E0020
:1034D000AE40B243826082684E79AE403243826031
:1034E00042689446E24394B26246144044604468A1
:1034F0008A791E04360CB2401204120C2243426038
:1035000002683C00AC40A243026004680A79AA4009
:1035100022430260C2681C04E40B3E00A640B24392
:10352000C260C468CA79AA402243C260013302352E
:10353000102BC1D104BC9046F0BDC046044B0360C3
:1035400000230371012242718371C3717047C04629
:10355000FFFF000082B080235B020193019B0B43BD
:103560000193019BC361C161019BC361C369019365
:10357000C369019302B0704700690840411E884149
:10358000C0B27047006980B27047C04640690840C9
:10359000411E8841C0B27047406980B27047C04642
:1035A0008161704781627047002A01D0816100E02B
:1035B000816270474161704710B507230B409B0043
:1035C000C90889004018016A0F249C40A143016288
:1035D000016A9A400A43026210BDC046114B1A6844
:1035E00001210A431A6058680F4A02405A6018685D
:1035F0000E4A02401A6018680D4A02401A60586864
:103600000C4A02405A60DA6A0F208243DA62186B71
:10361000094A02401A635A6B8A435A6300229A602D
:103620007047C046001002400CB8FF08FFFFF6FECE
:10363000FFFFFBFFFFFFC0FFACFEF0FF024B0022CD
:103640001A7018707047C04602100240034A13688F
:10365000F8218B43C00018431060704700100240EF
:10366000002805D0054A116801230B43136004E0CC
:10367000024A136801218B43136070470010024017
:10368000034A536BF8218B43C000184350637047C3
:1036900000100240002805D0054A516B01230B435E
:1036A000536304E0024A536B01218B435363704719
:1036B00000100240002805D0054A536B04218B43BB
:1036C000536304E0024A516B04230B435363704776
:1036D00000100240064B1A6A01218A431A621A6AD4
:1036E00003318A431A621A6A104318627047C0464F
:1036F00000100240044B1A6A18218A431A621A6A9F
:10370000104318627047C04600100240002805D0E0
:10371000054A516A01230B43536204E0024A536A8B
:1037200001218B43536270470010024010B5054BD6
:103730005C68054A22405A605A6811430843586041
:1037400010BDC04600100240FF7FC2FF002806D017
:10375000064A1368802149040B43136004E0034ABE
:103760001168034B0B4013607047C04600100240C5
:10377000FFFFFFFE034AD36A0F218B431843D06239
:103780007047C04600100240002806D0064A136861
:10379000802109030B43136004E0034A1168034BC3
:1037A0000B4013607047C04600100240FFFFF7FF58
:1037B000044A53681B021B0A194300060143516067
:1037C0007047C04600100240034A536803218B43F0
:1037D000184350607047C04600100240024B5B68BF
:1037E0000C2018407047C04600100240034A53683E
:1037F000F0218B43184350607047C04600100240D0
:10380000034A5168034B0B40184350607047C04651
:1038100000100240FFF8FFFF094B5968094A0A40AF
:103820005A6059680204120C0A435A60196B064A1E
:103830000A401A631A6B000C104318637047C046A5
:1038400000100240FFBFFFFFFFFEFFFF044B1A6B9B
:1038500040218A431A631A6B104318637047C046AD
:1038600000100240044B1A6B10218A431A631A6B32
:10387000104318637047C04600100240030F012B2D
:1038800005D1094A136B03218B43136306E0022B16
:1038900004D1054A116B054B0B401363024A136BAD
:1038A000184310637047C04600100240FFFFFCFF42
:1038B000044B1A6B80218A431A631A6B10431863F6
:1038C0007047C0460010024070B50400574B5B685B
:1038D0000C221340042B0BD002D8002B05D025E07E
:1038E000082B08D00C2B1ED020E0514B03601FE0AA
:1038F0004F4B03601CE04D4B5D685A68AD022D0FC5
:103900000235C0235B021A4202D14A48454308E00F
:10391000464BDB6A0F2119400131454800F04CFE4F
:103920004543256004E0444B036001E0404B2360C5
:103930003E494B681B061B0F4048C35CDBB2256841
:103940002A00DA40130062604A685205520F825C16
:10395000D2B2D340A3600A6BD20502D4384AE260E7
:1039600008E0324A5268520402D45A08E26001E088
:103970009A08E2602D4A126B520602D4314A226143
:1039800002E0802212022261284A126BD20602D47F
:10399000274A626100E06561244A126B920701D1F7
:1039A000A36118E0214A126B03210A40012A01D1C8
:1039B000A56110E01D4A126B03210A40022A03D1BF
:1039C00080221202A26106E0184A126BD2439207CB
:1039D00001D1174AA261154A116BC022920211420D
:1039E00001D1E36120E0114B1A6BC0239B0213400D
:1039F00080225202934201D1E56115E00B4B1A6B14
:103A0000C0239B02134080229202934203D1802361
:103A10001B02E36108E0054B1B6BC02292021340BE
:103A2000934201D1024BE36170BDC04600100240D9
:103A300000127A0000093D00006CDC020400002046
:103A4000809FD50012800000024B1A6A1043186252
:103A50007047C04600100240002806D0064A136A8C
:103A6000802109020B43136204E0034A116A034BED
:103A70000B4013627047C04600100240FF7FFFFFFB
:103A8000002806D0064A136A802149020B431362BC
:103A900004E0034A116A034B0B4013627047C046AF
:103AA00000100240FFFFFEFF002904D0044B5A69BA
:103AB0001043586103E0024A5369834353617047DE
:103AC00000100240002904D0044B9A691043986109
:103AD00003E0024A936983439361704700100240F8
:103AE000002904D0044BDA691043D86103E0024A8C
:103AF000D3698343D361704700100240002904D08A
:103B0000044B9A6A1043986203E0024A936A834323
:103B10009362704700100240002904D0044BDA6819
:103B20001043D86003E0024AD3688343D3607047F0
:103B300000100240002904D0044B1A691043186198
:103B400003E0024A13698343136170470010024087
:103B5000002904D0044B1A781043187003E0024A7D
:103B60001378834313707047091002400300420921
:103B700002D10A4A10680BE0012A02D1074A106AF2
:103B800006E0022A02D1054A506A01E0034A506B5E
:103B90001F221340D84001231840704700100240F4
:103BA00010B582B000230193A024E4011120FFF797
:103BB000DDFF019B01330193019BA34201D000284B
:103BC000F4D01120FFF7D2FF431E9841C0B202B0DB
:103BD00010BDC046034A536A802149040B43536217
:103BE0007047C04600100240034B9B681840431EBC
:103BF0009841C0B27047C04600100240014B187097
:103C00007047C0460A10024010B51C4B98420AD1BA
:103C10008024E40101212000FFF77EFF0021200025
:103C2000FFF77AFF28E0164B98420AD18024A402BD
:103C300001212000FFF77EFF00212000FFF77AFF1F
:103C40001AE0104B98420AD18024E402012120009E
:103C5000FFF770FF00212000FFF76CFF0CE00A4B1C
:103C6000984209D18024240301212000FFF762FF3C
:103C700000212000FFF75EFF10BDC0460038014064
:103C80000044004000480040004C0040F0B58DB0BA
:103C900004000F00036801229343036042682B4B2A
:103CA00013408A68134343600268294B1A404B68EB
:103CB000C9680B4339690B43134303608268254B82
:103CC00013407A691343836002A8FFF7FDFD224B7E
:103CD0009C4201D1089E0AE0204B9C4201D1099EE2
:103CE00005E01F4B9C4201D10A9E00E0049E236820
:103CF0001B040CD576003B6801931900300000F0DE
:103D00005BFC05000199300000F0DCFC0AE03B6838
:103D100001931900300000F04FFC050001993000BC
:103D200000F0D0FC3A685208002391425B41ED1844
:103D300023681B0404D52A07520F0A4B1D40154364
:103D40002D042D0CE5600DB0F0BDC046FFCFFFFF88
:103D5000F3E9FFEFFFFCFFFF0038014000440040A3
:103D600000480040F0FF000096239B010360002301
:103D700043608360C3600C22026143617047C046A8
:103D800010B54268054B1A400B684C6823438C6899
:103D90002343C9680B431343436010BDFFF0FFFF8B
:103DA0000023036043608360C3607047002904D030
:103DB000026801231343036003E003680122934375
:103DC00003607047002A03D003681943016002E0D2
:103DD00003688B4303607047002905D00368802285
:103DE00012021343036003E00268024B13400360B6
:103DF0007047C046FF7FFFFF002905D083688022FF
:103E000012011343836003E08268024B1340836016
:103E10007047C046FFF7FFFF002905D043688022A6
:103E200012031343436003E04268024B13404360B4
:103E30007047C046FFFFF7FF002905D04368802286
:103E4000D2021343436003E04268024B13404360D5
:103E50007047C046FFFFFBFF002A03D043681943A9
:103E6000416002E043688B4343607047002905D0FE
:103E70004368802212021343436003E04268024B0E
:103E8000134043607047C046FF7FFFFF002905D005
:103E90004368802212041343436003E04268024BEC
:103EA000134043607047C046FFFF7FFF43691B0E0E
:103EB0001B06436143691943416170470269FF234F
:103EC0001B02134003610369194301617047C04637
:103ED000002904D0026802231343036003E003684F
:103EE00002229343036070478268034B1340836050
:103EF0008368194381607047FFFFCFFF002905D019
:103F00004368802252031343436003E04268024B3C
:103F1000134043607047C046FFFFEFFF4268034B0A
:103F2000134043604368194341607047FFFF9FFFA0
:103F3000C905C90D01857047808CC005C00D70474B
:103F400043681B021B0A436043680906194341602A
:103F50007047C046002905D00368802292011343B0
:103F6000036003E00268024B134003607047C046E1
:103F7000FFDFFFFF0268034B134003600368194330
:103F800001607047FFF7FFFF4368102293434360CF
:103F9000436819434160704743682022934343605C
:103FA0004368194341607047002905D04368802267
:103FB000D2011343436003E04268024B1340436065
:103FC0007047C046FFBFFFFF002904D08268082366
:103FD0001343836003E08368082293438360704740
:103FE0000369FF2213400361036909021943016158
:103FF0007047C046002904D08268202313438360A1
:1040000003E083682022934383607047002904D033
:10401000826810231343836003E083681022934374
:10402000836070478268044B13408360836849044F
:10403000194381607047C046FFFFF1FF43691B02CF
:104040001B0A436143690906194341617047C04631
:1040500083680422934383608368194381607047B7
:10406000002904D0826802231343836003E083683D
:104070000222934383607047002905D08368802221
:10408000D2011343836003E08268024B13408360D4
:104090007047C046FFBFFFFF8268034B1340836039
:1040A0008368194381607047FF7FFFFF0268044BFC
:1040B0001340036003684905194301607047C04617
:1040C000FFFF1FFC0268044B1340036003680904F0
:1040D000194301607047C046FFFFE0FF002A03D08C
:1040E00083681943816002E083688B438360704773
:1040F0008268034B13408360836819438160704773
:10410000FFDFFFFF30B504000D0A1F2319401E3BDF
:104110008B40022D01D1041D03E0032D01D1083095
:104120000400002A03D022681343236002E02268BF
:104130009A43226030BDC046002A05D08369090435
:10414000090C1943816104E083690904090C8B435C
:10415000836170478268034B13408360836819430F
:1041600081607047FFEFFFFFC36919400800411EDF
:104170008841C0B27047C0460162704710B50C0A52
:104180001F220A4001239340012C02D102681340F0
:1041900006E0022C02D14268134001E0826813401D
:1041A000C2690020002B06D0090C01308840104065
:1041B000431E9841C0B210BD090C01238B4003621D
:1041C0007047C0462E4B1A6801210A431A6058688E
:1041D0002C4A02405A6018682B4A02401A6018683C
:1041E0002A4A02401A605868294A02405A60DA6A2C
:1041F0000F208243DA62186B264A02401A63186B5A
:10420000802202431A635A6B8A435A6300229A60DF
:104210001A68902109030A431A6019008022920249
:104220000B681342FCD011221B4B1A60144B5A68C6
:104230005A605A685A605968184A0A405A605A685F
:10424000882149030A435A601A68802149040A43B5
:104250001A601900802292040B681342FCD0084BAC
:104260005A6803218A435A60596802220A435A60F5
:1042700019000C224B681340082BFBD17047C04635
:10428000001002400CB8FF08FFFFF6FEFFFFFBFF27
:10429000FFFFC0FF6CFEFFFF00200240FF7FC0FF5A
:1042A00010B5204B5B680C221340042B07D0082B61
:1042B00009D0002B26D11C4A1C4B1A6025E01A4A53
:1042C0001A4B1A6021E0174A54685068A40C0F2159
:1042D0000C400234D36A19400131C0235B02034011
:1042E00080225202934206D10F4800F065F9444300
:1042F0000E4B1C6009E00C4800F05EF944430B4B88
:104300001C6002E0084A094B1A60064B5B681B06FA
:104310001B0F064AD3181B79DBB21168D940116014
:1043200010BDC0460010024000127A0014000020A8
:1043300010B50400E422002100F0F2FA6023A3602B
:1043400020003830E0602300283363610B4B1B688A
:10435000A3610B4BE3610B4B23620B4B6362602247
:10436000002100F0DDFA2200A4329823E25040221E
:104370000433E25000220433E25010BDC84A000862
:10438000CC4A0008553200087932000810B50023E5
:10439000002201210248FCF76DF9002010BDC04643
:1043A000281C002010B5036A002B03D00800984792
:1043B000002001E00120404210BDC04610B50400BD
:1043C000036A002B08D0002901D005489847236ACA
:1043D00004489847002001E00120404210BDC0463B
:1043E0001C4C0008044C00080123036100207047A6
:1043F00010B5436A002B03D008009847002001E065
:104400000120404210BDC04610B5436A002B03D0C6
:1044100008009847002001E00120404210BDC0463E
:1044200010B504000368002B3AD10D2926D043684B
:104430008268934222DA082901D07F2910D1002B0B
:1044400032DD013B636008212000FFF7D1FF20210E
:104450002000FFF7D9FF08212000FFF7D5FF23E058
:10446000581C824220DD0A00203A5F2A1CD8606076
:10447000E268D1542000FFF7BBFF15E00023E2689B
:10448000616853540D212000FFF7B2FF0A2120007C
:10449000FFF7AEFF012323602000FFF777FF03E063
:1044A000032901D10123036110BDC04670B504008A
:1044B00000254560C3681D70FFF780FFFEF712F905
:1044C0002560FEF713F970BDF0B5020000230B6004
:1044D0004B608B60CB600600002400200025002785
:1044E0001378092B03D0202B01D0002B0DD1012CE8
:1044F00006D1177084006650013003280FDC3C00A1
:10450000002D06D1002B0AD007E0002C01D11600A7
:104510000134012D01D1002001E00132E0E7F0BDBE
:10452000F0B583B006004169C068FFF7CDFF0028F1
:1045300004DDB7690025002F21DD06E000213000F1
:10454000FFF7B4FF0124644227E073691B680093FE
:10455000F469002501942168009800F027FA0028EA
:1045600008D1019B5B683000984701213000FFF7BC
:104570009DFF04E001350834BD42EBD103E0002487
:10458000B369AB4209D10B493000FFF70BFF0121A2
:104590003000FFF78BFF01246442B2680021F0680D
:1045A00000F0BEF970691022002100F0B9F9200076
:1045B00003B0F0BD0C4C0008002243088B4274D3BA
:1045C00003098B425FD3030A8B4244D3030B8B4214
:1045D00028D3030C8B420DD3FF22090212BA030C1D
:1045E0008B4202D31212090265D0030B8B4219D3FE
:1045F00000E0090AC30B8B4201D3CB03C01A52411E
:10460000830B8B4201D38B03C01A5241430B8B4265
:1046100001D34B03C01A5241030B8B4201D30B034E
:10462000C01A5241C30A8B4201D3CB02C01A524175
:10463000830A8B4201D38B02C01A5241430A8B4238
:1046400001D34B02C01A5241030A8B4201D30B0221
:10465000C01A5241CDD2C3098B4201D3CB01C01A3B
:10466000524183098B4201D38B01C01A5241430945
:104670008B4201D34B01C01A524103098B4201D333
:104680000B01C01A5241C3088B4201D3CB00C01AA0
:10469000524183088B4201D38B00C01A5241430818
:1046A0008B4201D34B00C01A5241411A00D201463D
:1046B000524110467047FFE701B5002000F0F0F8C6
:1046C00002BDC0460029F7D076E7704703460B438A
:1046D0007FD4002243088B4274D303098B425FD3FB
:1046E000030A8B4244D3030B8B4228D3030C8B4227
:1046F0000DD3FF22090212BA030C8B4202D312120D
:10470000090265D0030B8B4219D300E0090AC30BE1
:104710008B4201D3CB03C01A5241830B8B4201D38E
:104720008B03C01A5241430B8B4201D34B03C01A77
:104730005241030B8B4201D30B03C01A5241C30AEF
:104740008B4201D3CB02C01A5241830A8B4201D360
:104750008B02C01A5241430A8B4201D34B02C01A4A
:104760005241030A8B4201D30B02C01A5241CDD2EF
:10477000C3098B4201D3CB01C01A524183098B423A
:1047800001D38B01C01A524143098B4201D34B0123
:10479000C01A524103098B4201D30B01C01A524186
:1047A000C3088B4201D3CB00C01A524183088B420D
:1047B00001D38B00C01A524143088B4201D34B00F6
:1047C000C01A5241411A00D2014652411046704768
:1047D0005DE0CA0F00D04942031000D3404253406D
:1047E00000229C4603098B422DD3030A8B4212D32D
:1047F000FC22890112BA030A8B420CD3890192115F
:104800008B4208D3890192118B4204D389013AD09B
:10481000921100E08909C3098B4201D3CB01C01A70
:10482000524183098B4201D38B01C01A5241430983
:104830008B4201D34B01C01A524103098B4201D371
:104840000B01C01A5241C3088B4201D3CB00C01ADE
:10485000524183088B4201D38B00C01A5241D9D2F6
:1048600043088B4201D34B00C01A5241411A00D277
:104870000146634652415B10104601D34042002B73
:1048800000D54942704763465B1000D3404201B5F2
:10489000002000F005F802BD0029F8D016E77047A7
:1048A0007047C04670B50F2A32D90C0004430B0084
:1048B000A40731D115000400103D2D0901352D014B
:1048C00049191E6826605E6866609E68A660DE689C
:1048D0001033E66010349942F3D10F234519134089
:1048E000032B1BD91C1F0023A4080134A400CE589D
:1048F000EE5004339C42FAD103232D1909191A40B2
:1049000005D00023CC5CEC5401339A42FAD170BD3F
:104910000500002AF5D1FAE70500F2E71A00F8E7EA
:1049200070B583073FD0541E002A3BD0CEB203009F
:10493000032503E0621E002C34D0140001335A1EFC
:1049400016702B42F6D1032C24D9FF250D402A02E4
:1049500015432A0415430F2C11D92600103E3609A1
:10496000013636011A009B19156055609560D560B7
:1049700010329342F8D10F221440032C0AD9261F7B
:10498000B6080136B6001A009B1920C29342FCD12A
:1049900003221440002C05D0C9B21C191970013330
:1049A0009C42FBD170BD14000300CCE7F0B500259C
:1049B0000326124B1F68435DFA1852783240012AD1
:1049C00010D04A5DBC1864783440012C11D09B1A79
:1049D00012D1002A10D00135435DFA1852783240C6
:1049E000012AEED14A5D2033BC1864783440012C92
:1049F000EDD120329B1AEED01800F0BD2800002027
:104A000070B50500830717D102680F4BD318934385
:104A10000E4A140013420FD1043002680A4BD31817
:104A20009343234208D104300268074BD3189343C1
:104A30002342F1D000E001300378002BFBD100F0DD
:104A400007F8280070BDC046FFFEFEFE8080808013
:104A5000031C0A7801311A700133002AF9D170471A
:104A600010B5830727D00378002B26D0030003213D
:104A700002E01A78002A1CD001330B42F9D11968E0
:104A80000F4A104C8A188A4322420FD10433196806
:104A90000B4A8A188A43224208D104331968084A0B
:104AA0008A188A432242F1D000E001331A78002AA2
:104AB000FBD1181A10BD0300E1E70020FAE7C04659
:104AC000FFFEFEFE8080808006000000C04B0008D4
:104AD000492A0008C44B0008592A0008C84B00089E
:104AE000692A0008D04B0008792A0008D84B000832
:104AF000892A0008E04B00080D2B000854686973F0
:104B000020697320612050535720636D642E0D0A75
:104B100000000000566572202D20332E302E0D0A25
:104B20000000000054686973206973206120434DC0
:104B300044312E0D0A000000546869732069732007
:104B40006120434D44322E0D0A0000005468697301
:104B5000206973206120434D44332E0D0A0000006C
:104B600054686520737461636B20225573616765B7
:104B70002220616E64202253697A65222076616C5E
:104B80007565732061726520696E207468652027E1
:104B9000696E7427286E6F74206279746573290DAD
:104BA0000A0000005461736B3A20000020200000CE
:104BB00055736167653A200053697A653A200000B1
:104BC0007073770076657200636D643100000000D9
:104BD000636D643200000000636D64330000000008
:104BE00064756D705F73746B00000000556E6B6EC2
:104BF0006F776E206D73672E0D0A0000436E743A56
:104C0000200000005348454C4C3E00000D0A5772EE
:104C10006F6E6720636F6D6D616E64210D0A000019
:104C2000002020202020202020202828282828207C
:104C30002020202020202020202020202020202074
:104C400020881010101010101010101010101010DC
:104C500010040404040404040404041010101010CC
:104C60001010414141414141010101010101010196
:104C700001010101010101010101010110101010E8
:104C80001010424242424242020202020202020268
:104C900002020202020202020202020210101010BC
:104CA00020000000000000000000000000000000E4
:104CB00000000000000000000000000000000000F4
:104CC00000000000000000000000000000000000E4
:104CD00000000000000000000000000000000000D4
:104CE00000000000000000000000000000000000C4
:104CF00000000000000000000000000000000000B4
:104D000000000000000000000000000000000000A3
:104D10000000000000000000000000000000000093
:104D2000000000001C4880471C491D4A0020521A00
:104D300002DD043A8850FCDC1A491B4A1B4B9B1AC3
:104D400003DD043BC858D050FBDC00200146FEF7D1
:104D500065F8FEE7FEE7FEE7FEE7FEE7FEE7FEE7B3
:104D6000FEE7FEE7FEE7FEE7FEE7FEE7FEE7FEE71B
:104D7000FEE7FEE7FEE7FEE7FEE7FEE7FEE7FEE70B
:104D8000FEE7FEE7FEE7FEE7FEE7FEE7FEE7FEE7FB
:104D9000FEE7FEE7FEE70000C54100083000002006
:104DA000F01C0020B04D0008000000202C00002066
:104DB000081A00200000000001020304010203049D
:104DC00006070809006CDC0200000000000000007B
:084DD0000102030406070809B3
:044DD800204C000863
:0400000508000000EF
:00000001FF
