:10000000F07F0010553C0000873C0000893C000058
:100010008B3C00008D3C00008F3C0000CC01FEEFCB
:10002000000000000000000000000000913C000003
:10003000933C000000000000270E0000550C00005B
:10004000993C00009B3C00009D3C00009F3C000050
:10005000A13C0000650C0000A53C0000A73C00008E
:10006000A93C0000AB3C0000AD3C0000AF3C0000F0
:10007000B13C0000B33C0000B53C0000B73C0000C0
:10008000B93C0000BB3C0000BD3C0000BF3C000090
:10009000C13C0000C33C0000C53C0000C73C000060
:1000A000C93C0000CB3C0000CD3C0000CF3C000030
:1000B000D13C0000D33C0000D53C0000D73C000000
:1000C000D93C00000649086840F0807040F04000CC
:1000D00040F4803040F0100040F4805008607047D9
:1000E000A8C10F4070B5164D164E94B000240134CF
:1000F000E3074BBF33682B6843F0806343F08063B2
:100100004CBF33602B600523B4FBF3F303EB830395
:100110009C4210D110226946204600F0DFF90A49BE
:10012000684603F0B7FB094904A803F0D3FB69460E
:1001300004A803F0AFFB642003F050F8D7E700BF3A
:1001400038C009203CC00920423A0000EC390000C8
:1001500007B54FF0FF3201A9074801F037F9002831
:10016000F7DB019B012B03D1044800F0C1FAF0E753
:10017000034800F0B1FCECE7781F00100800001005
:100180001C3A000030B589B020226946074800F0CB
:100190000FFC051EF8DD00241DF80410044801348E
:1001A00000F02EFAA542F7DCEEE700BFA81F001012
:1001B0000800001008B54FF0FF31054802F0A6FB1B
:1001C0000028F8DB02F068FD03F0AAF9F3E700BFAE
:1001D0008022001008B500F07FF8054800F0AAF969
:1001E00000221146104600F0B9FE00B1FEE708BD3E
:1001F0000800001030B5274B00221A6085B04FF47C
:1002000080722549254800F049FB024600283DD16F
:1002100023488023C2642349029301920093224B16
:1002200002F0CEFD0246002830D1204801254FF4CF
:100230000074C2641E4B01920295032200941D4972
:1002400002F0BEFD024608BB1B481C4BC2641C49A1
:10025000019202950622009402F0B2FD0246A8B96E
:100260001848194BC264194901920295082200945A
:1002700002F0A6FD024648B915484023C262154A5D
:10028000082105B0BDE8304000F076BF104605B04B
:1002900030BD00BFF01D0010801A0010A81F001014
:1002A000101A0010B5010000EC1D0010F010001035
:1002B000EC08001085010000601900105C190010A6
:1002C00051010000801B0010EC100010E500000040
:1002D000781F0010D0190010704B20221A601A6885
:1002E0005006FCD56E4B02221A606E4A01230B2188
:1002F000136042F8881C8C3A13606B4BAA2119607A
:100300006A485521196001684901FCD568490868A7
:10031000C0F30B000860086840F4804008600321C7
:100320001160AA221A6055221A60624B62481A684C
:100330000A431A60614A116841F0030111601968AB
:1003400041F4F8711960116841F4F871116019688D
:1003500041F400711960016841F40071016019688D
:1003600041F440611960116841F4406111601968FD
:1003700041F0FF5141F4C0111960136843F0FF537D
:1003800043F4C013136091684D4B0B4393604D4B86
:100390004B4918680143196091684B4841F08061EE
:1003A0009160196841F080611960016841F4800131
:1003B000016000F5502000F5DE70016841F488719D
:1003C00001609168414841F0704191601A6842F0C3
:1003D00070421A603E4A136843F0070313603D4BB6
:1003E000196841F007011960116841F008011160B6
:1003F000196841F008011960116841F0100111609D
:10040000196841F010011960116841F02001116074
:10041000196841F020011960116841F080011160F4
:10042000196841F080011960116841F44071116050
:10043000196841F440711960116841F4006111605C
:10044000196841F400611960116841F4805111602C
:10045000196841F480511960116841F4005111602C
:100460001A6842F400521A601B4A1368383243F08B
:10047000007342F8383C52F8203C43F0007342F8D5
:10048000203C52F8183C43F0405342F8183C1368A3
:1004900043F04053136000F0C7BB00BFA0C10F4042
:1004A00004C10F400CC10F408CC00F4088C00F40EA
:1004B00000C00F4000C009201CC0092018C009203E
:1004C0001303F00138C009200CC00240007701007E
:1004D00040C0092058C0092060C009200B460028F0
:1004E000F0B5BBBF2D2403F8014B00240124B8BF95
:1004F00040420A27E51A90FBF7FE1C4607FB1E0048
:10050000303004F8010B7046661910B9B24206D8B3
:1005100003E0B24201D92346EDE700220A7000222F
:1005200022701A78087803F8010901F8012B8B4230
:10053000F7D8F0BD10B50446E422002103F038F9E5
:1005400004F1280363610E4B60221B6804F138003C
:10055000A3610C4BA260E3610B4BE06023620B4B89
:100560000021636203F024F904F1A403C4F8983075
:100570004023C4F89C300023C4F8A03010BD00BF55
:10058000483A0000203B0000D90A0000FD0A0000A4
:1005900008B500231A460121024800F0A7FF0020F9
:1005A00008BD00BF781F001008B5036A1BB10846DC
:1005B0009847002008BD4FF0FF3008BD036A10B512
:1005C00004463BB109B105489847236A0448984757
:1005D000002010BD4FF0FF3010BD00BF423A0000B8
:1005E0002B3A0000012303610020704708B5436ADD
:1005F0001BB108469847002008BD4FF0FF3008BDEA
:10060000036870B50446C3BB0D29436823D08668D0
:10061000B34220DA082901D07F290ED1002B30DD2A
:10062000013B636008212046FFF7E0FF20212046C0
:10063000FFF7DCFF0821204609E05D1CAE4220DD0B
:10064000A1F120065F2E1CD8C6684560F154BDE8B4
:100650007040FFF7CBBFE2680021D15420460D2146
:10066000FFF7C4FF20460A21FFF7C0FF01232360E4
:100670002046BDE87040FFF78BBF032904BF01236C
:10068000036170BDFFF7B2BF38B50446C3680025EB
:1006900045601D70FFF792FF00F012FC2560BDE879
:1006A000384000F011BC0023F0B51A4604461E463F
:1006B0000B604B608B60CB60274614F8015B092D03
:1006C00002D0202D00D045B953B104F8016C41F897
:1006D00022000132032A08DC02E023B9384602E096
:1006E0001DB10023E8E70123E6E71046F0BD000056
:1006F000F8B541690446C068FFF7D5FF002802DD60
:10070000A669002502E000211CE00135B54211DA9E
:10071000E369626953F83510106803EBC50703F00D
:1007200095F80028F1D17B682046984701212046A2
:10073000FFF7AAFFA3699D420AD10C492046FFF7A3
:1007400033FF01212046FFF79FFF4FF0FF3500E008
:100750000025A2680021E06803F02AF81022002199
:10076000606903F025F82846F8BD00BF323A000062
:1007700008B5024800F0B0F9002008BD4C3A00006E
:1007800008B5024800F0A8F9002008BD613A000051
:1007900008B5024800F0A0F9002008BD6E3A00003C
:1007A00008B5024800F098F9002008BD803A000022
:1007B00008B5024800F090F9002008BD923A000008
:1007C0002DE9F0412D4E8AB02D4800F085F92D4FCE
:1007D0007468B4424ED0D4F80480183C256B606B2A
:1007E0000435A5EB80052B682A1DBB4201D11546B7
:1007F000F9E7254904A803F06DF81022206C69463A
:10080000FFF76CFE694604A803F044F81F4904A8EA
:1008100003F040F804A800F05FF91D4904A803F0B4
:1008200059F8206B10220430401B69468008FFF7FE
:1008300055FE694604A803F02DF8144904A803F0F6
:1008400029F804A800F048F9124904A803F042F876
:100850001022606B6946FFF741FE694604A803F069
:1008600019F80D4904A803F015F804A800F034F9AC
:100870004446AEE700200AB0BDE8F081DC2200105B
:10088000A43A0000EFBEADDEE63A0000ED3A00000B
:10089000F03A0000F83A0000423A0000F8B50F467E
:1008A0001646044600284ED000294CD00F2A4AD9BB
:1008B00000F006FB256C02230DB9236400E01D4601
:1008C00000F002FB002D41D14FF0FF33E363A3633F
:1008D0006763266314222946A562E562204604F177
:1008E000140702F065FF14222946384602F060FF23
:1008F00001221146204601F01DFF064640BB0122A1
:100900002946384601F016FF064608BB114A12492F
:100910001368342043F050031360104B80221A6098
:100920000F4A156008601D60C121012515605160E6
:1009300013221A60052000F009F900F0C1FA2564BD
:1009400000F0C2FA04E06FF0040601E06FF0070661
:100950003046F8BD00C0024000C000400CC000405E
:1009600004C0004038B50546D0B100F0A9FA2C6C9F
:100970000223012C14BF1C462B6400F0A5FA012CA5
:100980004FF000040FD1052000F0ECF8074B1C607D
:10099000DA6ADC6200F094FA2C6400F095FA02E066
:1009A0006FF0040038BD204638BD00BF04C00040D1
:1009B0002DE9F04789460446002846D0002944D056
:1009C000002A42D0076B254E97424FF0000528BF02
:1009D0001746B046AA46C36B83633368A26A23F006
:1009E00001033360E36A9A4218D13368002D43F063
:1009F000010333602EDCE36B13B96FF0030529E0CC
:100A0000206C012824D102F0E9FBE36B0133E4D030
:100A1000A36B013BA363002BEFD0DEE7636B9B5C12
:100A200009F80530A36A226B0133A3629342D8F818
:100A3000003005F1010528BFC4F828A043F00103E8
:100A4000BD42C8F80030C8DB04E06FF0040501E0E7
:100A50006FF007052846BDE8F08700BF04C00040DE
:100A60002DE9F8430E461546074658B351B34AB32D
:100A700044F6206101F04AFF0446F8B9DFF85090CF
:100A8000DFF850802B46102D28BF1023ED1A334479
:100A900016F8012BB342C9F80020F9D1D8F800307C
:100AA00041F2883143F00203C8F8003007F1140026
:100AB00001F02CFF041E01DB002DE3D1384601F0CC
:100AC000E3FE01E06FF004042046BDE8F88300BFB8
:100AD00000C0004004C0004010B5044640B102F020
:100AE00057FF2146BDE8104002460348FFF7B8BF54
:100AF0006FF0070010BD00BFA81F001007B502A9C6
:100B000001F8040D01220348FFF7AAFF03B05DF8C6
:100B100004FB00BFA81F0010074A0002D36800F4BE
:100B2000E06023F470631B041B0C43F0BF6343F4C9
:100B300000330343D360704700ED00E0024BD868F8
:100B4000C0F30220704700BF00ED00E0420901231E
:100B500000F01F0003FA00F0014B43F82200704739
:100B600000E100E04309012200F01F0002FA00F05A
:100B7000024A203342F82300704700BF00E100E042
:100B80004309074A403352F8232000F01F00012395
:100B900003FA00F030EA02030CBF01200020704786
:100BA00000E100E04309012200F01F0002FA00F01A
:100BB000024A403342F82300704700BF00E100E0E2
:100BC0004309012200F01F0002FA00F0024A6033DC
:100BD00042F82300704700BF00E100E04309074AE4
:100BE000803352F8232000F01F00012303FA00F0A5
:100BF00030EA02030CBF01200020704700E100E052
:100C000000284FEA0111AFBF00F16040054B00F032
:100C10000F00C9B2A5BFC9B200F56140195480F8F0
:100C20000013704714ED00E00138B0F1807F0AD264
:100C3000064B074AF021586082F823100020072253
:100C400098601A6070470120704700BF10E000E014
:100C500000ED00E008B500F03DFABDE8084000F006
:100C60002AB90000284B2DE9F0411B6803F00E055E
:100C700003F00603042B25D1244A1120244EDFF86B
:100C80009CE0134600241AE001381BD0D2F82880DB
:100C9000D76A08F1FF318F42DEF800C01DD1596BD1
:100CA00001F807C0D96A1F6B0131B942D96228BF68
:100CB000D462D96A01318F4298BF2146916231686E
:100CC000C907E1D4022D1AD1124A1348136823F040
:100CD0000203136001F0D8FD11E0116B01398F425E
:100CE00002D1B8F1000FDAD0596B01F807C0D96A08
:100CF0001F6B0131B942D96228BFD462DFE7BDE87A
:100D0000F04100F0D8B800BF08C00040A81F001094
:100D100014C0004004C00040BC1F001000C00040D0
:100D20007047000038B54FF080730B600C461546D5
:100D300000F0D8F840F0010044F8040C1E4800F020
:100D4000D2F84FF0123344F80C3C4FF0033344F820
:100D5000103C4FF0023344F8143C40F001004FF0D7
:100D6000013344F8080C44F8183C284600F0BCF85D
:100D700044F81C0C20464FF0113344F8203C4FF04F
:100D8000103344F8243C4FF0093344F8283C4FF02A
:100D9000083344F82C3C4FF0073344F8303C4FF014
:100DA000063344F8343C4FF0053344F8383C4FF0F8
:100DB000043340F83C3D38BD7D2F000010B5044C95
:100DC000E26B216BA06BFFF7ADFF206010BD00BF91
:100DD000E4220010426B036BA3EB82035A68024BC0
:100DE0009A4200D0FEE77047EFBEADDE70470000CC
:100DF0004649086840F47F00086045494FF001000B
:100E0000087044490A681068B0E8F00F80F3098858
:100E100041494FF080500860002080F31488BFF3F0
:100E20006F8F63B6FEE772B63A4B19683B4A126899
:100E300091421BD000B5104639498847394B374A93
:100E40001268934201D13849884701BC8646314B2C
:100E50001968324A1268EFF3098020E9F00F086040
:100E60001A601068B0E8F00F80F309884EF0040EA5
:100E700062B6704727490A6811462C48006880F31B
:100E800009884EF0040E104629498847EFF3088080
:100E9000203080F30888002080F31488BFF36F8F20
:100EA0001D494FF08050086062B6FEE71A494FF0C6
:100EB00080500860704718494FF0805008607047B4
:100EC000EFF3108072B6704780F310887047EFF32D
:100ED00010807047014648420840B0FA80F0C0F1E7
:100EE0002000704770477047704772B6704762B60F
:100EF0007047EFF30580C00501D001207047002046
:100F0000704701380028FCD1704700BF20ED00E099
:100F1000682000103C20001004ED00E06420001068
:100F2000D50D0000E4220010BD0D000000000010EF
:100F3000392B00000546074C08B5074E00232360F7
:100F40003268236801332360002AFAD0284690478C
:100F5000F6E700BF30200010F01D00102DE9F0432F
:100F6000174685B00A460146334800F05AFF04464A
:100F700000285DD1314802F033FB314D2819083487
:100F800002F02EFB402CF9D12E4802F029FB2E4D09
:100F900000242819083402F023FB402CF9D1002545
:100FA000A846DFF8DC90294E09EBC50002F018FBDB
:100FB00026F815800135202D4FF00004F4D1244887
:100FC00002F00EFB234B24481C60244B244E1C6073
:100FD000244BDFF8B0801C60234B21461C60234B60
:100FE00001223460C8F800401C60046101F0A2FBDB
:100FF0000446E8B91E4D4023E86402936023019043
:1010000000931F221B4B1C49284601F0D9FE0446C1
:1010100070B939461948FFF7E9FEC8F80050356045
:10102000FFF7E8F8044618B9FFF77AFEFFF7E0FE8D
:10103000204605B0BDE8F0834020001034200010A9
:10104000942200106C200010F01F00105424001097
:10105000DC220010D4220010802200106820001032
:101060006420001094240010D822001030200010BA
:10107000E4220010741F0010350F000074200010CF
:10108000542300103C200010104B70B51B6805461F
:10109000012B0E4602D06FF0010070BDFFF729FF53
:1010A00004460028F7D16B1E1D2B0CD84FF6FE739B
:1010B0009E4208D8FFF704FF054B23F81560FFF7A1
:1010C00003FF204670BD6FF0040070BD6820001063
:1010D0005424001038B51C4B1B68012B2ED1FFF790
:1010E00008FF01282AD1FFF7EBFE184A05461368CE
:1010F00001331360164B174A1B685C6C32F81410EE
:10110000C9B11A6E01328A4201DA1A6613E000226E
:101110001A66114B03EBC404204602F064FA50B97E
:1011200063685B689C4206D0204602F08AFA01465A
:10113000204602F080FA2846FFF7C6FEBDE8384098
:10114000064801F0A1BB00BF68200010D8220010A3
:101150003C20001054240010542300108022001062
:1011600010B5FFF7ADFE034B1C68FFF7ADFE204640
:1011700010BD00BFD82200102DE9F8430F461646D7
:101180009846044618B96FF00400BDE8F883B1F53D
:10119000803FF8D2FFF7ADFE012831D0002EF2D00B
:1011A000002FF0D0B8F1070FEDD9E56A65BB2046F6
:1011B000A66204F1080902F06AFA4846B04402F057
:1011C00066FAB04509D931464846013502F069FA58
:1011D000AF4206F10806F4D100E02F466762002F07
:1011E000D1D004F1100002F0FBF904F1180002F074
:1011F000F7F9636A00202362054BE362BDE8F883D8
:101200006FF00100BDE8F8836FF00700BDE8F883D8
:10121000896C8A0C2DE9F0410D46064630B900294B
:101220003CD06FF004030B60044638E0FFF761FE2A
:10123000012803D195B36FF0010314E03021194860
:1012400000F00EFE044648B34FEAC6084146154872
:1012500000F006FE074640B92146124800F04CFE59
:10126000E5B16FF006032B6018E00023E36202464D
:10127000434631462046FFF77FFF48B9636A9E42E6
:1012800006D1E36A43F0A043E36245B1286006E07B
:101290002146044800F030FE3946DEE700242046AF
:1012A000BDE8F08140200010F8B50546FFF721FEAB
:1012B00001282BD0EB6A184A23F07043934222D1C5
:1012C000164B1B68012B21D1FFF7FAFD074605F1EC
:1012D000180001F03FFD05F1100001F03BFDEE6A42
:1012E0000024EC62384606F0E046FFF7EDFDB6F16B
:1012F000A04F0ED1A96A0A4800F0FEFD2946084811
:1013000000F0FAFD05E06FF00800F8BD6FF0010095
:10131000F8BD2046F8BD00BF896C8A0C682000101B
:101320004020001010B5044638B1FFF7E2FDFFF78A
:10133000C7FD246AFFF7C8FD01E04FF0FF342046E7
:1013400010BD10B5044650B1FFF7D3FDFFF7B8FD4F
:10135000226A636AD31A5C425C41FFF7B5FD2046FE
:1013600010BDF8B5079D0C4616461F4602F093F9CE
:1013700050B945B144B12A460699384601F020FCDF
:101380006FF00A0402E00CB9306000242046F8BD7A
:1013900038B504460D4602F026F910B16FF007008B
:1013A00038BD204602F04DF90028F7D0041FF5D0D3
:1013B000284602F070F90028F0D0E066204601F0DF
:1013C00039FC0128EAD16FF00A0038BDF0B50E46AD
:1013D00085B015460446002879D0002977D0C36A25
:1013E000404A23F07043934274D1FFF782FD0128F5
:1013F0002DD1002D71D1FFF763FD0823074601951C
:10140000009303AA04F110036FF005012046FFF7D3
:10141000A8FF05463846FFF757FD002D5FDB039B0D
:101420005B683360FFF74CFD074604F1080603993B
:10143000304602F036F9236A31460133236204F163
:101440001800FFF7A5FF3846FFF73EFD47E0FFF71E
:1014500037FD082307460195009303AA04F1100302
:101460006FF005012046FFF77CFF05463846FFF781
:101470002BFD15F10B0F0BD1FFF718FD1A4B1B6855
:101480009D6D15F10C0F03D1DB6E0025039301E078
:10149000002D24DB039B5B683360FFF711FD04F133
:1014A000080607460399304602F0FBF8236A3146E6
:1014B0000133236204F11800FFF76AFF044638463F
:1014C000FFF702FD0B340AD1FFF7F0FC07E06FF0E5
:1014D000040504E06FF0080501E06FF001052846FF
:1014E00005B0F0BD896C8A0C3C2000102DE9FF414D
:1014F0000F4615461E46044600287FD0C36A454A5B
:1015000023F0704393427CD1FFF7F3FC012831D1E3
:10151000002D79D1FFF7D4FC10230195009380466C
:1015200004F1180303AA4FF0FF3104F10800FFF79C
:1015300018FF054610B9236A013B23624046FFF7B6
:10154000C3FC002D62DB039B5F60FFF7B9FC012E3B
:1015500007460399204602D102F0ADF801E002F0FF
:10156000A0F8214604F11000FFF712FF3846FFF7FC
:10157000ABFC4BE0FFF7A4FC1023019500938046E1
:1015800004F1180303AA4FF0FF3104F10800FFF73C
:10159000E8FE054610B9236A013B23624046FFF787
:1015A00093FC15F10B0F0BD1FFF780FC1A4B1B6856
:1015B0009D6D15F10C0F03D1DB6E0025039301E047
:1015C000002D23DB039B5F60FFF77AFC012E0746AB
:1015D0000399204602D102F06EF801E002F061F8B2
:1015E000214604F11000FFF7D3FE04463846FFF70A
:1015F0006BFC0B340AD1FFF759FC07E06FF00405D0
:1016000004E06FF0080501E06FF00105284604B022
:10161000BDE8F081896C8A0C3C20001070B505464D
:1016200044680020AC4211D06668043C0CD0A06E27
:10163000626EAB6810F0100003EA020302D033B907
:10164000184601E09A4202D03446EBE770BD201DF7
:1016500002F00CF8204601F0EDFAA36E1B0704D54A
:10166000626EAB6823EA0203AB60AB680120002B1B
:10167000EAD170BD70B50E46054678B14B1C0DD051
:10168000C46874B9FFF735FC01280DD0284601F075
:10169000A7FF074BAE60EB60204670BD6FF0040003
:1016A00070BD6FF0070070BD6FF0010070BD00BF2E
:1016B000254F220E70B506460C46FFF71AFC01288E
:1016C00003D1D4B16FF0010316E01021104800F0EF
:1016D000C7FB054668B100233146C360FFF7CAFF68
:1016E000064660B129460A4800F006FC2CB1266087
:1016F00003E014B16FF006032360002505E0EB68FA
:1017000043F0A043EB6004B12660284670BD00BFE3
:10171000402000102DE9F34100260196044610B93F
:101720006FF0040307E0C368164A23F07043934246
:1017300003D06FF0080301931FE0FFF7DAFB0128E5
:1017400002D16FF00103F6E7FFF7BAFB80462046AF
:1017500001F000FBE5680746E660404605F0E0451D
:10176000FFF7B2FBB5F1A04F03D12146064800F0C8
:10177000C3FB012F01D1FFF799FB019802B0BDE82F
:10178000F08100BF254F220E402000102DE9F843C4
:10179000089F884614461D46064630B329B3C368E1
:1017A0003A4A23F07043934222D1FFF7A2FB01286B
:1017B0000DD107BBFFF784FBB36814F0100F08EAE4
:1017C000030201D00ABB19E0904517D11DE0FFF7D5
:1017D00077FBB36814F0100F814608EA030201D0CA
:1017E0000ABB1DE090451BD11DE06FF004044AE0E8
:1017F0006FF0080447E06FF0010444E005B12B608E
:101800006FF00304FFF760FB3DE005B12B6014F0BF
:101810000804F7D0B168002421EA0801B160F1E7BB
:10182000FDB12B601DE005B12B60230703D5B16826
:1018300021EA0801B160002427464846FFF744FB2F
:10184000012F20D1FFF732FB114B1B689C6D14F167
:101850000C0F18D11DB15B6E00242B6013E02C46D9
:1018600011E06FB10A4B3A461B6804219C66C3F82D
:101870006480304601F0A4F96FF003040127DCE72F
:101880006FF00304D9E72046BDE8F883254F220E08
:101890003C20001070B50D46044648B341B3C36800
:1018A000174A23F07043934225D1FFF722FB01280A
:1018B0000CD1FFF705FB0646A36820461D43A56033
:1018C000FFF7ACFE3046FFF7FFFA17E0FFF7F8FA34
:1018D000A36806461D43A5602046FFF79FFE044609
:1018E0003046FFF7F1FA012C08D1FFF7DFFA05E0E7
:1018F0006FF0040070BD6FF0080070BD002070BD77
:10190000254F220E38B50D46044690B14B1C10D021
:10191000C3680B4A23F0704393420DD1FFF7E9FAF5
:10192000FFF7CEFAA1680D40A560FFF7CDFA0020C1
:1019300038BD6FF0040038BD6FF0080038BD00BF3F
:10194000254F220E2DE9F047DDF820900F469046F6
:101950001E46044618B96FF00400BDE8F087B1F5E3
:10196000803FF8D2056B002D39D1002BF3D0002930
:10197000F1D0002AEFD002F109034B45EBD8FFF775
:10198000B8FA01282FD0C4F828802046E66204F176
:10199000080A01F07CFE504601F079FEB14408F1DE
:1019A0000808B14508D931465046013501F079FEA5
:1019B000AF424644F5D100E02F466762002FCAD0FF
:1019C00004F1100001F00CFE04F1180001F008FE13
:1019D000636A00202362064B2363BDE8F0876FF043
:1019E0000700BDE8F0876FF00100BDE8F08700BF99
:1019F000BD9E28042DE9F7430E461546074600B163
:101A000021B9002D4CD06FF0040325E0FFF771FAE7
:101A1000012804D1002D43D06FF001031CE03421D4
:101A2000224800F01DFA0446002839D006F10808C3
:101A300007FB08F806F10903984538BF98461B488C
:101A4000414600F00DFA814640B92146174800F0A2
:101A500053FA2DB36FF006032B6021E000232363BC
:101A600032460346CDF8008039462046FFF76AFF2C
:101A7000064658B9636A9F4206D1236B43F0A043E0
:101A8000236375B128600CE06FF007062146074814
:101A900000F032FA4946054800F02EFA05B12E60F2
:101AA0000024204603B0BDE8F08300BF40200010B2
:101AB000F8B50546FFF71DFA01282BD02B6B184A05
:101AC00023F07043934222D1164B1B68012B21D186
:101AD000FFF7F6F9074605F1180001F03BF905F1AB
:101AE000100001F037F92E6B00242C63384606F005
:101AF000E046FFF7E9F9B6F1A04F0ED1E96A0A48CE
:101B000000F0FAF92946084800F0F6F905E06FF010
:101B10000800F8BD6FF00100F8BD2046F8BD00BF19
:101B2000BD9E280468200010402000102DE9FF41D0
:101B30000E4617461C460546002800F08F800029F7
:101B400000F08C80002A00F08980036B494A23F062
:101B50007043934240F08580FFF7CBF9012836D1DE
:101B6000002C40F08180FFF7ABF9082380460194F8
:101B7000009303AA05F110036FF005012846FFF753
:101B8000F0FB04464046FFF79FF9002C6EDB0399FB
:101B90003C464B6830469F4228BF1C4608312246CF
:101BA00001F090FDFFF78CF9074605F1080603994F
:101BB000304601F076FD2B6A314601332B6205F188
:101BC0001800FFF7E5FB3846FFF77EF94EE0FFF718
:101BD00077F9082380460194009303AA05F11003C6
:101BE0006FF005012846FFF7BCFB04464046FFF7AF
:101BF0006BF914F10B0F0AD1FFF758F91E4B1B6854
:101C00009C6D14F10C0F02D1DB6E039301E0002CEC
:101C10002CDB03993C464B6830469F4228BF1C464C
:101C20000831224601F04EFDFFF74AF905F108069A
:101C300007460399304601F034FD2B6A31460133E3
:101C40002B6205F11800FFF7A3FB05463846FFF7A6
:101C50003BF90B350AD1FFF729F907E06FF00404CF
:101C600004E06FF0080401E06FF00104204604B0C6
:101C7000BDE8F081BD9E28043C2000102DE9F04312
:101C800085B00E4690461D460C9F0446002800F085
:101C90009880002900F09580002A00F09280036B64
:101CA0004E4A23F07043934240F08E80FFF721F9B3
:101CB00001283AD1002D40F08A80FFF701F9102366
:101CC00001950093814604F1180303AA4FF0FF31F8
:101CD00004F10800FFF745FB054610B9236A013BF4
:101CE00023624846FFF7F0F8002D72DBA26A0398E2
:101CF000424528BF424631464260083001F0E2FCCE
:101D0000FFF7DEF8012F06460399204602D101F0C5
:101D1000D2FC01E001F0C5FC214604F11000FFF700
:101D200037FB3046FFF7D0F853E0FFF7C9F8102330
:101D300001950093814604F1180303AA4FF0FF3187
:101D400004F10800FFF70DFB054610B9236A013BBB
:101D500023624846FFF7B8F815F10B0F0BD1FFF7D8
:101D6000A5F81F4B1B689D6D15F10C0F03D1DB6EA1
:101D70000025039301E0002D2BDBA26A0398424566
:101D800028BF424631464260083001F09BFCFFF715
:101D900097F8012F06460399204602D101F08BFCEB
:101DA00001E001F07EFC214604F11000FFF7F0FA9B
:101DB00004463046FFF788F80B340AD1FFF776F86F
:101DC00007E06FF0040504E06FF0080501E06FF034
:101DD0000105284605B0BDE8F08300BFBD9E28047C
:101DE0003C20001010B5044638B1FFF782F8FFF729
:101DF00067F8246AFFF768F801E04FF0FF342046E7
:101E000010BD10B5044650B1FFF773F8FFF758F84E
:101E1000226A636AD31A5C425C41FFF755F8204698
:101E200010BDC8B1C1B12F2A16D9CB1D23F00703AD
:101E3000521A1A4422F00702A3F108011144C160AA
:101E400000218360036083E8060042600122016292
:101E50001146103000F06EBC6FF0040070470000B7
:101E6000F8B50C46054600283FD000293FDD214E3D
:101E70003368012B04D14FF0FF31103000F046FDE4
:101E8000E11D21F0070128680831002210B34768DE
:101E90000468B9421BDCC1EB070EBEF10F0F6B6883
:101EA0000BDD0F180C50C7F804E00AB92F6000E0F2
:101EB00017604160591A696006E00AB92C6000E0B9
:101EC0001460DB1B47606B600023036002E0024686
:101ED0002046DBE700B1083033680446012B07D108
:101EE00005F1100000F0D0FC02E0044600E0002400
:101EF0002046F8BD682000102DE9F04788460546C9
:101F0000002800F09280002900F08F804B4F3B6842
:101F1000012B04D14FF0FF31103000F0F7FCA8F195
:101F2000080359684A0776D158F8086C002E72D118
:101F3000AA6893426FD303EB010EEA68AEF1080A78
:101F4000924568D8D5F800C0BCF1000F04D12B60D1
:101F50006B68194469604AE06246934250681BD23C
:101F6000924558D296456C680DD162186A601EB9C8
:101F7000DCF800202B6001E032683360014448F84F
:101F8000082C596033E0214469600EB92B6000E0F1
:101F9000336048F8082C2AE03DD0146800EB0209B1
:101FA0003CB3A34244D2A24535D2A6456E6812D1B5
:101FB0000E444B455C586E6007D101445160DEF819
:101FC000040014600144516011E0DEF80400136065
:101FD0000144596009E04B4504D10E4401446E6050
:101FE000516004E031446960136048F8084C0024F3
:101FF00013E0A9F10806B3420DD96E684B450BBF3B
:1020000076188919091869600BBF6E6013605160FA
:1020100048F8084C01E04FF0FF343B68012B0AD12F
:1020200005F1100000F030FC05E06FF0040402E060
:102030001646224691E72046BDE8F087682000104A
:1020400038B504460D4601F0CEFA68B9204601F0D5
:10205000F8FA30B1043804D0C56600F0EBFD012871
:102060000DD06FF0080038BDE369E268934209D2F1
:10207000A26901332A600020A561E36138BD6FF0D9
:102080000A0038BD4FF0FF3038BD00002DE9F041A7
:10209000884616461F460446002845D0002943D0EE
:1020A000036A002B40D1012F01D9032A04D8002351
:1020B000E361E360236223E0FEF71BFF012837D0D2
:1020C000204601F08DFA08F10305F01C25F0030508
:1020D00020F0030006FB078100FB0753C4F81480BF
:1020E0002561A060E7608B42E66803D9013E1B1AB8
:1020F000E660F8E7012E4FF0000303D8E361E360E8
:10210000A36111E02A18711E8B4204D22A600133A8
:1021100015460244F8E7002028602369E661A361C0
:10212000054B2362BDE8F0816FF00400BDE8F0814B
:102130006FF00100BDE8F0818BCEB7062DE9F041CC
:102140000F461546064600B121B9002D3BD06FF071
:1021500004031EE0FEF7CDFE012803D19DB36FF00E
:10216000010316E024211A48FFF77AFE044650B313
:10217000033626F0030606FB07F11548FFF770FE4D
:10218000804640B921461248FFF7B6FEDDB16FF038
:1021900006032B6017E00023236201463B463246CC
:1021A0002046FFF773FF48B9E3689F4206D1236AD0
:1021B00043F0A04323623DB1286005E04146044856
:1021C000FFF79AFEDEE700242046BDE8F08100BF5D
:1021D00040200010F8B5044660B3036A1B4A23F0A0
:1021E0007043934229D1FEF784FE012828D0184B72
:1021F0001B68012B24D1FEF763FE0746204600F042
:10220000A9FD256A002306462362384605F0A0454D
:10221000FEF75AFEB5F1A04F07D161690D48FFF7EF
:102220006BFE21460B48FFF767FE012E0BD1FEF730
:102230003DFE08E06FF00400F8BD6FF00800F8BD47
:102240006FF00100F8BD0020F8BD00BF8BCEB706CF
:102250006820001040200010F8B50E4614460546D0
:10226000002849D0002947D0036A284A23F0704348
:10227000934244D1FEF73DFE012811D1002C41D1FB
:10228000FEF71EFEEB6933B1AA69013B1168EB61F1
:10229000A961326001E06FF00504FEF715FE33E03E
:1022A000FEF70EFEEB6907463BB1AA69013B1168D8
:1022B0000024A961EB6132600BE044B122464FF487
:1022C0000051284600F07CFC6FF00A0401E06FF03A
:1022D00005043846FEF7F8FD14F10B0F14D1FEF794
:1022E000E5FD0B4B1A68D26E32601B689C6D14F1D1
:1022F0000C0F08BF002407E06FF0040404E06FF047
:10230000080401E06FF001042046F8BD8BCEB7064B
:102310003C20001070B50D46044660B359B3036A03
:10232000184A23F07043934228D1FEF7E2FD0128BA
:102330000FD1FEF7C5FD294606462046FFF780FE71
:1023400010F10B0F14BF044600243046FEF7BCFD0D
:1023500016E0FEF7B5FD294606462046FFF770FE5B
:1023600004463046FEF7B0FD14F10B0F08D1FEF71E
:102370009DFD002404E06FF0040401E06FF0080408
:10238000204670BD8BCEB70638B50D460446C0B1A9
:10239000436AB3B9012901D0042912D1FEF7A9FD7E
:1023A000012811D0204601F01BF904F1080001F0CA
:1023B00017F9074B00202561A0612062636260610C
:1023C00038BD6FF0040038BD6FF0010038BD00BFAC
:1023D000459E120770B506460C46FEF78AFD012899
:1023E00003D1D4B16FF0010316E028211048FFF7A4
:1023F00037FD054668B1002331464362FFF7C4FF4D
:10240000064660B129460A48FFF776FD2CB12660E2
:1024100003E014B16FF006032360002505E06B6A4A
:1024200043F0A0436B6204B12660284670BD00BF34
:10243000402000102DE9F0410E46054600285DD0F1
:10244000436A344A23F0704393425AD1FEF751FD58
:10245000012859D0FEF734FD2F4F8046AC6938680B
:10246000844233D074B9A86105F10801203001F02D
:10247000E2F82B6913F004032CD03A68936A013315
:10248000936228E04EB32B69324613F0040F0CBF61
:10249000202440242146284600F092FB402C11D1F4
:1024A0003B68A869596C036C99420BD26B6923B9DC
:1024B00001236B61C36A0133C362436C994201D249
:1024C00000F0BCFA6FF00104012509E06FF0070489
:1024D000002505E01C46254602E035466FF0050460
:1024E0004046FEF7F1FC012D10D1FEF7DFFC3B6802
:1024F0009C6D14F10C0F08BF002407E06FF004047A
:1025000004E06FF0080401E06FF001042046BDE82C
:10251000F08100BF459E12073C2000102DE9F843D2
:102520008F690E46874264D1002F62D001F10809FD
:10253000484601F09BF83469002314F004041BD0D2
:102540007269012A01BFFC6A736104F1FF34FC6205
:102550000CBFB4FA84F41C46BB6AFA6A03F1FF3379
:1025600008BF64099342BB6206D13A6CBA641BB9D6
:102570007B6C9A4218BF0124304601F034F80128E0
:1025800002D10025B5612DE0304601F05AF88046B1
:1025900030B3051F24D0284600F04CFBB5614946F6
:1025A00008F11C0001F047F833695B0701D40025EE
:1025B00018E0AB6A30460133AB6201F014F8002832
:1025C000F5D17368002BF2D0043BF0D05A6C2B6C21
:1025D0009A42ECD201237361EB6A0133EB62E6E7C6
:1025E0006FF00105012C06D1B96C384600F026FACF
:1025F00001E06FF007052846BDE8F883F8B504460A
:1026000040B3436A194A23F07043934225D1FEF741
:1026100070FC012824D0FEF753FC0746204600F04A
:1026200099FB21460646A069FFF778FF656A0023FB
:102630006362384605F0E045FEF746FCB5F1A04F71
:1026400003D121460A48FFF757FC012E0BD1FEF7B4
:102650002DFC08E06FF00400F8BD6FF00800F8BD35
:102660006FF00100F8BD0020F8BD00BF459E1207C5
:102670004020001037B5044610B96FF0040307E09E
:10268000436A104A23F07043934203D06FF008036B
:10269000019314E0FEF72DFC012802D16FF0010335
:1026A000F6E7FEF70DFC084B054621461868FFF7D4
:1026B00035FF01902846FEF707FCFEF7F7FB01986F
:1026C00003B030BD459E12073C20001038B50546CA
:1026D00000F12004204600F086FF58B9204600F0A3
:1026E000B0FF0028F6D0B0F10801F3D02846FFF77C
:1026F00015FFEFE738BD10B5446904B910BD204699
:1027000000F071FF80B963689BB1043B11D0A269EE
:102710007AB1506C916C5B6C814228BF01468B4250
:1027200094BF5364516410BDA36913B19A6C5A6489
:1027300010BD10BDF8B50F461646054688B182B1EA
:102740008A420ED3046964B9FEF7D3FB01280BD08B
:10275000284600F045FF064BAF60EE602B61204637
:10276000F8BD6FF00400F8BD6FF00100F8BD00BFC8
:10277000EB73A10FF8B506460F461446FEF7B9FBFA
:10278000012803D1DCB16FF0010317E014211148D7
:10279000FFF766FB054670B10023314603613A46F8
:1027A000FFF7C8FF064660B129460A48FFF7A4FBB9
:1027B0002CB1266003E014B16FF0060323600025FE
:1027C00005E02B6943F0A0432B6104B12660284645
:1027D000F8BD00BF40200010F8B5044620B30369DF
:1027E000174A23F07043934221D1FEF782FB012860
:1027F00020D0FEF765FB0746204600F0ABFA2569BE
:10280000002306462361384605F0E045FEF75CFBF1
:10281000B5F1A04F03D121460A48FFF76DFB012E09
:102820000BD1FEF743FB08E06FF00400F8BD6FF03A
:102830000800F8BD6FF00100F8BD0020F8BD00BF32
:10284000EB73A10F4020001010B5044600F0CBFE42
:1028500070B9204600F0F5FEA0B1043812D000F0A7
:10286000E9F901280CBF6FF00A006FF0080010BDF5
:10287000A368E268934203D20133A360002010BD35
:102880004FF0FF3010BD000038B5044628B303698F
:10289000154A23F07043934222D1FEF72AFB012808
:1028A0000AD1FEF70DFB05462046FFF7CDFF044693
:1028B0002846FEF709FB15E0FEF702FB0546204619
:1028C000FFF7C2FF04462846FEF7FEFA14F10B0F8D
:1028D00008D1FEF7EBFA002404E06FF0040401E0F5
:1028E0006FF00804204638BDEB73A10F38B583683C
:1028F0001BB1013B8360002038BD22B100F060F9BC
:102900006FF00A0038BD6FF0050038BD70B50D4698
:10291000044680B303691D4A23F0704393422DD1CE
:10292000FEF7E7FA01280DD15DBBFEF7C9FA2A468A
:10293000064602212046FFF7D9FF04463046FEF73F
:10294000C3FA20E0FEF7BCFA2A46064602212046DA
:10295000FFF7CCFF04463046FEF7B6FA14F10B0F32
:1029600011D1FEF7A3FA0A4B1B689C6D14F10C0FF2
:1029700008BF002407E06FF0040404E06FF00804CF
:1029800001E06FF00104204670BD00BFEB73A10FA2
:102990003C20001038B50446051D284600F066FEB0
:1029A000626C29466069BDE8384000F02CBE00002A
:1029B0000A480121002302680A4005D10133202B77
:1029C0004FEA4101F7D11346054A02EBC3035B68A6
:1029D00003B1043B034A1360704700BF9424001006
:1029E0005423001064200010F8B50F46061D114C4A
:1029F0000546304600F03AFE04EBC70000F0F3FD58
:102A000023460D4C012801BF2268B84022EA00008D
:102A10002060686C314603EBC00000F00CFE696C6E
:102A2000226801238B4013432360BDE8F840FFF781
:102A3000BFBF00BF542300109424001038B5C36AF0
:102A400004460D469BB9416CA94210D2836C026CBE
:102A50009A4208BF2B464364036D012B0FD05A07DF
:102A60001CD5BDE83840FFF795BF5B070BD4616C00
:102A70008D4213D2236D6564012BF6D12046BDE84B
:102A80003840FFF7B1BF2046FFF784FF636D402B4E
:102A900004D1636913B19C69002CE8D138BD0000F2
:102AA000036D70B5466C114D23F0010303650446B8
:102AB00005EBC605043000F0D9FD284600F093FD73
:102AC000012809D10A4AB0401368BDE8704023EAE2
:102AD00000001060FFF76CBF064B1A6894421A465C
:102AE00003D16B6803B1043B136070BD5423001025
:102AF000942400106420001070B500230125466C5A
:102B000005654361011D04460848B54000EBC60059
:102B100000F091FD064A13681D43064B15601A68C4
:102B20001AB1526C964238BF1C6070BD542300101D
:102B30009424001064200010C36C10B503F0A0436F
:102B4000B3F1A04F044611D10023C364436B016B62
:102B500003F18043013BA1EB83010548FFF7CCF96A
:102B60002146BDE810400248FFF7C6B910BD00BFBE
:102B7000402000104A1E033208B50B4616D80D4AF5
:102B80000729126800F10C0107D8134403F007036A
:102B9000C365094800EBC30004E002F007021344D8
:102BA000C365064800F047FD002008BD6FF0040033
:102BB00008BD00BFD822001094220010342000105D
:102BC000F8B50F46154606460F4C2068FFF768FF1C
:102BD000236804221A655F65DD6599181EB90846E9
:102BE00000F0FEFC05E05A6C304600F00CFD236856
:102BF0005E616B1E033305D829462068BDE8F840A6
:102C0000FFF7B8BFF8BD00BF3C20001038B500F199
:102C10000C040546204600F0E6FC50B94FF0FF33A7
:102C20002046EB6500F022FD2046BDE8384000F06C
:102C3000D7BC38BD38B504466FF00B03002583655B
:102C40004561FFF7E3FF236D1B0704D42046FFF720
:102C500053FF012002E0284608232365656538BD3F
:102C600010B50446043000F0BBFC2046FFF7CEFF51
:102C70002046FFF72BFDA26C002362641022226520
:102C80004FF0FF32E362A36263616365A365E366AD
:102C9000E265236610BD00002DE9F84F2A4F3C681D
:102CA000FEF70EF904F00705064645B1274B4FF035
:102CB000000803EBC504A1466FF0030A25E0244B8E
:102CC000DFF8888099465C684C45EFD0B4F10C0B76
:102CD000D4F804A014D0DBF85C30083B072BCBF809
:102CE0005C300DD8204600F0C1FC3868DBF85C3061
:102CF0002146184400F0070008EBC00000F09BFCE0
:102D00005446E1E7D9F804502DB9204600F06BFC99
:102D10000028F7D011E0B5F10C07F6D03846FFF7E0
:102D200075FFA5F1080000F0A1FC3846FFF782FF0F
:102D30004FF00108C7F858A0E7E73046FEF7C4F89F
:102D40004046BDE8F88F00BFD82200109422001042
:102D500034200010F8B5064600256FF0090730460C
:102D600000F041FC70B9304600F06BFC0028F6D052
:102D7000041FF4D02046FFF75DFF012804BFA765BC
:102D80000546ECE72846F8BD08B5036D13F00802C8
:102D90000FD1102B10D0012B06D108230365FFF7AC
:102DA0007FFE6FF00A0008BD43F00803036510467C
:102DB00008BD4FF0FF3008BD6FF0020008BD0000F5
:102DC0002DE9F84FDDF828A004468B469846DDF83B
:102DD0003090164612B919F0800F03E01F2A03D174
:102DE00019F0400F01D15EE05DD8BAF13F0F5AD91A
:102DF000BBF1000F57D0002C55D0B8F1000F52D0C6
:102E0000E56C002D4FD1FEF774F801284FD02B4F01
:102E10003B68012B02D1FEF753F805460B9B28496E
:102E2000E363284BC4F838B0E364C4F83080C4F8D6
:102E300034A026646664A6640023626B934203D2C6
:102E400048F804190133F8E704F1200000F0C8FB4A
:102E500004F118060023A362E362304600F0C0FBD1
:102E600004F10C0000F0BCFB2046FFF7F9FEE26B1A
:102E7000216BA06BFDF756FF31462060124800F031
:102E8000DAFB124A19F0C10F136803F10103136052
:102E900002D02046FFF730FE3B68012B0BD12846BD
:102EA000FEF712F807E06FF00400BDE8F88F6FF04E
:102EB0000100BDE8F88F0020BDE8F88F6820001001
:102EC000EFBEADDE69CFAB07DC220010D4220010CC
:102ED0002DE9F04F3F2A85B081468A4690469B46B1
:102EE0000F9D04D8002D3AD06FF004031CE0FEF7CC
:102EF00000F8012803D195B36FF0010314E07021AD
:102F00001D48FEF7ADFF044648B34FEA8806314638
:102F10001948FEF7A5FF074640B921461648FEF7B7
:102F2000EBFFE5B16FF006032B6018E00E9A00236B
:102F3000E364331F029203448DE800095246494678
:102F40002046FFF73DFF064658B121460A48FEF7E6
:102F5000D3FF39460848FEF7CFFF05B12E600024A5
:102F600005E0E36C43F0A043E36405B12E60204626
:102F700005B0BDE8F08F00BF40200010154B10B524
:102F80001C68FDF7B6FF18BB134B1B68012B1FD144
:102F9000FDF796FF2046FFF799FB2046FFF780FDDF
:102FA0002046FFF75DFE04F1180000F05FFB0B4ABE
:102FB00020461368013B1360E36C03F0A043B3F1B8
:102FC000A04F18BF0023E364BDE81040FDF752BFD7
:102FD00010BD00BF3C20001068200010D42200105B
:102FE00038B5044600284BD0C36C2A4A23F07043FE
:102FF000934248D1FDF77DFF012847D0264B1B683F
:10300000012B03D0254B1B689C423FD0FDF758FF96
:1030100005462046FFF75AFB236D012B03D12046BE
:10302000FFF73EFD11E05B070FD5201D00F01EFBF2
:10303000E36D013303D004F10C0000F017FB636D66
:10304000402B02D12046FFF756FB2046FFF708FE33
:1030500004F1180000F00AFB114A28461368013BEE
:103060001360E36C03F0E043B3F1A04F18BF0023FB
:10307000E364FDF729FF2046FFF75EFD002038BD21
:103080006FF0040038BD6FF0080038BD6FF001002C
:1030900038BD00BF69CFAB07682000103C2000108E
:1030A000D422001038B5044668B3C36C1B4A23F021
:1030B000704393422AD11A4B1B68012B29D1FDF78B
:1030C00018FF01280ED1FDF7FBFE05462046FFF74D
:1030D0005BFE04462846FDF7F7FE14F10B0F08BF10
:1030E000002418E0FDF7ECFE05462046FFF74CFEF5
:1030F00004462846FDF7E8FE14F10B0F0BD1FDF74F
:10310000D5FE002407E06FF0040404E06FF008042B
:1031100001E06FF00104204638BD00BF69CFAB0766
:103120006820001038B50446002849D0C36C294AED
:1031300023F07043934246D1274B1B68012B45D1A6
:10314000FDF7D7FE01281CD1FDF7BAFE236D054619
:103150001A070CD5580705D42046FFF7CDFC6FF0B1
:103160000A0406E023F008032365002401E06FF061
:1031700002042846FDF7A8FE14F10B0F08BF002437
:1031800026E0FDF79DFE236D054619070CD55A076D
:1031900005D42046FFF7B0FC6FF00A0406E023F0E8
:1031A00008032365002401E06FF002042846FDF7C0
:1031B0008BFE14F10B0F0BD1FDF778FE002407E016
:1031C0006FF0040404E06FF0080401E06FF0010404
:1031D000204638BD69CFAB076820001070B50546A2
:1031E000B0B1FDF786FE012815D00C4B1C68012CF0
:1031F00011D1FDF765FE06462A4621460020FFF75D
:10320000DFFC3046FDF760FEFDF750FE002070BD8C
:103210006FF0040070BD6FF0010070BD68200010F9
:1032200070B50446A0B3C36C1E4A23F070439342AA
:1032300031D11D4B1D68012D30D1FDF75AFE0128FB
:1032400010D1FDF73DFE236D0546102B04D120461D
:10325000FFF752FC002401E06FF001042846FDF75F
:1032600033FE1DE0FDF72CFE236D0646102B04D126
:103270002046FFF741FC002402E000256FF0010426
:103280003046FDF721FE012D0AD1FDF70FFE07E0C4
:103290006FF0040404E06FF0080401E06FF0010433
:1032A000204670BD69CFAB076820001070B50D4691
:1032B000044610B96FF0040070BDC36C154A23F0CA
:1032C000704393421FD1FDF714FE01281ED0124B0C
:1032D0001B68012B1AD16B1E1D2BEBD8FDF7F0FDDF
:1032E000A36C06469D4203D3A26AE36A9A4200D1C8
:1032F000A564294620462564FFF7A0FB3046FDF76C
:10330000E3FD002070BD6FF0080070BD6FF001009C
:1033100070BD00BF69CFAB076820001010B5044630
:1033200000F061F940B9E060204600F09FF92046C6
:10333000BDE8104000F054B910BD0000C36801465C
:10334000072B094A08D81268134403F00703C36027
:10335000064800EBC30005E0106800F007000344D6
:103360000348CB6000F067B9D8220010F01F0010AE
:103370006C200010F8B50E461746054688B181B19D
:10338000846974B9FDF7B5FD01280DD0284600F019
:1033900027F9074BAC60EC602F616E61AB61204692
:1033A000F8BD6FF00400F8BD6FF00100F8BD00BF7C
:1033B00047D4040BF8B506460F461446FDF799FDB1
:1033C000012803D1DCB16FF0010317E01C21114883
:1033D000FEF746FD054670B10023314683613A464B
:1033E000FFF7C8FF064660B129460A48FEF784FD8C
:1033F0002CB1266003E014B16FF0060323600025B2
:1034000005E0AB6943F0A043AB6104B126602846F8
:10341000F8BD00BF40200010F8B50546F8B183693B
:10342000144A23F0704393421CD1FDF762FD01283A
:103430001BD0FDF745FD07462846FFF76FFFAE6935
:103440000024AC61384606F0E046FDF73DFDB6F1DC
:10345000A04F0DD129460848FEF74EFD08E06FF059
:103460000400F8BD6FF00800F8BD6FF00100F8BD72
:103470002046F8BD47D4040B40200010F8B50E4696
:1034800015460446E0B1D9B1531C19D08369114ADD
:1034900023F07043934216D1FDF72BFD012815D080
:1034A000FDF70EFD07462046FFF738FF2046E66091
:1034B000A560FFF743FF3846FDF706FD0020F8BD85
:1034C0006FF00400F8BD6FF00800F8BD6FF0010068
:1034D000F8BD00BF47D4040B38B50446A0B18369DA
:1034E0000E4A23F07043934211D1FDF702FD0128EB
:1034F00010D0FDF7E5FC05462046FFF70FFF2846F4
:10350000FDF7E2FC002038BD6FF0040038BD6FF01D
:10351000080038BD6FF0010038BD00BF47D4040B70
:103520002DE9F3472B4F684600F05AF83D68FDF748
:10353000C7FC05F00705064625B1274B03EBC5057B
:103540002F461EE0254BDFF8908099465C684C457D
:10355000F3D0E368D4F804A0083B072BE3600CD851
:10356000204600F083F83868E3682146034403F0FE
:10357000070008EBC00000F05EF85446E7E77C68FF
:103580002CB9284600F02FF80028F8D016E0204685
:10359000FFF7C4FEA36823B1E3602146684600F04C
:1035A0004AF86369002BECD0216920469847E8E788
:1035B000684600F046F808B1FFF7C0FE684600F024
:1035C00012F80028F4D03046FDF77EFC002002B04F
:1035D000BDE8F087D8220010F01F00106C2000100A
:1035E0004060006070474368984204D103681B1A2A
:1035F00058425841704700207047436881E80900ED
:1036000019604160704710B54368834207D023B109
:103610001C1F02D0646C944207D85B68F5E71A68F7
:103620004B600A605160196010BD1A6851600A60F1
:1036300019604B6010BD036848600B605960016001
:103640007047034630B14068834204D0426813603B
:103650005A6070477047002070470368984217BF50
:103660001A68002350600260184670474268036879
:103670005A604268136070474368834203D08B42AC
:1036800003D05B68F9E700207047012070470023F2
:1036900003604360704703680BB11A680260184604
:1036A000704700230B6003680BB9016001E04368B9
:1036B00019604160704703680B6003B941600160A5
:1036C00070470000844641EA000313F0030349D128
:1036D000403A23D30B6803604B6843608B68836078
:1036E000CB68C3600B6903614B6943618B6983617C
:1036F000CB69C3610B6A03624B6A43628B6A836264
:10370000CB6AC3620B6B03634B6B43638B6B83634B
:10371000CB6BC36340304031403ADBD230320BD305
:103720000B6803604B6843608B688360CB68C36041
:1037300010301031103AF3D20C3205D351F8043B5B
:1037400040F8043B043AF9D2043208D0D2071CBF37
:1037500011F8013B00F8013B01D30B880380604660
:10376000704700BF082A13D38B07B1D010F00303B2
:10377000AED0C3F10403D21ADB071CBF11F8013B22
:1037800000F8013BA4D331F8023B20F8023B9FE74D
:10379000043AD9D3013A11F8013B00F8013BF9D2C0
:1037A0000B7803704B7843708B788370604670475A
:1037B00070B4840746D0541E002A41D0CDB20346CF
:1037C00002E0621EE4B3144603F8015B9A07F8D1E5
:1037D000032C2ED9CDB245EA05250F2C45EA054527
:1037E00019D9264603F11002103E0F2E42F8105C44
:1037F00042F80C5C42F8085C42F8045C02F11002EA
:10380000F2D8A4F1100222F00F0204F00F041032DB
:10381000032C13440DD91E462246043A032A46F8C7
:10382000045BFAD8221F22F003020432134404F08E
:1038300003042CB1C9B21C4403F8011BA342FBD101
:1038400070BC704714460346C2E700BF104B30B44B
:103850001D6810F8013BEA18527802F00302012AB1
:1038600011F8012B08BF2033AC18647804F003046E
:10387000012C06D09B1A01D1002AEAD1184630BC8F
:10388000704720329B1AE4D0184630BC704700BF06
:1038900004000010830710B5044610D10268A2F19D
:1038A000013323EA020313F0803F08D150F8042FBC
:1038B000A2F1013323EA020313F0803FF6D003782C
:1038C0001BB110F8013F002BFBD100F003F820469C
:1038D00010BD00BF80EA0102844612F0030F4FD1F1
:1038E00011F0030F32D14DF8044D11F0040F51F8CF
:1038F000043B0BD0A3F101329A4312F0803F04BF86
:103900004CF8043B51F8043B16D100BF51F8044B6E
:10391000A3F101329A4312F0803FA4F101320BD19E
:103920004CF8043BA24312F0803F04BF51F8043B23
:103930004CF8044BEAD023460CF8013B13F0FF0F80
:103940004FEA3323F8D15DF8044B704711F0010FB3
:1039500006D011F8012B0CF8012B002A08BF704784
:1039600011F0020FBFD031F8022B12F0FF0F16BF7B
:103970002CF8022B8CF8002012F47F4FB3D1704743
:1039800011F8012B0CF8012B002AF9D1704700BF68
:1039900020F0030110F00300C0F1000051F8043BD7
:1039A00000F1040C4FEACC0C6FF000021CBF22FAAD
:1039B0000CF213434FF0010C4CEA0C2C4CEA0C4C6B
:1039C000A3EB0C0222EA030212EACC1204BF51F864
:1039D000043B0430F4D0C2F1000102EA0102B2FA61
:1039E00082F2C2F11F0200EBD200704749742069D5
:1039F000732067726561746572207468616E20550A
:103A0000415254204649464F2073697A65207374A9
:103A100072696E672E20436E743A2000556E6B6E8D
:103A20006F776E206D73672E0D0A005348454C4C1E
:103A30003E000D0A57726F6E6720636F6D6D616E89
:103A400064210D0A0000000006000000546869733C
:103A500020697320612050535720636D642E0D0A36
:103A600000566572202D20332E302E0D0A0054682A
:103A70006973206973206120434D44312E0D0A0083
:103A800054686973206973206120434D44322E0DC0
:103A90000A0054686973206973206120434D4433E0
:103AA0002E0D0A0054686520737461636B202255E3
:103AB000736167652220616E64202253697A6522F2
:103AC0002076616C7565732061726520696E207463
:103AD00068652027696E7427286E6F742062797478
:103AE0006573290D0A005461736B3A200020200091
:103AF00055736167653A200053697A653A20007012
:103B000073770076657200636D643100636D6432B3
:103B100000636D64330064756D705F73746B0000D7
:103B2000FF3A000071070000033B0000810700001E
:103B3000073B0000910700000C3B0000A1070000BC
:103B4000113B0000B1070000163B0000C107000058
:103B5000002020202020202020202828282828205D
:103B60002020202020202020202020202020202055
:103B700020881010101010101010101010101010BD
:103B800010040404040404040404041010101010AD
:103B90001010414141414141010101010101010177
:103BA00001010101010101010101010110101010C9
:103BB0001010424242424242020202020202020249
:103BC000020202020202020202020202101010109D
:103BD00020000000000000000000000000000000C5
:103BE00000000000000000000000000000000000D5
:103BF00000000000000000000000000000000000C5
:103C000000000000000000000000000000000000B4
:103C100000000000000000000000000000000000A4
:103C20000000000000000000000000000000000094
:103C30000000000000000000000000000000000084
:103C40000000000000000000000000000000000074
:103C500000000000FCF736FA00202049204A91427B
:103C60003CBF41F8040BFAE71E491F4A1F4B9A421A
:103C70003EBF51F8040B42F8040BF8E70020014660
:103C8000FCF7A8FAFEE7FEE7FEE7FEE7FEE7FEE741
:103C9000FEE7FEE7FEE7FEE7FEE7FEE7FEE7FEE7FC
:103CA000FEE7FEE7FEE7FEE7FEE7FEE7FEE7FEE7EC
:103CB000FEE7FEE7FEE7FEE7FEE7FEE7FEE7FEE7DC
:103CC000FEE7FEE7FEE7FEE7FEE7FEE7FEE7FEE7CC
:103CD000FEE7FEE7FEE7FEE7FEE700000800001053
:103CE00098240010F43C00000000001008000010B0
:043CF00000000000D0
:043CF4007822001022
:043CF800503B00003D
:00000001FF
