:020000040020DA
:100000000044002039032000410320004303200066
:1000100045032000470320004903200000000000A2
:100020000000000000000000000000004B03200062
:100030004D03200000000000170220001B112000CB
:1000400053032000530320005303200053032000D8
:1000500053032000530320005303200053032000C8
:1000600053032000530320005303200053032000B8
:1000700053032000530320001505200053032000E4
:100080005303200053032000530320005303200098
:100090005303200053032000530320005303200088
:1000A0005303200053032000530320005303200078
:1000B0005303200053032000530320005303200068
:1000C0005303200053032000530320005303200058
:1000D0005303200053032000530320005303200048
:1000E0005303200053032000530320005303200038
:1000F0005303200053032000530320005303200028
:100100005303200053032000530320005303200017
:100110005303200053032000530320005303200007
:1001200053032000530320005303200053032000F7
:1001300053032000530320005303200053032000E7
:1001400053032000530320005303200053032000D7
:1001500053032000530320005303200053032000C7
:1001600053032000530320005303200053032000B7
:10017000530320005303200053032000000000001D
:100180005303200053032000530320005303200097
:100190005303200053032000530320005303200087
:1001A0005303200053032000530320005303200077
:1001B0005303200053032000530320005303200067
:1001C0005303200053032000DFF80CD000F022F985
:1001D00000480047D1182000004400200000000023
:1001E0004B49086840F47F0008604A494FF001001D
:1001F000087049490A681068B0E8F04F80F3098830
:1002000046494FF080500860002080F31488BFF307
:100210006F8F63B6FEE772B63F4B1968404A1268AB
:10022000914225D000B510463E4988473E4B3C4A96
:100230001268934201D13D49884701BC8646364B3E
:100240001968374A1268EFF309801EF0100F08BFD3
:1002500020ED108A20E9F04F08601A601068B0E8BD
:10026000F04F1EF0100F08BFB0EC108A80F3098821
:100270004EF0040E62B6704727490A6811462C48B2
:10028000006880F309884EF0040E1046294988471B
:10029000EFF30880203080F30888002080F3148872
:1002A000BFF36F8F1D494FF08050086062B6FEE7C4
:1002B0001A494FF080500860704718494FF080503D
:1002C00008607047EFF3108072B6704780F31088B3
:1002D0007047EFF310807047014648420840B0FA7B
:1002E00080F0C0F12000704770477047704772B6C9
:1002F000704762B67047EFF30580C00501D001205A
:10030000704700207047401E0028FCD1704700BF96
:1003100020ED00E00C0000201400002004ED00E0BF
:1003200010000020E5212000E82000205D262000AC
:100330004400002011162000064880470648004768
:10034000FEE7FEE7FEE7FEE7FEE7FEE7FEE7FEE785
:10035000FEE7FEE729112000C901200040EA010361
:100360009B0703D009E008C9121F08C0042AFAD26B
:1003700003E011F8013B00F8013B521EF9D270472F
:10038000D2B201E000F8012B491EFBD270470022D7
:10039000F6E710B513460A4604461946FFF7F0FF84
:1003A000204610BD421E12F8013F002BFBD111F870
:1003B000013B02F8013B002BF9D17047421C10F8B9
:1003C000011B0029FBD1801A7047034611F8012B4D
:1003D00000F8012B002AF9D1184670472DE9F041A9
:1003E0000E460546002400E0641C285D00F00BF872
:1003F0000746305D00F007F8381A02D1295D002960
:10040000F2D1BDE8F081A0F14101192900D82030D6
:1004100070470000064C074D06E0E06840F001031D
:1004200094E8070098471034AC42F6D3FFF7D0FEAB
:10043000902E2000D02E200070B58C1810F8015B93
:1004400015F0070301D110F8013B2A1106D110F86D
:10045000012B03E010F8016B01F8016B5B1EF9D171
:100460002B0705D40023521E0DD401F8013BFAE7F7
:1004700010F8013BCB1A921C03E013F8015B01F862
:10048000015B521EF9D5A142D8D3002070BD0000F7
:1004900070B586B0044616480021002C1FD00268B3
:1004A00042F002020260006800F002000090114D6C
:1004B00035F814000190012002900391032004906C
:1004C00001A90D4E56F8240000F01EF935F814105D
:1004D000002256F8240000F00BFA06B070BD026846
:1004E00042F002020260006800F002000090DEE7C5
:1004F00030380240082E20004C0000200349044AF6
:1005000031F8101052F8200000F0EEB9082E20004B
:100510004C00002010B50A4C0849204600F038F87D
:10052000012802D1074802F00DF90749204600F0E2
:100530000DF8BDE81040FFF7C0BE000000800018B5
:10054000586002409C1C002000E0001E074A9042B8
:1005500001D2074801E005481038064A8B0001EA3D
:10056000020101D5C160704781607047106402408C
:10057000006002407D0F7D0F002904D0016841F02A
:10058000010101607047016821F0010101607047BD
:1005900030B500240F4A904201D20F4A01E00D4AC3
:1005A000103A0E4B194205D01E2303EAD1250368E9
:1005B0002B4002E0406900F08003880001D55068BC
:1005C00000E01068064A1040084201D003B101243F
:1005D000204630BD10640240006002403C0F3C0FDA
:1005E0007D0F7D0F0B0609D522B1436943F08003CF
:1005F000436103E0436923F080034361802905D010
:1006000001F01E011AB102680A43026070470268D5
:100610008A4302607047000030B50368124A1340F5
:10062000CC680A682243D1E905452C432243CC69B2
:1006300022430C6A22434C6A22438C6A22434C6B4D
:1006400022438C6B22431A430260426922F0070363
:10065000D1E90B2422431A4342610A6942604A6885
:1006600082608968C16030BD3F801CF02DE9F04197
:1006700000224FF0030C012707FA02F50B682B400C
:10068000AB422CD1066853000CFA03F4A643066073
:100690000E79D0F800809E4046EA080606600E7982
:1006A000012E01D0022E12D18668A64386604E79B3
:1006B000D0F808809E4046EA080686604668AE4349
:1006C000466045688E799640B6B235434560C56848
:1006D000A543C560CC799C40C3681C43C460521CD0
:1006E000102AC9D3BDE8F08110B54B07DB0E9A4044
:1006F000C90800EB8100016A0F249C40A1430162FC
:10070000016A1143016210BD2DE9F84F0022DFF8A4
:10071000A491DFF8A0814FF0010E09F108094FF014
:100720000F0C09F1040A0EFA02F60B683340B342CB
:1007300071D14C68022C01D0122C11D1D40800EBDD
:1007400084073D6A5407E40E0CFA04FB25EA0B0506
:10075000D1F810B00BFA04FB4BEA050BC7F820B038
:10076000076854000325A540AF4391F804B00BF08F
:10077000030B0BFA04FB4BEA070BC0F800B04F6801
:10078000012F05D0022F03D0112F01D0122F11D12C
:100790008768AF43D1F80CB00BFA04FB4BEA070BA8
:1007A000C0F808B04768B7430E79C6F30016964004
:1007B0003E434660C668AE438D68A5403543C5607C
:1007C0004C68E4006FD53C4C256845F480452560B5
:1007D000246804F480440094384C22F00305254436
:1007E000D5F808789407260F0CFA06F4A743344C82
:1007F000A04201D100242EE0324CA04201D10124BC
:1008000029E0314CA04201D1022424E02F4CA04227
:1008100002D103241FE046E02D4CA04201D1042464
:1008200019E02C4CA04201D1052414E02A4CA0422E
:1008300001D106240FE0294CA04201D107240AE08F
:10084000274CA04201D1082405E0264CA04201D14A
:10085000092400E00A24B4403C43C5F80848D8F80D
:1008600000409C434D68ED0300D51C43C8F8004090
:10087000104D2D1D2C689C434E68B60300D51C43BB
:100880002C60D9F800409C434D68ED0200D51C4314
:10089000C9F80040DAF800409C434D68AD0200D52D
:1008A0001C43CAF80040521C102AFFF43CAFBDE8BC
:1008B000F88F0000003C0140443802400030014005
:1008C000000002400004024000080240000C024008
:1008D000001002400014024000180240001C0240B8
:1008E000002002400024024042694A4042617047B1
:1008F000002A01D08161704709048161704710B5F9
:10090000044600F0BBF94FF47A72B0FBF2F000F04D
:10091000D5FB00222146501E00F002F8002010BD39
:10092000F0B40D460D4B1B68C3F30223C3F107045B
:10093000042C00D90424191D072901D2002300E04A
:10094000DB1E012606FA04F1491E294099409E400B
:10095000761E16403143F0BC00F0CFBB0CED00E03A
:10096000F8B500241648016841F080510160006824
:1009700000F080500090134D286840F480302860CB
:100980004FF47A7606E0B44201D90320F8BD00F0B6
:1009900021FE641C6868C003F5D5286840F4003067
:1009A0002860002406E0B44201D90320F8BD00F01D
:1009B00011FE641C68688003F5D50020F8BD0000B6
:1009C00040380240007000402DE9F04705460E46D1
:1009D000DFF8CC81D8F8000041F28839714F00F07F
:1009E0000F0170480837B14261D2D8F8001021F0E9
:1009F0000F013143C8F80010D8F8001001F00F01C2
:100A0000B14202D00120BDE8F0872978890705D5D9
:100A10003968AA6821F0F001114339602978C907C3
:100A20002BD06968012906D0022909D00068800707
:100A30000BD40120E7E70068800306D40120E2E739
:100A40000068800101D40120DDE7386820F0030050
:100A50000843386000246868012809D0022814D0AF
:100A600020E04C4501D90320CDE700F0B3FD641C24
:100A70003868C0F381000128F3D178E04C4501D9F2
:100A80000320C0E700F0A6FD641C3868C0F38100B5
:100A90000228F3D16BE04C4501D90320B3E700F005
:100AA00099FD641C386810F00C0FF4D15FE02978D0
:100AB000890705D53968AA6821F0F001114339602A
:100AC0002978C90744D06968012906D0022909D0CC
:100AD000006880070BD4012095E70068800306D4E6
:100AE000012090E70068800101D401208BE738687D
:100AF00020F003000843386000246868012809D00A
:100B0000022814D020E04C4501D903207BE700F0F7
:100B100061FD641C3868C0F381000128F3D117E03F
:100B20004C4501D903206EE700F054FD641C386881
:100B3000C0F381000228F3D10AE04C4501D903201B
:100B400061E700F047FD641C386810F00C0FF4D129
:100B5000D8F8000020F00F003043C8F80000D8F8A3
:100B6000000000F00F00B04201D001204BE72878D0
:100B7000400705D53868E96820F4E050084338603C
:100B80002878000706D53868296920F4604040EAD3
:100B9000C10038600F20FFF7B2FE002033E70000ED
:100BA000003C0240003802402DE9F041034600229B
:100BB00000202F4D29682F4E11F00C0121D004295F
:100BC0004FEA660C1FD008291FD0304618602968EC
:100BD00001F0F0010909284A545C20FA04F1596037
:100BE0002C6804F4E054A40A145D21FA04F49C6017
:100BF0002C6804F46044640B125DD140D960BDE8F8
:100C0000F0813046E2E76046E0E7194C241F216896
:100C100001F03F0127685FEA472847F6C0770BD508
:100C2000A9B1BCFBF1F2216897FAA7F63940B6FAF0
:100C300086F6F1404A430AE049B1B6FBF1F2216879
:100C400097FAA7F63940B6FA86F6F1404A4321688A
:100C50004FF4403494FAA4F401F44031B4FA84F42B
:100C6000E140491C49000029B0D0B2FBF1F0ADE7EA
:100C7000083802400024F4000E2E20000FB568460C
:100C8000FFF792FF08490968F02292FAA2F201F0F8
:100C9000F001B2FA82F2D140044A515CC8400449E2
:100CA000086004B000BD0000083802400E2E20008D
:100CB000480000202DE9F84F04460025DFF8F483B2
:100CC00041F288372078A8F10409A9F10406C00789
:100CD0006FD0D8F80000C0F38100012809D0D8F8FF
:100CE0000000C0F3810002280BD1D9F800004002B7
:100CF00007D5306880035CD5606880BB0120BDE803
:100D0000F88F306820F480303060306820F4802024
:100D10003060306820F48030306006E0BD4201D998
:100D20000320ECE700F056FC6D1C30688003F5D41E
:100D3000306820F4803030606068B0F5803F0FD0BC
:100D4000B0F5A02F15D0306820F4802030603068D6
:100D500020F4803030606068F8B1002519E028E0A8
:100D6000306820F480203060306840F4803030609B
:100D7000F1E7306840F480203060306840F4803023
:100D80003060E8E7BD4201D90320B8E700F022FC5B
:100D90006D1C30688003F5D50BE0002506E0BD42F0
:100DA00001D90320ABE700F015FC6D1C306880030F
:100DB000F5D42078800752D5D8F800004FF0F80A13
:100DC00010F00C0F09D0D8F80000C0F38100022801
:100DD00017D1D9F80000400213D43068800704D539
:100DE000E068012801D0012089E730689AFAAAF268
:100DF0002169B2FA82F220F0F80091400843306095
:100E00002DE0E068D8B1306840F001003060002586
:100E100006E0642D01D9032071E700F0DBFB6D1CB7
:100E200030688007F5D530689AFAAAF22169B2FADB
:100E300082F220F0F8009140084330600FE0306803
:100E400020F001003060002506E0642D01D9032068
:100E500055E700F0BFFB6D1C30688007F5D42078A3
:100E600000072CD5DFF84CA260690AF16C0A98B132
:100E7000DAF8000040F00100CAF80000002506E0A2
:100E8000642D01D903203AE700F0A4FB6D1CDAF8C9
:100E900000008007F4D512E0DAF8000020F001002D
:100EA000CAF80000002506E0642D01D9032026E7DA
:100EB00000F090FB6D1CDAF800008007F4D4207875
:100EC000400776D57B483830016841F08051016099
:100ED000006800F080500090DFF8DCA1DAF8000034
:100EE00040F48070CAF80000002506E0642D01D9A6
:100EF000032004E700F06EFB6D1CDAF80000C0056B
:100F0000F4D5DFF8B0A10AF1680ADAF8000020F0A1
:100F10000100CAF80000DAF8000020F00400CAF866
:100F20000000DAF8000020F00100CAF800000025F7
:100F300006E0BD4201D90320E1E600F04BFB6D1C49
:100F4000DAF800008007F4D4DAF8000020F001009D
:100F5000CAF80000A068012811D005281CD0DAF8D2
:100F6000000020F00400CAF80000DAF8000020F0C9
:100F70000100CAF80000A06840B3002521E0DAF8BB
:100F8000000020F00400CAF80000DAF8000040F089
:100F90000100CAF80000EEE7DAF8000040F00400B3
:100FA000CAF80000DAF8000040F00100CAF80000BA
:100FB000E1E718E0BD4201D90320A0E600F00AFBFA
:100FC0006D1CDAF800008007F4D50CE0002506E07F
:100FD000BD4201D9032092E600F0FCFA6D1CDAF85C
:100FE00000008007F4D4A069F0B3D8F80010C1F372
:100FF000810102295CD0022805D0306820F0807081
:10100000306000244FE0306820F0807030600025B0
:1010100006E0642D01D9032071E600F0DBFA6D1CB7
:1010200030688001F5D4D4E9071047F6C0724FF05C
:10103000FF3392FAA2F20843616AB2FA82F2914057
:10104000A26A03EB52024FF4403393FAA3F3B3FACC
:1010500083F39A4011434FF070620843E16A92FAB9
:10106000A2F2B2FA82F200E020E09140084340F0A0
:101070000050C9F80000306840F0807030600024F3
:1010800006E0642C01D9032039E600F0A3FA641CC1
:1010900030688001F5D509E0642C01D903202EE6E3
:1010A00000F098FA641C30688001F5D4002026E630
:1010B000012024E6083802400070004010B5401EB0
:1010C000B0F1807F01D3012010BD4FF0E0246061BA
:1010D0000F21601700F011F80020A06107202061A7
:1010E000002010BD012100F01F0291404009800046
:1010F00000F1E020C0F8801170470907090E0028B0
:1011000006DA00F00F0000F1E02080F8141D7047AF
:1011100000F1E02080F80014704710B501F0E0FC09
:10112000BDE81040FFF7C9B81048016841F47001EC
:1011300001600F48016841F0010101600C4A002183
:101140000832116002680B4B1A400260031D0A4A04
:101150001A60026822F48022026005480C300160A7
:1011600058060249803908607047000088ED00E0A9
:1011700000380240FFFFF6FE10300024002904D0A2
:10118000016841F001010160704701684FF6FE728D
:10119000114001607047002A03D082680A438260D0
:1011A00070478268C94389B20A4082607047000074
:1011B0003FB504460D46606820F44050E98801437D
:1011C00088B26060206841F20C618843A9882A894E
:1011D00011436A890243114388B22060A06820F459
:1011E0004070A989014388B2A0606846FFF7DCFC23
:1011F0001E48844202D01E48844201D1039800E078
:1012000002982168090408D500EBC00101EB001029
:1012100029684900B0FBF1F007E000EBC00101EBE9
:10122000001029688900B0FBF1F06422B0FBF2F1F4
:1012300009016FF018050B096B4300EB830023686D
:101240001D044FF0320307D503EBC000B0FBF2F0F2
:1012500000F00700084306E003EB0010B0FBF2F0DB
:1012600000F00F00084380B2E0603FBD0010014075
:101270000014014002E008C8121F08C1002AFAD178
:1012800070477047002001E001C1121F002AFBD106
:101290007047000070B5044615461E482A46FFF701
:1012A0005DF84FF0006020641B4860641948A0643A
:1012B0004020E064A8B22065002565654FF4806099
:1012C000A065E56525666566C001A066E566012046
:1012D00020676567A56704F14001104C2046FFF7C1
:1012E0009BF90D48012280212838FFF754FF012285
:1012F00020461421FFF776F901212046FFF73CF93B
:10130000074805704FF0E0214FF48040C1F800011C
:1013100070BD000000910020284800405860024045
:101320000EE400E02DE9FF4F83B0044617469846CF
:101330006FF007060225002C05D0FEF7C3FFE16B16
:10134000A94619B105E06FF00406A1E0C4F83C908D
:101350000025FEF7BBFF002D7ED1A563E762C4F830
:101360002880681E6063206314212046FFF70FF871
:1013700004F1140014218246FFF709F801222046E7
:10138000114601F0BBF90646300065D101225046F6
:10139000002101F0B3F90646300079D13E480168DA
:1013A00041F008010160016801F0080100913A492B
:1013B00010310A6842F480220A60096801F4802131
:1013C0000091016841F400110160006800F4001010
:1013D0000090DFF8C8A0072208215046FFF784F9E3
:1013E000072250460921FFF77FF98DF808908DF804
:1013F00009908DF80A504FF001098DF80B904FF4C9
:10140000807BCDF804B001A95046FFF72FF94FF4C7
:101410000070019001A95046FFF728F9DFF880A07D
:1014200004995046FFF7C4FE4FF0006020641C484A
:1014300024306064A764E5641FFA88F02065656560
:101440004FF48060A065E5652566C4F864B0A566C4
:10145000E566C4F8709000E01AE06567A56704F1DE
:101460004001104D2846FFF7D7F801225046402191
:10147000FFF791FE01212846FFF77EF80121504633
:10148000FFF77CFEFEF71EFFC4F83C90FEF71EFF40
:1014900007B03046BDE8F08F30380240000C024003
:1014A00000480040286002402DE9F0470446884685
:1014B00000250026002C0CD0B8F1000F09D042B155
:1014C000606B2063A76A974200D917466FF0030943
:1014D00036E06FF0040535E01C48C16AA06BA26AD3
:1014E000014491421CD1002D01DD012628E0606BF2
:1014F00030B1E06B012806D06FF0070501261FE030
:101500004D4601261CE0012001F0C4FA606B401C2E
:1015100016D0206B401E206390B94D4601260FE087
:10152000E16A085C08F805006D1CBD4200DB01267D
:10153000A06B401CA063A16A884201D30020A06375
:10154000002EC9D02846BDE8F087000000600240A8
:101550002DE9F05F80460F461446B8F1000F0AD01F
:101560004FB144B14FF0FF31404601F083F80646D9
:10157000300003D029E06FF0040626E0DFF850B019
:101580004FF4807908F1140A1AE04D46AC4200D8B5
:10159000254639462A464046FFF77CFE41F288310F
:1015A000504601F067F80646584600228021FFF7B2
:1015B000F2FD0E20FFF796FD002E03DB2F44641B87
:1015C000002CE2D1404601F0BDF83046BDE8F09F66
:1015D000004800401FB56846FFF7E6FA0A49096867
:1015E000F02292FAA2F201F0F001B2FA82F2D140B6
:1015F000064A515CC84040F6B831B0FBF1F000B982
:101600000120FEF780FE1FBD083802400E2E20008C
:1016100070472DE9F0470D4616469846DDE90897D4
:1016200000F050FC044674B100203FB130B13A469E
:101630004946404600F04EFC6FF00A00002800D1F9
:101640003460BDE8F0872846EFE770B500240B460C
:101650001946002804DA2D2403F8014B01244042E6
:101660000A2590FBF5F605FB160690FBF5F03036E3
:1016700003F8016B641C002801DD9442F1D30020C3
:10168000944200D3087003F8010918780A7803F827
:10169000012901F8010B9942F7D370BD2DE9F047FC
:1016A00005460C466FF001074FF00008A069A842FC
:1016B0000ED168B104F10800814600F04AF9207C9F
:1016C0004FF0000640071BD56069012803D009E0F0
:1016D0006FF007074CE06661E86A401EE86208B9EF
:1016E0004FF00108A86A401EA862E96A814207D14A
:1016F000296CA96420B9686C884201D04FF00108B8
:10170000204600F0DAF801281AD0204600F028F927
:1017100000F0C5F8064626B3304600F0D5FCA661B9
:1017200006F12000494600F0F3F8207C400717D569
:10173000B06A401CB062204600F0BFF818B10FE05C
:10174000A66100270DE0606800F0A9F840B1406C88
:10175000316C884204D201206061F06A401CF06262
:101760000027B8F1010F03D1A96C284601F0F8F960
:101770003846BDE8F08770B504460E466FF00705A1
:10178000204600F09AF898B9204600F0E9F80024C5
:1017900008B1001F04465CB1304600F093FB38B13D
:1017A000E066204600F090FC012801D16FF00A05A8
:1017B000284670BD70B5044604F120050AE02846AD
:1017C00000F0CEF8002108B10838014611B12046DA
:1017D000FFF764FF284600F070F80028EFD070BDD6
:1017E000034610B500209C68002C02D0641E9C604B
:1017F00001E06FF00500002A06D0002804D018464A
:1018000000F068FB6FF00A0010BD70B505460024BB
:10181000284600F052F830B1D5E90201884215D2CD
:10182000401CA86014E0284600F09AF8002108B196
:10183000001F0146084658B100F046FC012802D0BE
:101840006FF0080404E06FF00A0401E04FF0FF3489
:10185000204670BD10B5012100240020094A1368FC
:101860000B4201D0044603E04900401C2028F6DB6F
:10187000054800EBC400406800F018F80349086010
:1018800010BD00001C000020281E002010000020B9
:1018900001460020002901D008460C387047014657
:1018A0000020002901D00846001F70470146002093
:1018B000002901D00846001F70470021426882427B
:1018C00003D10268824200D101210846704700001E
:1018D00010B500F055F80948006800F025FA0F200F
:1018E000FFF70DF80120FEF7D3FD00221146104648
:1018F00000F0A0FF00B1FEE7002010BD00000020B6
:1019000002490968084400F00700704718000020E9
:10191000486002680A6051600160704710B4436813
:1019200008E000240BB11C46241F14B1646C9442DF
:1019300002D85B688342F4D1834202D110BCFFF726
:10194000E7BF186841601868086019604B6010BCF8
:101950007047D0E900215160D0E900100160704764
:1019600001460020002907D04A688A4204D0104668
:101970004268116042684A6070474060006070478A
:10198000F0B593B0BFF34F8FBFF36F8F344800248F
:101990000460344F386840F400303860BFF34F8F34
:1019A000BFF36F8F2F4870300460BFF34F8F001F5D
:1019B0000068C0F34E312A4A43F6FF7C1032C0F370
:1019C000C90630460CEA411343EA80751560401E93
:1019D000451CF9D1491E481CF3D1BFF34F8F38681D
:1019E00040F480303860BFF34F8FBFF36F8F1E48D5
:1019F000016841F080510160006800F08050019062
:101A00001A48016821F4404141F400410160006836
:101A100000F4404001900120029000040390022550
:101A200008958001099008200A904FF4D8700B9017
:101A30000C9509200D9002A8FFF73CF9FEF790FFE6
:101A40000F200E900F9510944FF4A0501190E802C3
:101A5000129007210EA8FEF7B7FF13B0F0BD0000EB
:101A600050EF00E014ED00E040380240007000400C
:101A700070B5044600256560E0680570204600F0FA
:101A8000C9F9FEF71FFC2560BDE87040FEF71EBCDB
:101A90002DE9F041044600276169E06800F014F97F
:101AA00000284FF0FF3805DC00212046FFF7E0FF5B
:101AB00047461AE0002509E0E06900EBC5066069C9
:101AC00031680068FEF78AFCE0B16D1CA069A8428D
:101AD000F2DCA069A84208D10EA1204600F0BEF9B0
:101AE00001212046FFF7C4FF4746D4E90210FEF764
:101AF0004EFC60690021016041608160C160384630
:101B0000BDE8F08171682046884701212046FFF733
:101B1000AFFFDEE70D0A57726F6E6720636F6D6D62
:101B2000616E64210D0A000010B50024426A002A8B
:101B300003D008469047204610BD4FF0FF34FAE727
:101B400010B502A001F02AF9002010BD5468697395
:101B5000206973206120434D44312E0D0A0000009E
:101B600010B502A001F01AF9002010BD5468697385
:101B7000206973206120434D44322E0D0A0000007D
:101B800010B502A001F00AF9002010BD5468697375
:101B9000206973206120434D44332E0D0A0000005C
:101BA00010B502A001F0FAF8002010BD5468697366
:101BB00020697320612050535720636D642E0D0AF5
:101BC0000000000010B502A001F0E8F8002010BDF0
:101BD000566572202D20332E302E0D0A0000000095
:101BE000F0B58BB02D4801F0D9F82D4F78684DE055
:101BF0004668002508B118380546D5E90C01A0EB68
:101C00008104241D27482168814244D026A105A8CB
:101C1000FEF7DBFB286C102201A9FFF716FD01A9D6
:101C200005A8FEF7BFFB22A105A8FEF7BBFB05A890
:101C300001F0B4F81FA105A8FEF7C7FB286B001D33
:101C4000001B8008102201A9FFF7FFFC01A905A8CD
:101C5000FEF7A8FB16A105A8FEF7A4FB05A801F056
:101C60009DF816A105A8FEF7B0FB686B102201A92C
:101C7000FFF7EBFC01A905A8FEF794FB11A105A84D
:101C8000FEF790FB05A801F089F83046B842AFD1C5
:101C90000BB00020F0BD241DB5E700004C2E200045
:101CA00024000020EFBEADDE5461736B3A200000CB
:101CB0002020000055736167653A200053697A65FA
:101CC0003A2000000D0A0000F0B50246002600236D
:101CD0000020002417460025844641F825C06D1CCD
:101CE000042DFADB15782DB1092D03D0202D01D05C
:101CF00094B113E0012C0AD182F800C041F82070A1
:101D0000401C042802DB0646012300E000242BB916
:101D100025B90646012301E001241746012B01D015
:101D2000521CDFE73046F0BD10B50446E4212046E2
:101D3000FEF72DFB6021A16004F13800E06004F1A2
:101D400028026261094A1268A261094AE261094AED
:101D50002262094A6262FEF71AFB04F1A40044F809
:101D6000980F402060600020A06010BD042E20006D
:101D7000D42D20009D2D2000852D200010B5044677
:101D80002068002806D0032942D12046BDE8104033
:101D900000F07CB80D2928D0D4E90103984224DA58
:101DA000082910D07F290ED0421C9A4230DAA1F1C6
:101DB00020035F2B2CD86260E26811542046BDE8F6
:101DC0001040FFF7B1BE002822DD401E60600821F0
:101DD0002046FFF7A9FE2021204600F033F82046D8
:101DE000BDE81040082100F02DB862680020E168CD
:101DF00088540D212046FFF797FE0A212046FFF761
:101E000093FE012020602046BDE8104000F032B86B
:101E100010BD000070B504460025226A002A07D0D4
:101E200009B105A09047216A04A08847284670BDE3
:101E30004FF0FF35FAE700000D0A00005348454C0B
:101E40004C3E000010B50024426A002A03D0084628
:101E50009047204610BD4FF0FF34FAE7024610B518
:101E60004FF0FF30126A002A02D008469047002047
:101E700010BD000010B5012103480022002300F02E
:101E80009BFA002010BD0000181C002001210161F8
:101E90000020704702680A600268002A00D1416091
:101EA0000160704700220A600268002A03D042687D
:101EB000116041607047016041607047002101601E
:101EC0004160704701460868002801D002680A6036
:101ED000704700002DE9F04106460F461446104DAC
:101EE000286800F089F82868042101654765C46501
:101EF00086B1011D426C3046FFF710FD286846612F
:101F0000601C0BD0002C09D028682146BDE8F041A8
:101F100000F028BB001DFFF730FDF1E7BDE8F081C0
:101F20001400002086B000240A2501AF0120FEF72E
:101F3000E5FA642000F0AEFD641CB4FBF5F005FB8F
:101F400010400028F2D10BA101A8FEF73EFAB4FB25
:101F5000F5F601A8FEF732FAC11930461422FFF750
:101F600074FB06A101A8FEF71DFA01A800F016FFF8
:101F7000DCE70000436E743A200000000D0A000008
:101F800008B50A4C4FF0FF3509482A46694600F06B
:101F900085F90028F8DB0098012803D005A000F09F
:101FA000FDFEF1E72068FFF773FDEDE7000000207C
:101FB000181C0020556E6B6E6F776E206D73672E48
:101FC0000D0A000010B50446201DFFF7D6FC204680
:101FD00000F0B4FA2046FFF7EDFB0020E062A062BB
:101FE0006061A16C6164102121656065A065E06697
:101FF000411EE165206610BD70B50446656C114850
:1020000000EBC506206D20F001002065201DFFF7C4
:10201000A0FC3046FFF751FC012808D00A4D286883
:10202000A04203D17068FFF741FC286070BD012019
:10203000A84006490A6882430A60BDE87040FFF77D
:1020400009BC0000281E0020100000201C000020F9
:1020500070B50446656C0126266500206061211D6F
:10206000094800EBC500FFF753FCAE400748016884
:102070003143016006490868002803D0406CA8423B
:1020800000D90C6070BD0000281E00201C0000203C
:102090001000002088B00A4F6E460A482022694688
:1020A000FFF702FA0546002DF7DD002404E0315D5C
:1020B0003868FFF763FE641CAC42EEDAF7E7000015
:1020C00000000020881C002070B504460025002672
:1020D00066616FF00B00A065204600F02FFA94F8BF
:1020E0005000000704D42046FFF7B2FF012501E0AD
:1020F000082020656665284670BD0000FEB52D48A5
:10210000002404604FF4E1312B4801608480C480D6
:10211000048184810C2141814FF48073274A014658
:10212000A838FFF7FFF8002842D12548C464802072
:10213000CDE9000402900022224B2349204800F000
:10214000EBFB002834D12148C4640126204B032234
:1021500020497502CDE90146009500F0DDFB00281D
:1021600026D11A487030C4640622CDE901461A49C6
:10217000A0F67403009500F0CFFB002818D1134897
:10218000E030C4640822CDE901461449A0F1E4031B
:10219000009500F0C1FB00280AD11148C46203B0C9
:1021A00040230821BDE8F04000F1300200F028B8DB
:1021B000FEBD000004000020301D00200090002023
:1021C00058000020C40200201D252000C81A00204D
:1021D000C40A002095202000811F2000251F200018
:1021E000181C0020D0E90C10A1EB800002494068C7
:1021F000884200D0FEE77047EFBEADDE70470000BA
:102200002DE9F04704460F4616461D46002C6FF098
:10221000040902D0B7F5803F02D34846BDE8F087F5
:10222000FEF769F8012805D016B10FB1082D04D2C8
:102230004846F3E76FF00100F0E7E06A10B16FF095
:102240000700EBE706EB0508A6622046FFF736FE1F
:1022500004F108008246FFF731FE002507E04645FD
:1022600007D231465046FFF71DFE08366D1CBD42B1
:10227000F5D365626DB104F11000FFF77EFB04F148
:102280001800FFF77AFB606A20620348E0620020D2
:10229000C4E74846C2E70000896C8A0C2DE9FF5F5D
:1022A00004460D461646002C08D03DB1E06A404970
:1022B000B1EB001F05D06FF0080675E06FF0040663
:1022C00072E0FEF718F801464FF00808012904F102
:1022D00010076FF0050904F11800039004F1080AD3
:1022E00012D0FDF7EFFF83463B46CDE9008602AAF8
:1022F00049462046FFF78DF906465846FDF7E6FFAA
:1023000016F10B0F2AD034E016B16FF001064BE046
:10231000FDF7D8FF83463B46CDE9008602AA494631
:102320002046FFF776F906465846FDF7CFFF002E08
:102330003ADB029840682860FDF7C4FF0546029921
:102340005046FFF7AFFD206A401C206203985146BB
:10235000FFF711FA2846FDF7B9FF25E0FDF7A8FFC2
:1023600014480068866D16F10C0F02D10026C06E6D
:102370000290002E18DB029840682860FDF7A2FF4B
:10238000054602995046FFF78DFD206A401C2062E9
:1023900003985146FFF7EFF904462846FDF796FFEC
:1023A0000B3401D1FDF784FF04B03046BDE8F09F47
:1023B00090C8A6C8140000202DE9F04F85B005464E
:1023C0000E4614461F46002D07D0E86A4849B1EB77
:1023D000001F05D06FF0080485E06FF0040482E070
:1023E000FDF789FF01464FF0100A01294FF0FF3B2E
:1023F00005F1180905F1080805F1100004900ED048
:10240000FDF760FF029003AACDE900A44B465946B0
:102410004046FFF7FEF80446200031D033E014B107
:102420006FF001045FE0FDF74DFF029003AACDE9D4
:1024300000A44B4659464046FFF7EBF8044614B952
:10244000286A401E28620298FDF740FF002C4ADBF4
:1024500003984660FDF736FF0646012F0BD003991F
:102460002846FFF71FFD04982946FFF784F93046F8
:10247000FDF72CFF37E003992846FFF70BFDF2E745
:10248000286A401E28620298FDF720FF14F10B0F06
:102490000AD1FDF70DFF17480068846D14F10C0F89
:1024A00002D10024C06E0390002C1CDB0398466010
:1024B000FDF708FF0646012F0ED003992846FFF7C7
:1024C000F1FC04982946FFF756F905463046FDF71A
:1024D000FDFE0B3505D006E003992846FFF7DAFC30
:1024E000EFE7FDF7E5FE05B02046BDE8F08F000000
:1024F00090C8A6C8140000200546064C0020E061E4
:10250000E169491CE16121680029F9D02846884722
:10251000F6E7000004000020704700004FF0FF3491
:102520000548214600F0A6F80028F9DB00F044F841
:1025300000F0CCFBF4E700005821002070B5044601
:1025400004F10C000546FFF7B8F9002809D1401E38
:10255000E0652846FFF7FDF92846BDE87040FFF723
:102560000CBA70BD2DE9F04105460C460027601CF1
:102570000FD074B1082C05F10C060DD22046FFF7E0
:10258000BFF9E8650A4901EBC0003146FFF7C0F921
:102590000BE06FF0040708E00020FFF7B1F92044DA
:1025A000E86504483146FFF7B3F93846BDE8F081E5
:1025B0006C210020340000202DE9F05F002600206F
:1025C000FFF79EF98046FDF77DFE8146214FB8F169
:1025D000000F1FD1DFF880A0DAF8040018E045688A
:1025E000FFF756F90446200011D0E06D0838E06589
:1025F00008280CD204F10C008346FFF7AAF9E06D1D
:10260000FFF77EF907EBC0005946FFF781F928462E
:102610005045E4D107EBC8056FF003070FE0686889
:10262000FFF736F9044654B12046FFF787FF201D17
:10263000FFF78FF92046FFF747FDA76501262846DB
:10264000FFF73BF90028EAD04846FDF73FFE304649
:10265000BDE8F09F6C2100203400002010B5044C30
:10266000A06B216BE26B00F0A1F8206010BD0000B0
:10267000E820002070B504460D46002C07D02069E4
:102680001C49B1EB001F05D06FF0080430E06FF07B
:1026900004042DE0FDF72FFE01280FD0FDF712FEF8
:1026A00006462A4602212046FFF79AF8044630469D
:1026B000FDF70CFE14F10B0F11D019E015B16FF0FE
:1026C000010415E0FDF7FEFD06462A4602212046DC
:1026D000FFF786F804463046FDF7F8FD08E0FDF701
:1026E000E7FD05480068846D14F10C0F00D100244B
:1026F000204670BDB03E17FA140000202DE9F041CD
:1027000004460F4615460026002C04D01DB1AF42EA
:1027100001D8206910B16FF004060AE0FDF7EBFD67
:10272000012809D02046FFF728F9A760E560044892
:1027300020613046BDE8F0816FF00106F9E7000046
:10274000EB73A10F70B50446002C07D02069164921
:10275000B1EB001F05D06FF0080422E06FF0040415
:102760001FE0FDF7C8FD01280DD0FDF7ABFD0546C4
:102770002046FFF74AF804462846FDF7A7FD14F166
:102780000B0F0BD00DE0FDF79DFD05462046FFF732
:102790003CF804462846FDF799FD02E0FDF788FD68
:1027A0000024204670BD0000B03E17FA70B5034605
:1027B0000C461546383C4FF08070A0631846FDF774
:1027C00093FD40F0010060631948FDF78EFD40F075
:1027D000010020634FF01230E0624FF00330A0623E
:1027E0004FF002306062401020622846FDF77EFD07
:1027F000E0616FF00200A0614FF0113060614FF0B6
:10280000103020614FF00930E0604FF00830A060D8
:102810004FF0073060604FF0063044F804094FF085
:1028200005302060201F4FF00431016070BD0000B2
:102830002D2A20002DE9FE4317463348FFF79DF867
:102840000024324D05EBC400FFF797F8641C082CF8
:10285000F8DB2D480830FFF790F800242B4D403569
:1028600005EBC400FFF789F8641C082CF8DB002492
:10287000274E002506F5807806EBC400FFF77DF8AB
:1028800028F81450641C202CF6DB1F481038FFF782
:1028900074F81D4E303E7560B560B561F560356108
:1028A0007561F56119481438056101220021FFF7AF
:1028B00025FF044624BBDFF85480A8F18408C8F83B
:1028C0004C50602140200290CDE90015A8F104038E
:1028D00010491F22181D00F01FF8044684B906F1A4
:1028E00028003946FFF718FEC6F81080C6F80C809D
:1028F000FFF704FC04461CB9FFF780FCFDF770FCF1
:102900002046BDE8FE830000340000206C2100203A
:10291000281E0020F92420002DE9F84F04468B469C
:1029200016461D46DDF828A0DDF830800020009016
:10293000002708F0800030436FF0040104D01F2E00
:1029400004D15FEA486001D40F4661E01F2E09D828
:10295000BAF1600F06D3BBF1000F03D014B10DB173
:10296000E06C08B10F4653E0FDF7C5FC012806D026
:10297000DFF8A490D9F80000012803D005E06FF03B
:10298000010745E0FDF79EFC0090C4F838B00B98B5
:10299000E0632563C4F834A026646664A6641F4817
:1029A000E06400201E4902E045F80419401C626BF7
:1029B0008242F9D804F12000FEF7DFFF0020A06278
:1029C000E06204F118000546FEF7D7FF04F10C00A1
:1029D000FEF7D3FF2046FFF7F5FA216BD4E90E028C
:1029E000FFF7E4FE206029460E48FEF791FF0E48EF
:1029F0000168491C016018F0C10F02D02046FFF7A2
:102A000027FBD9F80000012802D10098FDF75EFCF1
:102A10003846BDE8F88F00000C00002069CFAB07F6
:102A2000EFBEADDE240000200800002010B51648DF
:102A30000468FDF760FC002825D1144800680128CF
:102A400021D1FDF73FFC2046FEF7B4FE2046FFF7FC
:102A5000D3FA2046FFF7B6FA04F11800FEF779FF23
:102A60000B480168491E0160E16C4FF0A04232EA58
:102A7000010006D00020E0642046BDE81040FDF7CC
:102A8000FBBBE264F8E710BD140000200C0000203E
:102A90000800002070B505460024002D0AD0FDF77F
:102AA0002AFCA11E012808D00C480068012806D085
:102AB0000C4611E06FF004040EE00C460CE0FDF74C
:102AC00001FC06462A4601210020FFF703FA3046A2
:102AD000FDF7FCFBFDF7ECFB204670BD0C00002071
:102AE00070B51B4CA06801282DD1FDF704FC01280E
:102AF00029D1FDF7E7FB05466069401C606121694B
:102B0000486C144B33F81020D2B10A6E521C0A667E
:102B100033F810309A4213DB00220A660E4901EBAB
:102B2000C0042046FEF7C9FE50B960684168A14262
:102B300006D02046FEF714FF01462046FEF7E8FEC9
:102B40002846FDF7C3FBBDE870400448FFF7FABD17
:102B500004000020281F0020281E002058210020EB
:102B600070B504460E460025E06A002817D1616C56
:102B7000B14214D2226CA06C824200D00646666438
:102B8000206D012806D0400720D52046BDE87040C2
:102B900000F05EB82046BDE8704000F029B824B1CE
:102BA000616CB14203D801250EE001250CE066649A
:102BB000206D01280BD0400706D5204600F048F8CC
:102BC000606D402808D00125002DE8D070BD20465A
:102BD00000F00EF80125F7E76169002001B1084611
:102BE00020B18469002CEFD10125EDE70125EBE749
:102BF0002DE9F04704460F46201DFEF7AAFEDFF838
:102C0000489009EBC700FEF758FEDFF84080012628
:102C1000012806D106FA07F5D8F80000A843C8F83D
:102C20000000606C09EBC00050B1211DFEF770FE82
:102C300094F844008640D8F800003043C8F80000FB
:102C4000BDE8F047FEF706BE281E00201C0000204D
:102C500010B50446201DFEF77CFE626C211D6069E4
:102C6000BDE81040FEF75ABE10B504462046FEF7F8
:102C700024FE002808D1E0602046FEF76AFE2046C8
:102C8000BDE81040FEF779BE10BD000010B5044647
:102C9000E06808280AD200F095F8E060094901EBE5
:102CA000C0002146BDE81040FEF732BE002000F013
:102CB00089F8E1680844E06021460348BDE8104017
:102CC000FEF726BEAC2100203C0000202DE9FC4789
:102CD0004FF000086846FEF750FE002000F072F842
:102CE0008146FDF7EFFA0746244EB9F1000F19D1DE
:102CF000DFF88CA0DAF8044012E065687CB1E06887
:102D00000838E06008280AD22046FEF722FEE06874
:102D100000F058F806EBC0002146FEF7F9FD2C46FE
:102D20005445EAD106EBC90510E06C6874B1204641
:102D3000FFF79AFFA06820B1E06021466846FEF7E1
:102D4000E7FD626912B12169204690472846FEF7E7
:102D5000B4FD0028E9D005E06846FEF701FE08B1A1
:102D6000FFF794FF6846FEF7A8FD0028F4D0384628
:102D7000FDF7ACFA4046BDE8FC870000AC2100201E
:102D80003C00002008B58DF8000001220248694689
:102D9000FEF7DEFB08BD0000881C002010B50446CD
:102DA0006FF00700002C09D02046FDF707FB2146F5
:102DB000BDE8104082B20248FEF7CABB10BD000059
:102DC000881C002002490968084400F00700704789
:102DD00018000020482E2000A11B2000442E2000B7
:102DE000C51B2000202E2000411B2000282E200083
:102DF000611B2000302E2000811B2000382E200077
:102E0000E11B2000060000000100800000400000DF
:102E10000000010203040102030406070809000080
:102E2000636D643100000000636D643200000000D7
:102E3000636D64330000000064756D705F73746BC4
:102E4000000000007665720070737700546865209A
:102E5000737461636B202255736167652220616E14
:102E600064202253697A65222076616C756573202F
:102E700061726520696E207468652027696E742709
:102E8000286E6F74206279746573290D0A00000042
:102E9000D02E2000000000205800000074122000F6
:102EA000282F20000090002000020000380420009D
:102EB000282F2000580000209823000084122000B2
:102EC000282F200000400020000400008412200071
:102ED000401D002000000000000000000000000075
:102EE00000000000000000000000000000000000E2
:102EF00000000000000000000000000000000000D2
:102F000000000000000000000000000000000000C1
:102F100000000000E8230020000000000004024040
:102F2000000402400004024001FF01FF21000000F4
:04000005002001C90D
:00000001FF
