:020000040800F2
:10000000F03F002071260008A1260008A326000862
:1000100000000000000000000000000000000000E0
:10002000000000000000000000000000A5260008FD
:100030000000000000000000AF0C0008810B000869
:10004000AB26000800000000AD260008AF2600081F
:10005000B1260008B3260008B5260008B726000818
:1000600000000000B9260008BB2600088D0B000820
:10007000BF260008C1260008C326000800000000B3
:10008000C5260008C7260008C9260008CB26000898
:10009000CD260008CF260008D1260008D326000868
:1000A000D5260008D7260008D9260008DB26000838
:1000B000DD260008DF26000800000000E126000819
:1000C0002E4B1A6801210A431A6058682C4A0240D4
:1000D0005A6018682B4A02401A6018682A4A02407F
:1000E0001A605868294A02405A60DA6A0F2082432F
:1000F000DA62186B264A02401A63186B80220243A8
:100100001A635A6B8A435A6300229A601A689021D4
:1001100009030A431A601900802292020B681342F5
:10012000FCD011221B4B1A60144B5A685A605A6853
:100130005A605968184A0A405A605A688821490327
:100140000A435A601A68802149040A431A60190058
:10015000802292040B681342FCD0084B5A6803219A
:100160008A435A60596802220A435A6019000C22D5
:100170004B681340082BFBD17047C046001002406B
:100180000CB8FF08FFFFF6FEFFFFFBFFFFFFC0FFFD
:100190006CFEFFFF00200240FF7FC0FF70B501250D
:1001A0006D42064C2900200001F00EFA0028F9DB10
:1001B00001F0CEFB01F056FDF4E7C046A81A00207E
:1001C000F0B589B0094F0A4E20226946380000F088
:1001D000F5FB051EF8DD00246B46E15C300000F005
:1001E000A3F90134A542F7DCEEE7C046A8170020CA
:1001F00008000020F0B583B00B4D0C4E0C4F0124CD
:100200006442220001A9280000F074FF0028F8DBF6
:10021000019B012B03D1380000F006FAEFE7300014
:1002200000F08EFCEBE7C04678170020142400088D
:100230000800002000B585B000222F4B1A60013263
:10024000FF322E492E4800F02BFB002851D12D48BB
:100250000022C26480230293019200932A4BFD3353
:10026000FF332A4901F0D6FB002842D12848002359
:10027000C3640122029201930133FF330093254BA3
:10028000FF229200944663440322234901F0C2FBFB
:1002900000282ED121480023C36401220292019339
:1002A00080239B0000931E4B1E4A94466344062203
:1002B0001D4901F0AFFB00281BD11C480023C3647B
:1002C0000122029201930133FF330093184BFF2266
:1002D0009200944663440822164901F09BFB0028D3
:1002E00007D115480023C3624033144A082100F0A7
:1002F00045FE05B000BDC046F01500206009002095
:10030000A817002010130020F01300209D01000802
:10031000EC00002060010020C101000860120020F4
:10032000600A0020FC070000F5010008801300208F
:1003300060050020D103000878170020D0120020AB
:1003400000B583B001218020800201F0CDFD0123A2
:100350006A4613710233537100239371D3712033B2
:10036000009369469020C00501F074FD03B000BD04
:1003700010B50020FFF7E4FF0D4800F061F80D4ACA
:100380000D4B53600D490B6A1B021B0AC02000066F
:1003900003430B62002393600733136000220021A4
:1003A000002000F013FD002800D0FEE7002010BD63
:1003B0000800002010E000E07FBB000000ED00E03E
:1003C0009022D205516920234B4053617047C046AB
:1003D000F0B587B00020FFF7F3FF642001F0EAFBDF
:1003E000012501AC144E0020FFF7EAFF642001F064
:1003F000E1FB01350A21280001F00AFE0029F2D1B3
:1004000033682360B388A380200001F0CFFF271852
:100410000A21280001F076FD1422390000F078F955
:10042000200001F0C3FF20180322044901F0E0FE80
:10043000200000F085FBD6E72424000844240008AF
:1004400010B50400E422002101F010FF6023A36036
:1004500020003830E0602300283363610B4B1B68B9
:10046000A3610B4BE3610B4B23620B4B6362602276
:10047000002101F0FBFE2200A4329823E25040222A
:100480000433E25000220433E25010BD4824000837
:100490003C250008410B0008650B000810B500233F
:1004A00000220121024800F0B9FE002010BDC04624
:1004B0007817002010B5036A002B03D00800984776
:1004C000002001E00120404210BDC04610B50400EC
:1004D000036A002B08D0002901D005489847236AF9
:1004E00004489847002001E00120404210BDC0466A
:1004F000442400082C24000810B5436A002B03D0C4
:1005000008009847002001E00120404210BDC0468D
:1005100010B5436A002B03D008009847002001E083
:100520000120404210BDC04610B504000368002BF6
:100530003AD10D2926D043688268934222DA0829ED
:1005400001D07F2910D1002B32DD013B63600821EF
:100550002000FFF7D1FF20212000FFF7D9FF08215D
:100560002000FFF7D5FF23E0581C824220DD0A005F
:10057000203A5F2A1CD86060E268D1542000FFF75F
:10058000BBFF15E00023E268616853540D21200091
:10059000FFF7B2FF0A212000FFF7AEFF012323601F
:1005A0002000FFF77BFF03E0032901D10123036152
:1005B00010BDC04670B5040000254560C3681D70BD
:1005C000FFF784FF00F0BEFB256000F0BFFB70BDAD
:1005D000F0B5020000230B604B608B60CB6006001F
:1005E00000240020002500271378092B03D0202B9E
:1005F00001D0002B0DD1012C06D11770840066505C
:10060000013003280FDC3C00002D06D1002B0AD05E
:1006100007E0002C01D116000134012D01D100208A
:1006200001E00132E0E7F0BDF0B583B006004169BA
:10063000C068FFF7CDFF002804DDB7690025002F53
:1006400021DD06E000213000FFF7B4FF0124644201
:1006500027E073691B680093F46900250194216801
:10066000009801F049FE002808D1019B5B6830002A
:10067000984701213000FFF79DFF04E00135083461
:10068000BD42EBD103E00024B369AB4209D10B4971
:100690003000FFF70FFF01213000FFF78BFF01242F
:1006A0006442B2680021F06801F0E0FD7069102238
:1006B000002101F0DBFD200003B0F0BD3424000870
:1006C00010B5024800F03CFA002010BD4C24000890
:1006D00010B5024800F034FA002010BD6424000870
:1006E00010B5024800F02CFA002010BD7424000858
:1006F00010B5024800F024FA002010BD882400083C
:1007000010B5024800F01CFA002010BD9C2400081F
:10071000F0B54F4680B482B001900D00914600289C
:1007200006DA2D230B704C1C43420193012603E093
:100730000C00002600E01C000A21019801F052FD87
:100740000F000A21019801F067FC019030372770F3
:10075000631C0136002802DD4E45ECD301E04E4516
:1007600001D300222A7000221A7023782A7822707E
:100770002B70013C0135AC42F7D802B004BC914665
:10078000F0BDC046F0B557464646C0B48BB03C48B5
:1007900000F0D6F93B4B5E689E426BD03A4F3B4B24
:1007A000984673689A46002E01D0183E00E0002655
:1007B000336B1C1D736B9B00E41A354B22689A4205
:1007C00003D1043422689A42FBD004AD3B68049301
:1007D000BB88AB80BB79AB7110226946306CFFF7E8
:1007E00097FF6946280001F0B1FD280001F0DEFD09
:1007F00028180322274901F0FBFC280000F0A0F98B
:100800002B00424603CA03C3336B181D001B80082C
:1008100010226946FFF77CFF6946280001F096FD2B
:10082000280001F0C3FD281803221A4901F0E0FC5A
:10083000280000F085F9184B1A6804929A88AA805B
:100840009B79AB71706B10226946FFF761FF6946B7
:10085000280001F07BFD280001F0A8FD28180322E4
:100860000E4901F0C5FC280000F06AF95646054B18
:100870009E4296D100200BB00CBC90469A46F0BD2B
:10088000B0240008041B0020F42400080025000800
:10089000EFBEADDEFC240008082500084424000853
:1008A000F0B5474680B404000F00904600286FD092
:1008B00000F048FAE36B002B6DD10233E36300F0E4
:1008C00045FA4346A362E76201235B426363236305
:1008D0000023A36314220021200001F0C7FC26009E
:1008E000143614220021300001F0C0FC0122012145
:1008F000200000F0D1FD051E51D101220021300061
:1009000000F0CAFD051E4AD1274B5969802080029C
:1009100001435961DA690243DA615A6901210A43E4
:100920005A619022D2051368F02083435038034364
:100930001360106A1D4B034088204001034313627B
:100940001B4B1A688A431A60A222FF32DA60E13A2E
:100950009A60B33A1A6019003332CB691A42FCD05C
:100960004022134B1A62134B1A680126B2431A60D5
:10097000A0221A6042465A600F4A9A60DF601A68E5
:1009800032431A6000F0DEF9E66300F0DFF906E0BA
:1009900005256D4203E000F0D9F908256D422800D5
:1009A00004BC9046F0BDC04600100240FF00FFFFAF
:1009B000004400405800024024440040F8B54F462F
:1009C0004646C0B4041E88463DD000293ED0002AC9
:1009D0003FD0436B0363836A161E9E4200D91E00FC
:1009E0000025274F002399467B68A26B9B18A16ABC
:1009F0008B4213D1002D3EDC636B002B33D0E36BB5
:100A0000012B33D1012001F0D5F8636B0133EBD01A
:100A1000236B013B2363002B2BD0E5E7E36A9B5C50
:100A2000424653550135B54216DAA36B0133A36331
:100A3000A26A9342D8D34B4600E001234A46A26300
:100A4000002BD1D017E005256D4214E005256D423D
:100A500011E005256D420EE0A36B0133A363A26A8A
:100A60009342EAD207E004256D4204E008256D4276
:100A700001E004256D4228000CBC90469946F8BD63
:100A800058000240F8B54F464646C0B404000F0077
:100A9000904600283AD000293BD0002A3CD00121C2
:100AA000494200F091FD061E38D11F4D2A680123EE
:100AB0009A432A601D4A2A6042466A601C4AAA601C
:100AC000EF602A6813432B601A4A93688021884696
:100AD0000B439360184FC2229200BB581B021B0AA3
:100AE000BB5080231B0199463B6020001430134902
:100AF00000F06AFD06000021280001F089F9434654
:100B00004A46FA50200000F01BFD07E00526764219
:100B100004E00526764201E00526764230000CBC52
:100B200090469946F8BDC046440002409A20000015
:100B3000284400400044004000E100E08813000029
:100B400010B5041E08D001F031FC0204120C210083
:100B50000348FFF797FF01E00820404210BDC04660
:100B6000A817002000B583B001A90870012202482F
:100B7000FFF788FF03B000BDA81700207047C046EC
:100B800010B500F0B1F900F0D9F810BD10B5802013
:100B9000800101F04BF9012806D18020400101F0CD
:100BA00051F9034800F0CCFC00F0C8F810BDC04675
:100BB000BC17002070B50C00160080235B040B608E
:100BC00000F0CBF8231F012528431860194800F0D6
:100BD000C5F82300083B05431D60043B164A1A6014
:100BE000043B164A1A60043B154A1A60043B154A36
:100BF0001A60300000F0B3F823001C3B1860043B7F
:100C0000114A1A60043B114A1A60043B104A1A60E8
:100C1000043B104A1A60043B0F4A1A60043B0F4A17
:100C20001A60043B0E4A1A6020003C380D4B0360EA
:100C300070BDC046511B00081212121203030303B9
:100C40000202020201010101111111111010101014
:100C5000090909090808080807070707060606061C
:100C600005050505040404047047C04644490868A6
:100C7000444A1043086044490120087043490A6807
:100C800010681030F0C8A046A946B246BB462038CE
:100C9000F0C8103080F30988BFF36F8F04217046CD
:100CA000084386463A493B48086062B6FEE772B69A
:100CB000364B1968384A126891421CD0EFF309800C
:100CC00020380860F0C044464D4656465F46F0C0A6
:100CD0001A6010681030F0C8A046A946B246BB465C
:100CE0002038F0C8103080F30988BFF36F8F0421DB
:100CF00070460843864662B6704724490A68114622
:100D00002648006880F30988042170460843864617
:100D1000104623498847EFF30880203080F3088885
:100D2000002080F31488BFF36F8F194919480860B9
:100D300062B6FEE71649174808607047144915481F
:100D400008607047EFF3108072B6704780F3108828
:100D50007047EFF3108070477047704770477047D7
:100D600072B6704762B67047EFF30580800601D017
:100D7000012070470020704701380028FCD17047DF
:100D800020ED00E00000C000941800208C18002026
:100D900004ED00E00000001090180020000000208A
:100DA0002118000870B505000022064B1A60064E97
:100DB0001C003268236801332360002AFAD028001F
:100DC0009047F6E780180020F0150020F0B587B0B6
:100DD0000592324800F0B2FF314C2500403520002A
:100DE00000F0ACFF0834AC42F9D12E4800F0A6FF69
:100DF0002D4C25004035200000F0A0FF0834AC4207
:100E0000F9D12A4C2A4D661CFF360027200000F03D
:100E100095FF2F8008340235B442F7D1254800F001
:100E20008DFF0023244A1360244A1360244A136070
:100E3000244A1360244A1360244A1360244A13602E
:100E4000244803610122002100F026FB041E21D169
:100E500021480023C364402202920193603300932F
:100E60001E4B7D33FF33213A1D4900F0D3FD041E94
:100E700010D105991B48FFF7F7FE174B124A136074
:100E8000104A1360FFF7D6F9041E03D1FFF776FE70
:100E9000FFF7ECFE200007B0F0BDC046841800202C
:100EA000BC1A002098180020401800207C1B00204D
:100EB0007C1C0020041B0020FC1A00209418002039
:100EC000BC1C0020901800208C180020001B002063
:100ED00080180020A81A00200C1B0020F815002004
:100EE000A50D0008A018002070B51E4B1B68012B33
:100EF00033D1FFF739FF01282FD1FFF723FF04007B
:100F0000194A136801331360184B1B685D6C690044
:100F1000174A8A5A002A1DD0196E0131914201DA0E
:100F2000196617E000221A66EB00124E9E19300077
:100F300000F008FF00280DD1ED000E4B5D196B6825
:100F40005B689E4206D0300000F02CFF01003000AC
:100F500000F022FF2000FFF7F9FE074800F0F0FA4A
:100F600070BDC04694180020001B00208C18002083
:100F70007C1C00207C1B0020A81A0020F0B54746EE
:100F800080B482B007000E0014001D0000283ED07F
:100F90002F4B99423ED8FFF7E7FE01283DD0002CA9
:100FA0003ED0002E3FD0072D40D9FB6A002B40D108
:100FB000A846A044BC62380000F00AFF08239C4603
:100FC000BC4463460193604600F002FF444536D2BC
:100FD000F600A619002501E0A04507D921000198D7
:100FE00000F002FF08340135A642F5D17D62002DE4
:100FF00022D03800103000F0A1FE3800183000F088
:101000009DFE7B6A3B62134BFB6200201BE00520C8
:10101000404218E00520404215E00220404212E024
:10102000052040420FE0052040420CE005204042F0
:1010300009E00820404206E00520404203E000238A
:101040007B620520404202B004BC9046F0BDC04621
:10105000FFFF0000896C8A0C70B50C0016001D00A3
:1010600000F0BAFE002811D1059B002B09D0002CFE
:1010700009D01A000499280000F000FC0B246442F7
:1010800009E0002C07D13060002404E0059B002417
:10109000002BF6D0F7E7200070BDC04670B5040005
:1010A0000D0000F04FFE002814D1200000F07AFE61
:1010B000002812D0041F002C12D0280000F08CFE53
:1010C000002810D0E066200000F012FC01280DD1AD
:1010D0000C380DE0082040420AE00820404207E0BA
:1010E0000820404204E00820404201E0082040423D
:1010F00070BDC046F0B585B004000E001500002894
:101100007AD000297BD0C36A1B011B09414A934254
:1011100078D1FFF729FE01282ED1002D75D1FFF7D8
:1011200011FE0700230010330022019208320092C2
:1011300003AA062149422000FFF78EFF0500380070
:10114000FFF704FE002D62DB039B5B683360FFF753
:10115000F9FD0700260008360399300000F044FE30
:10116000236A01332362200018303100FFF796FF15
:101170003800FFF7EBFD4AE0FFF7E4FD070023002E
:10118000103301950822009203AA0621494220004B
:10119000FFF762FF05003800FFF7D8FD2B000B3387
:1011A0000BD1FFF7C7FD1C4B1B689D6D2A000C324D
:1011B00003D1DB6E0393002501E0002D27DB039BA9
:1011C0005B683360FFF7BEFD070026000836039911
:1011D000300000F009FE236A01332362200018303A
:1011E0003100FFF75BFF04003800FFF7AFFD0B3461
:1011F0000DD1FFF79FFD0AE005256D4207E00525AB
:101200006D4204E009256D4201E002256D4228008F
:1012100005B0F0BD896C8A0C8C180020F0B587B041
:1012200004000E0017001D00002800D190E0C36AE2
:101230001B011B094C4A934200D08CE0FFF794FD40
:1012400001283AD1002F00D088E0FFF77BFD039002
:1012500023001833220008321000002201921032BD
:10126000009205AA01214942FFF7F6FE071E06D1AA
:10127000236A013B23620398FFF768FD04E00398AB
:10128000FFF764FD002F6BDB059B5E60FFF75AFDE7
:101290000600012D04D10599200000F0B1FD03E006
:1012A0000599200000F0A0FD200010302100FFF77C
:1012B000F5FE3000FFF74AFD52E0FFF743FD0390D3
:1012C00023001833220008321000019710220092E8
:1012D00005AA01214942FFF7BFFE071E06D1236A76
:1012E000013B23620398FFF731FD13E00398FFF7FA
:1012F0002DFD3B000B330BD1FFF71CFD1B4B1B6877
:101300009F6D3A000C3203D1DB6E0593002701E09C
:10131000002F25DB059B5E60FFF714FD0600012D05
:1013200004D10599200000F06BFD03E00599200031
:1013300000F05AFD200010302100FFF7AFFE04003E
:101340003000FFF703FD0B340AD1FFF7F3FC07E091
:1013500005277F4204E009277F4201E002277F4200
:10136000380007B0F0BDC046896C8A0C8C1800208C
:10137000F0B5474680B40C008D6985426AD1002DD6
:101380006BD00F000837380000F01AFD0023984694
:1013900023695B0719D56369012B07D100236361BA
:1013A000EB6A013BEB625A425A419046AB6A013B01
:1013B000AB62EA6A934208D12A6CAA64002B04D17A
:1013C0006B6C9A4201D001239846200000F0BAFCD1
:1013D000012803D10023A361002733E0200000F09F
:1013E000E1FC002827D0061F002E27D0300000F097
:1013F0007FFAA66130002030390000F0CDFC0027D4
:1014000023695B071ED5B36A0133B362200000F085
:1014100099FC002816D16368002B12D0043B002BE6
:1014200010D05B6C326C93420CD201236361F36A7F
:101430000133F36206E002277F4203E002277F4286
:1014400000E000274346012B09D1A96C280000F0D9
:101450005BF904E008277F4201E008277F4238005B
:1014600004BC9046F0BDC04670B5050004002034B1
:101470000BE0200000F096FC002806D0010008399F
:10148000002902D02800FFF773FF200000F05AFC6B
:101490000028EED070BDC04670B504000E001500E7
:1014A000002813D0002A14D08A4215D30369002BD8
:1014B00015D1FFF759FC012814D0200000F03EFCA4
:1014C000A660E560094B236100200DE00520404245
:1014D0000AE00520404207E00520404204E00520E4
:1014E000404201E00220404270BDC046EB73A10FB4
:1014F00010B5040000F026FC00280ED1200000F0FA
:1015000051FC002811D00438002810D000F0F0F968
:1015100001280ED00920404210E0A368E2689342FF
:101520000AD20133A360002008E0002006E000207A
:1015300004E00B20404201E00120404210BDC046C3
:1015400070B5041E25D003691B011B09144A934280
:1015500022D1FFF709FC01280AD1FFF7F3FB0500B0
:101560002000FFF7C5FF04002800FFF7EFFB15E0A0
:10157000FFF7E8FB05002000FFF7BAFF0400280092
:10158000FFF7E4FB23000B3308D1FFF7D3FB002464
:1015900004E00524644201E009246442200070BD97
:1015A000EB73A10F10B58368002B08D0013B83605B
:1015B000002008E000F062F90B20404203E0002A1E
:1015C000F8D10620404210BD70B504000D0000287F
:1015D00031D003691B011B091C4A93422ED1FFF72E
:1015E000C3FB01280ED1002D2BD1FFF7ABFB05006B
:1015F000002202212000FFF7D5FF04002800FFF79A
:10160000A5FB20E0FFF79EFB06002A000221200038
:10161000FFF7C8FF04003000FFF798FB23000B33EF
:1016200011D1FFF787FB0A4B1B689C6D23000C331D
:1016300009D1002407E00524644204E0092464423F
:1016400001E002246442200070BDC046EB73A10F8C
:101650008C18002070B50400051D280000F0B0FBB8
:10166000626C6069290000F077FB70BD0E4B1B684F
:10167000DB070BD4012302220B4801680A4206D182
:1016800052000133202BF8D1002300E00023DB00BF
:10169000064AD3185B68002B01D0043B00E000230E
:1016A000034A13607047C046BC1C00207C1B00200E
:1016B0009018002070B504000E00051D280000F0F1
:1016C0007FFBF0000E4BC01800F03CFB012805D159
:1016D0000C490B680122B24093430B60636CD80045
:1016E000074BC018290000F057FB06490A68606CD8
:1016F0000123834013430B60FFF7B8FF70BDC04662
:101700007C1B0020BC1C002070B504000D00C36AC7
:10171000002B15D1416CA94212D2836C026C9A4203
:1017200000D12B006364236D012B03D12000FFF750
:10173000C1FF21E05B071FD52000FFF78BFF1BE0F7
:101740000426002C18D0616C8D4215D26564236D7F
:10175000012B03D12000FFF7ADFF0DE01E42F0D0BA
:101760002000FFF777FF636D402B05D16369002BE5
:1017700002D09C69002CE4D170BDC04670B5040055
:10178000456C0123026D9A432265043000F018FB7A
:10179000E8000F4BC01800F0D5FA012808D10D4918
:1017A0000B680122AA4093430B60FFF75FFF0EE036
:1017B000094B1B689C420AD1ED00054B5D196B6813
:1017C000002B01D0043B00E00023034A136070BDEE
:1017D0007C1B0020BC1C00209018002070B5040069
:1017E000466C0125056500234361011DF000094B8E
:1017F000C01800F0D1FA084A1368B5401D431560BF
:10180000064B1B68002B04D05B6C9E4201D2034B3D
:101810001C6070BD7C1B0020BC1C002090180020A8
:101820007047C04610B54B1E03331DD807290ED88C
:101830000F4B1B68C91807230B40C36501000C310F
:10184000DB000C48181800F0A7FA00200EE0084B47
:101850001B68072213405918C16501000C31064866
:1018600000F09AFA002001E00520404210BDC04679
:10187000001B0020BC1A002084180020F8B50400CA
:101880000F0015000F4E3068FFF778FF3168042312
:101890000B654F65CD65002C03D1081D00F04EFA95
:1018A00007E04A6C0431200000F056FA054B1B6833
:1018B0005C616B1E033304D8024B18682900FFF7E4
:1018C000B1FFF8BD8C18002070B5050004000C3481
:1018D000200000F037FA002808D101235B42EB65B5
:1018E000200000F06DFA200000F028FA70BDC0461C
:1018F00010B50400002343610C3B8365FFF7E4FF50
:10190000236D1B0704D42000FFF768FF012002E0CD
:101910000823236500200023636510BD10B5040073
:10192000043000F00BFA2000FFF7CEFF2000FFF795
:101930009BFD0023E362A3626361A26C62641022D8
:1019400022656365A365E366113AE265236610BD0F
:10195000F0B5474680B482B02B4B1B6807271F4069
:10196000FFF7F0F90190002F29D1284A53689342DC
:1019700025D0254A9046254E5D68002B1CD00C3B97
:101980001C1E19D0DB6D083BE365072B14D80C2314
:101990009C46A44463460093604600F011FA424618
:1019A0001068E36DC01807231840C000184A944619
:1019B0006044009900F0F0F92B1EB342DCD1FC002A
:1019C000134BE4180025260011E0706800280ED0A3
:1019D0000C38071E0BD0FFF777FF381D00F0F0F929
:1019E0003800FFF785FF04235B42BB65012520001B
:1019F00000F0A8F90028E8D00198FFF7A7F928001F
:101A000002B004BC9046F0BD001B002084180020EA
:101A1000BC1A0020F0B5474680B405000F00160040
:101A20001C00002A03D1089B1B0608D468E01F2A6B
:101A300003D1089B5B0602D465E01F2A66D8069B8B
:101A40003F2B66D9002F67D0002D68D0002C69D0BD
:101A5000EB6C002B69D1FFF787F9012868D0374B71
:101A60001B6800229046012B02D1FFF76BF98046DC
:101A7000AF63079BEB632C63069B6B632E646E6402
:101A8000AE642F4BEB64069B002B07D000232D4A3E
:101A9000043C62600133696B9942F9D82800203018
:101AA00000F04CF90023AB62EB622C0018342000EC
:101AB00000F044F928000C3000F040F92800FFF74E
:101AC0002DFFEA6B296BA86BFFF774F828602100E3
:101AD0001D4800F061F91D4A136801331360C123EA
:101AE000089A134202D02800FFF778FE134B1B68B8
:101AF0000020012B1ED14046FFF728F9002019E0F5
:101B00000520404216E00520404213E005204042F7
:101B100010E0052040420DE0052040420AE005208B
:101B2000404207E00520404204E00520404201E039
:101B30000220404204BC9046F0BDC04694180020EC
:101B400069CFAB07EFBEADDE041B0020FC1A0020FE
:101B500010B5154B1C68FFF707F9002823D1134B6C
:101B60001B68012B1FD1FFF7EDF82000FFF77CFC6D
:101B70002000FFF703FE2000FFF7D0FE2000183002
:101B800000F01EF90A4A1368013B1360A022D20537
:101B9000E36C1340934201D1E26401E00023E3646B
:101BA0002000FFF7AAF810BD8C1800209418002020
:101BB000FC1A002070B5041E16D0FFF7D5F80128D6
:101BC00015D00E4B1B68012B14D1FFF7BBF8050095
:101BD000220001210020FFF751FE2800FFF7B6F890
:101BE000FFF7A8F8002007E00520404204E00220AB
:101BF000404201E00220404270BDC04694180020DF
:101C000010B5040000F09EF8002807D10023E3601F
:101C1000200000F0D5F8200000F090F810BDC0467C
:101C200010B50100C368072B0BD80B4A10681B18AE
:101C300007200340CB60DB000848181800F0ACF820
:101C400008E0054A126807201040C318CB6004481A
:101C500000F0A2F810BDC046001B00204018002074
:101C600098180020F0B5474680B484B002A800F070
:101C700065F82F4B1B6807271F40FFF763F801909B
:101C8000002F22D12B4B5C689C421ED0284B9846DB
:101C9000284D6668002C15D0E368083BE360072BED
:101CA00010D8200000F08CF843461868E3689C4682
:101CB000604407231840C0001F4B9C46604421002D
:101CC00000F06AF8341EAC42E3D1FE001A4BF6185D
:101CD000370013E07C68002C10D02000FFF790FF45
:101CE000A368002B04D0E360210002A800F054F8A0
:101CF0006369002B02D0216920009847300000F072
:101D000021F80028E6D006E002A800F04BF80028F1
:101D100001D0FFF785FF02A800F014F80028F3D0E7
:101D20000198FFF713F8002004B004BC9046F0BD02
:101D3000001B002098180020401800204060006020
:101D40007047C04600234268904203D10368181AC6
:101D5000434243411800704710B5436898420DD084
:101D6000002B05D01C1F002C02D01C6C944203D801
:101D70005B689842F4D101E0984205D14B601A6843
:101D80000A605160196005E01A6851601A680A60BB
:101D900019604B6010BDC046486003680B60596015
:101DA00001607047031E07D04068834206D0426836
:101DB000136042685A6002E0002000E00020704793
:101DC000036842685A60436802681A607047C046F8
:101DD00000230360436070470368002B01D01A683A
:101DE000026018007047C04600230B600368002B98
:101DF00002D10160416002E04368196041607047B0
:101E000003680B600368002B00D1416001607047DC
:101E1000002904D0026801231343036003E0026831
:101E2000014B134003607047FEFF00000023C20017
:101E300001D4034B1B680340581E8341D8B270473E
:101E400000000240C30001D4014B58607047C046F7
:101E500000000240F0B5474680B40025002301226F
:101E60009046032744469C400A682240944233D15E
:101E70000A79013A012A19D882683E00AE40B2437D
:101E8000826082684E79AE403243826042689446F6
:101E9000E24394B262461440446044688A791E0466
:101EA000360CB2401204120C2243426002683C001D
:101EB000AC40A243026004680A79AA40224302604F
:101EC000C2681C04E40B3E00A640B243C260C46872
:101ED000CA79AA402243C26001330235102BC1D116
:101EE00004BC9046F0BDC046002904D0044B5A699A
:101EF0001043586103E0024A5369834353617047BA
:101F000000100240002243088B4274D303098B4225
:101F10005FD3030A8B4244D3030B8B4228D3030CB9
:101F20008B420DD3FF22090212BA030C8B4202D35B
:101F30001212090265D0030B8B4219D300E0090A83
:101F4000C30B8B4201D3CB03C01A5241830B8B428C
:101F500001D38B03C01A5241430B8B4201D34B0375
:101F6000C01A5241030B8B4201D30B03C01A5241DA
:101F7000C30A8B4201D3CB02C01A5241830A8B425F
:101F800001D38B02C01A5241430A8B4201D34B0248
:101F9000C01A5241030A8B4201D30B02C01A5241AC
:101FA000CDD2C3098B4201D3CB01C01A5241830960
:101FB0008B4201D38B01C01A524143098B4201D39A
:101FC0004B01C01A524103098B4201D30B01C01AC5
:101FD0005241C3088B4201D3CB00C01A524183083F
:101FE0008B4201D38B00C01A524143088B4201D36C
:101FF0004B00C01A5241411A00D2014652411046CC
:102000007047FFE701B5002000F0F0F802BDC046C0
:102010000029F7D076E7704703460B437FD40022B0
:1020200043088B4274D303098B425FD3030A8B426C
:1020300044D3030B8B4228D3030C8B420DD3FF22D6
:10204000090212BA030C8B4202D31212090265D0A4
:10205000030B8B4219D300E0090AC30B8B4201D357
:10206000CB03C01A5241830B8B4201D38B03C01A9E
:102070005241430B8B4201D34B03C01A5241030B15
:102080008B4201D30B03C01A5241C30A8B4201D3C6
:10209000CB02C01A5241830A8B4201D38B02C01A71
:1020A0005241430A8B4201D34B02C01A5241030AE8
:1020B0008B4201D30B02C01A5241CDD2C3098B42CD
:1020C00001D3CB01C01A524183098B4201D38B014A
:1020D000C01A524143098B4201D34B01C01A5241ED
:1020E00003098B4201D30B01C01A5241C3088B4232
:1020F00001D3CB00C01A524183088B4201D38B001D
:10210000C01A524143088B4201D34B00C01A5241BE
:10211000411A00D201465241104670475DE0CA0F95
:1021200000D04942031000D34042534000229C4655
:1021300003098B422DD3030A8B4212D3FC2289015F
:1021400012BA030A8B420CD3890192118B4208D335
:10215000890192118B4204D389013AD0921100E097
:102160008909C3098B4201D3CB01C01A52418309AB
:102170008B4201D38B01C01A524143098B4201D3D8
:102180004B01C01A524103098B4201D30B01C01A03
:102190005241C3088B4201D3CB00C01A524183087D
:1021A0008B4201D38B00C01A5241D9D243088B42D3
:1021B00001D34B00C01A5241411A00D20146634676
:1021C00052415B10104601D34042002B00D54942DA
:1021D000704763465B1000D3404201B5002000F019
:1021E00005F802BD0029F8D016E770477047C046D1
:1021F00070B50F2A32D90C0004430B00A40731D16B
:1022000015000400103D2D0901352D0149191E68E6
:1022100026605E6866609E68A660DE681033E660D1
:1022200010349942F3D10F2345191340032B1BD9C6
:102230001C1F0023A4080134A400CE58EE50043320
:102240009C42FAD103232D1909191A4005D0002305
:10225000CC5CEC5401339A42FAD170BD0500002ADF
:10226000F5D1FAE70500F2E71A00F8E770B5830741
:102270003FD0541E002A3BD0CEB20300032503E01A
:10228000621E002C34D0140001335A1E16702B42EB
:10229000F6D1032C24D9FF250D402A0215432A0428
:1022A00015430F2C11D92600103E36090136360190
:1022B0001A009B19156055609560D56010329342E5
:1022C000F8D10F221440032C0AD9261FB608013674
:1022D000B6001A009B1920C29342FCD1032214407D
:1022E000002C05D0C9B21C19197001339C42FBD1D6
:1022F00070BD14000300CCE7F0B500250326124B97
:102300001F68435DFA1852783240012A10D04A5DA6
:10231000BC1864783440012C11D09B1A12D1002AC9
:1023200010D00135435DFA1852783240012AEED1BF
:102330004A5D2033BC1864783440012CEDD1203242
:102340009B1AEED01800F0BD0400002070B5050007
:10235000830717D102680F4BD31893430E4A14001A
:1023600013420FD1043002680A4BD318934323421F
:1023700008D104300268074BD31893432342F1D0AD
:1023800000E001300378002BFBD100F007F82800B3
:1023900070BDC046FFFEFEFE80808080031C0A7870
:1023A00001311A700133002AF9D1704710B5830743
:1023B00027D00378002B26D00300032102E01A78EF
:1023C000002A1CD001330B42F9D119680F4A104C76
:1023D0008A188A4322420FD1043319680B4A8A189B
:1023E0008A43224208D104331968084A8A188A436A
:1023F0002242F1D000E001331A78002AFBD1181AEA
:1024000010BD0300E1E70020FAE7C046FFFEFEFE34
:1024100080808080556E6B6E6F776E206D73672E37
:102420000D0A0000436E743A200000005348454CEA
:102430004C3E00000D0A57726F6E6720636F6D6D22
:10244000616E64210D0A0000060000005468697383
:1024500020697320612050535720636D642E0D0A4C
:1024600000000000566572202D20332E302E0D0AFC
:102470000000000054686973206973206120434D97
:1024800044312E0D0A0000005468697320697320DE
:102490006120434D44322E0D0A00000054686973D8
:1024A000206973206120434D44332E0D0A00000043
:1024B00054686520737461636B202255736167658E
:1024C0002220616E64202253697A65222076616C35
:1024D0007565732061726520696E207468652027B8
:1024E000696E7427286E6F74206279746573290D84
:1024F0000A0000005461736B3A20000020200000A5
:1025000055736167653A200053697A653A20000087
:102510007073770076657200636D643100000000AF
:10252000636D643200000000636D643300000000DE
:1025300064756D705F73746B0000000010250008F7
:10254000C106000814250008D10600081825000857
:10255000E106000820250008F106000828250008EB
:10256000010700083025000885070008002020200A
:102570002020202020202828282828202020202033
:102580002020202020202020202020202088101003
:10259000101010101010101010101010100404045F
:1025A000040404040404041010101010101041411D
:1025B000414141410101010101010101010101010B
:1025C000010101010101010110101010101042421F
:1025D00042424242020202020202020202020202DB
:1025E000020202020202020210101010200000007B
:1025F00000000000000000000000000000000000DB
:1026000000000000000000000000000000000000CA
:1026100000000000000000000000000000000000BA
:1026200000000000000000000000000000000000AA
:10263000000000000000000000000000000000009A
:10264000000000000000000000000000000000008A
:10265000000000000000000000000000000000007A
:10266000000000000000000000000000000000006A
:102670001C4880471C491D4A0020521A02DD043ABA
:102680008850FCDC1A491B4A1B4B9B1A03DD043B98
:10269000C858D050FBDC00200146FDF769FEFEE77C
:1026A000FEE7FEE7FEE7FEE7FEE7FEE7FEE7FEE702
:1026B000FEE7FEE7FEE7FEE7FEE7FEE7FEE7FEE7F2
:1026C000FEE7FEE7FEE7FEE7FEE7FEE7FEE7FEE7E2
:1026D000FEE7FEE7FEE7FEE7FEE7FEE7FEE7FEE7D2
:1026E000FEE70000C100000808000020C01C002018
:0C26F000FC26000800000020080000206C
:020000042000DA
:04000000A01A002022
:040004006C2500085F
:0400000508000000EF
:00000001FF
