:10000000F07F0010BD420000EF420000F14200000E
:10001000F3420000F5420000F7420000CC01FEEF81
:10002000000000000000000000000000F942000095
:10003000FB42000000000000130C000095040000CB
:100040000143000003430000054300000743000094
:1000500009430000A10400000D4300000F4300000D
:100060001143000013430000154300001743000034
:10007000194300001B4300001D4300001F43000004
:1000800021430000234300002543000027430000D4
:10009000294300002B4300002D4300002F430000A4
:1000A0003143000033430000354300003743000074
:1000B000394300003B4300003D4300003F43000044
:1000C0004143000008B5024800F01CFC002008BDB8
:1000D0003C40000008B5024800F014FC002008BDB8
:1000E0005440000008B5024800F00CFC002008BD98
:1000F0006440000008B5024800F004FC002008BD80
:100100007840000008B5024800F0FCFB002008BD64
:100110008C4000002DE9F04F8BB0404800F0F2FB1E
:100120003F4B5F689F4275D03E4E4FF01008D7F8A6
:1001300004900FB1183F00E000273C6B0434786B4B
:10014000A4EB80042368B34203D154F8043FB342C4
:10015000FBD004AD344B93E803000490ADF81410C9
:10016000090C8DF8161042466946386C00F0EEFC1A
:100170006946284603F0B4FE284603F02FFF2A18EC
:100180002A4BB3F800B093F802A025F800B082F82B
:1001900002A0284600F0B6FB254B93E8030085E853
:1001A0000300386B0430001B42466946800800F0AB
:1001B000CDFC6946284603F093FE284603F00EFF67
:1001C0002B1825F800B083F802A0284600F09AFB0F
:1001D000184B93E803000490ADF81410090C8DF847
:1001E000161042466946786B00F0B0FC6946284616
:1001F00003F076FE284603F0F1FE2A180E4B19880C
:100200009B7829529370284600F07CFB4F46044BA4
:1002100099458CD100200BB0BDE8F08FA0400000C4
:10022000DC220010EFBEADDEE4400000EC40000038
:10023000F0400000F8400000B44100002DE9F0411A
:1002400094B00024DFF888801E4F1F4E013414F054
:10025000010F04D03B6843F080633B6005E0D8F8B1
:10026000003043F08063C8F80030A6FB04239B08ED
:1002700003EB83039C4220D110226946204600F004
:1002800065FC684603F0AAFE0DEB00020F4B1988CF
:100290009B782DF80010937004ADDFF838E0BEE8CD
:1002A0000F000FC5BEE80F000FC59EE80F0085E8E0
:1002B0000F00694604A803F013FE642002F0B0FFAB
:1002C000C4E700BF3CC00920CDCCCCCCB441000079
:1002D00038C009205C410000F0B583B00B4D0C4ED6
:1002E0000C4F4FF0FF34224601A9284601F01AF8BE
:1002F0000028F8DB019B012B03D1384603F0B2FC48
:10030000EFE7304600F0FEFAEBE700BF781F001081
:100310008C410000080000102DE9F04188B0DFF8A2
:1003200030800A4F202422466946404600F04CFAAD
:10033000061EF8DD0DF1FF35002415F8011F3846C3
:1003400003F010FC0134A642F7DCEBE708000010D4
:10035000A81F001038B54FF0FF35064C294620463F
:1003600002F0AAFA0028F9DB02F084FC03F01EF97F
:10037000F4E700BF8022001008B500F0E1FA06485B
:1003800003F080FB00221146104600F043FD00B14F
:10039000FEE7002008BD00BF0800001000B585B0D2
:1003A00000222B4B1A604FF480722A492A4800F031
:1003B00077F90346002846D128480022C2648023EA
:1003C000029301920093264B264902F0E9FC034672
:1003D000002838D124480023C364012202920193EB
:1003E0004FF400730093214B0322214902F0D8FC03
:1003F000034640BB1F480023C364012202920193BD
:100400004FF4007300931C4B06221C4902F0C8FCF9
:100410000346C0B91A480023C36401220292019323
:100420004FF400730093174B0822174902F0B8FCF1
:10043000034640B915480023C3624023144A0821EB
:1004400000F0F8FD0346184605B05DF804FB00BF58
:10045000F01D0010F0080010A81F0010A01A0010D6
:10046000EC1D001055030000101B0010EC080010DC
:1004700019030000F0190010EC190010D902000057
:10048000801B0010EC1100103D020000781F0010CE
:10049000601A001008B500F07DFD00F002FC08BDF8
:1004A000F8B5294B1B6803F00E0703F00603042B75
:1004B00036D142E01021254D254B0026254CD5F89C
:1004C00000C0DA6AD3F828E00EF1FF30824206D08D
:1004D000186B0138824213D1BEF1000F10D1586B56
:1004E00000F802C0DA6A0132DA62186B824228BF71
:1004F000DE62DA6A0132904298BF32469A6209E0BF
:10050000586B00F802C0DA6A0132DA62186B824274
:1005100028BFDE62226812F0010F01D00139CED16E
:10052000022F07D10C4A136823F0020313600B4813
:1005300002F07EF900F0B5FBF8BD064B1B6813F026
:10054000010FB7D1F6E700BF08C0004000C000406F
:10055000A81F001014C0004004C00040BC1F0010C1
:10056000704700BF074AD36823F470631B041B0C59
:1005700043F0BF6343F40033000200F4E060034340
:10058000D360704700ED00E0024BD868C0F3022052
:10059000704700BF00ED00E0420900F01F0001239A
:1005A00003FA00F0014B43F82200704700E100E03D
:1005B000430900F01F00012202FA00F02033024A32
:1005C00042F82300704700BF00E100E043094033D8
:1005D000064A52F8232000F01F00012303FA00F01E
:1005E00030EA02030CBF01200020704700E100E068
:1005F000430900F01F00012202FA00F04033024AD2
:1006000042F82300704700BF00E100E0430900F01A
:100610001F00012202FA00F06033024A42F8230070
:10062000704700BF00E100E043098033064A52F8FA
:10063000232000F01F00012303FA00F030EA020338
:100640000CBF01200020704700E100E0002806DA1E
:1006500000F00F000901C9B2054B19547047090198
:10066000C9B200F1604000F5614080F800137047A6
:1006700014ED00E00138B0F1807F0AD2064B5860DB
:10068000F021064A82F823100020986007221A60A1
:1006900070470120704700BF10E000E000ED00E06F
:1006A00070B5002852D00446002952D00F2A53D9E1
:1006B00016460D4600F0FAFA236C002B4FD10223A8
:1006C000236400F0F7FA0023A362E3626563266304
:1006D0004FF0FF32E263A26323606360A360E360D4
:1006E000236104F114056361A361E3612362636222
:1006F00001221146204601F0DDFF0646002832D1D6
:1007000001220021284601F0D5FF064658BB174AB2
:10071000136843F050031360154B80221A60154A8A
:100720000021116034251448056019600125156009
:10073000C1210432116013221A600520FFF72CFF3B
:1007400000F0B4FA256400F0B5FA0CE06FF004068E
:1007500009E06FF0040606E06FF0040603E000F025
:10076000A9FA6FF00706304670BD00BF00C0024016
:100770000CC0004004C0004000C00040D0B138B5FB
:10078000044600F093FA236C012B16D10223236454
:1007900000F090FA0520FFF70BFF0025094B1D60C4
:1007A0002C331A681D6000F081FA256400F082FA8B
:1007B000284638BD6FF00400704700F07BFA002037
:1007C00038BD00BF04C000402DE9F047002843D0E9
:1007D0000446002943D0002A44D090460F46C36BFC
:1007E0008363026B904528BF90460026244DB14696
:1007F0004FF0010A2B6823F001032B60A36AE26A21
:10080000934216D12B6843F001032B60002E34DC99
:10081000E36B53B3236C012B2AD1504602F000FD49
:10082000E36BB3F1FF3FE5D0A36B013BA36313B3CD
:10083000E0E7626BD35CBB55A36A0133A362226B12
:10084000934228BFC4F828902B6843F001032B6023
:100850000136464511DACDE76FF004060DE06FF082
:1008600004060AE06FF0040607E06FF0030604E0F8
:100870006FF0070601E06FF003063046BDE8F08731
:1008800004C000402DE9F84360B30C46164680468C
:1008900059B36AB344F6206102F00EF88146E8B914
:1008A000164D174F3246102E28BF1022B61A32B1FD
:1008B000224414F8013B2B60A242FAD114463B6853
:1008C00043F002033B6041F2883108F1140001F06B
:1008D000F3FFB0F1000901DB002EE3D1404601F047
:1008E000A7FF07E06FF0040904E06FF0040901E0DE
:1008F0006FF004094846BDE8F88300BF00C000401F
:1009000004C0004048B110B5044603F067FB02463E
:1009100021460348FFF7B6FF10BD6FF00700704790
:10092000A81F001000B583B002A901F8040D012230
:100930000248FFF7A7FF03B05DF804FBA81F0010F3
:1009400008B52022714B1A601A46136813F0400F45
:10095000FBD002226E4B1A6001236E4A13600B21FA
:10096000883A1160043A13606B4BAA221A60552230
:100970001A606A4A136813F0806FFBD0684B1A68DC
:10098000C2F30B021A601A6842F480421A60032212
:1009900080331A600C33AA221A6055221A60614B08
:1009A0001A6842F003021A605F4A116841F00301BD
:1009B0001160196841F4F8711960116841F4F87117
:1009C0001160196841F4007119605848016841F4D8
:1009D00000710160196841F440611960116841F4C7
:1009E00040611160196841F0FF5141F4C011196074
:1009F000136843F0FF5343F4C013136008321368C5
:100A00004B490B4313604B4B186801431960116845
:100A100041F080611160196841F0806119604648B9
:100A2000016841F48001016000F5502000F5DE709E
:100A3000016841F488710160116841F070411160F2
:100A40001A6842F070421A603C4A136843F0070388
:100A500013603B4B196841F007011960116841F0C0
:100A600008011160196841F008011960116841F02E
:100A700010011160196841F010011960116841F00E
:100A800020011160196841F020011960116841F0DE
:100A900080011160196841F080011960116841F40A
:100AA00040711160196841F440711960116841F496
:100AB00000611160196841F400611960116841F426
:100AC00080511160196841F480511960116841F436
:100AD000005111601A6842F400521A60194A1368F2
:100AE00043F0007313601832136843F0007313600F
:100AF0000832136843F0405313601832136843F010
:100B0000405313601048FFF7B5FD08BDA0C10F406A
:100B100004C10F400CC10F408CC00F4088C00F4073
:100B200000C00F4000C0092018C009201CC00920C7
:100B30001303F00138C009200CC0024040C0092056
:100B400058C0092060C0092000770100F0B50028D6
:100B500006DA0C462D2304F8013B4042012601E051
:100B60000C460026DFF850E000E02C468EFB0035F6
:100B7000C317C3EBA5031F4603EB8303A0EB43039B
:100B800038463033254605F8013B0136002F02DD9B
:100B90009642EAD301E0964201D300230B70002372
:100BA0002B7023461A78087803F8010901F8012B05
:100BB0008B42F7D8F0BD00BF6766666606490868D5
:100BC00040F0807040F0400040F4803040F0100071
:100BD00040F4805008607047A8C10F40464908683B
:100BE00040F47F00086045494FF001000870444917
:100BF0000A681068B0E8F00F80F3098841494FF0A7
:100C000080500860002080F31488BFF36F8F63B6B4
:100C1000FEE772B63A4B19683B4A126891421BD004
:100C200000B5104639498847394B374A1268934214
:100C300001D13849884701BC8646314B1968324A90
:100C40001268EFF3098020E9F00F08601A6010685D
:100C5000B0E8F00F80F309884EF0040E62B67047DA
:100C600027490A6811462C48006880F309884EF02D
:100C7000040E104629498847EFF30880203080F39E
:100C80000888002080F31488BFF36F8F1D494FF050
:100C90008050086062B6FEE71A494FF08050086045
:100CA000704718494FF0805008607047EFF310808C
:100CB00072B6704780F310887047EFF3108070476A
:100CC000014648420840B0FA80F0C0F12000704769
:100CD00070477047704772B6704762B67047EFF35F
:100CE0000580C00501D00120704700207047013801
:100CF0000028FCD1704700BF20ED00E06820001004
:100D00003C20001004ED00E064200010D10D000034
:100D1000E4220010B90D0000000000100D2B0000AF
:100D200038B50C4615464FF080730B60FFF7D0FFC7
:100D300040F0010044F8040C1E48FFF7CAFF40F0E1
:100D4000010044F8080C4FF0123344F80C3C4FF00B
:100D5000033344F8103C4FF0023344F8143C4FF096
:100D6000013344F8183C2846FFF7B4FF44F81C0C44
:100D70004FF0113344F8203C4FF0103344F8243C3A
:100D80004FF0093344F8283C4FF0083344F82C3C2A
:100D90004FF0073344F8303C4FF0063344F8343C0E
:100DA0004FF0053344F8383C20464FF0043340F808
:100DB0003C3D38BDBD2F000010B5044CE26B216BEB
:100DC000A06BFFF7ADFF206010BD00BFE422001054
:100DD000426B036BA3EB82035A68024B9A4200D02A
:100DE000FEE77047EFBEADDE704700BF08B50646B0
:100DF0000022064B1A60064D1C462A682368013300
:100E00002360002AFAD030469047F6E730200010E1
:100E1000F01D00102DE9F04184B090460A460146CD
:100E2000334802F0B5FC044600285DD1314802F099
:100E300021FC314C04F14005204602F01BFC083433
:100E4000AC42F9D12D4802F015FC2D4C04F14005BF
:100E5000204602F00FFC0834AC42F9D1294C2A4D4F
:100E600004F580770026204602F004FC25F8026F86
:100E70000834BC42F7D1254802F0FCFB0021244B8A
:100E80001960244B1960244B1960244B1960244BC2
:100E90001960244B1960244B196024480161012218
:100EA00001F008FC0446F8B921480023C36440223D
:100EB00002920193602300931E4B1F221E4901F0F2
:100EC0006FFF044680B941461C48FFF78DFF184B61
:100ED000134A1360114A1360FFF760FA044618B909
:100EE000FFF73EFBFFF77AFE204604B0BDE8F08135
:100EF0004020001034200010942200106C200010BC
:100F0000F01F00105423001052240010DC220010A7
:100F1000D4220010682000109424001064200010D7
:100F20003C200010D8220010302000108022001039
:100F3000E4220010741F0010ED0D0000742000105A
:100F400038B5124B1B68012B14D10D460446FFF730
:100F5000C6FE90B9631E1D2B12D84FF6FE739D423C
:100F600011D8FFF7A3FE0A4B23F81450FFF7A2FE97
:100F7000002038BD6FF0010038BD6FF0010038BDB2
:100F80006FF0040038BD6FF0040038BD6820001019
:100F90005424001070B51B4B1B68012B2ED1FFF79A
:100FA0009EFE01282AD1FFF781FE0446164A1368E7
:100FB00001331360154B1B685D6C154A32F8152020
:100FC000CAB1196E0131914201DA196613E00022AB
:100FD0001A66104E06EBC506304602F04FFB50B9BC
:100FE00073685B689E4206D0304602F07DFB014686
:100FF000304602F073FB2046FFF75CFE064801F026
:1010000017FC70BD68200010D82200103C20001092
:1010100054240010542300108022001010B5FFF754
:1010200045FE034B1C68FFF745FE204610BD00BF80
:10103000D8220010002846D02DE9F8430E46144669
:101040001F468146B1F5803F40D2FFF748FE012898
:1010500040D0002C42D0002E44D0072F46D9D9F8DA
:101060002C30002B46D12744C9F82840484602F0CE
:1010700071FB09F10808404602F06CFBBC4241D20A
:1010800004EBC606002501E0A74207D921464046E9
:1010900002F06AFB08340135A642F5D1C9F82450A4
:1010A00065B309F1100002F0E5FA09F1180002F049
:1010B000E1FAD9F82430C9F82030164BC9F82C30A1
:1010C0000020BDE8F8836FF0040070476FF0040063
:1010D000BDE8F8836FF00100BDE8F8836FF004000D
:1010E000BDE8F8836FF00400BDE8F8836FF00400FA
:1010F000BDE8F8836FF00700BDE8F8836FF00400E7
:10110000BDE8F8830023C9F824306FF00400BDE87F
:10111000F88300BF896C8A0C2DE9F04130B90029B1
:1011200040D06FF004030B60002449E006460D46F2
:10113000FFF7D5FD012805D1002D40D06FF0010348
:101140002B603CE03021204802F04AFB0446002896
:1011500035D0F70039461C4802F042FB804640B9C2
:101160002146194802F0A2FB4DB36FF006032B6035
:1011700025E00023E3623B46024631462046FFF766
:1011800059FF88B9636A9E420ED103E06FF00603EF
:101190002B6014E0E36A43F0A043E36285B10023CF
:1011A0002B600DE000240BE0074E2146304602F094
:1011B0007DFB4146304602F079FB002DE6D100244C
:1011C0002046BDE8F08100BF4020001070B5044605
:1011D000FFF785FD01282AD0E36A23F07043194AFE
:1011E000934227D1184B1B68012B26D1FFF75EFDD8
:1011F000064604F1180001F099FD04F1100001F019
:1012000095FDE56A0023E3623046FFF753FD05F0E4
:10121000E045B5F1A04F13D10C4DA16A284602F06C
:1012200045FB2146284602F041FB002070BD6FF0CF
:10123000010070BD6FF0080070BD6FF0010070BD5F
:10124000002070BD896C8A0C6820001040200010BE
:1012500010B540B10446FFF742FDFFF727FD246AB1
:10126000FFF728FD01E04FF0FF34204610BD00BF1E
:1012700010B568B10446FFF732FDFFF717FD236A8A
:10128000646AA34214BF00240124FFF713FD00E0A9
:101290000024204610BD00BFF8B50C4616461F4678
:1012A000079D02F05BFA034668B945B144B12A468E
:1012B0000699384601F072FC6FF00A0407E034B971
:1012C0003360002403E0002DFAD10024F7E7204624
:1012D000F8BD00BF38B504460D4602F0CFF9A0B9FD
:1012E000204602F001FA98B1041F14D0284602F0FB
:1012F00035FA98B1E066204601F088FC012814BF59
:101300006FF007006FF00A0038BD6FF0070038BDBE
:101310006FF0070038BD6FF0070038BD6FF00700B1
:1013200038BD00BFF0B585B000287ED00446002946
:101330007ED0C36A23F07043434883427BD1154675
:101340000E46FFF7CCFC01282ED1002D76D1FFF7F9
:10135000ADFC0746002301930823009304F110031A
:1013600003AA6FF005012046FFF796FF05463846B1
:10137000FFF7A0FC002D63DB039B5B683360FFF786
:1013800095FC074604F108060399304602F0ECF993
:10139000236A01332362314604F11800FFF79AFFF4
:1013A0003846FFF787FC4BE0FFF780FC07460195C6
:1013B0000823009304F1100303AA6FF005012046EF
:1013C000FFF76AFF05463846FFF774FC15F10B0F6F
:1013D0000BD1FFF761FC1D4B1B689D6D15F10C0FC8
:1013E00003D1DB6E0393002501E0002D28DB039B76
:1013F0005B683360FFF75AFC074604F1080603995F
:10140000304602F0B1F9236A01332362314604F118
:101410001800FFF75FFF04463846FFF74BFC14F156
:101420000B0F0DD1FFF738FC0AE06FF0040507E061
:101430006FF0040504E06FF0080501E06FF00105AE
:10144000284605B0F0BD00BF896C8A0C3C20001016
:101450002DE9F04184B0002800F094800446C06A71
:1014600020F070404D4DA84240F08F801F46154639
:101470000E46FFF734FC012839D1002D40F088805A
:10148000FFF714FC8046002301931023009304F11E
:10149000180303AA4FF0FF3104F10800FFF7FCFE28
:1014A000054630B9236A013B23624046FFF702FC40
:1014B00004E04046FFF7FEFB002D6BDB039B5E6004
:1014C000FFF7F4FB0646012F04D10399204602F0F2
:1014D00057F903E00399204602F046F9214604F14A
:1014E0001000FFF7F7FE3046FFF7E4FB52E0FFF78E
:1014F000DDFB804601951023009304F1180303AA35
:101500004FF0FF3104F10800FFF7C6FE054630B981
:10151000236A013B23624046FFF7CCFB13E04046C1
:10152000FFF7C8FB15F10B0F0BD1FFF7B5FB1C4BF9
:101530001B689D6D15F10C0F03D1DB6E0393002525
:1015400001E0002D26DB039B5E60FFF7AFFB064644
:10155000012F04D10399204602F012F903E0039908
:10156000204602F001F9214604F11000FFF7B2FE17
:1015700004463046FFF79EFB14F10B0F0AD1FFF72C
:101580008BFB07E06FF0040504E06FF0080501E055
:101590006FF00105284604B0BDE8F081896C8A0C23
:1015A0003C20001011F0100F05D083681A4214BFC0
:1015B000012000207047836832EA03030CBF01203A
:1015C00000207047F8B50546406800271DE04668D2
:1015D000D0B1041F18D0626EA16E2846FFF7E2FF5B
:1015E0000746012810D1201D02F098F8204601F08E
:1015F0000DFBA36E13F0080F04D0626EAB6823EAF4
:101600000203AB60AB6813B13046A842DFD1384665
:10161000F8BD00BF98B138B50446B1F1FF3F11D015
:10162000C36893B90D46FFF75AFB012810D0204636
:1016300002F020F8A560084BE360002038BD6FF091
:10164000040070476FF0040038BD6FF0070038BD2C
:101650006FF0010038BD00BF254F220E70B5064661
:101660000D46FFF73CFB012805D105B36FF00103E0
:101670002B60002425E01021134802F0B1F8044645
:1016800068B10023C3603146FFF7C4FF064690B13E
:1016900021460D4802F00AF95DB12E6009E045B11E
:1016A0006FF006032B6004E000232B6009E00024A8
:1016B00007E0002405E0E36843F0A043E360002D69
:1016C000F2D1204670BD00BF40200010F0B583B0BD
:1016D0000023019318B96FF0040301932CE0C36851
:1016E00023F07043164A934203D06FF0080301932E
:1016F00022E00446FFF7F3FA012803D16FF001035B
:10170000019319E0FFF7D2FA0746204601F00EFBDD
:101710000646E5680023E3603846FFF7CBFA05F09C
:10172000E045B5F1A04F03D12146064802F0BEF8CE
:10173000012E01D1FFF7B0FA019803B0F0BD00BF50
:10174000254F220E402000102DE9F843002876D0C6
:101750000646002976D0C46824F07044424884428A
:1017600073D11D4617460C46FFF7B9FA012826D15A
:10177000089B002B6CD1FFF799FA80462246394628
:101780003046FFF70FFF01280BD10DB1B3682B6076
:1017900017F0080F0BD0B16821EA0401B1600024F2
:1017A00009E035B1B3682B606FF0030403E0002457
:1017B00001E06FF003044046FFF77CFA51E0FFF7C9
:1017C00075FA8046224639463046FFF7EBFE01287F
:1017D0000AD10DB1B3682B6017F0080F08D0B168BB
:1017E00021EA0401B16003E0BDB3B3682B6034E0CB
:1017F0004046FFF75FFA002433E0DFF87090D9F835
:1018000000309F665C66089A0421304601F0C6F9F4
:101810004046FFF74FFAFFF73FFAD9F800309C6DCA
:1018200014F10C0F1DD105E04046FFF743FA6FF0AD
:10183000030416E07DB15B6E2B60002411E06FF0B5
:1018400004040EE06FF004040BE06FF0080408E0FD
:101850006FF0010405E0002403E0089B002BE3D0B7
:10186000CBE72046BDE8F883254F220E3C20001030
:1018700070B370B5054671B3C36823F070431A4A5C
:1018800093422BD10C46FFF72AFA01280DD1FFF71E
:101890000DFA0646A9682143A9602846FFF792FE83
:1018A0003046FFF707FA002070BDFFF7FFF9064644
:1018B000A9682143A9602846FFF784FE0446304604
:1018C000FFF7F8F9012C0CD1FFF7E6F9002070BD05
:1018D0006FF0040070476FF0040070BD6FF00800F7
:1018E00070BD002070BD00BF254F220EB8B138B5C5
:1018F0000346B1F1FF3F15D0C26822F070420C4898
:10190000824212D11D460C46FFF7E9F9FFF7CEF9E6
:10191000A9682140A960FFF7CDF9002038BD6FF01C
:10192000040070476FF0040038BD6FF0080038BD48
:10193000254F220E2DE9F047089F002849D0884600
:1019400016461C468146B1F5803F46D2036B002BFC
:1019500047D1002C49D000294BD0002A4DD002F1AC
:101960000903BB424DD8FFF7BAF901284DD02744EF
:10197000C9F82C40C9F82860484601F0EBFE09F18F
:10198000080A504601F0E6FEBC4246D20025083661
:1019900001E0BC4208D22146504601F0E5FE344445
:1019A0000135A845F5D13FE0C9F824508DB309F1C0
:1019B000100001F05FFE09F1180001F05BFED9F89C
:1019C0002430C9F820301A4BC9F830300020BDE867
:1019D000F0876FF00400BDE8F0876FF00400BDE809
:1019E000F0876FF00700BDE8F0876FF00400BDE8F6
:1019F000F0876FF00400BDE8F0876FF00400BDE8E9
:101A0000F0876FF00400BDE8F0876FF00100BDE8DB
:101A1000F0876FF00400BDE8F0870023C9F8243098
:101A20006FF00400BDE8F087C9F82480BFE700BF6D
:101A3000BD9E28042DE9F04383B000B131B9002ADE
:101A40004BD06FF004031360002556E007461446A0
:101A50000E46FFF744F9012805D1002C4CD06FF059
:101A60000103236048E03421264801F0B9FE054611
:101A7000002841D006F1080807FB08F806F1090321
:101A8000984538BF984641461E4801F0A9FE814658
:101A900040B929461B4801F009FF6CB36FF00603FB
:101AA000236029E000232B63CDF8008003463246F3
:101AB00039462846FFF73EFF804690B96B6A9F4241
:101AC0000DD102E0C4F8008016E02B6B43F0A04378
:101AD0002B6394B1002323600FE000250DE06FF02D
:101AE0000708084E2946304601F0E0FE49463046D8
:101AF00001F0DCFE002CE5D10025284603B0BDE84E
:101B0000F08300BF4020001070B50446FFF7E7F8EF
:101B100001282AD0236B23F07043194A934227D11E
:101B2000184B1B68012B26D1FFF7C0F8064604F1BD
:101B3000180001F0FBF804F1100001F0F7F8256B34
:101B4000002323633046FFF7B5F805F0E045B5F113
:101B5000A04F13D10C4DE16A284601F0A7FE2146A3
:101B6000284601F0A3FE002070BD6FF0010070BD9B
:101B70006FF0080070BD6FF0010070BD002070BDF7
:101B8000BD9E280468200010402000102DE9F0437D
:101B900085B0002800F094800446002900F093806E
:101BA000002A00F09380066B26F070464D4886426E
:101BB00040F08F801E4690460F46FFF790F80128B0
:101BC00036D1002E40F08880FFF770F806460023DB
:101BD00001930823009304F1100303AA6FF0050199
:101BE0002046FFF759FB05463046FFF763F8002D06
:101BF00074DB03994D68454528BF45462A460831A0
:101C0000384602F085F8FFF751F8074604F1080658
:101C10000399304601F0A8FD236A0133236231465F
:101C200004F11800FFF756FB3846FFF743F855E07C
:101C3000FFF73CF8814601960823009304F1100356
:101C400003AA6FF005012046FFF726FB054648462C
:101C5000FFF730F815F10B0F0AD1FFF71DF8224BF3
:101C60001B689D6D15F10C0F02D1DB6E039301E033
:101C7000002D33DB03994A684546904528BF154639
:101C80002A460831384602F043F8FFF70FF80746B6
:101C900004F108060399304601F066FD236A01331A
:101CA0002362314604F11800FFF714FB044638465E
:101CB000FFF700F814F10B0F10D1FEF7EDFF0DE068
:101CC0006FF004050AE06FF0040507E06FF004050B
:101CD00004E06FF0080501E06FF00105284605B04B
:101CE000BDE8F083BD9E28043C2000102DE9F041A2
:101CF00084B0002800F0AD800446002900F0AC80DC
:101D0000002A00F0AC80006B20F070405A4DA842D1
:101D100040F0A8801D4617460E46FEF7E0FF01285A
:101D200043D1002D40F0A180FEF7C0FF8046002384
:101D300001931023009304F1180303AA4FF0FF311D
:101D400004F10800FFF7A8FA054630B9236A013B01
:101D500023624046FEF7AEFF05E04046FEF7AAFFCD
:101D6000002DC0F28480A26ABA4228BF3A46039886
:101D700042603146083001F0CBFFFEF797FF064680
:101D80000A9B012B04D10399204601F0F9FC03E0E2
:101D90000399204601F0E8FC214604F11000FFF70A
:101DA00099FA3046FEF786FF61E0FEF77FFF804636
:101DB00001951023009304F1180303AA4FF0FF319B
:101DC00004F10800FFF768FA054630B9236A013BC1
:101DD00023624046FEF76EFF13E04046FEF76AFFBF
:101DE00015F10B0F0BD1FEF757FF244B1B689D6DB0
:101DF00015F10C0F03D1DB6E0393002501E0002DDC
:101E000035DBA26ABA4228BF3A460398426031469F
:101E1000083001F07DFFFEF749FF06460A9B012BC3
:101E200004D10399204601F0ABFC03E0039920465E
:101E300001F09AFC214604F11000FFF74BFA04462A
:101E40003046FEF737FF14F10B0F10D1FEF724FFD9
:101E50000DE06FF004050AE06FF0040507E06FF095
:101E6000040504E06FF0080501E06FF00105284665
:101E700004B0BDE8F08100BFBD9E28043C200010E6
:101E800010B540B10446FEF72AFFFEF70FFF246AA3
:101E9000FEF710FF01E04FF0FF34204610BD00BFF9
:101EA00010B568B10446FEF71AFFFEF7FFFE236A7D
:101EB000646AA34214BF00240124FEF7FBFE00E085
:101EC0000024204610BD00BF38B504460D4601F081
:101ED000D5FB78B9204601F007FCB8B1043818D01A
:101EE000C56600F093FE01280CBF6FF00A006FF08A
:101EF000080038BDE269E3689A420DD2A3692B60FD
:101F0000A561E3690133E361002038BD6FF008008B
:101F100038BD6FF0080038BD4FF0FF3038BD00BF4E
:101F2000002857D02DE9F8430546002955D0006A0E
:101F3000002856D1012B01D9032A08D80023EB61D0
:101F4000EB602B62AB616FF00400BDE8F8831E46C6
:101F500091468846FEF7C3FE012846D0284601F088
:101F600089FBC5F8148008F1030727F003072F61E8
:101F700009F1030424F00304AC6009FB068204FBAE
:101F80000670EE60824234D2731E00E03346001BBE
:101F90005E1E8242FAD3EB60012B2AD80023EB614C
:101FA000EB60AB616FF00400BDE8F8830B463B606B
:101FB000AA68991801301F46EA68013A8242F5D8AA
:101FC000002018602B69AB61EB68EB610A4B2B6258
:101FD000BDE8F8836FF0040070476FF00400BDE8BF
:101FE000F8836FF00400BDE8F8836FF00100BDE8EE
:101FF000F8833B190020DAE78BCEB7062DE9F041D4
:1020000000B131B9002A45D06FF0040313600025F8
:1020100050E0074614460E46FEF761FE012806D141
:10202000002C39D06FF001032360002542E0242109
:10203000224801F0D5FB054600283AD0033727F0A7
:10204000030707FB06F11D4801F0CAFB804640B9B3
:1020500029461A4801F02AFC5CB36FF0060323609E
:1020600027E000232B6233463A4601462846FFF715
:1020700057FF98B9EB689E4210D103E06FF006035A
:10208000236016E02B6A43F0A0432B6294B1002337
:1020900023600FE000250DE000250BE0074E4146D0
:1020A000304601F003FC2946304601F0FFFB002CCE
:1020B000E4D100252846BDE8F08100BF4020001093
:1020C00080B3F8B50446036A23F070431C4A934278
:1020D0002BD1FEF704FE01282AD01A4B1B68012BD6
:1020E00029D1FEF7E3FD0746204600F01FFE064615
:1020F000256A002323623846FEF7DCFD05F0A04583
:10210000B5F1A04F08D1104D6169284601F0CEFB12
:102110002146284601F0CAFB012E0FD1FEF7BCFD77
:102120000020F8BD6FF0040070476FF00800F8BDA4
:102130006FF00100F8BD6FF00100F8BD0020F8BDA0
:102140008BCEB7066820001040200010F8B500289C
:102150004FD0044600294FD0036A23F07043334820
:1021600083424CD116460D46FEF7B9FD012816D123
:10217000002E47D1FEF79AFDE36943B1A2691168C9
:10218000A161013BE3612AB12A60002404E06FF001
:10219000050401E06FF00504FEF78CFD43E0FEF757
:1021A00085FD0746E369002B38D0A2691168A1615B
:1021B000013BE3614AB32A6066BB002415E0324666
:1021C0004FF40051204600F0E9FC3846FEF772FD5E
:1021D000FEF762FD164B1A68D26E2A601B689C6D72
:1021E00014F10C0F08BF00241DE03846FEF762FD15
:1021F00019E06FF0040416E06FF0040413E06FF0D0
:10220000080410E06FF001040DE0002ED7D16FF04C
:102210000504EAE7FEF74EFD002404E0002ECED1CF
:102220006FF00504E1E72046F8BD00BF8BCEB7068E
:102230003C20001070B580B3034689B3026A22F0D7
:1022400070421B4882422ED11D460C46FEF747FDC8
:10225000012810D1FEF72AFD064621462846FFF741
:1022600033FE044610F10B0F14BF04460024304621
:10227000FEF720FD19E0FEF719FD06462146284627
:10228000FFF722FE04463046FEF714FD14F10B0F53
:102290000BD1FEF701FD002407E06FF0040404E019
:1022A0006FF0040401E06FF00804204670BD00BF29
:1022B0008BCEB706D8B138B50446436AD3B90129E5
:1022C00001D0042919D10D46FEF709FD012817D0C8
:1022D000204601F0CFF904F1080001F0CBF92561A7
:1022E0000020A0612062084B6362606138BD6FF01E
:1022F000040070476FF0040038BD6FF0040038BD73
:102300006FF0010038BD00BF459E120770B506464C
:102310000D46FEF7E4FC012805D105B36FF001037B
:102320002B60002425E02821134801F059FA0446C7
:1023300068B1002343623146FFF7BCFF064690B107
:1023400021460D4801F0B2FA5DB12E6009E045B1B9
:102350006FF006032B6004E000232B6009E00024EB
:1023600007E0002405E0636A43F0A0436362002DA8
:10237000F2D1204670BD00BF4020001070B500288B
:1023800046D00246436A23F070433948834242D123
:1023900015460C46FEF7A3FC01283FD0FEF786FC4D
:1023A0000646AB69334A1068834254D083B9A861AA
:1023B00005F10801203001F091F92B6913F0040FA9
:1023C0004CD02C4B1A68936A01339362002449E085
:1023D000002C45D02B6913F0040F22D12EE069693F
:1023E00021B901216961D96A0131D962516CA869A9
:1023F000436C99422BD200F0FFFA28E0FEF74CFC28
:102400001C4B1B689C6D14F10C0F08BF00242CE0C2
:102410006FF0040429E06FF0080426E06FF0010477
:1024200023E022464021284600F0B8FB114B1A68F1
:10243000AB69506C196C8842D1D308E02246202148
:10244000284600F0ABFB3046FEF734FCD6E73046BA
:10245000FEF730FCD2E76FF0070403E0002401E050
:102460006FF005043046FEF725FC204670BD00BF26
:10247000459E12073C2000102DE9F0418D698542F0
:102480006FD1002D70D00C4601F10808404601F0D4
:1024900045F9236913F0040F1AD06369012B08D1A1
:1024A00000236361EF6A013FEF62B7FA87F77F09A4
:1024B00000E00027AB6A013BAB62EA6A934208D1B5
:1024C0002A6CAA642BB96B6C9A4218BF012700E0F2
:1024D0000027204601F0D2F8012803D10023A36190
:1024E0001C4637E0204601F0FFF820B3061F25D038
:1024F000304600F08BFBA661414606F1200001F05A
:10250000EDF8236913F0040F1BD0B36A0133B362F3
:10251000204601F0B3F8B0B96368B3B1043B16D0FC
:102520005A6C336C9A4214D201236361F36A01330B
:10253000F36200240EE06FF001040BE06FF0010481
:1025400008E0002406E0002404E0002402E0002467
:1025500000E00024012F09D1A96C284600F04CFAB4
:1025600004E06FF0070401E06FF007042046BDE8C7
:10257000F08100BF58B3F8B50446436A23F07043B6
:10258000184A934226D1FEF7AAFB012825D0FEF770
:102590008DFB0746204600F0C9FB06462146A06990
:1025A000FFF76AFF656A002363623846FEF782FB25
:1025B00005F0E045B5F1A04F03D121460A4801F0EE
:1025C00075F9012E0CD1FEF767FB0020F8BD6FF006
:1025D000040070476FF00800F8BD6FF00100F8BD0F
:1025E0000020F8BD459E12074020001030B583B092
:1025F00018B96FF00403019320E0436A23F070439D
:10260000104A934203D06FF00803019316E004468A
:10261000FEF765FB012803D16FF0010301930DE084
:10262000FEF744FB05462146074B1868FFF724FFD9
:1026300001902846FEF73EFBFEF72EFB019803B003
:1026400030BD00BF459E12073C20001038B505463E
:1026500000F1200409E0204601F046F8014620B1CF
:10266000083902D02846FFF707FF204601F006F898
:102670000028F0D038BD00BF10B54469C4B1204671
:1026800000F0FCFF80B9636893B1043B10D0A169EE
:1026900071B1486C8A6C824228BF02465B6C9A42D8
:1026A00028BF1A464A6410BDA3690BB19A6C5A64DC
:1026B00010BD00BFA8B170B50446AAB18A4216D3B6
:1026C0000369BBB915460E46FEF709FB012814D075
:1026D000204600F0CFFFA660E560094B2361002093
:1026E00070BD6FF0040070476FF0040070BD6FF0B4
:1026F000040070BD6FF0040070BD6FF0010070BD8C
:10270000EB73A10FF8B506460F461546FEF7E7FA3C
:10271000012805D10DB36FF001032B60002426E0E2
:102720001421144801F05CF8044670B100230361E1
:102730003A463146FFF7BEFF064690B121460D48A6
:1027400001F0B4F85DB12E6009E045B16FF0060309
:102750002B6004E000232B6009E0002407E0002444
:1027600005E0236943F0A0432361002DF2D1204608
:10277000F8BD00BF4020001038B3F8B50446036927
:1027800023F07043164A934222D1FEF7A8FA01289B
:1027900021D0FEF78BFA0746204600F0C7FA06461E
:1027A0002569002323613846FEF784FA05F0E045E9
:1027B000B5F1A04F03D121460A4801F077F8012E68
:1027C0000CD1FEF769FA0020F8BD6FF004007047E5
:1027D0006FF00800F8BD6FF00100F8BD0020F8BDF3
:1027E000EB73A10F4020001010B5044600F046FF27
:1027F00070B9204600F078FF90B1043812D000F094
:1028000005FA01280CBF6FF00A006FF0080010BD38
:10281000A368E268934207D20133A360002010BD91
:10282000002010BD002010BD4FF0FF3010BD00BFD4
:1028300038B530B3026922F0704215498A4223D17B
:102840000446FEF74CFA01280AD1FEF72FFA054696
:102850002046FFF7C9FF04462846FEF72BFA15E08D
:10286000FEF724FA05462046FFF7BEFF0446284639
:10287000FEF720FA14F10B0F08D1FEF70DFA002431
:1028800004E06FF0040401E06FF00804204638BD56
:10289000EB73A10F08B5836843B1013B836000204F
:1028A00008BD00F07BF96FF00A0008BD002AF8D1DE
:1028B0006FF0050008BD00BF70B598B3034600690E
:1028C00020F070401C4A90422FD11C460D46FEF766
:1028D00006FA01280DD15DBBFEF7E8F90546002296
:1028E00002212046FFF7D6FF04462846FEF7E2F90C
:1028F00020E0FEF7DBF906462A4602212046FFF7D4
:10290000C9FF04463046FEF7D5F914F10B0F11D17B
:10291000FEF7C2F9094B1B689C6D14F10C0F08BF40
:10292000002407E06FF0040404E06FF0080401E005
:102930006FF00104204670BDEB73A10F3C20001026
:1029400038B50446051D284600F0E8FE626C2946AD
:10295000606900F0A5FE38BD0E4B1B6813F0010F37
:102960000BD1012302220B480168114206D152000B
:102970000133202BF8D1002300E00023064A02EBAC
:10298000C3035B680BB1043B00E00023034A136000
:10299000704700BF942400105423001064200010DE
:1029A00070B504460E46051D284600F0B7FE1048D7
:1029B00000EBC60000F062FE012807D10D490B684C
:1029C000012202FA06F623EA06060E60606C29462A
:1029D000074B03EBC00000F081FE06490A68606CFB
:1029E0000123834013430B60FFF7B6FF70BD00BFA8
:1029F000542300109424001038B504460D46C36AD1
:102A0000A3B9416CA94211D2836C026C9A4208BFEF
:102A10002B464364036D012B02D1FFF7C1FF38BD84
:102A200013F0040F1CD0FFF78BFF38BDC4B1616CED
:102A30008D4215D26564236D012B03D12046FFF72B
:102A4000AFFF38BD13F0040FF0D02046FFF778FF3A
:102A5000636D402B04D1636913B19C69002CE5D1EF
:102A600038BD00BF38B50446456C036D23F0010343
:102A70000365043000F052FE104800EBC50000F082
:102A8000FDFD01280AD10E490B68012202FA05F565
:102A900023EA05050D60FFF75FFF38BD094B1B6892
:102AA0009C4209D1054B03EBC5056B680BB1043B98
:102AB00000E00023034A136038BD00BF5423001018
:102AC000942400106420001070B50446466C012563
:102AD000056500234361011D094800EBC60000F0B5
:102AE000FDFD084A1368B5401D431560064B1B6881
:102AF00023B15B6C9E423CBF034B1C6070BD00BFAA
:102B000054230010942400106420001038B5C36CC6
:102B100003F0A043B3F1A04F11D104460023C364D6
:102B2000436B03F18043013B016B054DA1EB830136
:102B3000284600F0BBFE2146284600F0B7FE38BD0F
:102B40004020001008B54B1E13F1030F1DD80729B4
:102B50000ED80F4B1B68194401F00703C36500F141
:102B60000C010C4800EBC30000F0B8FD002008BDCC
:102B7000074B1B6803F007031944C16500F10C0102
:102B8000054800F0ABFD002008BD6FF0040008BD53
:102B9000D82200109422001034200010F8B504460A
:102BA0000F4615460F4E3068FFF75CFF316804236F
:102BB0000B654F65CD651CB9C81800F05BFD07E0DB
:102BC0004A6C0431204600F06BFD064B1B685C61CB
:102BD0006B1E13F1030F04D82946024B1868FFF748
:102BE000B1FFF8BD3C20001038B5054600F10C04DB
:102BF000204600F043FD40B94FF0FF33EB6520461F
:102C000000F08CFD204600F035FD38BD10B50446BF
:102C1000002343616FF00B038365FFF7E5FF236D2E
:102C200013F0080F04D12046FFF74EFF012002E009
:102C30000823236500200023636510BD10B50446FA
:102C4000043000F017FD2046FFF7CEFF2046FFF7C7
:102C5000FDFC0023E362A3626361A26C6264102244
:102C600022656365A365E3664FF0FF32E265236684
:102C700010BD00BF2DE9F84F294B1E6806F007066E
:102C8000FEF714F807462EBB264A5368934221D01C
:102C9000DFF88CA0DFF8909090465D68BBB1B3F18F
:102CA0000C0414D0E36D083BE365072B0FD804F147
:102CB0000C0B584600F032FDDAF80000E36D1844C2
:102CC00000F00700594609EBC00000F007FD2B4655
:102CD0004545E2D1144D05EBC6054FF000082E46E0
:102CE00012E0706880B1B0F10C040DD02046FFF7FF
:102CF0007BFF201D00F012FD2046FFF787FF6FF0DD
:102D00000303A3654FF00108284600F0B7FC002834
:102D1000E7D03846FDF7CEFF4046BDE8F88F00BF4C
:102D2000D822001034200010942200102DE9F04128
:102D3000054600266FF0090801270DE0284600F03F
:102D4000D3FC48B1041F07D02046FFF75FFF0128DE
:102D500004BFC4F858803E46284600F08FFC002887
:102D6000ECD03046BDE8F08108B5036D13F0080FD4
:102D70000FD1102B10D0012B06D108230365FFF7CC
:102D800071FE6FF00A0008BD43F0080303650020E0
:102D900008BD4FF0FF3008BD6FF0020008BD00BF56
:102DA0002DE9F04704468A461D46DDF820900A9F2B
:102DB00016461AB917F0800F08D16AE01F2A03D10E
:102DC00017F0400F02D168E01F2A6AD8B9F13F0F0F
:102DD0006BD9BAF1000F6CD0002C6ED0002D70D0E2
:102DE000E36C002B71D1FDF77AFF012871D03C4BC9
:102DF0001B68012B03D1FDF759FF804601E04FF01E
:102E00000008C4F838A0099BE3632563C4F8349034
:102E100026646664A664334BE364B9F1000F07D0FF
:102E20000023314945F804190133626B9A42F9D8FD
:102E300004F1200000F01EFC0023A362E36204F111
:102E40001805284600F016FC04F10C0000F012FCF6
:102E50002046FFF7F3FEE26B216BA06BFDF760FFEE
:102E600020602946214800F039FC214A13680133CB
:102E7000136017F0C10F02D02046FFF725FE184B54
:102E80001B68012B29D14046FDF714FF0020BDE847
:102E9000F0876FF00400BDE8F0876FF00400BDE834
:102EA000F0876FF00400BDE8F0876FF00400BDE824
:102EB000F0876FF00400BDE8F0876FF00400BDE814
:102EC000F0876FF00400BDE8F0876FF00400BDE804
:102ED000F0876FF00100BDE8F0870020BDE8F087C3
:102EE0006820001069CFAB07EFBEADDEDC2200101A
:102EF000D42200102DE9F04F85B00F9C3F2A06D850
:102F0000002C4AD06FF00403236000254FE0984660
:102F1000164689460746FDF7E2FE012805D1002C3A
:102F200044D06FF00103236040E07021224800F09C
:102F300057FC0546002839D04FEA860A51461E48FC
:102F400000F04EFC834640B929461B4800F0AEFC19
:102F500064B36FF00603236028E00023EB64AAF15A
:102F600004030E9A0292CDF80480009603444A4668
:102F700039462846FFF714FF064680B10E4F294612
:102F8000384600F093FC5946384600F08FFC6CB18F
:102F900026600BE00023236009E0002507E0EB6CCE
:102FA00043F0A043EB64002CF4D100E00025284658
:102FB00005B0BDE8F08F00BF4020001010B5144BE5
:102FC0001C68FDF78CFE08BB124B1B68012B1DD142
:102FD000FDF76CFE2046FFF739FB2046FFF742FD68
:102FE0002046FFF72BFE04F1180000F097FB0A4A79
:102FF0001368013B1360E36C03F0A043B3F1A04FEF
:1030000018BF0023E3642046FDF72AFE10BD00BF71
:103010003C20001068200010D422001000284FD05F
:1030200038B50446C36C23F070432B4A93424AD10F
:10303000FDF755FE012849D0284B1B68012B03D012
:10304000274B1B689C4244D0FDF730FE05462046C6
:10305000FFF7FCFA236D012B03D12046FFF702FD99
:1030600013E013F0040F10D0201D00F057FBE36DA8
:10307000B3F1FF3F03D004F10C0000F04FFB636D90
:10308000402B02D12046FFF7F7FA2046FFF7D6FD86
:1030900004F1180000F042FB124A1368013B136070
:1030A000E36C03F0E043B3F1A04F18BF0023E364E7
:1030B0002846FDF7FFFD2046FFF728FD002038BD1C
:1030C0006FF0040070476FF0080038BD6FF001002A
:1030D00038BD6FF0010038BD69CFAB076820001024
:1030E0003C200010D422001038B570B3C26C22F01E
:1030F00070421B498A422BD11A4A1268012A2AD1EE
:103100000446FDF7ECFD01280ED1FDF7CFFD054685
:103110002046FFF729FE04462846FDF7CBFD14F1B3
:103120000B0F08BF002418E0FDF7C0FD0546204640
:10313000FFF71AFE04462846FDF7BCFD14F10B0FFD
:103140000BD1FDF7A9FD002407E06FF0040404E0B3
:103150006FF0080401E06FF00104204638BD00BFA5
:1031600069CFAB076820001038B500283ED0C26C8C
:1031700022F0704228498A423BD1284A1268012A2B
:103180003AD10446FDF7ABFD012816D1FDF78EFDBF
:103190000546236D13F0080F31D013F0040F07D14B
:1031A0002046FFF791FC2846FDF784FD002431E01E
:1031B00023F008032365002423E0FDF777FD05468F
:1031C000236D13F0080F20D013F0040F09D120460F
:1031D000FFF77AFC2846FDF76DFDFDF75DFD002445
:1031E00018E023F008032365002410E06FF00404C6
:1031F00010E06FF008040DE06FF001040AE06FF0DA
:1032000002042846FDF756FD04E06FF0020428464C
:10321000FDF750FD204638BD69CFAB076820001090
:10322000C0B138B50446FDF75AFD012815D00E4B44
:103230001B68012B14D1FDF739FD054622460121FB
:103240000020FFF7ABFC2846FDF734FDFDF724FD19
:10325000002038BD6FF0040070476FF0010038BDEA
:103260006FF0010038BD00BF6820001038B578B39A
:10327000C26C22F070421E498A422CD11D4A12684B
:10328000012A2BD10446FDF72AFD012810D1FDF7B4
:103290000DFD0546236D102B04D12046FFF714FCCD
:1032A000002401E06FF001042846FDF703FD1CE057
:1032B000FDF7FCFC0546236D102B12D12046FFF7CD
:1032C00003FC2846FDF7F6FCFDF7E6FC00240CE0C5
:1032D0006FF0040409E06FF0080406E06FF00104E9
:1032E00003E0FDF7E7FC6FF00104204638BD00BFA6
:1032F00069CFAB076820001040B370B50446C36CBB
:1033000023F07043194A934223D10D46FDF7E7FCA1
:10331000012821D0164B1B68012B20D16B1E1D2BC1
:1033200020D8FDF7C3FC0646A36C9D4203D3A26AD6
:10333000E36A9A4200D1A564256429462046FFF736
:103340005BFB3046FDF7B6FC002070BD6FF004005B
:1033500070476FF0080070BD6FF0010070BD6FF036
:10336000010070BD6FF0040070BD00BF69CFAB07F6
:103370006820001010B5044600F080F938B9002329
:10338000E360204600F0CAF9204600F073F910BD52
:1033900008B50146C368072B0BD80B4A10680344D5
:1033A00003F00703CB60094800EBC30000F096F977
:1033B00008BD054A106800F007000344CB600448CC
:1033C00000F08CF908BD00BFD8220010F01F0010DB
:1033D0006C200010A8B170B50446A9B18369B3B9D7
:1033E00016460D46FDF77BFC012813D0204600F061
:1033F00041F90020A060E06026616561074BA36190
:1034000070BD6FF0040070476FF0040070BD6FF086
:10341000040070BD6FF0010070BD00BF47D4040B05
:10342000F8B506460F461546FDF759FC012805D1AB
:103430000DB36FF001032B60002426E01C2114481B
:1034400000F0CEF9044670B1002383613A4631465C
:10345000FFF7C0FF064690B121460D4800F026FA5E
:103460005DB12E6009E045B16FF006032B6004E00A
:1034700000232B6009E0002407E0002405E0A36995
:1034800043F0A043A361002DF2D12046F8BD00BF58
:103490004020001010B370B50446836923F07043D8
:1034A000144A93421DD1FDF71AFC01281CD0FDF7E8
:1034B000FDFB06462046FFF75DFFA5690023A361DB
:1034C0003046FDF7F7FB05F0E045B5F1A04F0ED112
:1034D0002146094800F0EAF9002070BD6FF00400B1
:1034E00070476FF0080070BD6FF0010070BD0020E4
:1034F00070BD00BF47D4040B4020001008B3F8B5DE
:10350000044609B3B2F1FF3F21D0836923F0704331
:10351000134883421ED116460D46FDF7E0FB0128F5
:103520001BD0FDF7C3FB07462046FFF723FFE560EE
:10353000A6602046FFF72CFF3846FDF7BBFB0020B6
:10354000F8BD6FF0040070476FF00400F8BD6FF035
:103550000400F8BD6FF00800F8BD6FF00100F8BD81
:1035600047D4040BB0B138B5826922F070420E49DD
:103570008A4212D10446FDF7B2FB012810D0FDF7B4
:1035800095FB05462046FFF7F5FE2846FDF792FB22
:10359000002038BD6FF0040070476FF0080038BDA0
:1035A0006FF0010038BD00BF47D4040B2DE9F04790
:1035B00082B0684600F05EF82B4B1E6806F00706E6
:1035C000FDF774FB074606BB284B5C689C421CD089
:1035D000DFF894A0DFF898909846656894B1E368A6
:1035E000083BE360072B0DD8204600F097F8DAF887
:1035F0000000E368034403F00700214609EBC00024
:1036000000F06CF82C464545E7D1194D05EBC60591
:103610002E4610E0746874B12046FFF7ABFEA36835
:1036200023B1E3602146684600F058F8636913B19E
:10363000216920469847284600F020F80028E9D064
:1036400005E0684600F050F808B1FFF7A1FE6846B3
:1036500000F014F80028F4D03846FDF72BFB0020CA
:1036600002B0BDE8F08700BFD82200106C20001027
:10367000F01F001040600060704700BF4368984230
:1036800005D10368834214BF002001207047002049
:10369000704700BF43684B60086019604160704725
:1036A00010B4436898420BD023B11C1F02D0646C45
:1036B000944203D85B689842F6D101E0984205D164
:1036C0004B601A680A605160196005E01A68516021
:1036D0001A680A6019604B6010BC70474860036844
:1036E0000B60596001607047034638B140688342FF
:1036F00006D04268136042685A60704700207047E5
:10370000002070470368984204D01A6850601A6815
:10371000026000E000231846704700BF036842685B
:103720005A60436802681A60704700BF4368984255
:1037300009D08B4202D108E0994208D05B689842D8
:10374000FAD1002070470020704701207047012007
:10375000704700BF002303604360704703680BB1EC
:103760001A6802601846704700230B60036813B99B
:10377000016041607047436819604160704700BF55
:1037800003680B60036803B941600160704700BFC4
:10379000E0B1F1B12F2A1FD910B5CC1D24F00704D8
:1037A0008460531A234423F00703A4F108021A4447
:1037B000C26004600022226001684B6043600262C4
:1037C000012211461030FEF775FF10BD6FF00400A6
:1037D00070476FF0040070476FF00400704700BF3F
:1037E00070B500284FD0054600294EDD0C462E4B03
:1037F0001B68012B04D14FF0FF311030FFF75CF84C
:10380000E11D21F0070108312A68002A30D05368F1
:10381000994225DC41E05868814220DC401A0F289B
:103820000CDDCC181E68CE5060600AB92C6000E038
:10383000146059606A68511A69600BE022B91A462F
:1038400013682B60134601E0196811606A685968B3
:10385000521A6A6000221A60184633B909E01A4603
:103860001368002BD7D1002003E003F1080000E02B
:10387000002004460C4B1B68012B12D105F11000EF
:10388000FEF7D6FF0DE000240BE0002409E08C18C1
:103890001068885063601346C8E75B1A0F2BF6DC8C
:1038A000CEE7204670BD00BF682000102DE9F84328
:1038B000002800F0CF800546002900F0CE800F469A
:1038C0006F4B1B68012B04D14FF0FF311030FEF716
:1038D000F3FFA7F10802D2F804E01EF0070F40F052
:1038E000A58057F8083C002B40F0A380AB689A42B3
:1038F000C0F0A28002EB0E08A8F1080CEB689C4512
:1039000000F29D80D5F80090B9F1000F06D12A6031
:10391000696853680B446B60002492E04B460026B4
:1039200000E0234618469A4223D29C4580F09880B6
:10393000984513D16968714469602EB9D9F80010AF
:103940002A6047F8081C03E03168326047F8081C19
:1039500051685B680B445360002472E069687144ED
:1039600069600EB92A6000E0326047F8083C002424
:1039700067E09A4277D0596808441C68002C38D018
:10398000A2424ED2A44571D2A0451ED182420ED190
:10399000696871446960596852680A445A601968D4
:1039A000486802445A600A681A60002449E069685D
:1039B000714469601868416800681A6053680B4474
:1039C000536047F8080C00243BE0824208D1696844
:1039D00071446960596852680A445A60002430E0B2
:1039E00069687144696019681A6047F8081C002406
:1039F00027E0A0F108018A423BD9824208D16968D8
:103A000071446960596852680A445A60002418E099
:103A100069687144696019681A6047F8081C0024D5
:103A20000FE01E46002C7FF47CAF0AE04FF0FF341D
:103A300007E04FF0FF3404E04FF0FF3401E04FF0B7
:103A4000FF340F4B1B68012B16D105F11000FEF758
:103A5000EFFE11E06FF004040EE06FF004040BE0E1
:103A60004FF0FF34EDE74FF0FF34EAE74FF0FF345B
:103A7000E7E74FF0FF34E4E72046BDE8F88300BFF6
:103A80006820001010B50446E422002100F0B6F9C9
:103A90006022A26004F13800E06004F12803636151
:103AA0000B4B1B68A3610B4BE3610B4B23620B4B6E
:103AB0006362002100F0A2F904F1A403C4F8983075
:103AC0004023C4F89C300023C4F8A03010BD00BFD0
:103AD000384000002C4100000509000025090000C5
:103AE00008B500231A4601210248FDF7B1FC002069
:103AF00008BD00BF781F001008B5036A1BB1084657
:103B00009847002008BD4FF0FF3008BD036A4BB155
:103B100010B5044609B105489847236A04489847F8
:103B2000002010BD4FF0FF30704700BFB4410000CF
:103B30009C410000012303610020704708B5436ADF
:103B40001BB108469847002008BD4FF0FF3008BD64
:103B500008B5436A1BB108469847002008BD4FF0DE
:103B6000FF3008BD0368002B3DD110B504460D2978
:103B700027D043688268934223DA082901D07F293D
:103B800010D1002B34DD013B636008212046FFF794
:103B9000D5FF20212046FFF7DBFF08212046FFF755
:103BA000D7FF10BD581C824222DDA1F12002D2B203
:103BB0005F2A1DD8E2686060D1542046FFF7BEFF3F
:103BC00010BDE26863680021D1540D212046FFF743
:103BD000B5FF0A212046FFF7B1FF012323602046ED
:103BE000FFF77EFF10BD032904BF01230361704767
:103BF00010BD00BF38B5044600254560C3681D7080
:103C0000FFF784FFFDF752F82560FDF753F838BD44
:103C1000F0B5074600230B604B608B60CB6002461B
:103C20001C4618461E469C464FF0010E154612F8DB
:103C3000013B092B02D0202B00D063B93CB102F824
:103C400001CC41F820700130032809DC6446002EC5
:103C5000ECD12BB1EAE7002CE8D12F467446E5E71A
:103C6000F0BD00BF2DE9F04782464169C068FFF70B
:103C7000CFFF002806DDDAF81870002FD8BF002427
:103C800022DD06E000215046FFF7B4FF4FF0FF347D
:103C90002BE0DAF81C60DAF81430D3F800803546EF
:103CA000002456F83410404600F0F6F838B96B6836
:103CB0005046984701215046FFF79CFF04E001342D
:103CC0000835BC42EDD105E0DAF81830A34218BF40
:103CD00000240AD10D495046FFF70EFF012150463E
:103CE000FFF788FF4FF0FF34FFE7DAF808200021E4
:103CF000DAF80C0000F082F8DAF8143000221A60CA
:103D00005A609A60DA602046BDE8F087A44100005E
:103D1000844641EA000313F0030349D1403A23D318
:103D20000B6803604B6843608B688360CB68C3603B
:103D30000B6903614B6943618B698361CB69C36123
:103D40000B6A03624B6A43628B6A8362CB6AC3620B
:103D50000B6B03634B6B43638B6B8363CB6BC363F3
:103D600040304031403ADBD230320BD30B68036035
:103D70004B6843608B688360CB68C3601030103140
:103D8000103AF3D20C3205D351F8043B40F8043B0F
:103D9000043AF9D2043208D0D2071CBF11F8013B13
:103DA00000F8013B01D30B8803806046704700BFD9
:103DB000082A13D38B07B1D010F00303AED0C3F1A0
:103DC0000403D21ADB071CBF11F8013B00F8013BCA
:103DD000A4D331F8023B20F8023B9FE7043AD9D341
:103DE000013A11F8013B00F8013BF9D20B7803705E
:103DF0004B7843708B7883706046704770B484074B
:103E000046D0541E002A41D0CDB2034602E0621EC5
:103E1000E4B3144603F8015B9A07F8D1032C2ED9BA
:103E2000CDB245EA05250F2C45EA054519D92646A8
:103E300003F11002103E0F2E42F8105C42F80C5CA9
:103E400042F8085C42F8045C02F11002F2D8A4F1D6
:103E5000100222F00F0204F00F041032032C13445E
:103E60000DD91E462246043A032A46F8045BFAD8C6
:103E7000221F22F003020432134404F003042CB185
:103E8000C9B21C4403F8011BA342FBD170BC7047AC
:103E900014460346C2E700BF104B30B41D6810F84B
:103EA000013BEA18527802F00302012A11F8012BB3
:103EB00008BF2033AC18647804F00304012C06D04A
:103EC0009B1A01D1002AEAD1184630BC7047203233
:103ED0009B1AE4D0184630BC704700BF04000010A5
:103EE000830710B5044610D10268A2F1013323EA1A
:103EF000020313F0803F08D150F8042FA2F10133E0
:103F000023EA020313F0803FF6D003781BB110F8C8
:103F1000013F002BFBD100F003F8204610BD00BF8D
:103F200080EA0102844612F0030F4FD111F0030F13
:103F300032D14DF8044D11F0040F51F8043B0BD071
:103F4000A3F101329A4312F0803F04BF4CF8043BC6
:103F500051F8043B16D100BF51F8044BA3F10132D4
:103F60009A4312F0803FA4F101320BD14CF8043B8C
:103F7000A24312F0803F04BF51F8043B4CF8044BBD
:103F8000EAD023460CF8013B13F0FF0F4FEA33232E
:103F9000F8D15DF8044B704711F0010F06D011F80D
:103FA000012B0CF8012B002A08BF704711F0020FFB
:103FB000BFD031F8022B12F0FF0F16BF2CF8022BE6
:103FC0008CF8002012F47F4FB3D1704711F8012B09
:103FD0000CF8012B002AF9D1704700BF20F0030133
:103FE00010F00300C0F1000051F8043B00F1040C94
:103FF0004FEACC0C6FF000021CBF22FA0CF2134304
:104000004FF0010C4CEA0C2C4CEA0C4CA3EB0C02CC
:1040100022EA030212EACC1204BF51F8043B043036
:10402000F4D0C2F1000102EA0102B2FA82F2C2F156
:104030001F0200EBD200704706000000546869734D
:1040400020697320612050535720636D642E0D0A40
:1040500000000000566572202D20332E302E0D0AF0
:104060000000000054686973206973206120434D8B
:1040700044312E0D0A0000005468697320697320D2
:104080006120434D44322E0D0A00000054686973CC
:10409000206973206120434D44332E0D0A00000037
:1040A00054686520737461636B2022557361676582
:1040B0002220616E64202253697A65222076616C29
:1040C0007565732061726520696E207468652027AC
:1040D000696E7427286E6F74206279746573290D78
:1040E0000A0000005461736B3A2000002020000099
:1040F00055736167653A200053697A653A2000007C
:104100007073770076657200636D643100000000A3
:10411000636D643200000000636D643300000000D2
:1041200064756D705F73746B0000000000410000E7
:10413000C500000004410000D50000000841000057
:10414000E500000010410000F500000018410000EB
:10415000050100002041000015010000497420699C
:10416000732067726561746572207468616E205592
:10417000415254204649464F2073697A6520737432
:1041800072696E672E20436E743A2000556E6B6E16
:104190006F776E206D73672E0D0A00005348454CF3
:1041A0004C3E00000D0A57726F6E6720636F6D6D95
:1041B000616E64210D0A00000020202020202020B4
:1041C00020202828282828202020202020202020C7
:1041D00020202020202020202088101010101010D7
:1041E0001010101010101010100404040404040423
:1041F00004040410101010101010414141414141BD
:10420000010101010101010101010101010101019E
:1042100001010101101010101010424242424242AE
:10422000020202020202020202020202020202026E
:104230000202020210101010200000000000000016
:10424000000000000000000000000000000000006E
:10425000000000000000000000000000000000005E
:10426000000000000000000000000000000000004E
:10427000000000000000000000000000000000003E
:10428000000000000000000000000000000000002E
:10429000000000000000000000000000000000001E
:1042A000000000000000000000000000000000000E
:1042B000000000000000000000000000FCF77EFC91
:1042C00000202049204A91423CBF41F8040BFAE704
:1042D0001E491F4A1F4B9A423EBF51F8040B42F839
:1042E000040BF8E700200146FCF746F8FEE7FEE77E
:1042F000FEE7FEE7FEE7FEE7FEE7FEE7FEE7FEE796
:10430000FEE7FEE7FEE7FEE7FEE7FEE7FEE7FEE785
:10431000FEE7FEE7FEE7FEE7FEE7FEE7FEE7FEE775
:10432000FEE7FEE7FEE7FEE7FEE7FEE7FEE7FEE765
:10433000FEE7FEE7FEE7FEE7FEE7FEE7FEE7FEE755
:10434000FEE7000008000010982400105C43000005
:0843500000000010080000103D
:044358000000000061
:04435C0078220010B3
:04436000B841000060
:00000001FF
