:020000040800F2
:1000000000000220B94E0008EB4E0008ED4E00083B
:10001000EF4E0008F14E0008F34E0008000000000B
:10002000000000000000000000000000F54E000885
:10003000F74E0008000000007F200008351F000870
:10004000FD4E0008FF4E0008014F0008034F000856
:10005000054F0008074F0008094F00080B4F000824
:100060000D4F00080F4F0008114F0008134F0008F4
:10007000154F0008174F0008194F00081B4F0008C4
:100080001D4F0008411F0008214F0008234F0008A2
:10009000254F0008274F0008294F00082B4F000864
:1000A0002D4F00082F4F0008314F0008334F000834
:1000B000354F0008374F0008394F00083B4F000804
:1000C0003D4F00083F4F0008414F0008434F0008D4
:1000D000454F0008474F0008494F00084B4F0008A4
:1000E0004D4F00084F4F0008514F0008534F000874
:1000F000554F0008574F0008594F00085B4F000844
:100100005D4F00085F4F0008614F0008634F000813
:10011000654F0008674F0008694F00086B4F0008E3
:100120006D4F00086F4F0008714F0008734F0008B3
:10013000754F00080000000000000000774F000825
:10014000794F00087B4F00087D4F00087F4F000863
:10015000814F0008834F0008854F0008874F000833
:10016000894F00088B4F00088D4F00088F4F000803
:10017000914F0008934F0008954F000800000000C1
:1001800000000000974F0008000000000000000081
:10019000994F000800000000000000009B4F00087D
:1001A0000000000000000000000000009D4F00085B
:1001B0009F4F0008A14F0008A34F0008A54F00085B
:1001C000A74F000882B03A4AD2F8883043F470034F
:1001D000C2F88830374B1A6842F001021A600021D9
:1001E00099601A6822F0847222F480321A60324ACE
:1001F0005A601A6822F480221A60D9600091019135
:100200001A6842F480321A601A4641F28831136843
:1002100003F400330193009B01330093019B13B956
:10022000009B8B42F3D1234B1B6813F4003F14BF98
:10023000012300230193019B012B32D11D4B1A6C2A
:1002400042F080521A641D490A6842F440420A6032
:100250009A689A609A6842F400429A609A6842F4F6
:10026000A0529A60164A5A601A6842F080721A6068
:100270001A46136813F0007FFBD040F20572114B51
:100280001A60A3F580639A6822F003029A609A6864
:1002900042F002029A601A46936803F00C03082B9E
:1002A000FAD14FF00062024B9A6002B0704700BF73
:1002B00000ED00E0003802401030002400700040E3
:1002C00008544007003C02401E4B9B6803F00C039F
:1002D000042B06D0082B08D023BB1B4A1B4B1A60EB
:1002E00023E01B4A194B1A601FE0164B5A685B68E3
:1002F00003F03F0312F4800F124A5268C2F38812CF
:1003000014BF13491049B1FBF3F303FB02F20D4B89
:100310005B68C3F3014301335B00B2FBF3F30B4AA9
:10032000136002E0084A094B1A60064B9B68C3F34E
:100330000313084AD35CDAB204490B68D3400B605C
:10034000704700BF003802400024F4001000002075
:1003500000127A000000002038B54FF0FF35064C3F
:100360002946204603F0CAFB0028F9DB03F08AFD8A
:1003700004F078F9F4E700BF002300202DE9F041F4
:1003800088B0DFF830800A4F202422466946404674
:1003900000F084FC061EF8DD0DF1FF35002415F891
:1003A000011F384600F0A8F90134A642F7DCEBE75C
:1003B0003000002000200020F0B583B00B4D0C4E23
:1003C0000C4F4FF0FF34224601A9284602F00EF9E7
:1003D0000028F8DB019B012B03D1384600F00CFA12
:1003E000EFE7304600F028FDEBE700BFD01F00200C
:1003F0005C4C00083000002000B585B00023304A76
:10040000136030494FF4E1320A608B80CB800B815E
:100410008B810C234B814FF480732B4A2B4800F0C7
:1004200035FB0346002846D129480022C2648023B8
:10043000029301920093274B274903F0B9FD03462D
:10044000002838D125480023C36401220292019379
:100450004FF400730093224B0322224903F0A8FDBE
:10046000034640BB20480023C3640122029201934B
:100470004FF4007300931D4B06221D4903F098FDB5
:100480000346C0B91B480023C364012202920193B2
:100490004FF400730093184B0822184903F088FDAD
:1004A000034640B916480023C3624023154A082179
:1004B00001F090FF0346184605B05DF804FB00BF4D
:1004C000281E0020181E0020881100200020002077
:1004D000381B0020141E00205903000814010020BE
:1004E000840900207D030008881A0020841A002057
:1004F000B9030008A81B00208411002099050008FA
:10050000D01F0020F81A002000B583B00121084652
:1005100001F082F901238DF8043002238DF80530B3
:1005200000238DF806308DF8073002A9202341F80A
:10053000083D034800F0EEFE03B05DF804FB00BF89
:100540000000024008B50020FFF7DEFF0A4800F077
:1005500063F80A4B0A4A5A60F0210A4A82F82310CB
:100560000020986007221A600246014601F02CFE26
:1005700000B1FEE7002008BD3000002010E000E0E0
:100580003F90020000ED00E0024A536983F020032F
:1005900053617047000002402DE9F04186B0002011
:1005A000FFF7F2FF642003F0DFFE0124174EDFF8AF
:1005B0006480174F0020FFF7E7FF642003F0D4FEAC
:1005C0000134A6FB0423DB0803EB8303B4EB430FE6
:1005D000F0D101AD98E803000190ADF8081028466D
:1005E00004F0CEFAA6FB042314222918D80800F040
:1005F00081F9284604F0C4FA29183A88BB782A52AF
:100600008B70284600F018FCD4E700BFCDCCCCCCD2
:100610008C4C00086C4C000810B50446E422002104
:1006200004F0AEF96022A26004F13800E06004F149
:10063000280363610B4B1B68A3610B4BE3610B4BFE
:1006400023620B4B6362002104F09AF904F1A403C6
:10065000C4F898304023C4F89C300023C4F8A0307C
:1006600010BD00BF904C0008844D0008390E0008F2
:10067000590E000808B500231A460121024802F06D
:100680004BF8002008BD00BFD01F002008B5036A4A
:100690001BB108469847002008BD4FF0FF3008BD49
:1006A000036A4BB110B5044609B105489847236A5F
:1006B00004489847002010BD4FF0FF30704700BF3E
:1006C0008C4C0008744C0008012303610020704723
:1006D00008B5436A1BB108469847002008BD4FF093
:1006E000FF3008BD08B5436A1BB108469847002093
:1006F00008BD4FF0FF3008BD0368002B3DD110B599
:1007000004460D2927D043688268934223DA0829DA
:1007100001D07F2910D1002B34DD013B636008211B
:100720002046FFF7D5FF20212046FFF7DBFF0821F9
:100730002046FFF7D7FF10BD581C824222DDA1F1F1
:100740002002D2B25F2A1DD8E2686060D1542046F0
:10075000FFF7BEFF10BDE26863680021D1540D2190
:100760002046FFF7B5FF0A212046FFF7B1FF01231E
:1007700023602046FFF77EFF10BD032904BF01233D
:100780000361704710BD00BF38B5044600254560C1
:10079000C3681D70FFF784FF01F0C8FC256001F0FD
:1007A000C9FC38BDF0B5074600230B604B608B6079
:1007B000CB6002461C4618461E469C464FF0010E72
:1007C000154612F8013B092B02D0202B00D063B94B
:1007D0003CB102F801CC41F820700130032809DC5B
:1007E0006446002EECD12BB1EAE7002CE8D12F466D
:1007F0007446E5E7F0BD00BF2DE9F0478246416948
:10080000C068FFF7CFFF002806DDDAF81870002F68
:10081000D8BF002422DD06E000215046FFF7B4FFD8
:100820004FF0FF342BE0DAF81C60DAF81430D3F81C
:1008300000803546002456F83410404604F0EEF8A7
:1008400038B96B685046984701215046FFF79CFF26
:1008500004E001340835BC42EDD105E0DAF8183087
:10086000A34218BF00240AD10D495046FFF70EFFDE
:1008700001215046FFF788FF4FF0FF34FFE7DAF819
:1008800008200021DAF80C0004F07AF8DAF81430C5
:1008900000221A605A609A60DA602046BDE8F0874C
:1008A0007C4C000808B5024800F0C6FA002008BDDC
:1008B000944C000808B5024800F0BEFA002008BDBC
:1008C000AC4C000808B5024800F0B6FA002008BD9C
:1008D000BC4C000808B5024800F0AEFA002008BD84
:1008E000D04C000808B5024800F0A6FA002008BD68
:1008F000E44C0008F0B5002806DA0C462D2304F875
:10090000013B4042012601E00C460026DFF850E0A2
:1009100000E02C468EFB0035C317C3EBA5031F4632
:1009200003EB8303A0EB430338463033254605F839
:10093000013B0136002F02DD9642EAD301E09642E8
:1009400001D300230B7000232B7023461A780878FC
:1009500003F8010901F8012B8B42F7D8F0BD00BF65
:10096000676666662DE9F04F8BB0404800F064FA88
:100970003F4B5F689F4275D03E4E4FF01008D7F84E
:1009800004900FB1183F00E000273C6B0434786BF3
:10099000A4EB80042368B34203D154F8043FB3426C
:1009A000FBD004AD344B93E803000490ADF8141071
:1009B000090C8DF8161042466946386CFFF79AFF0D
:1009C0006946284604F050F8284604F0D9F82A1859
:1009D0002A4BB3F800B093F802A025F800B082F8D3
:1009E00002A0284600F028FA254B93E8030085E88A
:1009F0000300386B0430001B424669468008FFF74D
:100A000079FF6946284604F02FF8284604F0B8F824
:100A10002B1825F800B083F802A0284600F00CFA45
:100A2000184B93E803000490ADF81410090C8DF8EE
:100A3000161042466946786BFFF75CFF6946284608
:100A400004F012F8284604F09BF82A180E4B198877
:100A50009B7829529370284600F0EEF94F46044BDC
:100A600099458CD100200BB0BDE8F08FF84C000800
:100A70005C230020EFBEADDE3C4D0008444D000875
:100A8000484D0008504D00088C4C00082DE9F04FEF
:100A900085B0002800F0A98004461D461646019145
:100AA00001F044FBE36B002B40F0A2800223E363E0
:100AB00001F040FB0023A363E662A5624FF0FF3222
:100AC0006263226323606360A360E360236104F1D7
:100AD00014086361A361E36123626362012211462A
:100AE000204602F04FFF0746002840F08580012293
:100AF0000021404602F046FF074600287CD1012134
:100B0000084600F089FE01214FF4003000F0AEFEEF
:100B100001214FF4001000F07FFEDFF8ECA0072267
:100B20000221504600F07AFC07220321504600F0D3
:100B300075FC02238DF80C308DF80D304FF0000855
:100B40008DF80E804FF001098DF80F900DF1100B0C
:100B500004234BF8083D5946504600F0DBFB0823C0
:100B600002935946504600F0D5FBAAF5DE3A0199AA
:100B7000504601F03BF84FF000632364204B636460
:100B8000A664C4F84C80ADB22565C4F854804FF417
:100B90008063A365C4F85C80C4F860804FF4807300
:100BA0006366C4F86880C4F86C80C4F87090C4F8B8
:100BB0007480C4F87880134D04F14001284600F099
:100BC00003FA4A464021504601F058F94946284662
:100BD00000F038FA4946504601F08EF801F0A6FAC6
:100BE000C4F83C9001F0A6FA06E06FF0040703E0B9
:100BF00001F0A0FA6FF00707384605B0BDE8F08FA6
:100C0000044400408860024000000240B0B3F8B5E0
:100C1000044601F08BFAE36B012B32D10223E3632C
:100C200001F088FA4FF40032184BC3F88020184FB7
:100C3000384600F01FF9174E304600F01BF9164DEC
:100C400000224021284601F019F90022802128467F
:100C500001F014F90021384600F0F4F90021304683
:100C600000F0F0F90021284601F046F801F05EFAA4
:100C70000025E56301F05EFA2846F8BD6FF0040038
:100C8000704701F057FA0020F8BD00BF00E100E016
:100C900088600240A0600240004400402DE9F04717
:100CA00000283FD0044600293FD0002A40D090467B
:100CB0000E46436B0363826A904528BF9046002529
:100CC000264F4FF0010AA9467B68A26B1344A16A24
:100CD0008B4213D1002D3DDC636B002B32D0E36BD4
:100CE000012B32D1504603F03FFB636BB3F1FF3F62
:100CF000EAD0236B013B236353B3E5E7E36A9B5CD4
:100D000073550135454516DAA36B0133A363A26A17
:100D10009342D9D34B4600E05346C4F83890002B99
:100D2000D2D017E06FF0040514E06FF0040511E075
:100D30006FF004050EE0A36B0133A363A26A934234
:100D4000EAD207E06FF0030504E06FF0070501E069
:100D50006FF003052846BDE8F08700BF88600240B9
:100D60002DE9F843002853D00446002953D0002A27
:100D700054D015460E464FF0FF3102F0BFFE074635
:100D800000284DD14FF000632364274B6364A664B1
:100D90004023E364AAB22265002565654FF48063B1
:100DA000A365E565256665664FF40039C4F868906B
:100DB000E566012727676567A5671C4E04F14001BA
:100DC000304600F001F93A468021194801F056F802
:100DD0003A461421304600F0C1F93946304600F059
:100DE00031F9DFF8508088F81153C8F800904FF4BB
:100DF000FA6104F1140002F081FE074629463046EC
:100E000000F020F9C8F88090204602F033FE07E099
:100E10006FF0040704E06FF0040701E06FF00407CF
:100E20003846BDE8F88300BF04440040A06002409B
:100E30000044004000E100E048B110B5044603F072
:100E40009FFE82B221460348FFF78AFF10BD6FF074
:100E5000070070470020002000B583B002A901F808
:100E6000040D01220248FFF77BFF03B05DF804FB8D
:100E700000200020036823F00103036000230360C7
:100E800043608360C3600361212343613B4B98420D
:100E900003D13D22103B9A607047394B984204D1F0
:100EA0004FF47462283B9A607047364B984204D1E5
:100EB0004FF47412403B9A607047334B984204D110
:100EC0004FF07462583B9A607047304B984203D1A0
:100ED0002F4A703BDA6070472E4B984203D12E4A5E
:100EE000883BDA6070472D4B984203D12C4AA03BD7
:100EF000DA6070472B4B984204D14FF03D52B83B1B
:100F0000DA607047284B984203D13D22103B9A602B
:100F10007047264B984204D14FF47462283B9A6084
:100F20007047234B984204D14FF47412403B9A60AF
:100F30007047204B984204D14FF07462583B9A603E
:100F400070471D4B984203D1114A703BDA607047DD
:100F50001A4B984203D1104A883BDA607047184B0D
:100F6000984203D10E4AA03BDA607047154B984275
:100F700003D14FF03D52B83BDA6070471060024039
:100F800028600240406002405860024070600240A9
:100F90003D00002088600240400F0020A060024019
:100FA00000003D20B8600240106402402864024006
:100FB0004064024058640240706402408864024009
:100FC000A0640240B864024010B40268134B13409E
:100FD0000C68CA6814434A6914438A691443CA698D
:100FE00014430A6A14434A6A14438A6A14434A6BD4
:100FF00014438A6B224313430360436923F00702BF
:10100000CC6A0B6B2343134343610B6943604B680A
:1010100083608B68C3605DF8044B70473F801CF0B1
:101020000023036043608360C360036143618361A5
:10103000C361036243628362C36203634363836386
:10104000704700BF21B1036843F00103036070479C
:10105000036823F001030360704700BF21B10368F8
:1010600043F4004303607047036823F400430360C4
:10107000704700BF21B1036843F02003036070474D
:10108000036823F020030360704700BF416070478E
:10109000406880B2704700BF22B1036843F4002368
:1010A000036003E0036823F40023036001617047D9
:1010B00021B1036843F4802303607047036823F47D
:1010C00080230360704700BF0AB101617047C160AF
:1010D000704700BF0068C0F3C0407047006800F070
:1010E00001007047406900F03800704710B40B4AA7
:1010F0000B4B0C4CA04294BF1846104611F0005FF9
:1011000014BF4368036821F0F02121F082111942D5
:1011100014BF012000205DF8044B704700640240BA
:10112000006002400F64024010B4094A094B0A4CA7
:10113000A04294BF1846104611F0005F21F0F02144
:1011400021F0821114BFC16081605DF8044B7047CB
:1011500000640240006002400F64024011F0800F02
:101160000ED032B1436943F08003436180290AD134
:101170007047436923F080034361802909D1704798
:1011800080290CD02AB1036801F01E0119430160C7
:101190007047036801F01E0123EA010101607047F6
:1011A00010B4134B134A144CA04298BF134621F0BD
:1011B000F02222F0C3122AB1006800F01E0000EAFB
:1011C000D12002E0406900F0800011F0005F14BF00
:1011D0005B681B6821F0F02121F08211194203D0D5
:1011E000003018BF012000E000205DF8044B70477C
:1011F00000640240006002400F64024010B4094ADB
:10120000094B0A4CA04294BF1846104611F0005FEB
:1012100021F0F02121F0821114BFC16081605DF8DE
:10122000044B704700640240006002400F640240BB
:1012300008B5304B984208D10121084600F032FB36
:101240000021012000F02EFB08BD2B4B984208D155
:101250000121022000F026FB0021022000F022FBE9
:1012600008BD264B984208D10121042000F01AFB4A
:101270000021042000F016FB08BD214B984208D144
:101280000121082000F00EFB0021082000F00AFBDD
:1012900008BD1C4B984208D10121102000F002FB30
:1012A0000021102000F0FEFA08BD174B984208D12B
:1012B0000121202000F0F6FA0021202000F0F2FAAF
:1012C00008BD124B984208D10121402000F0EAFAF3
:1012D0000021402000F0E6FA08BD0D4B984207D1EE
:1012E0000121802000F0DEFA0021802000F0DAFAEF
:1012F00008BD00BF00000240000402400008024098
:10130000000C02400010024000140240001802408D
:10131000001C0240F0B500230125032605FA03F264
:101320000C68A24339D102685C0006FA04F7FF4357
:101330003A400260026891F804E00EFA04FE4EEAB8
:10134000020202600A79013AD2B2012A17D88268F1
:101350001740876087684A79A2403A4382604768AD
:101360009AB205FA02FE27EA0E074760D0F804E0B9
:101370008F7907FA02F292B242EA0E024260C7681F
:101380009AB2520006FA02F227EA0202C260C2686A
:10139000CF7907FA04F41443C4600133102BBDD194
:1013A000F0BD00BF4FF6FF7303600023037143716C
:1013B0008371C371704700BF82B04FF480330193D3
:1013C000019B0B430193019BC361C161019BC361FD
:1013D000C3690193C369019302B07047036919425D
:1013E00014BF012000207047006980B2704700BF21
:1013F0004369194214BF012000207047406980B240
:10140000704700BF704700BF704700BF704700BF04
:1014100041617047436959404161704710B401F020
:1014200007039B00C90800EB8100046A0F21994063
:1014300024EA01010162016A9A400A4302625DF8EE
:10144000044B70470E4B1A6842F001021A600021EB
:1014500099601A6822F0A85222F410221A60094AF0
:101460005A60094AC3F8842002F18062C3F88820D8
:101470001A6822F480221A60D960C3F88C10704771
:10148000003802401030002400300020024B0022BF
:101490001A701870704700BF02380240034A136880
:1014A00023F0F80343EAC0001060704700380240A0
:1014B000014B1860704700BF00004742084B0022F4
:1014C0001A701A70012802D0042804D07047012233
:1014D000034B1A7070470522014B1A70704700BF0A
:1014E00070380240014B1860704700BF800E4742C1
:1014F00010B4019C40EA0460029C40EA047001437D
:1015000041EA82125B08013B42EA0340024B586009
:101510005DF8044B704700BF00380240014B186073
:10152000704700BF6000474210B4019C240744EAA2
:101530000363184340EA81115208013A41EA024428
:10154000024BC3F884405DF8044B704700380240FA
:10155000014B1860704700BF6800474240EA0363D0
:1015600043EA81115208013A41EA0243014AC2F8B2
:101570008830704700380240014B1860704700BF48
:1015800070004742014B1860704700BF4C00474253
:10159000034A936823F0EC63194308439060704753
:1015A00000380240034A936823F078431943084304
:1015B0009060704700380240034A936823F00303A9
:1015C00018439060704700BF00380240024B986893
:1015D00000F00C00704700BF00380240034A9368D7
:1015E00023F0F00318439060704700BF00380240BA
:1015F000034A936823F4E05318439060704700BF98
:1016000000380240034A936823F4604343EAC00071
:10161000906070470038024010B4354B9B6803F06F
:101620000C030C2B46D8DFE803F0074545450A4577
:1016300045450D45454529002E4B03603CE02E4BAA
:10164000036039E02A4B5A685B6803F03F0312F4E9
:10165000800F274A5268C2F3881214BF26492549D1
:10166000B1FBF3F303FB02F2214B5B68C3F30143CD
:1016700001335B00B2FBF3F303601DE01C4B5A68BF
:101680005B6803F03F0312F4800F194A5268C2F3FB
:10169000881214BF18491749B1FBF3F303FB02F298
:1016A000134B5B68C3F3027301335B00B2FBF3F3CC
:1016B000036001E00F4B03600D4CA368C3F30313F9
:1016C0000E49CB5CDAB20368D3404360A268C2F330
:1016D00082228A5CD2B223FA02F28260A268C2F34A
:1016E00042328A5CD2B2D340C3605DF8044B70478B
:1016F000003802400024F40000127A001400002098
:1017000000F44073B3F5407F09D108498B6823F496
:10171000F81320F0704222F4407213438B60034AA6
:10172000136FC0F30B001843106770470038024076
:10173000014B1860704700BF3C0E4742014B1860D8
:10174000704700BF400E474260B90D4BD3F88C2064
:1017500022F0C062C3F88C20D3F88C201143C3F868
:101760008C107047064BD3F88C2022F0C052C3F87F
:101770008C20D3F88C2042EA8101C3F88C1070478A
:101780000038024060B90D4BD3F88C2022F440128F
:10179000C3F88C20D3F88C201143C3F88C10704709
:1017A000064BD3F88C2022F44002C3F88C20D3F8E7
:1017B0008C2042EA8101C3F88C1070470038024047
:1017C000044AD2F88C3023F01F0301380343C2F8D7
:1017D0008C30704700380240054AD2F88C3023F430
:1017E000F853013843EA0023C2F88C30704700BF39
:1017F00000380240044AD2F88C3023F440331843B6
:10180000C2F88C00704700BF00380240014B1860DE
:10181000704700BFE011474221B1054B1A6B1043DE
:1018200018637047024A136B23EA00001063704785
:101830000038024021B1054B5A6B10435863704782
:10184000024A536B23EA000050637047003802409D
:1018500021B1054B9A6B104398637047024A936B12
:1018600023EA0000906370470038024021B1054B25
:101870001A6C104318647047024A136C23EA000084
:10188000106470470038024021B1054B5A6C104378
:1018900058647047024A536C23EA00005064704752
:1018A0000038024021B1054B1A6910431861704796
:1018B000024A136923EA00001061704700380240B1
:1018C00021B1054B5A69104358617047024A536968
:1018D00023EA0000506170470038024021B1054BF7
:1018E0009A69104398617047024A936923EA00009D
:1018F000906170470038024021B1054B1A6A1043CD
:1019000018627047024A136A23EA000010627047A7
:101910000038024021B1054B5A6A104358627047A3
:10192000024A536A23EA00005062704700380240BE
:1019300021B1054B1A6D104318657047024A136DAB
:1019400023EA0000106570470038024021B1054BC2
:101950005A6D104358657047024A536D23EA0000E0
:10196000506570470038024021B1054B9A6D104315
:1019700098657047024A936D23EA000090657047AE
:101980000038024021B1054B1A6E104318667047AB
:10199000024A136E23EA00001066704700380240C6
:1019A00021B1054B5A6E104358667047024A536E78
:1019B00023EA000050667047003802400128044ABC
:1019C000136F0CBF43F0080323F00803136770473D
:1019D000003802400128054AD2F894300CBF43F089
:1019E000006323F00063C2F894307047003802406F
:1019F0000128054AD2F894300CBF43F0805323F0FD
:101A00008053C2F8943070470038024039B1074A19
:101A1000D2F8903023EA0000C2F890007047034AE1
:101A2000D2F890301843C2F8900070470038024056
:101A30000128054AD2F894300CBF43F0005323F03C
:101A40000053C2F894307047003802400128054A1C
:101A5000D2F894300CBF43F0806323F08063C2F867
:101A60009430704700380240064BD3F8942022F49B
:101A70004002C3F89420D3F894201043C3F8940094
:101A8000704700BF0038024021B1054B1A7810435F
:101A900018707047024A137823EA000010707047EC
:101AA0000D3802404309012B02D1074B1B6804E0AB
:101AB000022B054B0CBF1B6F5B6F00F01F0023FA5E
:101AC00000F000F0010070470038024030B583B0EC
:101AD00000230193312541F288342846FFF7E2FFC5
:101AE000019B01330193019BA34201D00028F4D054
:101AF0003120FFF7D7FF003018BF012003B030BD01
:101B0000024A536F43F080735367704700380240B6
:101B1000034BDB68184214BF01200020704700BF50
:101B200000380240014B1870704700BF0E38024069
:101B300008B5284B984208D101211020FFF7EAFE92
:101B400000211020FFF7E6FE08BD234B98420AD182
:101B500001214FF40030FFF7CFFE00214FF4003099
:101B6000FFF7CAFE08BD1D4B98420AD101214FF470
:101B70008020FFF7C1FE00214FF48020FFF7BCFE5C
:101B800008BD174B98420AD101214FF40020FFF7FE
:101B9000B3FE00214FF40020FFF7AEFE08BD114B4D
:101BA00098420AD101214FF48010FFF7A5FE0021D1
:101BB0004FF48010FFF7A0FE08BD0B4B984207D1F1
:101BC00001212020FFF7A6FE00212020FFF7A2FE22
:101BD00008BD00BF00100140004400400048004024
:101BE000004C0040005000400014014030B585B06A
:101BF00004460D46036923F44053CA8813439BB23D
:101C00000361C36823F4B05323F00C0389882A8945
:101C10000A4369890A4392B213439BB2C360436982
:101C200023F44073AA8913439BB243616846FFF7CC
:101C3000F3FC1D4B9C4203D003F580639C4201D111
:101C4000039B00E0029BE26812F4004F03EB830366
:101C500003EB8303296814BF49008900B3FBF1F14A
:101C6000124BA3FB01235B091801642203FB12132F
:101C7000E26812F4004F0AD0DA0002F132010B4A96
:101C8000A2FB0132C2F3421242EA000308E01B0148
:101C900003F13202054BA3FB0223C3F343130343B7
:101CA0009BB2A36005B030BD001001401F85EB5111
:101CB0004FF41653036000238380C38003810C22FA
:101CC00042818381704700BF10B4036923F47062BE
:101CD0000C884B8823438C882343C9880B439BB2D1
:101CE00013439BB203615DF8044B704700230380EC
:101CF00043808380C380704721B1C36843F400539D
:101D0000C3607047C36823F400531B041B0CC360FB
:101D1000704700BF836903F47F438361836919437C
:101D20008161704721B1C36843F40043C3607047C9
:101D3000C368C3F30E03C360704700BF21B143699A
:101D400043F4006343617047436923F400631B0459
:101D50001B0C4361704700BFC1F30801416070472D
:101D60004068C0F308007047036923F00F031B04A9
:101D70001B0C0361036919430161704721B1C368FA
:101D800043F00203C3607047C36823F002031B04DF
:101D90001B0CC360704700BFC36823F400631B04BF
:101DA0001B0CC360C3681943C1607047036923F00B
:101DB00020031B041B0C0361036919430161704775
:101DC00021B1036943F4804303617047036923F43D
:101DD00080431B041B0C0361704700BFC36843F0C2
:101DE0000103C360704700BF21B1436943F008039A
:101DF00043617047436923F008031B041B0C4361D4
:101E0000704700BF8369DBB28361836943EA0121C4
:101E10008161704721B1436943F0200343617047FA
:101E2000436923F020031B041B0C4361704700BF70
:101E300021B1436943F0100343617047436923F0C4
:101E400010031B041B0C4361704700BF436923F060
:101E500004031B041B0C4361436919434161704730
:101E600021B1436943F0020343617047436923F0A2
:101E700002031B041B0C4361704700BF1AB1436986
:101E80001943416170474369C94389B219404161AF
:101E9000704700BF10B4C1F3421401F01F010123C9
:101EA00003FA01F19C4201D10C3003E0022C0CBF7B
:101EB000103014301AB103681943016003E003685D
:101EC00023EA010101605DF8044B70470368194281
:101ED00014BF012000207047C94389B201607047D8
:101EE00010B4C1F3421201F01F040123A340012AE0
:101EF00002D1C268134004E0022A0CBF02694269A1
:101F00001340026843B1090A012303FA01F11142A7
:101F100014BF1846002000E000205DF8044B704715
:101F2000090A012303FA01F1C94389B2016070472C
:101F3000704700BF08B500F0FDF900F0F2F808BDE9
:101F400008B508490848FFF72BF9012802D10748CE
:101F500001F090FD06490448FFF750F900F0E1F860
:101F600008BD00BF00802020A06002401420002097
:101F700000E0382038B50C4615464FF080730B60F2
:101F800000F0E6F840F0010044F8040C204800F0AE
:101F9000E0F840F0010044F8080C4FF0123344F828
:101FA0000C3C4FF0033344F8103C4FF0023344F83C
:101FB000143C4FF0013344F8183C284600F0CAF8AE
:101FC00044F81C0C6FF0020344F8203C4FF011332E
:101FD00044F8243C4FF0103344F8283C4FF00933C8
:101FE00044F82C3C4FF0083344F8303C4FF00733B2
:101FF00044F8343C4FF0063344F8383C4FF0053396
:1020000044F83C3C20464FF0043340F8403D38BD96
:102010000541000810B5044CE26B216BA06BFFF783
:10202000A9FF206010BD00BF64230020426B036B3A
:10203000A3EB82035A68024B9A4200D0FEE7704736
:10204000EFBEADDE704700BF4B49086840F47F002B
:1020500008604A494FF00100087049490A68106851
:10206000B0E8F04F80F3098846494FF0805008608F
:10207000002080F31488BFF36F8F63B6FEE772B65B
:102080003F4B1968404A1268914225D000B510466E
:102090003E4988473E4B3C4A1268934201D13D4934
:1020A000884701BC8646364B1968374A1268EFF3F9
:1020B00009801EF0100F08BF20ED108A20E9F04FB4
:1020C00008601A601068B0E8F04F1EF0100F08BFEB
:1020D000B0EC108A80F309884EF0040E62B67047A7
:1020E00027490A6811462C48006880F309884EF099
:1020F000040E104629498847EFF30880203080F30A
:102100000888002080F31488BFF36F8F1D494FF0BB
:102110008050086062B6FEE71A494FF080500860B0
:10212000704718494FF0805008607047EFF31080F7
:1021300072B6704780F310887047EFF310807047D5
:10214000014648420840B0FA80F0C0F120007047D4
:1021500070477047704772B6704762B67047EFF3CA
:102160000580C00501D0012070470020704701386C
:102170000028FCD1704700BF20ED00E0EC200020DB
:10218000E420002004ED00E0E82000202D200008DD
:10219000642300201520000824000020513D000881
:1021A00008B506460022064B1A60064D1C462A68F2
:1021B000236801332360002AFAD030469047F6E7BF
:1021C000D8200020281E00202DE9F04184B0904640
:1021D000304802F0ABFA304C04F14005204602F0E2
:1021E000A5FA0834AC42F9D12C4802F09FFA2C4CE5
:1021F00004F14005204602F099FA0834AC42F9D1C6
:10220000284C294D04F580770026204602F08EFAEE
:1022100025F8026F0834BC42F7D1244802F086FA50
:102220000021234B1960234B1960234B1960234B6A
:102230001960234B1960234B1960234B1960234805
:102240000161012201F09EFB0446F8B920480023F9
:10225000C364402202920193682300931D4B1F2206
:102260001D4901F0A5FE044680B941461B48FFF711
:10227000E9FE174B124A1360104A1360FEF7BCF8D0
:10228000044618B9FFF754FEFFF7DEFE204604B0FF
:10229000BDE8F081DC20002014230020F020002085
:1022A00098200020D4230020D22400205C2300208A
:1022B00054230020EC20002014250020E8200020DA
:1022C000E420002058230020D820002000230020F4
:1022D00064230020CC1F0020A1210008F82000204A
:1022E00038B5124B1B68012B14D10D460446FFF77D
:1022F00036FF90B9631E1D2B12D84FF6FE739D4218
:1023000011D8FFF713FF0A4B23F81450FFF712FF01
:10231000002038BD6FF0010038BD6FF0010038BDFE
:102320006FF0040038BD6FF0040038BDEC200020D1
:10233000D424002070B51B4B1B68012B2ED1FFF756
:102340000EFF01282AD1FFF7F1FE0446164A136852
:1023500001331360154B1B685D6C154A32F815206C
:10236000CAB1196E0131914201DA196613E00022F7
:102370001A66104E06EBC506304602F0DBF950B97E
:1023800073685B689E4206D0304602F00BFA014645
:10239000304602F001FA2046FFF7CCFE064801F075
:1023A00069FB70BDEC20002058230020E4200020B1
:1023B000D4240020D42300200023002010B5FFF7F0
:1023C000B5FE034B1C68FFF7B5FE204610BD00BFED
:1023D00058230020002846D02DE9F8430E46144625
:1023E0001F468146B1F5803F40D2FFF7B8FE012875
:1023F00040D0002C42D0002E44D0072F46D9D9F827
:102400002C30002B46D12744C9F82840484602F01A
:10241000FFF909F10808404602F0FAF9BC4241D23E
:1024200004EBC606002501E0A74207D92146404635
:1024300002F0F8F908340135A642F5D1C9F8245064
:1024400065B309F1100002F071F909F1180002F00A
:102450006DF9D9F82430C9F82030164BC9F82C3062
:102460000020BDE8F8836FF0040070476FF00400AF
:10247000BDE8F8836FF00100BDE8F8836FF0040059
:10248000BDE8F8836FF00400BDE8F8836FF0040046
:10249000BDE8F8836FF00700BDE8F8836FF0040033
:1024A000BDE8F8830023C9F824306FF00400BDE8CC
:1024B000F88300BF896C8A0C70B50546FFF74FFEA4
:1024C00001281BD0EB6A23F07043114A934218D1C4
:1024D000104B1B68012B17D1FFF728FE064605F1AC
:1024E000180001F02BFD05F1100001F027FD00247C
:1024F000EC623046FFF71EFE204670BD6FF0010013
:1025000070BD6FF0080070BD6FF0010070BD00BFBE
:10251000896C8A0CEC20002010B540B10446FFF70E
:102520001EFEFFF703FE246AFFF704FE01E04FF0F2
:10253000FF34204610BD00BF10B568B10446FFF758
:102540000EFEFFF7F3FD236A646AA34214BF002462
:102550000124FFF7EFFD00E00024204610BD00BF7E
:10256000F8B50C4616461F46079D02F055F903467E
:1025700068B945B144B12A460699384601F016FCBF
:102580006FF00A0407E034B93360002403E0002D43
:10259000FAD10024F7E72046F8BD00BF38B504465D
:1025A0000D4602F0C7F8A0B9204602F0FBF898B13A
:1025B000041F14D0284602F02FF998B1E066204697
:1025C00001F02CFC012814BF6FF007006FF00A0027
:1025D00038BD6FF0070038BD6FF0070038BD6FF0F1
:1025E000070038BD6FF0070038BD00BFF0B585B0FB
:1025F00000287ED0044600297ED0C36A23F07043B1
:10260000434883427BD115460E46FFF7A8FD0128BB
:102610002ED1002D76D1FFF789FD074600230193C7
:102620000823009304F1100303AA6FF0050120466C
:10263000FFF796FF05463846FFF77CFD002D63DB6C
:10264000039B5B683360FFF771FD074604F10806E2
:102650000399304602F0E6F8236A013323623146DB
:1026600004F11800FFF79AFF3846FFF763FD4BE0CF
:10267000FFF75CFD074601950823009304F1100362
:1026800003AA6FF005012046FFF76AFF05463846AA
:10269000FFF750FD15F10B0F0BD1FFF73DFD1D4B63
:1026A0001B689D6D15F10C0F03D1DB6E03930025A4
:1026B00001E0002D28DB039B5B683360FFF736FDEC
:1026C000074604F108060399304602F0ABF8236A86
:1026D00001332362314604F11800FFF75FFF04461F
:1026E0003846FFF727FD14F10B0F0DD1FFF714FD4E
:1026F0000AE06FF0040507E06FF0040504E06FF0F6
:10270000080501E06FF00105284605B0F0BD00BFE7
:10271000896C8A0CE42000202DE9F04184B0002867
:1027200000F094800446C06A20F070404D4DA842ED
:1027300040F08F801F4615460E46FFF710FD01281A
:1027400039D1002D40F08880FFF7F0FC804600234F
:1027500001931023009304F1180303AA4FF0FF31F3
:1027600004F10800FFF7FCFE054630B9236A013B7F
:1027700023624046FFF7DEFC04E04046FFF7DAFC48
:10278000002D6BDB039B5E60FFF7D0FC0646012F3C
:1027900004D10399204602F051F803E00399204642
:1027A00002F040F8214604F11000FFF7F7FE304632
:1027B000FFF7C0FC52E0FFF7B9FC804601951023FB
:1027C000009304F1180303AA4FF0FF3104F108004D
:1027D000FFF7C6FE054630B9236A013B2362404637
:1027E000FFF7A8FC13E04046FFF7A4FC15F10B0F20
:1027F0000BD1FFF791FC1C4B1B689D6D15F10C0F65
:1028000003D1DB6E0393002501E0002D26DB039B43
:102810005E60FFF78BFC0646012F04D1039920462A
:1028200002F00CF803E00399204601F0FBFF21467B
:1028300004F11000FFF7B2FE04463046FFF77AFCC1
:1028400014F10B0F0AD1FFF767FC07E06FF00405E6
:1028500004E06FF0080501E06FF00105284604B0C0
:10286000BDE8F081896C8A0CE420002011F0100F83
:1028700005D083681A4214BF012000207047836886
:1028800032EA03030CBF012000207047F8B505466B
:10289000406800271DE04668D0B1041F18D0626E62
:1028A000A16E2846FFF7E2FF0746012810D1201D40
:1028B00001F092FF204601F0B1FAA36E13F0080F69
:1028C00004D0626EAB6823EA0203AB60AB6813B15D
:1028D0003046A842DFD13846F8BD00BF98B138B5C0
:1028E0000446B1F1FF3F11D0C36893B90D46FFF71D
:1028F00036FC012810D0204601F018FFA560084BD7
:10290000E360002038BD6FF0040070476FF00400F2
:1029100038BD6FF0070038BD6FF0010038BD00BF53
:10292000254F220E70B582B00023019318B96FF0C5
:102930000403019322E0C36823F0704311498B42E2
:1029400003D06FF00803019318E00446FFF707FC7B
:10295000012803D16FF0010301930FE0FFF7E6FBBD
:102960000646204601F0EAFA05460023E3603046B9
:10297000FFF7E0FB012D01D1FFF7CEFB019802B07C
:1029800070BD00BF254F220E2DE9F843002876D0F8
:102990000646002976D0C46824F070444248844238
:1029A00073D11D4617460C46FFF7D9FB012826D1E7
:1029B000089B002B6CD1FFF7B9FB804622463946B5
:1029C0003046FFF753FF01280BD10DB1B3682B60E0
:1029D00017F0080F0BD0B16821EA0401B1600024A0
:1029E00009E035B1B3682B606FF0030403E0002405
:1029F00001E06FF003044046FFF79CFB51E0FFF756
:102A000095FB8046224639463046FFF72FFF0128C6
:102A10000AD10DB1B3682B6017F0080F08D0B16868
:102A200021EA0401B16003E0BDB3B3682B6034E078
:102A30004046FFF77FFB002433E0DFF87090D9F8C1
:102A400000309F665C66089A0421304601F0AEF9BA
:102A50004046FFF76FFBFFF75FFBD9F800309C6D36
:102A600014F10C0F1DD105E04046FFF763FB6FF03A
:102A7000030416E07DB15B6E2B60002411E06FF063
:102A800004040EE06FF004040BE06FF0080408E0AB
:102A90006FF0010405E0002403E0089B002BE3D065
:102AA000CBE72046BDE8F883254F220EE420002026
:102AB00070B370B5054671B3C36823F070431A4A0A
:102AC00093422BD10C46FFF74AFB01280DD1FFF7AB
:102AD0002DFB0646A9682143A9602846FFF7D6FECC
:102AE0003046FFF727FB002070BDFFF71FFB0646AF
:102AF000A9682143A9602846FFF7C8FE044630466E
:102B0000FFF718FB012C0CD1FFF706FB002070BD6E
:102B10006FF0040070476FF0040070BD6FF00800A4
:102B200070BD002070BD00BF254F220EB8B138B572
:102B30000346B1F1FF3F15D0C26822F070420C4845
:102B4000824212D11D460C46FFF709FBFFF7EEFA51
:102B5000A9682140A960FFF7EDFA002038BD6FF0A9
:102B6000040070476FF0040038BD6FF0080038BDF6
:102B7000254F220E2DE9F047089F002849D08846AE
:102B800016461C468146B1F5803F46D2036B002BAA
:102B900047D1002C49D000294BD0002A4DD002F15A
:102BA0000903BB424DD8FFF7DAFA01284DD027447C
:102BB000C9F82C40C9F82860484601F029FE09F1FF
:102BC000080A504601F024FEBC4246D200250836D1
:102BD00001E0BC4208D22146504601F023FE3444B5
:102BE0000135A845F5D13FE0C9F824508DB309F16E
:102BF000100001F09BFD09F1180001F097FDD9F8D4
:102C00002430C9F820301A4BC9F830300020BDE814
:102C1000F0876FF00400BDE8F0876FF00400BDE8B6
:102C2000F0876FF00700BDE8F0876FF00400BDE8A3
:102C3000F0876FF00400BDE8F0876FF00400BDE896
:102C4000F0876FF00400BDE8F0876FF00100BDE889
:102C5000F0876FF00400BDE8F0870023C9F8243046
:102C60006FF00400BDE8F087C9F82480BFE700BF1B
:102C7000BD9E280470B50546FFF771FA01281BD0E8
:102C80002B6B23F07043114A934218D1104B1B68F1
:102C9000012B17D1FFF74AFA064605F1180001F09B
:102CA0004DF905F1100001F049F900242C6330467C
:102CB000FFF740FA204670BD6FF0010070BD6FF065
:102CC000080070BD6FF0010070BD00BFBD9E2804FC
:102CD000EC2000202DE9F04385B0002800F094801E
:102CE0000446002900F09380002A00F09380066BD0
:102CF00026F070464D48864240F08F801E46904632
:102D00000F46FFF72CFA012836D1002E40F08880BC
:102D1000FFF70CFA0646002301930823009304F101
:102D2000100303AA6FF005012046FFF719FC0546C2
:102D30003046FFF7FFF9002D74DB03994D684545D8
:102D400028BF45462A460831384601F07FFDFFF787
:102D5000EDF9074604F108060399304601F062FDDB
:102D6000236A01332362314604F11800FFF716FC91
:102D70003846FFF7DFF955E0FFF7D8F981460196AD
:102D80000823009304F1100303AA6FF00501204605
:102D9000FFF7E6FB05464846FFF7CCF915F10B0FA8
:102DA0000AD1FFF7B9F9224B1B689D6D15F10C0F85
:102DB00002D1DB6E039301E0002D33DB03994A68F7
:102DC0004546904528BF15462A460831384601F049
:102DD0003DFDFFF7ABF9074604F1080603993046BD
:102DE00001F020FD236A01332362314604F118000B
:102DF000FFF7D4FB04463846FFF79CF914F10B0F9C
:102E000010D1FFF789F90DE06FF004050AE06FF0CB
:102E1000040507E06FF0040504E06FF0080501E029
:102E20006FF00105284605B0BDE8F083BD9E28047B
:102E3000E42000202DE9F04184B0002800F0AD80AE
:102E40000446002900F0AC80002A00F0AC80006B42
:102E500020F070405A4DA84240F0A8801D46174609
:102E60000E46FFF77CF9012843D1002D40F0A180E8
:102E7000FFF75CF98046002301931023009304F1CF
:102E8000180303AA4FF0FF3104F10800FFF768FBB5
:102E9000054630B9236A013B23624046FFF74AF9F1
:102EA00005E04046FFF746F9002DC0F28480A26A93
:102EB000BA4228BF3A46039842603146083001F0D2
:102EC000C5FCFFF733F906460A9B012B04D1039991
:102ED000204601F0B3FC03E00399204601F0A2FC78
:102EE000214604F11000FFF759FB3046FFF722F9A5
:102EF00061E0FFF71BF9804601951023009304F170
:102F0000180303AA4FF0FF3104F10800FFF728FB74
:102F1000054630B9236A013B23624046FFF70AF9B0
:102F200013E04046FFF706F915F10B0F0BD1FFF741
:102F3000F3F8244B1B689D6D15F10C0F03D1DB6E6C
:102F40000393002501E0002D35DBA26ABA4228BFB9
:102F50003A46039842603146083001F077FCFFF7AB
:102F6000E5F806460A9B012B04D10399204601F09F
:102F700065FC03E00399204601F054FC214604F16E
:102F80001000FFF70BFB04463046FFF7D3F814F1AF
:102F90000B0F10D1FFF7C0F80DE06FF004050AE049
:102FA0006FF0040507E06FF0040504E06FF008051A
:102FB00001E06FF00105284604B0BDE8F08100BFD4
:102FC000BD9E2804E420002010B540B10446FFF760
:102FD000C6F8FFF7ABF8246AFFF7ACF801E04FF052
:102FE000FF34204610BD00BF10B568B10446FFF79E
:102FF000B6F8FFF79BF8236A646AA34214BF002463
:103000000124FFF797F800E00024204610BD00BF20
:10301000E0B1F1B12F2A1FD910B5CC1D24F007045F
:103020008460531A234423F00703A4F108021A44CE
:10303000C26004600022226001684B60436002624B
:1030400001221146103000F09DFC10BD6FF004000D
:1030500070476FF0040070476FF00400704700BFC6
:1030600070B500284FD0054600294EDD0C462E4B8A
:103070001B68012B04D14FF0FF31103000F03EFDF2
:10308000E11D21F0070108312A68002A30D0536879
:10309000994225DC41E05868814220DC401A0F2823
:1030A0000CDDCC181E68CE5060600AB92C6000E0C0
:1030B000146059606A68511A69600BE022B91A46B7
:1030C00013682B60134601E0196811606A6859683B
:1030D000521A6A6000221A60184633B909E01A468B
:1030E0001368002BD7D1002003E003F1080000E0B3
:1030F000002004460C4B1B68012B12D105F1100077
:1031000000F0B8FC0DE000240BE0002409E08C186E
:103110001068885063601346C8E75B1A0F2BF6DC13
:10312000CEE7204670BD00BFEC2000202DE9F8431B
:10313000002800F0CF800546002900F0CE800F4621
:103140006F4B1B68012B04D14FF0FF31103000F0A2
:10315000D5FCA7F10802D2F804E01EF0070F40F0FA
:10316000A58057F8083C002B40F0A380AB689A423A
:10317000C0F0A28002EB0E08A8F1080CEB689C4599
:1031800000F29D80D5F80090B9F1000F06D12A60B9
:10319000696853680B446B60002492E04B4600263C
:1031A00000E0234618469A4223D29C4580F098803E
:1031B000984513D16968714469602EB9D9F8001037
:1031C0002A6047F8081C03E03168326047F8081CA1
:1031D00051685B680B445360002472E06968714475
:1031E00069600EB92A6000E0326047F8083C0024AC
:1031F00067E09A4277D0596808441C68002C38D0A0
:10320000A2424ED2A44571D2A0451ED182420ED117
:10321000696871446960596852680A445A6019685B
:10322000486802445A600A681A60002449E06968E4
:10323000714469601868416800681A6053680B44FB
:10324000536047F8080C00243BE0824208D16968CB
:1032500071446960596852680A445A60002430E039
:1032600069687144696019681A6047F8081C00248D
:1032700027E0A0F108018A423BD9824208D169685F
:1032800071446960596852680A445A60002418E021
:1032900069687144696019681A6047F8081C00245D
:1032A0000FE01E46002C7FF47CAF0AE04FF0FF34A5
:1032B00007E04FF0FF3404E04FF0FF3401E04FF03F
:1032C000FF340F4B1B68012B16D105F1100000F0E5
:1032D000D1FB11E06FF004040EE06FF004040BE08A
:1032E0004FF0FF34EDE74FF0FF34EAE74FF0FF34E3
:1032F000E7E74FF0FF34E4E72046BDE8F88300BF7E
:10330000EC20002038B504460D4601F013FA78B9D8
:10331000204601F047FAB8B1043818D0C56600F06D
:103320007DFD01280CBF6FF00A006FF0080038BD6A
:10333000E269E3689A420DD2A3692B60A561E36953
:103340000133E361002038BD6FF0080038BD6FF035
:10335000080038BD4FF0FF3038BD00BF002857D0FF
:103360002DE9F8430546002955D0006A002856D1BA
:10337000012B01D9032A08D80023EB61EB602B62F3
:10338000AB616FF00400BDE8F8831E4691468846A5
:10339000FEF7E5FE012846D0284601F0C7F9C5F83A
:1033A000148008F1030727F003072F6109F10304D4
:1033B00024F00304AC6009FB068204FB0670EE6097
:1033C000824234D2731E00E03346001B5E1E8242EE
:1033D000FAD3EB60012B2AD80023EB61EB60AB61E1
:1033E0006FF00400BDE8F8830B463B60AA689918AB
:1033F00001301F46EA68013A8242F5D80020186081
:103400002B69AB61EB68EB610A4B2B62BDE8F8837B
:103410006FF0040070476FF00400BDE8F8836FF0B0
:103420000400BDE8F8836FF00100BDE8F8833B19A4
:103430000020DAE78BCEB70608B3026A22F07042AA
:1034400016498A421ED170B50446FEF788FE01284F
:103450001BD0134B1B68012B1AD1FEF767FE0646E3
:10346000204600F06BFD0546002323623046FEF740
:1034700061FE012D0FD1FEF74FFE002070BD6FF0F1
:10348000040070476FF0080070476FF0010070BDD6
:103490006FF0010070BD002070BD00BF8BCEB7067D
:1034A000EC200020F8B500284FD0044600294FD06A
:1034B000036A23F07043334883424CD116460D46CD
:1034C000FEF74DFE012816D1002E47D1FEF72EFE45
:1034D000E36943B1A2691168A161013BE3612AB1CB
:1034E0002A60002404E06FF0050401E06FF0050499
:1034F000FEF720FE43E0FEF719FE0746E369002BC6
:1035000038D0A2691168A161013BE3614AB32A6026
:1035100066BB002415E032464FF40051204600F00F
:1035200045FC3846FEF706FEFEF7F6FD164B1A6818
:10353000D26E2A601B689C6D14F10C0F08BF00242A
:103540001DE03846FEF7F6FD19E06FF0040416E0C2
:103550006FF0040413E06FF0080410E06FF0010452
:103560000DE0002ED7D16FF00504EAE7FEF7E2FD8B
:10357000002404E0002ECED16FF00504E1E72046E0
:10358000F8BD00BF8BCEB706E420002070B580B335
:10359000034689B3026A22F070421B4882422ED150
:1035A0001D460C46FEF7DBFD012810D1FEF7BEFDDF
:1035B000064621462846FFF7A5FE044610F10B0FEC
:1035C00014BF044600243046FEF7B4FD19E0FEF7B0
:1035D000ADFD064621462846FFF794FE04463046D8
:1035E000FEF7A8FD14F10B0F0BD1FEF795FD00249B
:1035F00007E06FF0040404E06FF0040401E06FF0F2
:103600000804204670BD00BF8BCEB706D8B138B5D0
:103610000446436AD3B9012901D0042919D10D46C2
:10362000FEF79DFD012817D0204601F07FF804F138
:10363000080001F07BF825610020A0612062084BA2
:103640006362606138BD6FF0040070476FF0040082
:1036500038BD6FF0040038BD6FF0010038BD00BF09
:10366000459E120770B5002846D00246436A23F0F3
:1036700070433948834242D115460C46FEF76FFD30
:1036800001283FD0FEF752FD0646AB69334A106869
:10369000834254D083B9A86105F10801203001F0BC
:1036A0007BF82B6913F0040F4CD02C4B1A68936AEB
:1036B00001339362002449E0002C45D02B6913F0BC
:1036C000040F22D12EE0696921B901216961D96A0B
:1036D0000131D962516CA869436C99422BD200F038
:1036E000ADFA28E0FEF718FD1C4B1B689C6D14F129
:1036F0000C0F08BF00242CE06FF0040429E06FF0E9
:10370000080426E06FF0010423E022464021284609
:1037100000F04CFB114B1A68AB69506C196C884275
:10372000D1D308E022462021284600F03FFB304656
:10373000FEF700FDD6E73046FEF7FCFCD2E76FF05F
:10374000070403E0002401E06FF005043046FEF7B3
:10375000F1FC204670BD00BF459E1207E42000200A
:103760002DE9F0418D6985426FD1002D70D00C4656
:1037700001F10808404601F02FF8236913F0040F07
:103780001AD06369012B08D100236361EF6A013FFE
:10379000EF62B7FA87F77F0900E00027AB6A013BC9
:1037A000AB62EA6A934208D12A6CAA642BB96B6CAB
:1037B0009A4218BF012700E00027204600F0BAFF18
:1037C000012803D10023A3611C4637E0204600F006
:1037D000E9FF20B3061F25D0304600F01FFBA6618D
:1037E000414606F1200000F0D7FF236913F0040FD3
:1037F0001BD0B36A0133B362204600F09BFFB0B91F
:103800006368B3B1043B16D05A6C336C9A4214D23D
:1038100001236361F36A0133F36200240EE06FF069
:1038200001040BE06FF0010408E0002406E000242E
:1038300004E0002402E0002400E00024012F09D16C
:10384000A96C284600F0FAF904E06FF0070401E0E3
:103850006FF007042046BDE8F08100BF08B370B5E3
:103860000446436A23F07043134A93421CD1FEF787
:1038700076FC01281BD0FEF759FC0646204600F0D6
:103880005DFB05462146A069FFF76AFF00236362DE
:103890003046FEF74FFC012D0CD1FEF73DFC002019
:1038A00070BD6FF0040070476FF0080070BD6FF0DE
:1038B000010070BD002070BD459E120730B583B079
:1038C00018B96FF00403019320E0436A23F07043BA
:1038D000104A934203D06FF00803019316E00446A8
:1038E000FEF73DFC012803D16FF0010301930DE0C9
:1038F000FEF71CFC05462146074B1868FFF730FF12
:1039000001902846FEF716FCFEF706FC019803B06E
:1039100030BD00BF459E1207E420002038B50546A3
:1039200000F1200409E0204600F03CFF014620B1F0
:10393000083902D02846FFF713FF204600F0FAFEB0
:103940000028F0D038BD00BF10B54469C4B120468E
:1039500000F0F0FE80B9636893B1043B10D0A16918
:1039600071B1486C8A6C824228BF02465B6C9A42F5
:1039700028BF1A464A6410BDA3690BB19A6C5A64F9
:1039800010BD00BFA8B170B50446AAB18A4216D3D3
:103990000369BBB915460E46FEF7E1FB012814D0BA
:1039A000204600F0C3FEA660E560094B23610020BD
:1039B00070BD6FF0040070476FF0040070BD6FF0D1
:1039C000040070BD6FF0040070BD6FF0010070BDA9
:1039D000EB73A10FE8B1026922F0704212498A42EA
:1039E0001AD170B50446FEF7BAFB012817D0FEF7CE
:1039F0009DFB0646204600F0A1FA05460023236100
:103A00003046FEF797FB012D0CD1FEF785FB002019
:103A100070BD6FF0040070476FF0080070476FF0E2
:103A2000010070BD002070BDEB73A10F10B50446FE
:103A300000F080FE70B9204600F0B4FE90B104386A
:103A400012D000F0EBF901280CBF6FF00A006FF004
:103A5000080010BDA368E268934207D20133A36057
:103A6000002010BD002010BD002010BD4FF0FF3021
:103A700010BD00BF38B530B3026922F0704215495D
:103A80008A4223D10446FEF76AFB01280AD1FEF7D9
:103A90004DFB05462046FFF7C9FF04462846FEF7C2
:103AA00049FB15E0FEF742FB05462046FFF7BEFF47
:103AB00004462846FEF73EFB14F10B0F08D1FEF733
:103AC0002BFB002404E06FF0040401E06FF0080415
:103AD000204638BDEB73A10F08B5836843B1013BA5
:103AE0008360002008BD00F061F96FF00A0008BD96
:103AF000002AF8D16FF0050008BD00BF70B598B37B
:103B00000346006920F070401C4A90422FD11C46A9
:103B10000D46FEF724FB01280DD15DBBFEF706FB29
:103B20000546002202212046FFF7D6FF044628461C
:103B3000FEF700FB20E0FEF7F9FA06462A460221CE
:103B40002046FFF7C9FF04463046FEF7F3FA14F1AA
:103B50000B0F11D1FEF7E0FA094B1B689C6D14F1B5
:103B60000C0F08BF002407E06FF0040404E06FF0BE
:103B7000080401E06FF00104204670BDEB73A10F53
:103B8000E420002038B50446051D284600F024FE38
:103B9000626C2946606900F0DFFD38BD0E4B1B6882
:103BA00013F0010F0BD1012302220B4801681142CF
:103BB00006D152000133202BF8D1002300E000236E
:103BC000064A02EBC3035B680BB1043B00E0002331
:103BD000034A1360704700BF14250020D42300203F
:103BE000E820002070B504460E46051D284600F06A
:103BF000F3FD104800EBC60000F09CFD012807D142
:103C00000D490B68012202FA06F623EA06060E6049
:103C1000606C2946074B03EBC00000F0BDFD064970
:103C20000A68606C0123834013430B60FFF7B6FF03
:103C300070BD00BFD42300201425002038B50446F1
:103C40000D46C36AA3B9416CA94211D2836C026CC0
:103C50009A4208BF2B464364036D012B02D1FFF744
:103C6000C1FF38BD13F0040F1CD0FFF78BFF38BD28
:103C7000C4B1616C8D4215D26564236D012B03D1F3
:103C80002046FFF7AFFF38BD13F0040FF0D02046F9
:103C9000FFF778FF636D402B04D1636913B19C6912
:103CA000002CE5D138BD00BF38B50446456C036D26
:103CB00023F001030365043000F08EFD104800EB93
:103CC000C50000F037FD01280AD10E490B6801221A
:103CD00002FA05F523EA05050D60FFF75FFF38BD21
:103CE000094B1B689C4209D1054B03EBC5056B686A
:103CF0000BB1043B00E00023034A136038BD00BF52
:103D0000D423002014250020E820002070B50446AC
:103D1000466C0125056500234361011D094800EB40
:103D2000C60000F039FD084A1368B5401D43156010
:103D3000064B1B6823B15B6C9E423CBF034B1C606F
:103D400070BD00BFD423002014250020E8200020EF
:103D5000704700BF08B54B1E13F1030F1DD807298C
:103D60000ED80F4B1B68194401F00703C36500F11F
:103D70000C010C4800EBC30000F00EFD002008BD54
:103D8000074B1B6803F007031944C16500F10C01E0
:103D9000054800F001FD002008BD6FF0040008BDDB
:103DA0005823002014230020DC200020F8B504460E
:103DB0000F4615460F4E3068FFF776FF3168042333
:103DC0000B654F65CD651CB9C81800F0AFFC07E066
:103DD0004A6C0431204600F0BFFC064B1B685C6156
:103DE0006B1E13F1030F04D82946024B1868FFF726
:103DF000B1FFF8BDE420002038B5054600F10C0401
:103E0000204600F097FC40B94FF0FF33EB652046A9
:103E100000F0E2FC204600F089FC38BD10B50446F5
:103E2000002343616FF00B038365FFF7E5FF236D0C
:103E300013F0080F04D12046FFF768FF012002E0CD
:103E40000823236500200023636510BD10B50446D8
:103E5000043000F06BFC2046FFF7CEFF2046FFF752
:103E60005DFD0023E362A3626361A26C62641022C1
:103E700022656365A365E3664FF0FF32E265236662
:103E800010BD00BF2DE9F84F294B1E6806F007064C
:103E9000FEF74CF907462EBB264A5368934221D0C1
:103EA000DFF88CA0DFF8909090465D68BBB1B3F16D
:103EB0000C0414D0E36D083BE365072B0FD804F125
:103EC0000C0B584600F088FCDAF80000E36D18444B
:103ED00000F00700594609EBC00000F05DFC2B46DE
:103EE0004545E2D1144D05EBC6054FF000082E46BE
:103EF00012E0706880B1B0F10C040DD02046FFF7DD
:103F00007BFF201D00F068FC2046FFF787FF6FF065
:103F10000303A3654FF00108284600F00BFC0028BE
:103F2000E7D03846FEF706F94046BDE8F88F00BFF7
:103F300058230020DC200020142300202DE9F0412C
:103F4000054600266FF0090801270DE0284600F01D
:103F500029FC48B1041F07D02046FFF75FFF012866
:103F600004BFC4F858803E46284600F0E3FB002812
:103F7000ECD03046BDE8F08108B5036D13F0080FB2
:103F80000FD1102B10D0012B06D108230365FFF7AA
:103F90008BFE6FF00A0008BD43F0080303650020A4
:103FA00008BD4FF0FF3008BD6FF0020008BD00BF34
:103FB0002DE9F04704468A461D46DDF820900A9F09
:103FC00016461AB917F0800F08D16AE01F2A03D1EC
:103FD00017F0400F02D168E01F2A6AD8B9F15F0FCD
:103FE0006BD9BAF1000F6CD0002C6ED0002D70D0C0
:103FF000E36C002B71D1FEF7B2F8012871D03C4B75
:104000001B68012B03D1FEF791F8804601E04FF0C9
:104010000008C4F838A0099BE3632563C4F8349012
:1040200026646664A664334BE364B9F1000F07D0DD
:104030000023314945F804190133626B9A42F9D8DB
:1040400004F1200000F072FB0023A362E36204F19C
:104050001805284600F06AFB04F10C0000F066FB2E
:104060002046FFF7F3FEE26B216BA06BFDF782FFAA
:1040700020602946214800F08FFB214A1368013354
:10408000136017F0C10F02D02046FFF73FFE184B18
:104090001B68012B29D14046FEF74CF80020BDE8F3
:1040A000F0876FF00400BDE8F0876FF00400BDE812
:1040B000F0876FF00400BDE8F0876FF00400BDE802
:1040C000F0876FF00400BDE8F0876FF00400BDE8F2
:1040D000F0876FF00400BDE8F0876FF00400BDE8E2
:1040E000F0876FF00100BDE8F0870020BDE8F087A1
:1040F000EC20002069CFAB07EFBEADDE5C230020D3
:104100005423002010B5144B1C68FEF728F808BB98
:10411000124B1B68012B1DD1FEF708F82046FFF754
:10412000FDFB2046FFF7C0FD2046FFF78FFE04F1A0
:10413000180000F051FB0A4A1368013B1360E36C5E
:1041400003F0A043B3F1A04F18BF0023E36420465F
:10415000FDF7C6FF10BD00BFE4200020EC200020CA
:104160005423002000284FD038B50446C36C23F0F8
:1041700070432B4A93424AD1FDF7F1FF012849D001
:10418000284B1B68012B03D0274B1B689C4244D053
:10419000FDF7CCFF05462046FFF7C0FB236D012B42
:1041A00003D12046FFF780FD13E013F0040F10D079
:1041B000201D00F011FBE36DB3F1FF3F03D004F1CC
:1041C0000C0000F009FB636D402B02D12046FFF785
:1041D000BBFB2046FFF73AFE04F1180000F0FCFAA2
:1041E000124A1368013B1360E36C03F0E043B3F140
:1041F000A04F18BF0023E3642846FDF79BFF20462D
:10420000FFF7A6FD002038BD6FF0040070476FF087
:10421000080038BD6FF0010038BD6FF0010038BDF7
:1042200069CFAB07EC200020E420002054230020BD
:1042300038B570B3C26C22F070421B498A422BD150
:104240001A4A1268012A2AD10446FDF788FF01287C
:104250000ED1FDF76BFF05462046FFF78DFE0446A5
:104260002846FDF767FF14F10B0F08BF002418E084
:10427000FDF75CFF05462046FFF77EFE0446284614
:10428000FDF758FF14F10B0F0BD1FDF745FF00248C
:1042900007E06FF0040404E06FF0080401E06FF041
:1042A0000104204638BD00BF69CFAB07EC200020D9
:1042B00038B500283ED0C26C22F0704228498A42AC
:1042C0003BD1284A1268012A3AD10446FDF747FF3C
:1042D000012816D1FDF72AFF0546236D13F0080FBC
:1042E00031D013F0040F07D12046FFF70FFD284609
:1042F000FDF720FF002431E023F0080323650024AC
:1043000023E0FDF713FF0546236D13F0080F20D0BF
:1043100013F0040F09D12046FFF7F8FC2846FDF7FB
:1043200009FFFDF7F9FE002418E023F008032365D8
:10433000002410E06FF0040410E06FF008040DE0BA
:104340006FF001040AE06FF002042846FDF7F2FE68
:1043500004E06FF002042846FDF7ECFE204638BD6D
:1043600069CFAB07EC200020C0B138B50446FDF79B
:10437000F6FE012815D00E4B1B68012B14D1FDF75A
:10438000D5FE0546224601210020FFF70FFD2846F5
:10439000FDF7D0FEFDF7C0FE002038BD6FF0040031
:1043A00070476FF0010038BD6FF0010038BD00BFED
:1043B000EC20002038B578B3C26C22F070421E4960
:1043C0008A422CD11D4A1268012A2BD10446FDF7DE
:1043D000C6FE012810D1FDF7A9FE0546236D102B5E
:1043E00004D12046FFF792FC002401E06FF00104A5
:1043F0002846FDF79FFE1CE0FDF798FE0546236D5D
:10440000102B12D12046FFF781FC2846FDF792FEC3
:10441000FDF782FE00240CE06FF0040409E06FF069
:10442000080406E06FF0010403E0FDF783FE6FF07F
:104430000104204638BD00BF69CFAB07EC20002047
:1044400040B370B50446C36C23F07043194A9342DD
:1044500023D10D46FDF783FE012821D0164B1B68A2
:10446000012B20D16B1E1D2B20D8FDF75FFE0646C9
:10447000A36C9D4203D3A26AE36A9A4200D1A56469
:10448000256429462046FFF7D9FB3046FDF752FE4A
:10449000002070BD6FF0040070476FF0080070BD21
:1044A0006FF0010070BD6FF0010070BD6FF004008F
:1044B00070BD00BF69CFAB07EC20002010B50446EB
:1044C00000F038F938B90023E360204600F084F9A1
:1044D000204600F02BF910BD08B50146C368072B34
:1044E0000BD80B4A1068034403F00703CB6009485C
:1044F00000EBC30000F050F908BD054A106800F059
:1045000007000344CB60044800F046F908BD00BF33
:104510005823002098200020F0200020A8B170B57A
:104520000446A9B18369B3B916460D46FDF717FED7
:10453000012813D0204600F0F9F80020A060E060C8
:1045400026616561074BA36170BD6FF00400704781
:104550006FF0040070BD6FF0040070BD6FF00100DB
:1045600070BD00BF47D4040BC0B1826922F0704215
:104570000F498A4215D170B50446FDF7F0FD0128B8
:1045800012D0FDF7D3FD06462046FFF797FF002522
:10459000A5613046FDF7CEFD284670BD6FF00400E2
:1045A00070476FF0080070476FF0010070BD00BFEA
:1045B00047D4040B08B3F8B5044609B3B2F1FF3F82
:1045C00021D0836923F07043134883421ED11646DD
:1045D0000D46FDF7C4FD01281BD0FDF7A7FD0746DA
:1045E0002046FFF76BFFE560A6602046FFF774FFEB
:1045F0003846FDF79FFD0020F8BD6FF004007047BE
:104600006FF00400F8BD6FF00400F8BD6FF0080013
:10461000F8BD6FF00100F8BD47D4040BB0B138B558
:10462000826922F070420E498A4212D10446FDF797
:1046300096FD012810D0FDF779FD05462046FFF7CD
:104640003DFF2846FDF776FD002038BD6FF00400E1
:1046500070476FF0080038BD6FF0010038BD00BF33
:1046600047D4040B2DE9F04782B0684600F05EF8AD
:104670002B4B1E6806F00706FDF758FD074606BBE4
:10468000284B5C689C421CD0DFF894A0DFF898901F
:104690009846656894B1E368083BE360072B0DD842
:1046A000204600F099F8DAF80000E368034403F0CC
:1046B0000700214609EBC00000F06EF82C46454586
:1046C000E7D1194D05EBC6052E4610E0746874B1AC
:1046D0002046FFF7F3FEA36823B1E3602146684656
:1046E00000F05AF8636913B12169204698472846BB
:1046F00000F020F80028E9D005E0684600F052F804
:1047000008B1FFF7E9FE684600F014F80028F4D07D
:104710003846FDF70FFD002002B0BDE8F08700BF6E
:1047200058230020F02000209820002040600060E6
:10473000704700BF4368984205D10368834214BFA5
:104740000020012070470020704700BF43684B6085
:10475000086019604160704710B4436898420BD0FC
:1047600023B11C1F02D0646C944203D85B6898424A
:10477000F6D101E0984205D14B601A680A60516099
:10478000196005E01A6851601A680A6019604B6088
:104790005DF8044B704700BF486003680B605960C8
:1047A00001607047034638B14068834206D04268D2
:1047B000136042685A6070470020704700207047BD
:1047C0000368984204D01A6850601A68026000E0DA
:1047D00000231846704700BF036842685A60436868
:1047E00002681A60704700BF4368984209D08B4244
:1047F00002D108E0994208D05B689842FAD10020C3
:10480000704700207047012070470120704700BFAB
:10481000002303604360704703680BB11A680260AD
:104820001846704700230B60036813B901604160AC
:104830007047436819604160704700BF03680B60B0
:10484000036803B941600160704700BF844641EAD4
:10485000000313F003036DD1403A41D351F8043BF8
:1048600040F8043B51F8043B40F8043B51F8043B4A
:1048700040F8043B51F8043B40F8043B51F8043B3A
:1048800040F8043B51F8043B40F8043B51F8043B2A
:1048900040F8043B51F8043B40F8043B51F8043B1A
:1048A00040F8043B51F8043B40F8043B51F8043B0A
:1048B00040F8043B51F8043B40F8043B51F8043BFA
:1048C00040F8043B51F8043B40F8043B51F8043BEA
:1048D00040F8043B51F8043B40F8043B403ABDD259
:1048E000303211D351F8043B40F8043B51F8043BFB
:1048F00040F8043B51F8043B40F8043B51F8043BBA
:1049000040F8043B103AEDD20C3205D351F8043B89
:1049100040F8043B043AF9D2043208D0D2071CBF55
:1049200011F8013B00F8013B01D30B88038060467E
:10493000704700BF082A13D38B078DD010F00303F4
:104940008AD0C3F10403D21ADB071CBF11F8013B64
:1049500000F8013B80D331F8023B20F8023B7BE7B3
:10496000043AD9D3013A11F8013B00F8013BF9D2DE
:104970000B7803704B7843708B7883706046704778
:1049800070B4840746D0541E002A41D0CDB20346ED
:1049900002E0621EE4B3144603F8015B9A07F8D103
:1049A000032C2ED9CDB245EA05250F2C45EA054545
:1049B00019D903F110022646103E0F2E42F8105C62
:1049C00042F80C5C42F8085C42F8045C02F1100208
:1049D000F2D8A4F1100222F00F0204F00F041032FA
:1049E000032C13440DD91E462246043A032A46F8E6
:1049F000045BFAD8221F22F003020432134404F0AD
:104A000003042CB1C9B21C4403F8011BA342FBD11F
:104A100070BC704714460346C2E700BF114B30B468
:104A20001D6810F8014B2B1922465B7803F0030335
:104A3000012B11F8013B08BF04F12002EC18647847
:104A400004F00304012C06D0D21A01D1002BE8D1C6
:104A5000104630BC70472033D21AE2D0104630BC2A
:104A6000704700BF28000020830710B5044610D10E
:104A70000268A2F1013323EA020313F0803F08D158
:104A800050F8042FA2F1013323EA020313F0803F10
:104A9000F6D003781BB110F8013F002BFBD100F0DA
:104AA00003F8204610BD00BF80EA0102844612F0E0
:104AB000030F4FD111F0030F32D14DF8044D11F017
:104AC000040F51F8043B0BD0A3F101329A4312F0CA
:104AD000803F04BF4CF8043B51F8043B16D100BFA3
:104AE00051F8044BA3F101329A4312F0803FA4F134
:104AF00001320BD14CF8043BA24312F0803F04BFBB
:104B000051F8043B4CF8044BEAD023460CF8013B27
:104B100013F0FF0F4FEA3323F8D15DF8044B7047D1
:104B200011F0010F06D011F8012B0CF8012B002A0F
:104B300008BF704711F0020FBFD031F8022B12F0FE
:104B4000FF0F16BF2CF8022B8CF8002012F47F4FB9
:104B5000B3D1704711F8012B0CF8012B002AF9D1C1
:104B6000704700BF000000000000000000000000CF
:104B70000000000000000000000000000000000035
:104B800090F800F06DE9024520F007016FF0000C8D
:104B900010F0070491F820F040F049804FF0000435
:104BA0006FF00700D1E9002391F840F000F1080010
:104BB00082FA4CF2A4FA8CF283FA4CF3A2FA8CF348
:104BC0004BBBD1E9022382FA4CF200F10800A4FAAF
:104BD0008CF283FA4CF3A2FA8CF3E3B9D1E9042303
:104BE00082FA4CF200F10800A4FA8CF283FA4CF33A
:104BF000A2FA8CF37BB9D1E9062301F1200182FAF4
:104C00004CF200F10800A4FA8CF283FA4CF3A2FAF9
:104C10008CF3002BC6D0002A04BF04301A4612BA07
:104C2000B2FA82F2FDE8024500EBD2007047D1E90A
:104C3000002304F00305C4F100004FEAC50514F099
:104C4000040F91F840F00CFA05F562EA05021CBF6A
:104C500063EA050362464FF00004A9E7556E6B6EE8
:104C60006F776E206D73672E0D0A0000436E743AE5
:104C7000200000005348454C4C3E00000D0A57727E
:104C80006F6E6720636F6D6D616E64210D0A0000A9
:104C90000600000054686973206973206120505336
:104CA0005720636D642E0D0A0000000056657220C7
:104CB0002D20332E302E0D0A000000005468697339
:104CC000206973206120434D44312E0D0A000000FD
:104CD00054686973206973206120434D44322E0D5E
:104CE0000A00000054686973206973206120434DF5
:104CF00044332E0D0A00000054686520737461630C
:104D00006B202255736167652220616E64202253F7
:104D1000697A65222076616C756573206172652001
:104D2000696E207468652027696E7427286E6F7419
:104D3000206279746573290D0A0000005461736B59
:104D40003A2000002020000055736167653A20007A
:104D500053697A653A2000007073770076657200B7
:104D6000636D643100000000636D64320000000078
:104D7000636D64330000000064756D705F73746B65
:104D800000000000584D0008A50800085C4D000810
:104D9000B5080008604D0008C5080008684D000807
:104DA000D5080008704D0008E5080008784D000897
:104DB000650900080020202020202020202028280D
:104DC00028282820202020202020202020202020CB
:104DD000202020202088101010101010101010100B
:104DE000101010101004040404040404040404103B
:104DF00010101010101041414141414101010101C9
:104E00000101010101010101010101010101010192
:104E1000101010101010424242424242020202029E
:104E20000202020202020202020202020202020262
:104E30001010101020000000000000000000000012
:104E40000000000000000000000000000000000062
:104E50000000000000000000000000000000000052
:104E60000000000000000000000000000000000042
:104E70000000000000000000000000000000000032
:104E80000000000000000000000000000000000022
:104E90000000000000000000000000000000000012
:104EA0000000000000000000000000000000000002
:104EB000000000000000000000203B493B4A9142F6
:104EC0003CBF41F8040BFAE739493A4A3A4B9A4257
:104ED0003EBF51F8040B42F8040BF8E7FBF772F9F8
:104EE00000200146FBF72EFBFEE7FEE7FEE7FEE7AC
:104EF000FEE7FEE7FEE7FEE7FEE7FEE7FEE7FEE78A
:104F0000FEE7FEE7FEE7FEE7FEE7FEE7FEE7FEE779
:104F1000FEE7FEE7FEE7FEE7FEE7FEE7FEE7FEE769
:104F2000FEE7FEE7FEE7FEE7FEE7FEE7FEE7FEE759
:104F3000FEE7FEE7FEE7FEE7FEE7FEE7FEE7FEE749
:104F4000FEE7FEE7FEE7FEE7FEE7FEE7FEE7FEE739
:104F5000FEE7FEE7FEE7FEE7FEE7FEE7FEE7FEE729
:104F6000FEE7FEE7FEE7FEE7FEE7FEE7FEE7FEE719
:104F7000FEE7FEE7FEE7FEE7FEE7FEE7FEE7FEE709
:104F8000FEE7FEE7FEE7FEE7FEE7FEE7FEE7FEE7F9
:104F9000FEE7FEE7FEE7FEE7FEE7FEE7FEE7FEE7E9
:104FA000FEE7FEE7FEE7FEE73000002018250020C0
:0C4FB000BC4F0008000000202C00002076
:104FBC0000000000000000000102030406070809BD
:044FCC00007A030A5A
:104FD000000000000102030401020304060708099F
:044FE000F822002093
:044FE400B44D0008C0
:0400000508000000EF
:00000001FF
