:020000040800F2
:1000000000200020D131000801320008033200082E
:1000100000000000000000000000000000000000E0
:100020000000000000000000000000000532000891
:1000300007320008000000002F0D0008B70B000871
:100040000D3200080F320008113200081332000888
:100050001532000817320008193200081B32000858
:100060001D3200081F32000821320008C50B0008AD
:10007000253200082732000800000000293200085D
:10008000000000002B32000800000000000000000B
:100090002D320008000000002F3200083132000825
:1000A0003332000835320008373200083932000890
:1000B0003B3200083D3200083F3200084132000860
:1000C0000C2370B51B4C1C4DE068184002F0D0FCAE
:1000D0002020202007202020092020200B00174B63
:1000E0001EE0174B1CE0E368164AE1689B021B0FF9
:1000F000D35C0902E268890FDBB20131D20301D47B
:100100000E4800E00E48584302F0BCFC286008E0AE
:100110008022636812021B045B0F01339A401300B4
:100120002B60E368084A1B061B0FD35C2A68DA4081
:100130002A6070BD001002401C0000200024F40062
:1001400000127A0000000020090000208021304BBE
:1001500049059A6B82B00A432E499A6308682E4A71
:1001600002408020000102430A6080211A6849028F
:100170000A431A608022920219681142FCD00121C0
:10018000264A10680843106010680842FCD09A2183
:10019000DA68C9030A43F021DA60DA688A43DA6070
:1001A00000220192019A092A02DC019A0132F8E741
:1001B000D9681B4A0A408021DA60DA68C9000A431C
:1001C000DA6000220192019A092A02DC019A0132C6
:1001D000F8E7D968134A0A408021DA60DA688901B1
:1001E0000A438021DA601A6849040A431A608022AF
:1001F0009204186806491042FBD00320CA680243E3
:10020000CA600C22D9681142FCD002B07047C046C7
:100210000010024000700040FFE7FFFF0020024096
:10022000FFF8FFFFFFC7FFFF8021114B49001A684D
:1002300010B50A431A60D9680E4A0A40DA60196894
:100240000D4A0A4001211A609A688A439A60196827
:100250000A4A0A401A60D968094A0A40DA6000224C
:100260001A618022074B12059A60FFF76FFF10BDDD
:10027000001002400C40FF88F6FFF6FEFFFFFBFF78
:10028000FFFF02FF00ED00E010B5012104484942E4
:1002900001F020FF0028F8DB02F0B6F8F5E7C046D1
:1002A000E815002030B589B020226946074800F0E3
:1002B000C7FB051EF8DD00246B460548195D0134B7
:1002C00000F071F9A542F7DCEEE7C0468813002084
:1002D0002800002007B5012201A95242074800F07A
:1002E0007BFF0028F7DB019B012B03D1044800F0C2
:1002F000D3F9F0E7034800F043FCECE75813002083
:1003000028000020942F0008F0B5A0260024202704
:1003100087B0F605736964207B407361013402F095
:1003200099FA0A21200002F033FC0029F2D10C498D
:1003300001A802F0F3FD01A802F0F8FD01AB1D18C1
:100340000A21200002F09EFB1422290000F00EFA80
:10035000044901A802F0BAFD01A800F011FCD9E798
:10036000A32F0008C02F00080121144A10B5D36A3A
:1003700013480B43D362A022D2051168114B0B40E6
:100380008021C9000B43136000F0A2F8C0200E4A80
:100390000E4B0F4953600B6A00061B021B0A0343F6
:1003A0000B6200200723906001001360020000F040
:1003B0004DFD002800D0FEE710BDC04600100240F1
:1003C00028000020FFF3FFFF10E000E0FF7C0000AA
:1003D00000ED00E07FB500222B4B2C491A60013262
:1003E000FF322B4800F066FA00284AD18023294CBE
:1003F0000200E06302930093274B0190FD33FF332B
:100400002649200002F092F800283AD1BF220124A8
:10041000C026234D234B9200E8639B180190029461
:10042000009603222049280002F080F8002828D1F5
:10043000C0231E4D5B00E8631D4A00931D4B0190D5
:100440009B18029406221C49280002F06FF800282D
:1004500017D1BF22194D1A4B9200E8639B180190E7
:100460000294009608221749280002F05FF800283D
:1004700007D1154C4023E062144A0821200000F007
:10048000D5FD04B070BDC046D0110020700700201B
:1004900088130020100F0020D00F002089020008D0
:1004A0000C01002070010020A5020008700E002041
:1004B000FC05000070080020D5020008700F002025
:1004C000700400200903000858130020D00E0020FB
:1004D00010B50400E422002102F088FC2300200073
:1004E0006022283363610D4B38301B68A260A36122
:1004F0000B4BE060E3610B4B002123620A4B63620C
:1005000002F074FC230022009833A4321A604022C7
:100510005A600023A034236010BDC046C42F0008D9
:100520009C300008810B0008A10B0008002310B5C7
:100530001A000121024800F0DDFE002010BDC04677
:1005400058130020036A10B5002B03D00800984709
:10055000002001E00120404210BD0000036A10B5F8
:100560000400002B08D0002901D005489847236AD1
:1005700004489847002001E00120404210BDC046D9
:10058000C02F0008A92F0008012303610020704735
:10059000436A10B5002B03D008009847002001E003
:1005A0000120404210BD036810B50400002B36D175
:1005B00043680D2922D0806883421FDA082901D0C0
:1005C0007F290DD1002B2EDD013B63600821200027
:1005D000FFF7DEFF20212000FFF7DAFF082109E006
:1005E0005A1C90421FDD080020385F281BD862602B
:1005F000E268D1542000FFF7CBFF14E00022E1684D
:100600002000CA540D21FFF7C3FF0A212000FFF785
:10061000BFFF012320002360FFF788FF03E00329C9
:1006200001D10123036110BD10B5FFF7B1FF10BD6B
:1006300070B500250400C36845601D70FFF78EFF8C
:1006400000F0C0FB256000F0C1FB70BD002370B559
:10065000020005001E0018000B604B608B60CB6031
:100660001478092C03D0202C01D0002C08D1012BA8
:100670000AD18300013016705D5003280BDC03E0C3
:10068000002B05D1150003E0002C04D0002300E06E
:1006900001230132E4E770BDF8B541690400C06888
:1006A000FFF7D4FF002802DDA769002607E0012537
:1006B00000212000FFF7BCFF6D4220E00136BE4262
:1006C00010DAE369F5005D1963692968186802F0BA
:1006D000D3FB0028F2D16B6820009847012120004D
:1006E000FFF7A6FFA36900259E4208D10A49200012
:1006F000FFF728FF01212000FFF79AFF013DA268C4
:100700000021E06802F072FB60691022002102F013
:100710006DFB2800F8BDC046B02F000810B5024898
:1007200000F02EFA002010BDC82F000810B50248B6
:1007300000F026FA002010BDDD2F000810B5024899
:1007400000F01EFA002010BDEA2F000810B5024884
:1007500000F016FA002010BDFC2F000810B502486A
:1007600000F00EFA002010BD0E300008F7B50600AC
:100770000D000092002805DA2D234C1C0B70464218
:100780002C3B01E00C0000231B1B019330000A21CD
:1007900002F0E8FA30000F000A2102F0FDF9019A98
:1007A0003037631C060027709A180099002802D180
:1007B000914206D803E0914201D91C00E6E70022ED
:1007C0002A7000221A7023782A78013C62702B70FC
:1007D0000135AC42F7D8F7BDF0B52E488DB000F02A
:1007E000CFF92D4B5C680193019B9C424ED067680A
:1007F000183C236A1D1D636A9B00ED1A274B2A686B
:100800009A4201D10435FAE7254906A802F086FB91
:100810001022206B02A9FFF7A9FF02A906A802F087
:1008200055FB204E06A8310002F050FB06A800F050
:10083000A7F91D4906A802F071FB236A1022181DB2
:10084000401B800802A9FFF791FF02A906A802F049
:100850003DFB310006A802F039FB06A800F090F934
:10086000124906A802F05AFB1022606A02A9FFF79B
:100870007DFF02A906A802F029FB0D4906A802F097
:1008800025FB06A800F07CF93C00ADE700200DB088
:10089000F0BDC0462030000844160020EFBEADDE9B
:1008A00062300008693000086C30000874300008BD
:1008B000C02F0008F8B504000D001700002877D0FD
:1008C00000F080FAE36B0226002B01D1E6631E00E4
:1008D00000F07CFA002E6DD10123A76227005B4255
:1008E00063632363E56214223100A663200014379A
:1008F00002F07CFA14223100380002F077FA01226B
:100900002000110001F036FB051E55D101223100F7
:10091000380001F02FFB051E4ED101228020274B0D
:100920008002D96A1143D962996B01439963196BAB
:10093000F02011431963A021C9050B688343503887
:1009400003430B60086A1E4B03408820C001034329
:100950000B621C4B196891438B221960DA603532A7
:100960009A60B33A1A603332D9691142FCD04022FE
:100970000126144B14491A62144B1A68B2431A60C8
:100980000868134A02408020C00202430A60A02285
:100990001A60A26A5A600F4A9A60E26ADA601A68BC
:1009A00032431A6000F00EFAE66300F00FFA03E03B
:1009B000052500E008256D422800F8BD0010024022
:1009C000FF00FFFF00440040A80002405800024022
:1009D000FFFFF0FF2444004070B5051E23D000F057
:1009E000F1F9EB6B0224012B01D1EC631C0000F048
:1009F000EDF90026012C18D180220D210C4B12019B
:100A0000DA670C4A1368234313600B4A13681C43CC
:100A100014600A4A13688B43136000F0D3F9EE6345
:100A200000F0D4F901E005267642300070BDC046E2
:100A300004E100E058000240800002400044004011
:100A4000F8B504000F00002836D0002934D0002A61
:100A500032D0436B161E0363836A9E4200D91E0088
:100A60000025184BA26B5B68A16A9B188B4214D1BE
:100A7000002D25DC636B002B01D104251FE0E06B0A
:100A800001281BD101F0E6FE636B0133E9D0236B33
:100A9000013B2363002BF0D0E3E7E36A9B5C7B55CB
:100AA000A36BA26A01330135A363934201D30023F0
:100AB000A363B542D5DB03E0052500E008256D42C0
:100AC0002800F8BD58000240F7B506000F0001925B
:100AD00000283FD000293DD0002A3BD001214942C7
:100AE00001F0F8FA051E37D11C4A1D4B11681D4C48
:100AF0000B408021C9040B4313600122802123682D
:100B0000300093432360184B14302360019B6360D3
:100B1000164BA360E760236880271343144A2360C1
:100B200093683F010B43C2219360124A89005358D6
:100B30001B021B0A535017600F4901F0CBFA012228
:100B400023680500934323600C4B3000DF6701F0FE
:100B50007DFA01E005256D422800FEBDA800024097
:100B6000FFFFFFF0800002409A2000002844004070
:100B70000044004000E100E08813000004E100E0D0
:100B800010B5041E07D002F0D1F9210082B203484B
:100B9000FFF79AFF01E00820404210BD88130020B3
:100BA00007B501A9087001220148FFF78DFF07BDB5
:100BB00088130020704710B500F0E6F900F0FEF849
:100BC00010BD000080220C4B9204196810B5114230
:100BD00004D05A60094801F039FA0AE08022196805
:100BE0001205114201D05A6003E08022044B120129
:100BF000DA6700F0E3F810BD000002409C1300200B
:100C000004E100E080235B0470B50B600C0015006C
:100C1000012600F0E2F8231F30431860194800F065
:100C2000DDF823003043083B174A1860043B1A6084
:100C3000164A043B1A60164A043B1A60154A043BE4
:100C40001A60280000F0CBF823001C3B186020003D
:100C5000114A043B1A60114A043B1A60104A043BD3
:100C60001A60104A043B1A600F4A043B1A600F4A8C
:100C7000043B1A600E4A043B1A600E4B3C3803607A
:100C800070BDC0462526000812121212030303038A
:100C900002020202010101011111111110101010C4
:100CA00009090909080808080707070706060606CC
:100CB000050505050404040410B5044CE26A216A24
:100CC000A06AFFF79FFF206010BDC0464C160020B1
:100CD000436A9A00036A9B1A5A68024B9A4200D0F0
:100CE000FEE77047EFBEADDE70470000444908687C
:100CF000444A1043086044490120087043490A6887
:100D000010681030F0C8A046A946B246BB4620384D
:100D1000F0C8103080F30988BFF36F8F042170464C
:100D2000084386463A493B48086062B6FEE772B619
:100D3000364B1968384A126891421CD0EFF309808B
:100D400020380860F0C044464D4656465F46F0C025
:100D50001A6010681030F0C8A046A946B246BB46DB
:100D60002038F0C8103080F30988BFF36F8F04215A
:100D700070460843864662B6704724490A681146A1
:100D80002648006880F30988042170460843864697
:100D9000104623498847EFF30880203080F3088805
:100DA000002080F31488BFF36F8F19491948086039
:100DB00062B6FEE71649174808607047144915489F
:100DC00008607047EFF3108072B6704780F31088A8
:100DD0007047EFF310807047704770477047704757
:100DE00072B6704762B67047EFF30580800601D097
:100DF000012070470020704701380028FCD170475F
:100E000020ED00E00000C000DC130020D41300201F
:100E100004ED00E000000010D813002020000020A6
:100E2000F9220008002370B50500064C2360064B2C
:100E30001A68236801332360002AFAD028009047FB
:100E4000F5E7C046C8130020D0110020F0B52A48AD
:100E500087B00592002401F095FD28482018083439
:100E600001F090FD402CF8D100250024244BA8006F
:100E7000C01801F087FD234BEB1802351C80402D74
:100E8000F3D1214801F07EFD204B214F1C60214B06
:100E900021481C60214B21001C60214B01221C6059
:100EA000204B3C601C60204B04611C6001F062F828
:100EB000041E1ED160231D4E1F22F06300931C4BA5
:100EC00001907D330295FF331A49300001F02EFB6B
:100ED000041E0ED105991848FFF706FF104B3E601F
:100EE0001E60FFF777FA041E03D1FFF763FEFFF7DA
:100EF000FDFE200007B0F0BDCC130020FC15002043
:100F0000AC160020AC170020441600203C16002030
:100F1000D4130020DC130020E8150020EC1700207B
:100F2000D813002040160020C81300204C160020C3
:100F3000D8110020250E0008E01300200F4B70B5DB
:100F40001B6805000E00012B01D0022013E0FFF703
:100F50004BFF041EF9D16B1E1D2B0BD8084B9E4274
:100F600008D8FFF72FFF074B6D00EE52FFF72EFF5B
:100F7000200001E00520404270BDC046DC13002087
:100F8000FEFF0000AC1700201C4B70B51B68012B46
:100F900030D1FFF729FF01282CD1FFF713FF184AA2
:100FA0000500136801331360164B174A1B685C6B0E
:100FB0006100895A00291AD01A6D01328A4201DA79
:100FC0001A6514E000221A65104BE400E4182000B2
:100FD00001F0DBFC00280AD163685B689C4206D004
:100FE000200001F002FD0100200001F0F8FC2800C3
:100FF000FFF7ECFE064801F029F870BDDC13002075
:1010000040160020D4130020AC170020AC1600209E
:10101000E815002010B5FFF7D5FE034B1C68FFF75D
:10102000D5FE200010BDC04640160020F0B50400DB
:1010300085B00E0015001F00002801D105203EE0FC
:10104000204B9942FAD8FFF7CFFE012834D0002D6B
:10105000F4D0002EF2D0072FF0D9E36A0293002BD0
:101060002CD1EB192000A562039301F0E4FC2300CE
:1010700008331800019301F0DEFC029F039BAB4292
:1010800008D929000198013701F0E0FC0835BE427B
:10109000F4D100E03E006662002ECFD02000103078
:1010A00001F070FC2000183001F06CFC636A002035
:1010B0002362054BE36203E0022000E00820404287
:1010C00005B0F0BDFFFF0000896C8A0C70B505000B
:1010D000FFF78AFE01281DD0EB6A104A1B011B098D
:1010E000934215D10E4B1B68012B13D1FFF76AFEFB
:1010F00006002800183001F0E5F92800002410301F
:1011000001F0E0F93000EC62FFF760FE200003E040
:10111000092000E00220404270BDC046896C8A0C64
:10112000DC13002010B5041E07D0FFF75DFEFFF7AB
:1011300049FE246AFFF74AFE01E0012464422000D0
:1011400010BD70B50500041E0AD0FFF74DFEFFF775
:1011500039FE2B6A6C6A1C1B63425C41FFF736FE4A
:10116000200070BD70B50C0015001E0001F067FC7A
:1011700000280ED1059B002B09D0002C09D00B2490
:101180001A000499300001F0DDF8644203E0002CFD
:1011900001D100242860200070BD70B504000D004E
:1011A00001F0F3FB002802D00820404213E02000A9
:1011B00001F01BFC0028F7D0041F002CF4D02800FD
:1011C00001F03DFC0028EFD0E065200001F0F1F8CF
:1011D0000128E9D10C3870BDF0B5040085B00E00CF
:1011E0001500002879D0002977D0C36A3F4A1B0137
:1011F0001B09934273D1FFF7F7FD01282DD1002D74
:101200006FD1FFF7DFFD08230621009323000700BD
:101210000195103303AA49422000FFF7A3FF050000
:101220003800FFF7D3FD002D5DDB039B5B68336067
:101230002600FFF7C7FD083607000399300001F0CC
:1012400005FC2000236A3100013323621830FFF7C8
:10125000A4FF3800FFF7BAFD45E0FFF7B3FD082310
:1012600006210093230007001033019503AA494289
:101270002000FFF777FF05003800FFF7A7FD2B00E0
:101280000B330BD1FFF796FD194B1B689D6C2A00A1
:101290000C3203D1DB6D0025039301E0002D22DB2E
:1012A000039B5B6833602600FFF78CFD0836070060
:1012B0000399300001F0CAFB2000236A1830013383
:1012C00023623100FFF769FF04003800FFF77EFD5D
:1012D0000B3408D1FFF76EFD05E0052502E0092576
:1012E00000E002256D42280005B0F0BD896C8A0C33
:1012F000D4130020F0B587B004000F00150003934D
:10130000002800D181E0C36A444A1B011B099342B3
:101310007DD1FFF769FD012832D1002D79D1FFF78A
:1013200051FD1023060000930121230020000195A8
:10133000183305AA49420830FFF714FF051E02D1F1
:10134000236A013B23623000FFF740FD002D62DB82
:10135000059B5F60FFF736FD039B060005992000A3
:10136000012B02D101F07DFB01E001F06FFB2000B9
:1013700021001030FFF711FF3000FFF727FD4AE092
:10138000FFF720FD10230600009301212300200019
:101390000195183305AA49420830FFF7E3FE051E00
:1013A00002D1236A013B23623000FFF70FFD2B00BF
:1013B0000B330BD1FFF7FEFC194B1B689D6C2A0009
:1013C0000C3203D1DB6D0025059301E0002D22DBFB
:1013D000059B5F60FFF7F6FC039B06000599200064
:1013E000012B02D101F03DFB01E001F02FFB2000B9
:1013F00021001030FFF7D1FE04003000FFF7E6FCBB
:101400000B3408D1FFF7D6FC05E0052502E00925DD
:1014100000E002256D42280007B0F0BD896C8A0CFF
:10142000D4130020F7B505004468102600200827D3
:10143000AC4225D06368043C0193002C1ED0626D41
:10144000A36DA86833401040002B02D0002804D1BF
:1014500014E0824201D0180010E0201D01F0DAFAF9
:10146000200000F0A6FFA36D3B4203D0636DAA6885
:101470009A43AA60AB680120002B01D0019CD7E7FA
:10148000FEBD000070B505000E00002810D04B1CFA
:101490000ED0C468002C0DD1FFF7A6FC01280BD09C
:1014A000280001F06FFA064BAE60EB60200005E00B
:1014B000052002E0082000E00220404270BDC04646
:1014C000254F220EF7B50025040001950523A842FB
:1014D00006D0C3680F4A1B011B09934203D009239E
:1014E0005B42019313E0FFF77FFC02230128F7D052
:1014F000FFF768FC0700200000F0E4FFE56006004D
:101500003800FFF763FC012E01D1FFF753FC01986F
:10151000FEBDC046254F220EF7B506000F00009213
:101520001D0000282BD0002929D0C3683D4A1B018B
:101530001B09934225D1FFF757FC012810D1089BC6
:10154000002B20D1FFF73EFCB36800991A003A4007
:10155000C90602D5002A21D118E0974216D11DE014
:10156000FFF730FCB36800991A0001903A40C906B1
:1015700002D5002A21D11CE097421AD11DE0052492
:1015800002E0092400E00224644249E0002D00D07A
:101590002B6004246442FFF719FC41E0002D00D0C9
:1015A0002B60009B00241B07F5D5B368BB43B360D9
:1015B000F1E7002D1FD02B601DE0002D00D02B6027
:1015C000009B1B0702D5B368BB43B3600024270010
:1015D0000198FFF7FBFB012F22D1FFF7EBFB124B2A
:1015E0001B689C6C22000C321AD12C1E18D05B6D2B
:1015F00000242B6014E0089B002B0DD004240A4B20
:10160000009A1B6804219A655F65089A300000F013
:1016100099FE64420127DBE704241F006442D7E7F8
:101620002000FEBD254F220ED413002070B504000B
:101630000D0000282CD000292AD0C368174A1B01AE
:101640001B09934226D1FFF7CFFB01280DD1FFF7ED
:10165000B9FB0600A36820001D43A560FFF7E2FE6A
:101660003000FFF7B3FB002416E0FFF7ABFBA368E5
:1016700006001D43A5602000FFF7D4FE05003000E2
:10168000FFF7A4FB0024012D06D1FFF793FB03E035
:10169000052400E009246442200070BD254F220E7D
:1016A00070B504000D00002812D04B1C10D0C36888
:1016B0000A4A1B011B0993420CD1FFF795FBFFF768
:1016C00081FBA1682940A160FFF780FB002003E0B7
:1016D000052000E00920404270BDC046254F220E83
:1016E000F0B585B004000E0001921D00002801D164
:1016F000052046E0244B9942FAD8076B002F3DD1D4
:10170000002DF5D00029F3D0019B002BF0D00A9AD0
:1017100009339342ECD8FFF767FB012830D00A9BCE
:101720002000EB180393019BE562A36201F083F9AB
:10173000230008331800029301F07DF9039BAB42AC
:101740000AD92900029801F081F9019B0137083379
:10175000ED18BE42F2D100E03E006662002EC7D016
:101760002000103001F00EF92000183001F00AF9C5
:10177000636A00202362054B236303E0082000E036
:101780000220404205B0F0BDFFFF0000BD9E2804CE
:1017900070B50500FFF728FB01281DD02B6B104A00
:1017A0001B011B09934215D10E4B1B68012B13D152
:1017B000FFF708FB06002800183000F083FE280021
:1017C0000024103000F07EFE30002C63FFF7FEFA9C
:1017D000200003E0092000E00220404270BDC04626
:1017E000BD9E2804DC130020F0B5050087B00F0073
:1017F00016001C00002800D18BE0002900D188E0F1
:10180000002A00D185E0036B464A1B011B09934265
:1018100000D080E0FFF7E8FA012834D1002C7CD119
:10182000FFF7D0FA0823062100932B0003900194C0
:10183000103305AA49422800FFF794FC04000398DE
:10184000FFF7C4FA002C6ADB05994C68B44200D952
:1018500034002200083138002E0001F089FAFFF729
:10186000B1FA083607000599300001F0EFF82800BA
:101870002B6A310001332B621830FFF78EFC3800E1
:10188000FFF7A4FA4BE0FFF79DFA08230621009327
:101890002B0003901033019405AA49422800FFF75A
:1018A00061FC04000398FFF791FA23000B330AD17F
:1018B000FFF780FA1C4B1B689C6C22000C3202D193
:1018C000DB6D059301E0002C29DB05994C68B442DF
:1018D00000D934002200083138002E0001F048FA07
:1018E000FFF770FA083607000599300001F0AEF8EE
:1018F00028002B6A183001332B623100FFF74DFCB2
:1019000005003800FFF762FA0B3508D1FFF752FAED
:1019100005E0052402E0092400E0022464422000DE
:1019200007B0F0BDBD9E2804D4130020F0B504001C
:1019300087B00F0016001D00002800D199E0002993
:1019400000D196E0002A00D193E0036B4D4A1B01C1
:101950001B09934200D08EE0FFF746FA01283BD1E5
:10196000002D00D089E0FFF72DFA1023039000939B
:101970000121230020000195183305AA49420830AF
:10198000FFF7F0FB051E02D1236A013B2362039897
:10199000FFF71CFA002D72DBA26AB24200D93200B6
:1019A000059839004260083001F0E2F9FFF70AFAC1
:1019B0000C9B060005992000012B02D101F051F883
:1019C00001E001F043F8200021001030FFF7E5FBB3
:1019D0003000FFF7FBF952E0FFF7F4F91023039012
:1019E00000930121230020000195183305AA4942E4
:1019F0000830FFF7B7FB051E02D1236A013B2362C3
:101A00000398FFF7E3F92B000B330BD1FFF7D2F963
:101A10001D4B1B689D6C2A000C3203D1DB6D002529
:101A2000059301E0002D2ADBA26AB24200D9320000
:101A3000059839004260083001F09AF9FFF7C2F9C1
:101A40000C9B060005992000012B02D101F009F83A
:101A500001E000F0FBFF200021001030FFF79DFBAC
:101A600004003000FFF7B2F90B3408D1FFF7A2F9F8
:101A700005E0052502E0092500E002256D42280069
:101A800007B0F0BDBD9E2804D413002010B5041E7D
:101A900007D0FFF7A9F9FFF795F9246AFFF796F940
:101AA00001E001246442200010BD70B50500041E51
:101AB0000AD0FFF799F9FFF785F92B6A6C6A1C1BAE
:101AC00063425C41FFF782F9200070BD10B5002829
:101AD00019D0002917D02F2A15D90724CB1DA343CD
:101AE000521A1900D218A24308398918C16000217E
:101AF0008360036006C3426001220162110010305E
:101B000000F038FA01E00520404210BDF7B50400AE
:101B10000F00061E45D00026B14242DD224D2B6843
:101B20000195012B04D101211030494200F0D2FA75
:101B3000072307379F433900002023680831002B13
:101B400026D05F681E68B9421FDC7A1A9446654643
:101B500062680F2D0BDDCF183E607D60002801D13B
:101B6000276000E007605960511A616007E00028B3
:101B700001D1266000E00660D21B5F606260002237
:101B80001A60934204D0083302E018003300D6E70D
:101B90001E00019B1B68012B03D12000103000F0B8
:101BA00055FA3000FEBDC046DC130020F0B504003D
:101BB00085B00D00002800D195E0002900D192E009
:101BC0004B4B1A680393012A04D10121103049427A
:101BD00000F080FA290008394A68530778D10E6866
:101BE000002E75D1A368994272D388180300E56866
:101BF000083B0193AB426BD823689C461D1E0FD156
:101C0000636821609A18626064E0A94260D07B1921
:101C100002932B68002B4CD0994221D32E001D003B
:101C20006F68A942F1D2019BAB4251D26368A842CE
:101C30000DD19B186360002E03D163461B682160A1
:101C400001E033683160D2190B604A602FE09A18C6
:101C50006260002E01D1216000E031600D6026E05D
:101C6000019E9E4234D26668B446984215D1029EC7
:101C70000368B14209D161468918D21961606A606E
:101C800047682B60BA186A6011E066464068B6186B
:101C90001218666029604A6008E00298814202D109
:101CA000B31863600FE06244626029600B60002536
:101CB00010E07819083881420AD97E196068B1426B
:101CC00004D180186060D2196A60F0E78218EBE7EF
:101CD00001256D42039B1B68012B06D120001030AB
:101CE00000F0B4F901E005256D42280005B0F0BD13
:101CF000DC13002070B504000D0000F046FE002843
:101D00000ED1200000F071FE002807D00438002812
:101D100004D0C56500F04DFB01280CD009200DE072
:101D2000E369E268934208D2A26901332A60002085
:101D3000A561E36103E00B2000E00120404270BD9B
:101D4000F8B504000D0016001F00002843D000293C
:101D500041D0036A002B3ED1012F01D9032A05D8B7
:101D60000023E361E3602362A36134E0FFF73CF802
:101D7000012832D0200000F005FE032172188A43AA
:101D800010007E437843EB1C8B4365612361A260A6
:101D90007519C018E760E168A84203D90139801AB3
:101DA000E160F8E7002598182E004F1E012903D89E
:101DB000E561E560A5610EE0BE4204D2186001361F
:101DC00003008018F8E7002018602369E161A3612F
:101DD000034B236203E0052000E002204042F8BDEF
:101DE0008BCEB706F8B5051E1ED0036A124A1B013A
:101DF0001B0993421AD1FEF7F7FF012818D00F4BA9
:101E00001B68012B14D1FEF7DDFF0700280000F04E
:101E100059FB002406002C623800FEF7D7FF012E84
:101E200008D1FEF7C7FF05E0052402E0092400E021
:101E3000022464422000F8BD8BCEB706DC130020DC
:101E4000F8B507000D00140000284BD0002949D038
:101E5000036A284A1B011B09934245D1FEF7C4FFC0
:101E6000012812D1002C41D1FEF7ACFFFB69002BF9
:101E700006D0BA69013B1168FB61B9612A6001E0D3
:101E800006246442FEF7A2FF32E0FEF79BFFFB69E7
:101E90000600002B07D0BA69013B11680024B96124
:101EA000FB612A600BE0002C07D080212200890111
:101EB000380000F047FA0B2400E0062464423000AA
:101EC000FEF784FF23000B3312D1FEF773FF0A4B9A
:101ED0001A68D26D2A601B689C6C23000C3307D1F2
:101EE000002405E0052402E0092400E00224644205
:101EF0002000F8BD8BCEB706D413002070B50400C7
:101F00000D0000282DD000292BD0036A184A1B0190
:101F10001B09934227D1FEF767FF01280FD1FEF777
:101F200051FF290006002000FFF7E4FE0300040033
:101F30000B3300D100243000FEF748FF15E0FEF718
:101F400041FF290006002000FFF7D4FE0400300006
:101F5000FEF73CFF23000B3307D1FEF72BFF0024D5
:101F600003E0052400E009246442200070BDC0465F
:101F70008BCEB706F8B505000F001600002813D069
:101F8000002A11D08A420FD30469002C0CD1FEF72D
:101F90002BFF01280AD0280000F0F4FC054BAF60AD
:101FA000EE602B61200003E0052000E002204042AB
:101FB000F8BDC046EB73A10FF8B5051E1AD0036932
:101FC000104A1B011B09934216D1FEF70DFF012891
:101FD00014D0FEF7F7FE0700280000F073FA002483
:101FE00006002C613800FEF7F1FE012E08D1FEF745
:101FF000E1FE05E0052402E0092400E00224644239
:102000002000F8BDEB73A10F10B5040000F0BDFC7B
:1020100000280ED1200000F0E8FC031E13D0043885
:10202000031E10D000F0C5F9092301280AD10B23A3
:1020300008E0A368E268934203D20133A36000235F
:1020400001E001235B42180010BD000070B5041EC2
:1020500025D00369154A1B011B09934221D1FEF7C4
:10206000C3FE01280AD1FEF7ADFE05002000FFF7F0
:10207000CBFF04002800FEF7A9FE14E0FEF7A2FE45
:1020800005002000FFF7C0FF04002800FEF79EFEB9
:1020900023000B3307D1FEF78DFE002403E0052457
:1020A00000E009246442200070BDC046EB73A10F1C
:1020B000836810B5002B03D0013B8360002007E04C
:1020C000002A03D000F03EF90B2000E00620404239
:1020D00010BD000070B504000D00002831D0036968
:1020E0001C4A1B011B0993422DD1FEF77DFE0128DE
:1020F0000ED1002D29D1FEF765FE2A00060002212F
:102100002000FFF7D5FF04003000FEF75FFE1EE061
:10211000FEF758FE2A00060002212000FFF7C8FF44
:1021200004003000FEF752FE23000B330FD1FEF700
:1021300041FE094B1B689C6C23000C3307D1002423
:1021400005E0052402E0092400E0022464422000A6
:1021500070BDC046EB73A10FD413002070B504000E
:10216000051D280000F056FC2900626B606900F034
:102170001CFC70BD01210023094802680A4004D1FB
:1021800001334900202BF8D11300064ADB00D31895
:102190005B681A1E00D01A1F034B1A607047C046B6
:1021A000EC170020AC160020D8130020F8B50F0063
:1021B000061D0500300000F02DFC0E4CF800001943
:1021C00000F0E3FB22000C4C012804D10300BB40CB
:1021D0002168994321606B6B3100DB00D01800F05F
:1021E000FEFB0123696B22688B4013432360FFF7DA
:1021F000C1FFF8BDAC160020EC17002070B50D0033
:10220000416B04000426A94214D2836B026B9A42EC
:1022100000D01D00236C6563012B0FD05B071DD51B
:102220002000FFF79BFF19E0236C6563012B05D0AD
:10223000334207D1616B8D42F6D30FE02000FFF7E8
:10224000B5FF0BE02000FFF789FF636C402B05D141
:102250006369002B02D09C69002CEBD170BD00009B
:10226000012370B50400026C466B9A43043022646B
:1022700000F0D0FB0C4BF500ED18280000F085FBBA
:10228000012807D1B040094A136883431360FFF760
:1022900071FF08E0064B1A68944204D16A68111E67
:1022A00000D0111F196070BDAC160020EC17002083
:1022B000D813002070B501250023466B0564B54096
:1022C00043610A4B011D0400F000C01800F087FBB9
:1022D000074A13681D43074B15601A68002A03D08C
:1022E000526B964200D21C6070BDC046AC160020F6
:1022F000EC170020D8130020704700004B1E10B5CB
:102300000A00033315D8010007230B4C0C31246855
:102310009A4206D812191340C3640848DB00181803
:1023200003E023409B18C364054800F058FB0020DD
:1023300001E00520404210BD40160020FC150020A1
:10234000CC130020F8B5104C060020680F001500D3
:10235000FFF786FF042223681A645F64DD6499181E
:10236000002E03D1080000F00DFB05E05A6B300091
:1023700000F01BFB23685E616B1E033303D829004A
:102380002068FFF7BBFFF8BDD413002070B5040030
:102390000C340500200000F0F8FA002808D10123D1
:1023A0005B422000EB6400F035FB200000F0EAFA0D
:1023B00070BD0C2370B500255B4204008364456149
:1023C000FFF7E4FF0823226C1A4204D12000FFF734
:1023D00071FF012001E028002364656470BD10B521
:1023E0000400043000F0CEFA2000FFF7CFFFA26B0C
:1023F0000023626310222264113A63616364A36460
:10240000E365E264236510BDF0B52B4D85B007266A
:102410002C68FEF7D7FC3440271E009006D0274BCF
:10242000FC00E21801920027029326E0244B039659
:102430005C680293029B9C42F1D0260063680C3ECC
:102440000193002E12D0F36C083BF364072B0DD8D8
:10245000200000F0DFFAF36C28682100C018039B0D
:102460001840164BC000C01800F0B9FA019CE1E713
:10247000029B1B195D68002D05D1019800F085FABB
:102480000028F5D012E02E000C3E002EF5D03000D2
:10249000FFF77CFF2800083800F0BCFA3000FFF797
:1024A00088FF04235B42B3640127E6E70098FEF748
:1024B0008DFC380005B0F0BD40160020FC15002052
:1024C000CC130020F8B50A27060000257F42300013
:1024D00000F05BFA00280FD1300000F086FA0028E7
:1024E000F5D0041F002CF2D02000FFF762FF012876
:1024F000EDD1A7640500EAE72800F8BD026C0821C9
:10250000130010B50B400CD1102A0CD0012A04D1B5
:102510000164FFF7A5FE0B2006E00A4302641800E1
:1025200003E0012000E00320404210BDF7B50400A5
:10253000009115001E00002A03D10A9B1B0608D437
:1025400060E01F2A03D10A9B5B0602D45AE01F2ACF
:1025500058D8089B3F2B55D9009B002B52D0002CFC
:1025600050D0002E4ED0E76B002F4BD1FEF73CFC35
:10257000012849D0264B1A680193012A02D1FEF79F
:1025800021FC0700009B2349A362099B2662E362AA
:10259000089B25636362204B6563E3630023A563A7
:1025A000626A934204D29A005242B1500133F7E773
:1025B00025001835280000F0E5F920000C3000F067
:1025C000E1F92000FFF70BFFE26A216AA06AFEF73B
:1025D00019FB29002060114800F001FA104A136825
:1025E00001331360C1230A9A1A4202D02000FFF778
:1025F00061FE019B00241B68012B07D13800FEF708
:10260000E5FB03E0052400E0022464422000FEBD57
:10261000DC130020EFBEADDE69CFAB07441600200F
:102620003C160020134B70B51C68FEF7DDFB051E41
:102630001FD1114B1B68012B1BD1FEF7C3FB2000E0
:10264000FFF70EFE2000FFF7CAFE2000183000F052
:10265000E1F90A4A1368013B1360A022E36BD2053B
:102660001340934201D1E36300E0E5632000FEF7ED
:1026700084FB70BDD4130020DC1300203C16002026
:1026800070B5041E44D0C36B254A1B011B0993423D
:1026900040D1FEF7A9FB01283ED0224B1B68012B3D
:1026A00003D0214B1B689C4236D0FEF78BFB236C7A
:1026B0000500012B03D12000FFF7D2FD0BE05B07E3
:1026C00009D5201D00F0A6F9E36C013303D02000EA
:1026D0000C3000F09FF92000FFF781FE2000183039
:1026E00000F098F9114A1368013B1360E023E26B94
:1026F000DB051340A022D205934200D00023E36300
:102700002800FEF763FB2000FFF7F6FD002005E040
:10271000052002E0092000E00220404270BDC046D2
:1027200069CFAB07DC130020D41300203C16002037
:1027300070B5041E2CD0C36B194A1B011B099342B0
:1027400028D1184B1B68012B26D1FEF74DFB012821
:102750000DD1FEF737FB05002000FFF7CFFE040088
:102760002800FEF733FB23000B3317D10EE0FEF7F2
:1027700029FB05002000FFF7C1FE04002800FEF73A
:1027800025FB23000B3309D1FEF714FB002405E0E1
:10279000052402E0092400E002246442200070BD08
:1027A00069CFAB07DC13002070B5041E45D0C36BA6
:1027B000264A1B011B09934241D1254B1B68012B63
:1027C0003FD1FEF711FB0826012819D1FEF7FAFACE
:1027D000236C050033420AD05A0704D42000FFF7C7
:1027E00069FD0B2404E0B3432364002401E00324C7
:1027F00064422800FEF7EAFA23000B3323D11AE0E3
:10280000FEF7E0FA236C050033420AD05A0704D4DD
:102810002000FFF74FFD0B2404E0B34323640024A2
:1028200001E0032464422800FEF7D0FA23000B33B2
:1028300009D1FEF7BFFA002405E0052402E00924CF
:1028400000E002246442200070BDC04669CFAB079F
:10285000DC13002070B5051E16D0FEF7C5FA01285E
:1028600014D00C4B1C68012C10D1FEF7ABFA0600FB
:102870002A0021000020FFF765FD3000FEF7A6FAD0
:10288000FEF798FA002003E0052000E00220404215
:1028900070BDC046DC13002070B5041E34D0C36B7D
:1028A0001D4A1B011B09934230D11C4B1D68012D91
:1028B0002ED1FEF799FA012810D1FEF783FA236C86
:1028C0000500102B04D12000FFF7F4FC002401E0E8
:1028D000022464422800FEF779FA1BE0FEF772FA40
:1028E000236C0600102B04D12000FFF7E3FC00242A
:1028F00002E00224002564423000FEF767FA012D51
:1029000008D1FEF757FA05E0052402E0092400E0AB
:1029100002246442200070BD69CFAB07DC130020A5
:1029200070B504000D00002801D1052024E0C36B20
:10293000124A1B011B0993421BD1FEF755FA0128CD
:1029400019D00F4B1B68012B15D16B1E1D2BECD81A
:10295000FEF738FAA36B06009D4200D2A56329005A
:1029600020002563FFF74AFC3000FEF72FFA002015
:1029700003E0092000E00220404270BD69CFAB07B0
:10298000DC130020406000607047436800229842DA
:1029900003D103681B1A5A425A411000704743681A
:1029A0004B60086019604160704710B5436883420E
:1029B00009D0002B05D01C1F002C02D01C6B9442A8
:1029C00007D85B68F3E71A684B600A6051601960CA
:1029D00004E01A6851600A6019604B6010BD03681A
:1029E00048600B60596001607047031E07D0406863
:1029F000834203D0426813605A6000E000207047B1
:102A00000368984203D01A685060026000E0002317
:102A100018007047426803685A6042681360704744
:102A20004368834203D08B4203D05B68F9E7002000
:102A300000E0012070470023036043607047036893
:102A4000002B01D01A6802601800704700230B6049
:102A50000368002B01D1016001E043681960416007
:102A6000704703680B60002B00D141600160704724
:102A700002B4714649084900095C49008E4402BC11
:102A80007047C046002243088B4274D303098B422F
:102A90005FD3030A8B4244D3030B8B4228D3030C2E
:102AA0008B420DD3FF22090212BA030C8B4202D3D0
:102AB0001212090265D0030B8B4219D300E0090AF8
:102AC000C30B8B4201D3CB03C01A5241830B8B4201
:102AD00001D38B03C01A5241430B8B4201D34B03EA
:102AE000C01A5241030B8B4201D30B03C01A52414F
:102AF000C30A8B4201D3CB02C01A5241830A8B42D4
:102B000001D38B02C01A5241430A8B4201D34B02BC
:102B1000C01A5241030A8B4201D30B02C01A524120
:102B2000CDD2C3098B4201D3CB01C01A52418309D4
:102B30008B4201D38B01C01A524143098B4201D30E
:102B40004B01C01A524103098B4201D30B01C01A39
:102B50005241C3088B4201D3CB00C01A52418308B3
:102B60008B4201D38B00C01A524143088B4201D3E0
:102B70004B00C01A5241411A00D201465241104640
:102B80007047FFE701B5002000F0F0F802BDC04635
:102B90000029F7D076E7704703460B437FD4002225
:102BA00043088B4274D303098B425FD3030A8B42E1
:102BB00044D3030B8B4228D3030C8B420DD3FF224B
:102BC000090212BA030C8B4202D31212090265D019
:102BD000030B8B4219D300E0090AC30B8B4201D3CC
:102BE000CB03C01A5241830B8B4201D38B03C01A13
:102BF0005241430B8B4201D34B03C01A5241030B8A
:102C00008B4201D30B03C01A5241C30A8B4201D33A
:102C1000CB02C01A5241830A8B4201D38B02C01AE5
:102C20005241430A8B4201D34B02C01A5241030A5C
:102C30008B4201D30B02C01A5241CDD2C3098B4241
:102C400001D3CB01C01A524183098B4201D38B01BE
:102C5000C01A524143098B4201D34B01C01A524161
:102C600003098B4201D30B01C01A5241C3088B42A6
:102C700001D3CB00C01A524183088B4201D38B0091
:102C8000C01A524143088B4201D34B00C01A524133
:102C9000411A00D201465241104670475DE0CA0F0A
:102CA00000D04942031000D34042534000229C46CA
:102CB00003098B422DD3030A8B4212D3FC228901D4
:102CC00012BA030A8B420CD3890192118B4208D3AA
:102CD000890192118B4204D389013AD0921100E00C
:102CE0008909C3098B4201D3CB01C01A5241830920
:102CF0008B4201D38B01C01A524143098B4201D34D
:102D00004B01C01A524103098B4201D30B01C01A77
:102D10005241C3088B4201D3CB00C01A52418308F1
:102D20008B4201D38B00C01A5241D9D243088B4247
:102D300001D34B00C01A5241411A00D201466346EA
:102D400052415B10104601D34042002B00D549424E
:102D5000704763465B1000D3404201B5002000F08D
:102D600005F802BD0029F8D016E770477047C04645
:102D700070B50F2A32D90C0004430B00A40731D1DF
:102D800015000400103D2D0901352D0149191E685B
:102D900026605E6866609E68A660DE681033E66046
:102DA00010349942F3D10F2345191340032B1BD93B
:102DB0001C1F0023A4080134A400CE58EE50043395
:102DC0009C42FAD103232D1909191A4005D000237A
:102DD000CC5CEC5401339A42FAD170BD0500002A54
:102DE000F5D1FAE70500F2E71A00F8E770B58307B6
:102DF0003FD0541E002A3BD0CEB20300032503E08F
:102E0000621E002C34D0140001335A1E16702B425F
:102E1000F6D1032C24D9FF250D402A0215432A049C
:102E200015430F2C11D92600103E36090136360104
:102E30001A009B19156055609560D5601032934259
:102E4000F8D10F221440032C0AD9261FB6080136E8
:102E5000B6001A009B1920C29342FCD103221440F1
:102E6000002C05D0C9B21C19197001339C42FBD14A
:102E700070BD14000300CCE7F0B500250326124B0B
:102E80001F68435DFA1852783240012A10D04A5D1B
:102E9000BC1864783440012C11D09B1A12D1002A3E
:102EA00010D00135435DFA1852783240012AEED134
:102EB0004A5D2033BC1864783440012CEDD12032B7
:102EC0009B1AEED01800F0BD2400002070B505005C
:102ED000830717D102680F4BD31893430E4A14008F
:102EE00013420FD1043002680A4BD3189343234294
:102EF00008D104300268074BD31893432342F1D022
:102F000000E001300378002BFBD100F007F8280027
:102F100070BDC046FFFEFEFE80808080031C0A78E4
:102F200001311A700133002AF9D1704710B58307B7
:102F300027D00378002B26D00300032102E01A7863
:102F4000002A1CD001330B42F9D119680F4A104CEA
:102F50008A188A4322420FD1043319680B4A8A180F
:102F60008A43224208D104331968084A8A188A43DE
:102F70002242F1D000E001331A78002AFBD1181A5E
:102F800010BD0300E1E70020FAE7C046FFFEFEFEA9
:102F900080808080556E6B6E6F776E206D73672EAC
:102FA0000D0A00436E743A20005348454C4C3E00D5
:102FB0000D0A57726F6E6720636F6D6D616E6421CD
:102FC0000D0A000006000000546869732069732030
:102FD000612050535720636D642E0D0A00566572B0
:102FE000202D20332E302E0D0A005468697320697D
:102FF00073206120434D44312E0D0A0054686973DB
:10300000206973206120434D44322E0D0A0054681C
:103010006973206973206120434D44332E0D0A00EB
:1030200054686520737461636B2022557361676512
:103030002220616E64202253697A65222076616CB9
:103040007565732061726520696E2074686520273C
:10305000696E7427286E6F74206279746573290D08
:103060000A005461736B3A20002020005573616799
:10307000653A200053697A653A20007073770076CC
:10308000657200636D643100636D643200636D646A
:10309000330064756D705F73746B00007B300008E3
:1030A0001D0700087F3000082D0700088330000846
:1030B0003D070008883000084D0700088D300008E3
:1030C0005D07000892300008D90700080020202082
:1030D00020202020202028282828282020202020C8
:1030E0002020202020202020202020202088101098
:1030F00010101010101010101010101010040404F4
:1031000004040404040404101010101010104141B1
:10311000414141410101010101010101010101019F
:1031200001010101010101011010101010104242B3
:10313000424242420202020202020202020202026F
:10314000020202020202020210101010200000000F
:10315000000000000000000000000000000000006F
:10316000000000000000000000000000000000005F
:10317000000000000000000000000000000000004F
:10318000000000000000000000000000000000003F
:10319000000000000000000000000000000000002F
:1031A000000000000000000000000000000000001F
:1031B000000000000000000000000000000000000F
:1031C00000000000000000000000000000000000FF
:1031D0001C4880471C491D4A0020521A02DD043A4F
:1031E0008850FCDC1A491B4A1B4B9B1A03DD043B2D
:1031F000C858D050FBDC00200146FDF7B5F8FEE7CB
:10320000FEE7FEE7FEE7FEE7FEE7FEE7FEE7FEE796
:10321000FEE7FEE7FEE7FEE7FEE7FEE7FEE7FEE786
:10322000FEE7FEE7FEE7FEE7FEE7FEE7FEE7FEE776
:10323000FEE7FEE7FEE7FEE7FEE7FEE7FEE7FEE766
:10324000FEE700002902000828000020F0170020F7
:0C3250005C320008000000202800002074
:09325C00030406080C10182030D0
:103265000000000000000000010203040607080931
:043278000048E80121
:04327C00E015002039
:04328000CC30000846
:0400000508000000EF
:00000001FF
