:020000040800F2
:10000000002000202538000855380008573800081F
:1000100000000000000000000000000000000000E0
:100020000000000000000000000000005938000837
:100030005B380008000000005B0B00083505000875
:100040006138000863380008653800086738000820
:10005000693800086B3800086D3800086F380008F0
:100060007138000873380008753800084105000829
:10007000793800087B380008000000007D3800084F
:10008000000000007F3800080000000000000000B1
:100090008138000800000000833800088538000817
:1000A00087380008893800088B3800088D38000828
:1000B0008F380008913800089338000895380008F8
:1000C00010B5024800F0FAFB002010BDCC35000846
:1000D00010B5024800F0F2FB002010BDE435000826
:1000E00010B5024800F0EAFB002010BDF43500080E
:1000F00010B5024800F0E2FB002010BD08360008F1
:1001000010B5024800F0DAFB002010BD1C360008D4
:10011000F0B54F4680B482B001900D0091460028A2
:1001200006DA2D230B704C1C43420193012603E099
:100130000C00002600E01C000A21019803F02CF9B5
:100140000F000A21019803F041F801903037277021
:10015000631C0136002802DD4E45ECD301E04E451C
:1001600001D300222A7000221A7023782A78227084
:100170002B70013C0135AC42F7D802B004BC91466B
:10018000F0BDC046F0B557464646C0B48BB03C48BB
:1001900000F094FB3B4B5E689E426BD03A4F3B4B6A
:1001A000984673689A46002E01D0183E00E000265B
:1001B000336A1C1D736A9B00E41A354B22689A420D
:1001C00003D1043422689A42FBD004AD3B68049307
:1001D000BB88AB80BB79AB7110226946306BFFF7EF
:1001E00097FF6946280003F08BF9280003F0B8F95F
:1001F00028180322274903F0D5F8280000F05EFBF9
:100200002B00424603CA03C3336A181D001B800833
:1002100010226946FFF77CFF6946280003F070F959
:10022000280003F09DF9281803221A4903F0BAF8B0
:10023000280000F043FB184B1A6804929A88AA80A1
:100240009B79AB71706A10226946FFF761FF6946BE
:10025000280003F055F9280003F082F9281803223A
:100260000E4903F09FF8280000F028FB5646054B86
:100270009E4296D100200BB00CBC90469A46F0BD31
:100280003036000844160020743600088036000816
:10029000EFBEADDE7C360008883600081C3700084B
:1002A00070B501256D42054C2900200001F0F0FEDB
:1002B0000028F9DB02F0A8F8F6E7C046E8150020B0
:1002C000F0B589B0094F0A4E20226946380000F087
:1002D00025FA051EF8DD00246B46E15C300002F0D3
:1002E0001FFE0134A542F7DCEEE7C046881300206C
:1002F00028000020F0B583B00B4D0C4E0C4F0124AC
:100300006442220001A9280000F04CFF0028F8DB1D
:10031000019B012B03D1380002F082FEEFE7300091
:1003200000F0CCFAEBE7C04658130020EC3600088A
:1003300028000020F0B54F4680B486B0A022D20538
:10034000516920234B405361642002F0B9FA012423
:10035000A027FF05164D7A69202353407B61642056
:1003600002F0AEFA01340A21200002F02BFF00292E
:10037000F1D101AE2B680193AB88B380300003F05C
:10038000EFF88146B1440A21200002F095FE1422C4
:100390004946FFF7BDFE300003F0E2F830180322B3
:1003A000044902F0FFFF300000F088FAD3E7C046AE
:1003B000FC3600081C37000810B5154AD16A012325
:1003C0000B43D362A022D2051168124B0B4080214F
:1003D000C9000B431360104802F02AFD0F4A104B6E
:1003E000536010490B6A1B021B0AC020000603431E
:1003F0000B6200239360073313600022002100206A
:1004000000F0AEFC002800D0FEE7002010BDC04682
:1004100000100240FFF3FFFF2800002010E000E082
:10042000FF7C000000ED00E000B585B000222E4BFF
:100430001A600132FF322D492D4800F0A5F800283E
:100440004FD12C480022C263802302930192009373
:10045000294BFD33FF33294902F076F8002840D1BB
:1004600027480023C363012202920193C033009303
:10047000244BBF229200944663440322224902F097
:1004800063F800282DD121480023C3630122029282
:1004900001938133FF3300931D4B1E4A94466344FE
:1004A00006221D4902F050F800281AD11B480023EB
:1004B000C363012202920193C0330093184BBF2201
:1004C0009200944663440822164902F03DF8002841
:1004D00007D115480023C3624033144A082100F0B5
:1004E0003FFD05B000BDC046D011002070070020C0
:1004F00088130020100F0020D00F0020A102000858
:100500000C01002070010020C1020008700E0020C4
:1005100070080020FC050000F5020008700F0020A4
:10052000700400203503000858130020D00E00206E
:100530007047C04610B500F0BDFC00F055FB10BD83
:1005400010B50E4B1B689B0107D5802292040B4B04
:100550005A600B4801F058FD0DE0084B1B681B0169
:1005600004D580221205054B5A6004E08021090160
:100570008023044AD15000F037FB10BD0000024038
:100580009C13002000E100E070B504000D0016008F
:10059000002876D000F02CFBE36B002B74D10233E3
:1005A000E36300F029FBA662E56201235B4263631B
:1005B00023630023A36314220021200002F030FFF4
:1005C0002600143614220021300002F029FF0122F7
:1005D0000121200001F098FC051E59D101220021C3
:1005E000300001F091FC051E52D12A4BDA6A01213C
:1005F0000A43DA629A6B8020800202439A631A6B84
:100600000A431A63A022D2051368F02083435038AE
:1006100003431360106A204B03408820C00103434A
:1006200013621E4B1A688A431A608B22DA603532D5
:100630009A60B33A1A6019003332CB691A42FCD07F
:100640004022164B1A62164B1A680126B2431A60F2
:1006500014490868144A02408020C00202430A601C
:10066000A0221A60A26A5A60104A9A60E26ADA60AE
:100670001A6832431A6000F0BBFAE66300F0BCFA75
:1006800006E005256D4203E000F0B6FA08256D424C
:10069000280070BD00100240FF00FFFF0044004032
:1006A00058000240A8000240FFFFF0FF2444004031
:1006B00010B5041E23D000F09BFAE36B012B21D16F
:1006C0000133E36300F098FA8021090180230F4A87
:1006D000D1500F490A687F3B1A430A600D4A1168DE
:1006E0000B4313600C4A13680D218B43136000F019
:1006F0007FFA0023E36300F07FFA002005E0052085
:10070000404202E000F078FA002010BD00E100E075
:10071000580002408000024000440040F8B54F46B7
:100720004646C0B4041E88463DD000293ED0002A6B
:100730003FD0436B0363836A161E9E4200D91E009E
:100740000025274F002399467B68A26B9B18A16A5E
:100750008B4213D1002D3EDC636B002B33D0E36B57
:10076000012B33D1012002F0ABF8636B0133EBD0E6
:10077000236B013B2363002B2BD0E5E7E36A9B5CF3
:10078000424653550135B54216DAA36B0133A363D4
:10079000A26A9342D8D34B4600E001234A46A263A3
:1007A000002BD1D017E005256D4214E005256D42E0
:1007B00011E005256D420EE0A36B0133A363A26A2D
:1007C0009342EAD207E004256D4204E008256D4219
:1007D00001E004256D4228000CBC90469946F8BD06
:1007E00058000240F0B557464E464546E0B4050075
:1007F0000F009046002843D0002944D0002A45D05D
:100800000121494201F044FC061E41D1234A1168EE
:10081000234B0B408021C9040B431360214C2368F8
:1008200001229146934323601F4B2360434663603C
:100830001E4BA360E7602368134323601C4A936840
:10084000802188460B4393601A4FC2229200BB5806
:100850001B021B0ABB5080231B019A463B602800E9
:100860001430154901F014FC060023684A469343EE
:10087000236043465246FA50280001F0C5FB07E0CA
:100880000526764204E00526764201E005267642FA
:1008900030001CBC90469946A246F0BDA80002401C
:1008A000FFFFFFF0800002409A2000002844004033
:1008B0000044004000E100E08813000010B5041E71
:1008C00008D002F04DFE0204120C21000348FFF78D
:1008D00089FF01E00820404210BDC0468813002077
:1008E00000B583B001A9087001220248FFF77AFF22
:1008F00003B000BD8813002010B52B4BDB680C2221
:100900001340042B14D002D8002B05D034E0082B60
:1009100012D00C2B14D02FE0234B5B681B045B0F11
:100920000133802212029A401300204A13602EE005
:100930001F4A1E4B1A602AE01E4A1C4B1A6026E012
:10094000194AD368D1689B021B0F1B48C35CDBB2FA
:100950000902890F0131D268D20306D414485843E2
:1009600002F0AAFB114B186011E01248584302F044
:10097000A3FB0E4B18600AE00B4B5B681B045B0F7C
:100980000133802212029A401300084A1360064B7A
:10099000DB681B061B0F094AD35CDBB2034A1168F4
:1009A000D940116010BDC046001002401C0000205C
:1009B0000024F40000127A00000000200C00002047
:1009C00082B0374A936B802149050B4393633549C5
:1009D0000868354B03408020000103430B60136817
:1009E000802149020B4313601100802292020B68A0
:1009F0001342FCD02D4A116801230B4313601100F0
:100A000001220B681A42FCD0254BDA689A21C903EF
:100A10000A43DA60DA68F0218A43DA60002301933E
:100A2000019B092B05DC019B01330193019B092BE1
:100A3000F9DD1B4BD9681E4A0A40DA60DA6880216A
:100A4000C9000A43DA6000230193019B092B05DCEE
:100A5000019B01330193019B092BF9DD104BD968F0
:100A6000144A0A40DA60DA68802189010A43DA60B0
:100A70001A68802149040A431A60190080229204EE
:100A80000B681342FCD0064AD16803230B43D360A2
:100A900011000C22CB681A42FCD002B07047C0464D
:100AA0000010024000700040FFE7FFFF00200240FE
:100AB000FFF8FFFFFFC7FFFF10B5114B1A68802139
:100AC00049000A431A60D9680E4A0A40DA60196878
:100AD0000D4A0A401A609A6801218A439A6019688F
:100AE0000A4A0A401A60D968094A0A40DA600022B4
:100AF0001A6180221205074B9A60FFF761FF10BD53
:100B0000001002400C40FF88F6FFF6FEFFFFFBFFDF
:100B1000FFFF02FF00ED00E044490868444A10432B
:100B2000086044490120087043490A681068103081
:100B3000F0C8A046A946B246BB462038F0C81030DF
:100B400080F30988BFF36F8F0421704608438646FF
:100B50003A493B48086062B6FEE772B6364B196800
:100B6000384A126891421CD0EFF30980203808609F
:100B7000F0C044464D4656465F46F0C01A601068C5
:100B80001030F0C8A046A946B246BB462038F0C88F
:100B9000103080F30988BFF36F8F0421704608433B
:100BA000864662B6704724490A681146264800689E
:100BB00080F309880421704608438646104623497D
:100BC0008847EFF30880203080F30888002080F306
:100BD0001488BFF36F8F19491948086062B6FEE7A1
:100BE000164917480860704714491548086070474F
:100BF000EFF3108072B6704780F310887047EFF300
:100C000010807047704770477047704772B67047E2
:100C100062B67047EFF30580800601D0012070476F
:100C20000020704701380028FCD1704720ED00E01B
:100C30000000C000DC130020D413002004ED00E00D
:100C400000000010D813002020000020E12200083E
:100C500070B50C00160080235B040B60FFF7D3FF18
:100C6000231F0125284318601948FFF7CDFF2300F3
:100C7000083B05431D60043B164A1A60043B164AB4
:100C80001A60043B154A1A60043B154A1A6030008A
:100C9000FFF7BBFF23001C3B1860043B114A1A609E
:100CA000043B114A1A60043B104A1A60043B104A84
:100CB0001A60043B0F4A1A60043B0F4A1A60043B57
:100CC0000E4A1A6020003C380D4B036070BDC046D0
:100CD0007526000812121212030303030202020215
:100CE0000101010111111111101010100909090958
:100CF000080808080707070706060606050505058C
:100D00000404040410B5044CE26A216AA06AFFF7E7
:100D10009FFF206010BDC0464C160020436A9A0019
:100D2000036A9B1A5A68024B9A4200D0FEE770474A
:100D3000EFBEADDE7047C04670B505000022064B21
:100D40001A60064E1C003268236801332360002AB3
:100D5000FAD028009047F6E7C8130020D0110020F1
:100D6000F0B587B005922C4801F050FE2B4C2500C1
:100D70004035200001F04AFE0834AC42F9D1284C3D
:100D8000284D661CFF360027200001F03FFE2F8013
:100D900008340235B442F7D1234801F037FE00236E
:100DA000224A1360224A1360224A1360224A1360C7
:100DB000224A1360224A1360224A136022480361C8
:100DC0000122002101F0A0F8041E21D11F480023B8
:100DD000C363402202920193603300931C4B7D3326
:100DE000FF33213A1B4901F0AFFB041E10D10599D6
:100DF0001948FFF79FFF154B104A13600E4A136006
:100E0000FFF712FB041E03D1FFF792FBFFF784FEEE
:100E1000200007B0F0BDC046CC130020FC15002018
:100E2000AC160020AC170020441600203C16002011
:100E3000DC130020EC170020D8130020D41300206E
:100E400040160020C8130020E81500204C16002092
:100E5000D8110020390D0008E013002070B50400FF
:100E60000D00114B1B68012B12D1FFF7D3FE002898
:100E700011D1631E1D2B11D80C4B9D4211D8FFF7C9
:100E8000B7FE64000A4BE552FFF7B6FE00200AE009
:100E90000220404207E00220404204E00520404298
:100EA00001E00520404270BDDC130020FEFF000081
:100EB000AC17002070B51E4B1B68012B33D1FFF718
:100EC000A9FE01282FD1FFF793FE0400194A1368E9
:100ED00001331360184B1B685D6B6900174A8A5A0F
:100EE000002A1DD0196D0131914201DA196517E010
:100EF00000221A65EB00124E9E19300001F08AFDA7
:100F000000280DD1ED000E4B5D196B685B689E42A9
:100F100006D0300001F0B4FD0100300001F0AAFD60
:100F20002000FFF769FE074801F06EF870BDC0466B
:100F3000DC13002040160020D4130020AC17002042
:100F4000AC160020E815002010B5FFF751FE034B4A
:100F50001C68FFF751FE200010BDC046401600205F
:100F6000F0B5474680B482B007000E0014001D00A3
:100F700000283ED02F4B99423ED8FFF74BFE012868
:100F80003DD0002C3ED0002E3FD0072D40D9FB6A2B
:100F9000002B40D1A846A044BC62380001F0A6FD59
:100FA00008239C46BC4463460193604601F09EFDC5
:100FB000444536D2F600A619002501E0A04507D920
:100FC0002100019801F09EFD08340135A642F5D1BB
:100FD0007D62002D22D03800103001F017FD38005E
:100FE000183001F013FD7B6A3B62134BFB6200205B
:100FF0001BE00520404218E00520404215E0022099
:10100000404212E0052040420FE0052040420CE043
:101010000520404209E00820404206E00520404209
:1010200003E000237B620520404202B004BC9046EE
:10103000F0BDC046FFFF0000896C8A0C70B504004B
:10104000FFF7E8FD01281BD0E36A1B011B09114AC9
:10105000934218D1104B1B68012B17D1FFF7C8FD25
:1010600005002000183001F031FA2000103001F0A6
:101070002DFA0023E3622800FFF7BEFD002007E001
:101080000220404204E00920404201E002204042A8
:1010900070BDC046896C8A0CDC13002010B5041E9C
:1010A0000FD0FFF7B7FD012805D1FFF7A1FD246A96
:1010B000FFF7A2FD07E0FFF79BFD246AFFF79CFD09
:1010C00001E001246442200010BDC04610B5041E9A
:1010D00017D0FFF79FFD012809D1FFF789FD236A8B
:1010E000646A1C1B63425C41FFF786FD0AE0FFF760
:1010F0007FFD236A646A1C1B63425C41FFF77CFD31
:1011000000E00024200010BD70B50C0016001D008A
:1011100001F0F0FC002811D1059B002B09D0002C18
:1011200009D01A000499280001F008F90B24644240
:1011300009E0002C07D13060002404E0059B002466
:10114000002BF6D0F7E7200070BDC04670B5040054
:101150000D0001F05FFC002814D1200001F090FC8C
:10116000002812D0041F002C12D0280001F0C2FC6D
:10117000002810D0E065200001F01AF901280DD1F7
:101180000C380DE0082040420AE00820404207E009
:101190000820404204E00820404201E0082040428C
:1011A00070BDC046F0B585B004000E0015000028E3
:1011B0007AD000297BD0C36A1B011B09414A9342A4
:1011C00078D1FFF727FD01282ED1002D75D1FFF72B
:1011D0000FFD070023001033002201920832009215
:1011E00003AA062149422000FFF78EFF05003800C0
:1011F000FFF702FD002D62DB039B5B683360FFF7A6
:10120000F7FC0700260008360399300001F07AFC4D
:10121000236A01332362200018303100FFF796FF64
:101220003800FFF7E9FC4AE0FFF7E2FC0700230083
:10123000103301950822009203AA0621494220009A
:10124000FFF762FF05003800FFF7D6FC2B000B33D9
:101250000BD1FFF7C5FC1C4B1B689D6C2A000C32A0
:1012600003D1DB6D0393002501E0002D27DB039BF9
:101270005B683360FFF7BCFC070026000836039963
:10128000300001F03FFC236A013323622000183054
:101290003100FFF75BFF04003800FFF7ADFC0B34B3
:1012A0000DD1FFF79DFC0AE005256D4207E00525FD
:1012B0006D4204E009256D4201E002256D422800DF
:1012C00005B0F0BD896C8A0CD4130020F0B587B04E
:1012D00004000E0017001D00002800D190E0C36A32
:1012E0001B011B094C4A934200D08CE0FFF792FC93
:1012F00001283AD1002F00D088E0FFF779FC039055
:10130000230018332200083210000022019210320C
:10131000009205AA01214942FFF7F6FE071E06D1F9
:10132000236A013B23620398FFF766FC04E00398FD
:10133000FFF762FC002F6BDB059B5E60FFF758FC3C
:101340000600012D04D10599200001F0E7FB03E020
:101350000599200001F0D6FB200010302100FFF796
:10136000F5FE3000FFF748FC52E0FFF741FC039028
:101370002300183322000832100001971022009237
:1013800005AA01214942FFF7BFFE071E06D1236AC5
:10139000013B23620398FFF72FFC13E00398FFF74C
:1013A0002BFC3B000B330BD1FFF71AFC1B4B1B68CC
:1013B0009F6C3A000C3203D1DB6D0593002701E0EE
:1013C000002F25DB059B5E60FFF712FC0600012D58
:1013D00004D10599200001F0A1FB03E0059920004C
:1013E00001F090FB200010302100FFF7AFFE040059
:1013F0003000FFF701FC0B340AD1FFF7F1FB07E0E7
:1014000005277F4204E009277F4201E002277F424F
:10141000380007B0F0BDC046896C8A0CD413002098
:10142000CB0605D5806802401000421E904104E0C2
:1014300080681040821A504250417047F0B54746CC
:1014400080B4050040680027082398461FE04668DE
:1014500000281BD0041F002C18D0026D416D2800FD
:10146000FFF7DEFF071E012F10D1201D01F022FB28
:10147000200000F09DFFA36D4246134203D0636D30
:10148000AA689A43AA60AB68002B02D03000A84239
:10149000DDD1380004BC9046F0BDC04670B50400F4
:1014A0000D00002810D04B1C11D0C368002B11D1A7
:1014B000FFF7B0FB012810D0200001F0A7FAA560CB
:1014C000074BE36000200AE00520404207E00520CA
:1014D000404204E00820404201E00220404270BD4A
:1014E000254F220E70B582B004000023019300281E
:1014F00002D1053B019321E0C3681B011B09114A7E
:10150000934203D009235B42019317E0FFF782FB6C
:10151000012803D102235B4201930FE0FFF768FB30
:101520000600200000F0D2FF05000023E360300039
:10153000FFF762FB012D01D1FFF752FB019802B0CA
:1015400070BDC046254F220EF0B583B005000C00DB
:10155000160000921F00002871D0002972D0C368C5
:101560001B011B09404A93426FD1FFF753FB01282F
:1015700025D1089B002B6BD1FFF73AFB019022008D
:1015800031002800FFF74CFF01280BD1002F01D0BC
:10159000AB683B600026009B1B070CD5AB68A343E0
:1015A000AB6008E0002F04D0AB683B6004267642B5
:1015B00001E0042676420198FFF71EFB51E0FFF799
:1015C00017FB0190220000992800FFF729FF01284E
:1015D0000AD1002F01D0AB683B60009B1B0708D5E8
:1015E000AB68A343AB6004E0002F36D0AB683B6030
:1015F00033E00198FFF700FB002632E01B4E336812
:10160000009A9A655C65089A0421280000F096FE0D
:101610000198FFF7F1FAFFF7E3FA33689E6C3200A6
:101620000C321ED105E00198FFF7E6FA0426764257
:1016300017E0002F0FD05B6D3B60002611E0052600
:1016400076420EE0052676420BE00926764208E057
:101650000226764205E0002603E0089B002BE2D03C
:10166000CCE7300003B0F0BD254F220ED41300208C
:1016700070B504000D0000282DD000292ED0C368BD
:101680001B011B09184A93422BD1FFF7C3FA01280B
:101690000DD1FFF7ADFA0600A3681D43A560200039
:1016A000FFF7CCFE3000FFF7A7FA00201BE0FFF7A2
:1016B0009FFA0600A3681D43A5602000FFF7BEFE49
:1016C00004003000FFF798FA0020012C0BD1FFF73F
:1016D00087FA002007E00520404204E00520404250
:1016E00001E00920404270BD254F220E70B5040074
:1016F0000D0000281DD04B1C1ED0C3681B011B0908
:10170000104A93421BD1FFF785FA012808D1FFF751
:101710006FFAA3681D40A560FFF76EFA002010E085
:10172000FFF766FAA3681D40A560FFF765FA002081
:1017300007E00520404204E00520404201E0092086
:10174000404270BD254F220EF0B54F464646C0B40C
:1017500083B00700894616001C00002845D0374B8F
:10176000994245D8036B002B45D1002C46D0002967
:1017700047D0002A48D0130009330A9A934246D82A
:10178000FFF748FA012845D00A9B9846A044FC621E
:10179000BE62380001F0AAF908239C46BC446346A7
:1017A0000193604601F0A2F9444539D2002508367C
:1017B00001E0444508D22100019801F0A3F9A419E1
:1017C0000135A945F5D130E07D62002D25D03800E6
:1017D000103001F01BF93800183001F017F97B6A5E
:1017E0003B62174B3B63002022E0052040421FE094
:1017F000052040421CE00820404219E005204042FC
:1018000016E00520404213E00520404210E005208C
:1018100040420DE0022040420AE00520404207E03D
:1018200000237B620520404202E04B467B62CEE70C
:1018300003B00CBC90469946F0BDC046FFFF0000C7
:10184000BD9E280470B50400FFF7E4F901281BD001
:10185000236B1B011B09114A934218D1104B1B68C3
:10186000012B17D1FFF7C4F905002000183000F054
:101870002DFE2000103000F029FE002323632800F5
:10188000FFF7BAF9002007E00220404204E00920F7
:10189000404201E00220404270BDC046BD9E280487
:1018A000DC130020F0B587B004000E0017001D0007
:1018B000002800D18DE0002900D18DE0002A00D160
:1018C0008DE0036B1B011B094A4A934200D089E05B
:1018D000FFF7A0F9012836D1002D00D085E0FFF7F1
:1018E00087F90390230010330022019208320092FE
:1018F00005AA062149422000FFF706FC05000398CF
:10190000FFF77AF9002D72DB05994D68BD4200D9C9
:101910003D0008312A00300001F044FDFFF768F96E
:101920000700260008360599300001F0EBF8236A1D
:1019300001332362200018303100FFF707FC380024
:10194000FFF75AF953E0FFF753F9039023001033E0
:1019500001950822009205AA062149422000FFF7BE
:10196000D3FB05000398FFF747F92B000B330AD18F
:10197000FFF736F9204B1B689D6C2A000C3202D110
:10198000DB6D059301E0002D31DB05994D68BD420B
:1019900000D93D0008312A00300001F003FDFFF7B7
:1019A00027F90700260008360599300001F0AAF84B
:1019B000236A01332362200018303100FFF7C6FB91
:1019C00004003800FFF718F90B3410D1FFF708F9BD
:1019D0000DE005256D420AE005256D4207E005256D
:1019E0006D4204E009256D4201E002256D422800A8
:1019F00007B0F0BDBD9E2804D4130020F0B587B019
:101A000004000D0017001E00002800D1A9E00029E5
:101A100000D1A9E0002A00D1A9E0036B1B011B093A
:101A2000584A934200D0A5E0FFF7F4F8012844D1CA
:101A3000002E00D0A1E0FFF7DBF80390230018335D
:101A4000220008321000002201921032009205AAF2
:101A500001214942FFF758FB061E06D1236A013BCC
:101A600023620398FFF7C8F805E00398FFF7C4F86E
:101A7000002E00DA83E0A26ABA4200D93A00059843
:101A800042600830290001F08DFCFFF7B1F8050035
:101A90000C9B012B04D10599200001F03FF803E0D5
:101AA0000599200001F02EF8200010302100FFF7EA
:101AB0004DFB2800FFF7A0F861E0FFF799F80390CD
:101AC00023001833220008321000019610220092E1
:101AD00005AA01214942FFF717FB061E06D1236A1A
:101AE000013B23620398FFF787F813E00398FFF7A1
:101AF00083F833000B330BD1FFF772F8224B1B68CE
:101B00009E6C32000C3203D1DB6D0593002601E0A0
:101B1000002E34DBA26ABA4200D93A00059842602E
:101B20000830290001F03EFCFFF762F805000C9B2D
:101B3000012B04D10599200000F0F0FF03E0059986
:101B4000200000F0DFFF200010302100FFF7FEFA38
:101B500004002800FFF750F80B3410D1FFF740F8CD
:101B60000DE0052676420AE00526764207E00526C6
:101B7000764204E00926764201E0022676423000F1
:101B800007B0F0BDBD9E2804D413002010B5041E7C
:101B90000FD0FFF73FF8012805D1FFF729F8246A95
:101BA000FFF72AF807E0FFF723F8246AFFF724F885
:101BB00001E001246442200010BDC04610B5041E9F
:101BC00017D0FFF727F8012809D1FFF711F8236A8A
:101BD000646A1C1B63425C41FFF70EF80AE0FFF7E2
:101BE00007F8236A646A1C1B63425C41FFF704F830
:101BF00000E00024200010BD70B504000D0000F0CE
:101C000009FF00280FD1200000F03AFF002816D06D
:101C10000438002816D0C56500F0CAFB012814D08E
:101C20000920404216E0E369E268934210D2A369BA
:101C30002B60A561E3690133E36100200AE009201C
:101C4000404207E00920404204E00B20404201E00E
:101C50000120404270BDC046F0B5474680B4040044
:101C60000F0090461D0000284ED000294FD0036A77
:101C7000002B4FD1012D01D9032A07D80023E3619E
:101C8000E3602362A361052040424CE0FEF7C2FFFF
:101C9000012842D0200000F0B9FE6761FE1C03223B
:101CA00096432661434603339343A3604146694309
:101CB000C919180068438019E560814230D2013D9E
:101CC00000E03D00C01A6F1E8142FAD3E560012D8D
:101CD00026D80023E361E360A3610520404222E0AF
:101CE0000B003360A268991801301E00E268013AC7
:101CF0008242F5D800221A602369A361E368E36198
:101D00000A4B236200200EE0052040420BE0052034
:101D1000404208E00520404205E00220404202E047
:101D2000F3180020DDE704BC9046F0BD8BCEB7066B
:101D300070B5041E20D0036A1B011B09144A93428C
:101D40001DD1FEF767FF01281CD0124B1B68012B29
:101D50001BD1FEF74DFF0600200000F0B7FB050089
:101D6000002323623000FEF747FF0020012D0ED133
:101D7000FEF736FF00200AE00520404207E0092078
:101D8000404204E00220404201E00220404270BD97
:101D90008BCEB706DC130020F8B504000D00170049
:101DA000002850D0002951D0036A1B011B09344A76
:101DB00093424ED1FEF72EFF012818D1002F4BD1B0
:101DC000FEF716FFE369002B09D0A2691168A16133
:101DD000013BE361002A05D02A60002404E00624C8
:101DE000644201E006246442FEF706FF45E0FEF788
:101DF000FFFE0600E369002B3AD0A2691168A161D9
:101E0000013BE361002A2AD02A600024002F16D06B
:101E10002AE03A0080218901200000F08FFA30008A
:101E2000FEF7EAFEFEF7DCFE164B1A68D26D2A605A
:101E30001B689C6C23000C331FD100241DE0300074
:101E4000FEF7DAFE19E00524644216E00524644238
:101E500013E00924644210E0022464420DE0002FE4
:101E6000D7D106246442EAE7FEF7C6FE002404E068
:101E7000002FCED106246442E1E72000F8BDC04621
:101E80008BCEB706D413002070B504000D000028D7
:101E90002DD000292ED0036A1B011B09194A934239
:101EA0002BD1FEF7B7FE01280FD1FEF7A1FE0600E9
:101EB00029002000FFF7A0FE040003000B3300D12F
:101EC00000243000FEF798FE19E0FEF791FE0600B0
:101ED00029002000FFF790FE04003000FEF78CFE82
:101EE00023000B330BD1FEF77BFE002407E0052413
:101EF000644204E00524644201E0092464422000B5
:101F000070BDC0468BCEB70670B504000E0015003C
:101F1000002813D0002A14D08A4215D30369002B5D
:101F200015D1FEF777FE012814D0200000F06EFDD9
:101F3000A660E560094B236100200DE005204042CA
:101F40000AE00520404207E00520404204E0052069
:101F5000404201E00220404270BDC046EB73A10F39
:101F600070B5041E1CD003691B011B09114A934262
:101F700019D1FEF74FFE012818D0FEF739FE0600F2
:101F8000200000F0A3FA0500002323613000FEF7D3
:101F900033FE0020012D0BD1FEF722FE002007E0CA
:101FA0000520404204E00920404201E00220404276
:101FB00070BDC046EB73A10F10B5040000F02AFD00
:101FC00000280ED1200000F05BFD002811D004385D
:101FD000002810D000F0ECF901280ED00920404272
:101FE00010E0A368E26893420AD20133A3600020A4
:101FF00008E0002006E0002004E00B20404201E061
:102000000120404210BDC04670B5041E25D00369B2
:102010001B011B09144A934222D1FEF7FBFD012844
:102020000AD1FEF7E5FD05002000FFF7C5FF04001B
:102030002800FEF7E1FD15E0FEF7DAFD05002000BF
:10204000FFF7BAFF04002800FEF7D6FD23000B338C
:1020500008D1FEF7C5FD002404E00524644201E038
:1020600009246442200070BDEB73A10F10B5836892
:10207000002B08D0013B8360002008E000F05EF9EF
:102080000B20404203E0002AF8D10620404210BD58
:1020900070B504000D00002831D003691B011B0935
:1020A0001C4A93422ED1FEF7B5FD01280ED1002D1A
:1020B0002BD1FEF79DFD0500002202212000FFF735
:1020C000D5FF04002800FEF797FD20E0FEF790FD05
:1020D00006002A0002212000FFF7C8FF040030009C
:1020E000FEF78AFD23000B3311D1FEF779FD0A4B71
:1020F0001B689C6C23000C3309D1002407E00524E5
:10210000644204E00924644201E0022464422000A5
:1021100070BDC046EB73A10FD413002070B504004E
:10212000051D280000F0C6FC626B6069290000F004
:1021300081FC70BD0E4B1B68DB070BD40123022210
:102140000B4801680A4206D152000133202BF8D116
:10215000002300E00023DB00064AD3185B68002B55
:1021600001D0043B00E00023034A13607047C046DF
:10217000EC170020AC160020D813002070B5040026
:102180000E00051D280000F095FCF0000E4BC01855
:1021900000F040FC012805D10C490B680122B24037
:1021A00093430B60636BD800074BC018290000F005
:1021B00061FC06490A68606B0123834013430B608E
:1021C000FFF7B8FF70BDC046AC160020EC1700202A
:1021D00070B504000D00416BA94212D2836B026BF3
:1021E0009A4200D12B006363236C012B03D12000A2
:1021F000FFF7C4FF21E05B071FD52000FFF78EFF2C
:102200001BE00426002C18D0616B8D4215D265634B
:10221000236C012B03D12000FFF7B0FF0DE01E421D
:10222000F0D02000FFF77AFF636C402B05D1636983
:10223000002B02D09C69002CE4D170BD70B5040065
:10224000456B0123026C9A432264043000F032FC97
:10225000E8000F4BC01800F0DDFB012808D10D4944
:102260000B680122AA4093430B60FFF763FF0EE067
:10227000094B1B689C420AD1ED00054B5D196B6848
:10228000002B01D0043B00E00023034A136070BD23
:10229000AC160020EC170020D813002070B5040005
:1022A000466B0125056400234361011DF000094BC5
:1022B000C01800F0DFFB084A1368B5401D431560E5
:1022C000064B1B68002B04D05B6B9E4201D2034B74
:1022D0001C6070BDAC160020EC170020D813002045
:1022E0007047C04610B54B1E03331DD807290ED8C2
:1022F0000F4B1B68C91807230B40C36401000C3146
:10230000DB000C48181800F0B5FB00200EE0084B6D
:102310001B68072213405918C16401000C3106489C
:1023200000F0A8FB002001E00520404210BDC0469F
:1023300040160020FC150020CC130020F8B5040046
:102340000F0015000F4E3068FFF778FF3168042347
:102350000B644F64CD64002C03D1081D00F056FBC4
:1023600007E04A6B0431200000F064FB054B1B685A
:102370005C616B1E033304D8024B18682900FFF719
:10238000B1FFF8BDD413002070B5050004000C3473
:10239000200000F03FFB002808D101235B42EB64E2
:1023A000200000F087FB200000F030FB70BDC0462D
:1023B00010B50400002343610C3B8364FFF7E4FF86
:1023C000236C1B0704D42000FFF768FF012002E004
:1023D0000823236400200023636410BD10B50400AB
:1023E000043000F013FB2000FFF7CEFF00236361F1
:1023F000A26B6263102222646364A364E365113AF2
:10240000E264236510BDC046F0B5474680B482B093
:102410002B4B1B6807271F40FEF7EAFB0190002F9C
:1024200029D1284A5368934225D0254A9046254E03
:102430005D68002B1CD00C3B1C1E19D0DB6C083BCC
:10244000E364072B14D80C239C46A44463460093F2
:10245000604600F02FFB42461068E36CC01807236B
:102460001840C000184A94466044009900F002FBEE
:102470002B1EB342DCD1FC00134BE41800252600D0
:1024800011E0706800280ED00C38071E0BD0FFF743
:102490007BFF381D00F00EFB3800FFF789FF042397
:1024A0005B42BB640125200000F0B4FA0028E8D0AC
:1024B0000198FEF7A1FB280002B004BC9046F0BDD5
:1024C00040160020CC130020FC150020F0B5474634
:1024D00080B4050000260A235B42984601270FE0DE
:1024E000280000F0CDFA00280AD0041F002C07D0E5
:1024F0002000FFF75DFF012802D14346A3643E00A0
:10250000280000F087FA0028EAD0300004BC90468A
:10251000F0BDC04610B5036C1A070FD4102B10D0B5
:10252000012B06D107330364FFF788FE0B204042DE
:1025300009E0082213430364002004E00120404224
:1025400001E00320404210BDF0B5474680B40500CD
:102550000F0016001C00002A03D1089B1B0608D49C
:1025600061E01F2A03D1089B5B0602D45EE01F2AAC
:102570005FD8069B3F2B5FD9002F60D0002D61D024
:10258000002C62D0EB6B002B62D1FEF743FB0128DD
:1025900061D0334B1B6800229046012B02D1FEF71D
:1025A00027FB8046AF62079BEB622C62069B6B6247
:1025B0002E636E63AE632B4BEB63069B002B07D041
:1025C0000023294A043C62600133696A9942F9D8C0
:1025D0002C001834200000F019FA28000C3000F00C
:1025E00015FA2800FFF7FAFEEA6A296AA86AFEF7D8
:1025F0002FFB286021001D4800F03CFA1C4A13689C
:1026000001331360C123089A134202D02800FFF758
:1026100045FE134B1B680020012B1ED14046FEF7E0
:10262000EBFA002019E00520404216E00520404268
:1026300013E00520404210E0052040420DE0052057
:1026400040420AE00520404207E00520404204E005
:102650000520404201E00220404204BC9046F0BD0B
:10266000DC13002069CFAB07EFBEADDE44160020BF
:102670003C16002010B5144B1C68FEF7CBFA00285E
:1026800020D1124B1B68012B1CD1FEF7B1FA2000A0
:10269000FFF7D4FD2000FFF7A1FE2000183000F066
:1026A00009FA0B4A1368013B1360A022D205E36BC1
:1026B0001340934201D1E26301E00023E363200071
:1026C000FEF771FA10BDC046D4130020DC130020C1
:1026D0003C16002070B5041E46D0C36B1B011B09BD
:1026E000274A934243D1FEF795FA012842D0254B61
:1026F0001B68012B03D0244B1B689C423DD0FEF786
:1027000077FA0500236C012B03D12000FFF796FD1B
:102710000BE05B0709D5201D00F0CCF9E36C013319
:1027200003D020000C3000F0C5F92000FFF756FE62
:102730002000183000F0BEF9144A1368013B136002
:10274000E023DB05E26B1340A022D205934201D1C6
:10275000E26301E00023E3632800FEF74DFA200066
:10276000FFF7BEFD00200AE00520404207E00920F7
:10277000404204E00220404201E00220404270BD9D
:1027800069CFAB07DC130020D41300203C160020D7
:1027900070B5041E2DD0C36B1B011B091A4A93424E
:1027A0002AD11A4B1B68012B29D1FEF733FA0128D5
:1027B0000ED1FEF71DFA05002000FFF7ABFE040066
:1027C0002800FEF719FA23000B331AD1002418E071
:1027D000FEF70EFA05002000FFF79CFE040028001B
:1027E000FEF70AFA23000B330BD1FEF7F9F90024A8
:1027F00007E00524644204E00924644201E0022465
:102800006442200070BDC04669CFAB07DC130020D6
:1028100070B5041E39D0C36B1B011B09264A9342B5
:1028200036D1264B1B68012B35D1FEF7F3F9012871
:1028300014D1FEF7DDF90500236C1A072ED55A07CF
:1028400007D42000FFF72AFD2800FEF7D5F9002461
:102850002FE0082293432364002421E0FEF7C8F907
:102860000500236C1A071FD55A0709D42000FFF76B
:1028700015FD2800FEF7C0F9FEF7B2F9002418E0B4
:10288000082293432364002410E00524644210E0EE
:10289000092464420DE0022464420AE003246442F5
:1028A0002800FEF7A9F904E0032464422800FEF79B
:1028B000A3F9200070BDC04669CFAB07DC13002030
:1028C00070B5041E16D0FEF7A5F9012815D00E4BE1
:1028D0001B68012B14D1FEF78BF9050022000121A2
:1028E0000020FFF72BFD2800FEF786F9FEF778F9A8
:1028F000002007E00520404204E00220404201E0C1
:102900000220404270BDC046DC13002070B5041E9A
:102910002ED0C36B1B011B091D4A93422BD11D4BAB
:102920001B68012B2AD1FEF775F9012810D1FEF79B
:102930005FF90500236C102B04D12000FFF7AEFCDB
:10294000002401E0022464422800FEF755F91CE04F
:10295000FEF74EF90500236C102B12D12000FFF773
:102960009DFC2800FEF748F9FEF73AF900240CE038
:102970000524644209E00924644206E0022464421A
:1029800003E0FEF739F902246442200070BDC0461E
:1029900069CFAB07DC13002070B504000D000028E0
:1029A00021D0C36B1B011B09164A93421ED1FEF7AF
:1029B00031F901281DD0144B1B68012B1CD16B1E53
:1029C0001D2B1CD8FEF714F90600A36B9D4200D204
:1029D000A563256329002000FFF7FAFB3000FEF70E
:1029E0000BF900200DE0052040420AE0092040429A
:1029F00007E00220404204E00220404201E00520BE
:102A0000404270BD69CFAB07DC130020406000601E
:102A10007047C04600234268904203D10368181AE9
:102A2000434243411800704743684B600860196097
:102A30004160704710B5436898420DD0002B05D017
:102A40001C1F002C02D01C6B944203D85B68984278
:102A5000F4D101E0984205D14B601A680A605160D8
:102A6000196005E01A6851601A680A6019604B60C5
:102A700010BDC046486003680B6059600160704734
:102A8000031E07D04068834206D042681360426844
:102A90005A6002E0002000E000207047036898427E
:102AA00004D01A6850601A68026000E00023180021
:102AB0007047C046036842685A60436802681A60FB
:102AC0007047C0464368984209D08B4202D108E063
:102AD000994208D05B689842FAD1002004E00020B7
:102AE00002E0012000E001207047C046002303609F
:102AF000436070470368002B01D01A680260180019
:102B00007047C04600230B600368002B02D10160B0
:102B1000416002E0436819604160704703680B60E0
:102B20000368002B00D141600160704710B5002898
:102B30001BD000291CD02F2A1DD9CB1D0724A3434D
:102B40008360521AD218A243190008398918C1604B
:102B500003600021196003685A604260016210300E
:102B600001220131FFF7D0F907E00520404204E0DF
:102B70000520404201E00520404210BD70B505002F
:102B80000C00002850D0002950DD2F4B1B68012B72
:102B900004D1103001214942FFF77AFA07340723A4
:102BA0009C43210008312A68002A32D05368994298
:102BB00027DC43E05C68A14222DC641A0F2C0DDDA7
:102BC000C8181E6806604460002A01D1286000E031
:102BD000106059606A68511A69600CE0002A04D1DB
:102BE0001A0013682B60130001E0196811606A680D
:102BF0005968521A6A6000221A60181E06D109E04C
:102C00001A001368002BD5D1002003E00833180008
:102C100000E0002004000C4B1B68012B12D128009F
:102C20001030FFF7F1F90DE000240BE0002409E07B
:102C300088181468046043601300C7E75B1A0F2B01
:102C4000F6DCCEE7200070BDDC130020F0B547466F
:102C500080B405000C00002800D1D0E0002900D18C
:102C6000D0E0724B1B68012B04D110300121494286
:102C7000FFF70EFA210008394C68630700D0AAE07C
:102C80000B68002B00D0A9E0AB68994200D2A8E005
:102C90000B199C461F00083FEB689F4200D9A3E038
:102CA0002B6898460020002B08D129604B686A6881
:102CB000944663446B60002498E01300994225D247
:102CC0009F4200D3A1E09C4514D16A6894466444B5
:102CD0006C60002804D14246126829600A6002E054
:102CE000026801600A605B684A68944663444B600E
:102CF00000247BE06A68944664446C60002801D13B
:102D0000296000E001600B6000246FE099427FD0F1
:102D1000586818181A68002A3DD0914255D2974237
:102D200079D2944521D1814211D16A689446644494
:102D30006C604A6859688C4662445A6019684868F1
:102D4000844662445A600A681A6000244EE06A6849
:102D5000944664446C6018684268006819604B6867
:102D60009B184B600860002440E081420AD16A68E9
:102D7000944664446C604A6859688C4662445A6060
:102D8000002433E06A68944664446C601A681960F1
:102D90000A6000242AE00200083A91423ED98142AA
:102DA0000AD16A68944664446C604A6859688C46E3
:102DB00062445A60002419E06A68944664446C6076
:102DC0001A6819600A60002410E01800002A00D078
:102DD00073E700240AE00124644207E0012464420E
:102DE00004E00124644201E0012464420F4B1B68AB
:102DF000012B16D128001030FFF706F911E0052449
:102E000064420EE0052464420BE001246442EDE7D5
:102E100001246442EAE701246442E7E701246442B2
:102E2000E4E7200004BC9046F0BDC046DC1300205F
:102E300010B50400E422002100F0F2FA6023A36040
:102E400020003830E0602300283363610B4B1B689F
:102E5000A3610B4BE3610B4B23620B4B636260225C
:102E6000002100F0DDFA2200A4329823E250402233
:102E70000433E25000220433E25010BDC83500088C
:102E8000BC360008BD080008E108000810B50023A2
:102E9000002201210248FEF719FA002010BDC046A9
:102EA0005813002010B5036A002B03D00800984780
:102EB000002001E00120404210BDC04610B50400D2
:102EC000036A002B08D0002901D005489847236ADF
:102ED00004489847002001E00120404210BDC04650
:102EE0001C370008043700080123036100207047E5
:102EF00010B5436A002B03D008009847002001E07A
:102F00000120404210BDC04610B5436A002B03D0DB
:102F100008009847002001E00120404210BDC04653
:102F200010B504000368002B3AD10D2926D0436860
:102F30008268934222DA082901D07F2910D1002B20
:102F400032DD013B636008212000FFF7D1FF202123
:102F50002000FFF7D9FF08212000FFF7D5FF23E06D
:102F6000581C824220DD0A00203A5F2A1CD860608B
:102F7000E268D1542000FFF7BBFF15E00023E268B0
:102F8000616853540D212000FFF7B2FF0A21200091
:102F9000FFF7AEFF012323602000FFF777FF03E078
:102FA000032901D10123036110BDC04670B504009F
:102FB00000254560C3681D70FFF780FFFDF718FE10
:102FC0002560FDF719FE70BDF0B5020000230B600F
:102FD0004B608B60CB60060000240020002500279A
:102FE0001378092B03D0202B01D0002B0DD1012CFD
:102FF00006D1177084006650013003280FDC3C00B6
:10300000002D06D1002B0AD007E0002C01D11600BC
:103010000134012D01D1002001E00132E0E7F0BDD3
:10302000F0B583B006004169C068FFF7CDFF002806
:1030300004DDB7690025002F21DD06E00021300006
:10304000FFF7B4FF0124644227E073691B68009313
:10305000F469002501942168009800F027FA0028FF
:1030600008D1019B5B683000984701213000FFF7D1
:103070009DFF04E001350834BD42EBD103E000249C
:10308000B369AB4209D10B493000FFF70BFF0121B7
:103090003000FFF78BFF01246442B2680021F06822
:1030A00000F0BEF970691022002100F0B9F920008B
:1030B00003B0F0BD0C370008002243088B4274D3E4
:1030C00003098B425FD3030A8B4244D3030B8B4229
:1030D00028D3030C8B420DD3FF22090212BA030C32
:1030E0008B4202D31212090265D0030B8B4219D313
:1030F00000E0090AC30B8B4201D3CB03C01A524133
:10310000830B8B4201D38B03C01A5241430B8B427A
:1031100001D34B03C01A5241030B8B4201D30B0363
:10312000C01A5241C30A8B4201D3CB02C01A52418A
:10313000830A8B4201D38B02C01A5241430A8B424D
:1031400001D34B02C01A5241030A8B4201D30B0236
:10315000C01A5241CDD2C3098B4201D3CB01C01A50
:10316000524183098B4201D38B01C01A524143095A
:103170008B4201D34B01C01A524103098B4201D348
:103180000B01C01A5241C3088B4201D3CB00C01AB5
:10319000524183088B4201D38B00C01A524143082D
:1031A0008B4201D34B00C01A5241411A00D2014652
:1031B000524110467047FFE701B5002000F0F0F8DB
:1031C00002BDC0460029F7D076E7704703460B439F
:1031D0007FD4002243088B4274D303098B425FD310
:1031E000030A8B4244D3030B8B4228D3030C8B423C
:1031F0000DD3FF22090212BA030C8B4202D3121222
:10320000090265D0030B8B4219D300E0090AC30BF6
:103210008B4201D3CB03C01A5241830B8B4201D3A3
:103220008B03C01A5241430B8B4201D34B03C01A8C
:103230005241030B8B4201D30B03C01A5241C30A04
:103240008B4201D3CB02C01A5241830A8B4201D375
:103250008B02C01A5241430A8B4201D34B02C01A5F
:103260005241030A8B4201D30B02C01A5241CDD204
:10327000C3098B4201D3CB01C01A524183098B424F
:1032800001D38B01C01A524143098B4201D34B0138
:10329000C01A524103098B4201D30B01C01A52419B
:1032A000C3088B4201D3CB00C01A524183088B4222
:1032B00001D38B00C01A524143088B4201D34B000B
:1032C000C01A5241411A00D201465241104670477D
:1032D0005DE0CA0F00D04942031000D34042534082
:1032E00000229C4603098B422DD3030A8B4212D342
:1032F000FC22890112BA030A8B420CD38901921174
:103300008B4208D3890192118B4204D389013AD0B0
:10331000921100E08909C3098B4201D3CB01C01A85
:10332000524183098B4201D38B01C01A5241430998
:103330008B4201D34B01C01A524103098B4201D386
:103340000B01C01A5241C3088B4201D3CB00C01AF3
:10335000524183088B4201D38B00C01A5241D9D20B
:1033600043088B4201D34B00C01A5241411A00D28C
:103370000146634652415B10104601D34042002B88
:1033800000D54942704763465B1000D3404201B507
:10339000002000F005F802BD0029F8D016E77047BC
:1033A0007047C04670B50F2A32D90C0004430B0099
:1033B000A40731D115000400103D2D0901352D0160
:1033C00049191E6826605E6866609E68A660DE68B1
:1033D0001033E66010349942F3D10F23451913409E
:1033E000032B1BD91C1F0023A4080134A400CE58B2
:1033F000EE5004339C42FAD103232D1909191A40C7
:1034000005D00023CC5CEC5401339A42FAD170BD54
:103410000500002AF5D1FAE70500F2E71A00F8E7FF
:1034200070B583073FD0541E002A3BD0CEB20300B4
:10343000032503E0621E002C34D0140001335A1E11
:1034400016702B42F6D1032C24D9FF250D402A02F9
:1034500015432A0415430F2C11D92600103E3609B6
:10346000013636011A009B19156055609560D560CC
:1034700010329342F8D10F221440032C0AD9261F90
:10348000B6080136B6001A009B1920C29342FCD13F
:1034900003221440002C05D0C9B21C191970013345
:1034A0009C42FBD170BD14000300CCE7F0B50025B1
:1034B0000326124B1F68435DFA1852783240012AE6
:1034C00010D04A5DBC1864783440012C11D09B1A8E
:1034D00012D1002A10D00135435DFA1852783240DB
:1034E000012AEED14A5D2033BC1864783440012CA7
:1034F000EDD120329B1AEED01800F0BD2400002040
:1035000070B50500830717D102680F4BD31893439A
:103510000E4A140013420FD1043002680A4BD3182C
:103520009343234208D104300268074BD3189343D6
:103530002342F1D000E001300378002BFBD100F0F2
:1035400007F8280070BDC046FFFEFEFE8080808028
:10355000031C0A7801311A700133002AF9D170472F
:1035600010B5830727D00378002B26D00300032152
:1035700002E01A78002A1CD001330B42F9D11968F5
:103580000F4A104C8A188A4322420FD1043319681B
:103590000B4A8A188A43224208D104331968084A20
:1035A0008A188A432242F1D000E001331A78002AB7
:1035B000FBD1181A10BD0300E1E70020FAE7C0466E
:1035C000FFFEFEFE80808080060000005468697364
:1035D00020697320612050535720636D642E0D0ABB
:1035E00000000000566572202D20332E302E0D0A6B
:1035F0000000000054686973206973206120434D06
:1036000044312E0D0A00000054686973206973204C
:103610006120434D44322E0D0A0000005468697346
:10362000206973206120434D44332E0D0A000000B1
:1036300054686520737461636B20225573616765FC
:103640002220616E64202253697A65222076616CA3
:103650007565732061726520696E20746865202726
:10366000696E7427286E6F74206279746573290DF2
:103670000A0000005461736B3A2000002020000013
:1036800055736167653A200053697A653A200000F6
:103690007073770076657200636D6431000000001E
:1036A000636D643200000000636D6433000000004D
:1036B00064756D705F73746B0000000090360008D5
:1036C000C100000894360008D100000898360008B0
:1036D000E1000008A0360008F1000008A836000844
:1036E00001010008B036000885010008556E6B6EB8
:1036F0006F776E206D73672E0D0A0000436E743A6B
:10370000200000005348454C4C3E00000D0A577203
:103710006F6E6720636F6D6D616E64210D0A00002E
:103720000020202020202020202028282828282091
:103730002020202020202020202020202020202089
:1037400020881010101010101010101010101010F1
:1037500010040404040404040404041010101010E1
:1037600010104141414141410101010101010101AB
:1037700001010101010101010101010110101010FD
:10378000101042424242424202020202020202027D
:1037900002020202020202020202020210101010D1
:1037A00020000000000000000000000000000000F9
:1037B0000000000000000000000000000000000009
:1037C00000000000000000000000000000000000F9
:1037D00000000000000000000000000000000000E9
:1037E00000000000000000000000000000000000D9
:1037F00000000000000000000000000000000000C9
:1038000000000000000000000000000000000000B8
:1038100000000000000000000000000000000000A8
:10382000000000001C4880471C491D4A0020521A15
:1038300002DD043A8850FCDC1A491B4A1B4B9B1AD8
:1038400003DD043BC858D050FBDC00200146FCF7E8
:10385000B3FDFEE7FEE7FEE7FEE7FEE7FEE7FEE775
:10386000FEE7FEE7FEE7FEE7FEE7FEE7FEE7FEE730
:10387000FEE7FEE7FEE7FEE7FEE7FEE7FEE7FEE720
:10388000FEE7FEE7FEE7FEE7FEE7FEE7FEE7FEE710
:10389000FEE7FEE7FEE70000B90A00082800002066
:1038A000F0170020B0380008000000202800002099
:0938B000030406080C1018203076
:1038BC0000000000000000000102030406070809D4
:0438CC000048E801C7
:0438D000E0150020DF
:0438D4002037000891
:0400000508000000EF
:00000001FF
