:020000040020DA
:1000000000000120FD4720002F482000314820003B
:100010003348200035482000374820000000000009
:10002000000000000000000000000000394820002F
:100030003B48200000000000A306200057052000D8
:100040004148200043482000454820004748200000
:10005000494820004B4820004D4820004F482000D0
:1000600051482000534820005548200057482000A0
:10007000594820005B482000650520005F482000AB
:100080006148200063482000654820006748200040
:10009000694820006B4820006D4820006F48200010
:1000A00071482000734820007548200077482000E0
:1000B000794820007B4820007D4820007F482000B0
:1000C0008148200083482000854820008748200080
:1000D000894820008B4820008D4820008F48200050
:1000E0009148200093482000954820009748200020
:1000F000994820009B4820009D4820009F482000F0
:10010000A1482000A3482000A5482000A7482000BF
:10011000A9482000AB482000AD482000AF4820008F
:10012000B1482000B3482000B5482000B74820005F
:10013000B9482000BB482000BD482000BF4820002F
:10014000C1482000C3482000C5482000C7482000FF
:10015000C9482000CB482000CD482000CF482000CF
:10016000D1482000D3482000D5482000D74820009F
:10017000D9482000DB482000DD48200000000000B6
:10018000DF482000E1482000E3482000E548200047
:10019000E7482000E9482000EB482000ED48200017
:1001A000EF482000F1482000F3482000F5482000E7
:1001B000F7482000F9482000FB482000FD482000B7
:1001C000FF4820000149200008B5024803F07EF8EE
:1001D000002008BDD045200008B5024803F076F89D
:1001E000002008BDE545200008B5024803F06EF880
:1001F000002008BDF245200008B5024803F066F86B
:10020000002008BD0446200008B5024803F05EF84F
:10021000002008BD1646200000280B46F0B5B6BFEA
:100220002D24002440424FF00A07BCBF03F8014BC5
:100230000124E51A1C4690FBF7FE07FB1E00303038
:1002400004F8010B7046661910B9B24206D803E0F3
:10025000B24201D92346EDE700220A700022227043
:100260001A78087803F8010901F8012B8B42F7D8B6
:10027000F0BD2DE9F0412E4E8AB02E4803F026F84D
:100280002D4F7468B4424ED0D4F80480183C256BCE
:10029000606B0435A5EB80052B682A1DBB4201D19C
:1002A0001546F9E7254904A804F08EF81022206CC1
:1002B0006946FFF7B1FF694604A804F065F82049D4
:1002C00004A804F061F804A803F000F81D4904A88C
:1002D00004F07AF8206B102269460430401B800835
:1002E000FFF79AFF694604A804F04EF8144904A8E1
:1002F00004F04AF804A802F0E9FF134904A804F046
:1003000063F81022606B6946FFF786FF694604A810
:10031000444604F039F80D4904A804F035F804A85F
:1003200002F0D4FFAEE700200AB0BDE8F08100BFC4
:100330003424012028462000EFBEADDE6A462000AE
:1003400071462000744620007C462000F3462000C1
:1003500008B54FF0FF31054801F02CFC0028F8DB10
:1003600001F0CDFD02F07AF9F3E700BFD8230120B8
:1003700030B589B020226946074802F0DDFE051E2F
:10038000F8DD00241DF804100134044803F038FEA1
:10039000A542F7DCEEE700BF982001201002012003
:1003A00007B54FF0FF3201A9074800F0F1FB002824
:1003B000F7DB019B012B03D1044803F098FEF0E723
:1003C000034802F083FFECE74021012010020120E6
:1003D000A346200030B5002487B00120013403F08B
:1003E0008FFD642001F0D6FF0A23B4FBF3F503FB75
:1003F0001543002BF1D10A4901A803F0E5FF01A83C
:1004000004F05EF801AB142219182846FFF704FF28
:10041000044901A803F0B8FF01A802F057FFDCE788
:10042000B2462000F34620007FB5344C0023344A06
:10043000A4F8E83004F1E40113604FF4E132A4F8C9
:10044000EA30A4F8EC30A4F8F0300C23C4F8E4202F
:10045000A4F8EE304FF480732A4A2B4802F05CFD7A
:10046000002848D18023C4F840010246019002933D
:1004700004F1F400009304F55973244901F0D1FD0F
:10048000002838D101264FF40075C4F8B40304F6EF
:10049000D43301900322029604F55A7000951C494A
:1004A00001F0BFFD38BBC4F8240C0622019004F60D
:1004B000D83002960095174B174901F0B2FDD0B91C
:1004C000164C08221649C4F89C0304F6BC3301906C
:1004D00004F554700296009501F0A3FD58B9114D32
:1004E000402304F53C620821E862284604B0BDE8D8
:1004F000704000F07FBA04B070BD00BF1002012050
:10050000081F01200800012098200120510320002D
:100510007103200054160120A103200008130120BC
:10052000D50320004021012008B503F0A9FA0848AE
:1005300003F000FD0F2002F0AFFF012003F0A4FC48
:1005400000221146104600F051F900B1FEE708BD47
:1005500010020120704708B500F0FAF9BDE8084024
:1005600000F0F1B808B50849084802F09CFB0128E2
:1005700002D1074801F0DBFA0649044802F0BCFB4F
:10058000BDE8084000F0DFB8008000185860024065
:10059000AC20012000E0001E38B54FF080730C46FF
:1005A00015460B6000F0E6F840F0010044F8040C3A
:1005B000204800F0E0F84FF0123340F0010044F81A
:1005C0000C3C4FF0033344F8080C284644F8103C28
:1005D0004FF0023344F8143C4FF0013344F8183C18
:1005E00000F0CAF86FF0020344F81C0C204644F8EF
:1005F000203C4FF0113344F8243C4FF0103344F8C2
:10060000283C4FF0093344F82C3C4FF0083344F8B1
:10061000303C4FF0073344F8343C4FF0063344F895
:10062000383C4FF0053344F83C3C4FF0043340F87D
:10063000403D38BD3521200010B5044CE26B216BE4
:10064000A06BFFF7A9FF206010BD00BF3C24012074
:10065000426B036BA3EB82035A68024B9A4200D0B1
:10066000FEE77047EFBEADDE704700BF4B4908683C
:1006700040F47F0008604A494FF001000870494982
:100680000A681068B0E8F04F80F3098846494FF0D7
:1006900080500860002080F31488BFF36F8F63B62A
:1006A000FEE772B63F4B1968404A1268914225D066
:1006B00000B510463E4988473E4B3C4A126893427B
:1006C00001D13D49884701BC8646364B1968374AF7
:1006D0001268EFF309801EF0100F08BF20ED108A9A
:1006E00020E9F04F08601A601068B0E8F04F1EF083
:1006F000100F08BFB0EC108A80F309884EF0040E8A
:1007000062B6704727490A6811462C48006880F392
:1007100009884EF0040E104629498847EFF30880F7
:10072000203080F30888002080F31488BFF36F8F97
:100730001D494FF08050086062B6FEE71A494FF03D
:1007400080500860704718494FF08050086070472B
:10075000EFF3108072B6704780F310887047EFF3A4
:1007600010807047014648420840B0FA80F0C0F15E
:100770002000704770477047704772B6704762B686
:100780007047EFF30580C00501D0012070470020BD
:10079000704701380028FCD1704700BF20ED00E011
:1007A000C4210120BC21012004ED00E0C021012072
:1007B000510620003C2401203906200000000120C1
:1007C000DD1D200008B5074C00230546064E2360BA
:1007D0003268236801332360002AFAD02846904704
:1007E000F6E700BFB0210120081F01202DE9F043EA
:1007F0000024314D85B03148174601F08FFF28198C
:10080000083401F08BFF402CF9D100242C4D2D48E9
:1008100001F084FF2819083401F080FF402CF9D141
:100820000025DFF8D890284EA84609EBC500002423
:1008300001F074FF26F815800135202DF5D12348ED
:1008400001F06CFF224B234821461C600122224B01
:10085000224E1C60224BDFF8A8801C60214B3460C4
:100860001C60214BC8F800401C60046101F0F4F8E2
:100870000446E8B91D4D40231F221D49E864029338
:1008800060230190284600931A4B01F0CAFB0446EE
:1008900070B939461848FFF7E7FEC8F800503560D0
:1008A000FFF7C2FD044618B9FFF754FEFFF7DEFE5E
:1008B000204605B0BDE8F083EC230120B4210120DF
:1008C00070210120C8210120AC2501203424012001
:1008D0002C240120D8230120C4210120C021012083
:1008E000EC25012030240120B02101203C240120EE
:1008F000C50720008C200120D0210120AC2401203C
:10090000BC210120104B1B68012B70B505460E461B
:1009100002D06FF0010070BDFFF733FF04460028DE
:10092000F7D16B1E1D2B0CD84FF6FE739E4208D8D4
:10093000FFF70EFF054B23F81560FFF70DFF20466C
:1009400070BD6FF0040070BDC4210120AC250120F2
:1009500038B51C4B1B68012B2ED1FFF712FF012865
:100960002AD1FFF7F5FE184A0546136801331360D4
:10097000164B174A1B685C6C32F81410C9B11A6E1A
:1009800001328A4201DA1A6613E000221A66114B1C
:1009900003EBC404204601F0C4FE50B963685B68F1
:1009A0009C4206D0204601F0EAFE0146204601F0B6
:1009B000E0FE2846FFF7D0FE0748BDE8384001F0CA
:1009C000B6B800BFC421012030240120BC21012081
:1009D000AC250120AC240120D823012010B5FFF75D
:1009E000B7FE034B1C68FFF7B7FE204610BD00BFE3
:1009F000302401202DE9F8430F4616469846044658
:100A000018B96FF00400BDE8F883B1F5803FF8D263
:100A1000FFF7B7FE012830D0002EF2D0002FF0D023
:100A2000B8F1070FEDD9E56A5DBB04F1080920466E
:100A3000A662B04401F0C9FE484601F0C6FEB045CA
:100A400008D9013531464846083601F0C8FEAF42A4
:100A5000F5D100E02F466762002FD2D004F11000DC
:100A600001F05CFE04F1180001F058FE636A0020FA
:100A70002362064BE362BDE8F8836FF00100BDE836
:100A8000F8836FF00700BDE8F88300BF896C8A0C1B
:100A900070B50546FFF775FE01281ED0EB6A104AB7
:100AA00023F07043934215D10E4B1B68012B14D1D8
:100AB000FFF74EFE0024064605F1180001F07CFA0F
:100AC00005F1100001F078FA3046EC62FFF744FEC1
:100AD000204670BD6FF0080070BD6FF0010070BD62
:100AE000896C8A0CC421012010B5044638B1FFF787
:100AF00048FEFFF72DFE246AFFF72EFE01E04FF0BF
:100B0000FF34204610BD10B5044650B1FFF739FE42
:100B1000FFF71EFE226A636AD31A5C425C41FFF74C
:100B20001BFE204610BDF8B5079D0C4616461F4615
:100B300001F04FFE50B945B144B12A4606993846F6
:100B40006FF00A0401F070F902E00CB90024306083
:100B50002046F8BD38B504460D4601F0E2FD10B15F
:100B60006FF0070038BD204601F009FE0028F7D0DD
:100B7000041FF5D0284601F02CFE0028F0D0E066D6
:100B8000204601F08BF90128EAD16FF00A0038BD48
:100B9000F0B50E4685B015460446002879D00029E8
:100BA00077D0C36A404A23F07043934274D1FFF771
:100BB000E8FD01282DD1002D71D1FFF7C9FD0823D3
:100BC00007460195009303AA04F110036FF0050195
:100BD0002046FFF7A8FF05463846FFF7BDFD002D6C
:100BE0005FDB039B5B68336004F10806FFF7B0FD31
:100BF00003990746304601F0F2FD236A314604F1BD
:100C0000180001332362FFF7A5FF3846FFF7A4FD64
:100C100047E0FFF79DFD082307460195009303AACF
:100C200004F110036FF005012046FFF77CFF054635
:100C30003846FFF791FD15F10B0F0BD1FFF77EFD45
:100C40001A4B1B689D6D15F10C0F03D1DB6E00254F
:100C5000039301E0002D24DB039B5B68336004F108
:100C60000806FFF775FD03990746304601F0B7FD0A
:100C7000236A314604F1180001332362FFF76AFF4B
:100C800004463846FFF768FD0B340AD1FFF756FDDE
:100C900007E06FF0040504E06FF0080501E06FF075
:100CA0000105284605B0F0BD896C8A0CBC210120E5
:100CB0002DE9FF410F4615461E46044600287FD009
:100CC000C36A454A23F0704393427CD1FFF759FD34
:100CD000012831D1002D79D1FFF73AFD102301957C
:100CE0008046009303AA04F118034FF0FF3104F18A
:100CF0000800FFF718FF054610B9236A013B23627D
:100D00004046FFF729FD002D62DB039B5F60FFF784
:100D10001FFD012E07460399204602D101F069FD0F
:100D200001E001F05CFD214604F11000FFF712FF25
:100D30003846FFF711FD4BE0FFF70AFD1023019540
:100D40008046009303AA04F118034FF0FF3104F129
:100D50000800FFF7E8FE054610B9236A013B23624D
:100D60004046FFF7F9FC15F10B0F0BD1FFF7E6FC3E
:100D70001A4B1B689D6D15F10C0F03D1DB6E00251E
:100D8000039301E0002D23DB039B5F60FFF7E0FC92
:100D9000012E07460399204602D101F02AFD01E009
:100DA00001F01DFD214604F11000FFF7D3FE0446BB
:100DB0003846FFF7D1FC0B340AD1FFF7BFFC07E040
:100DC0006FF0040504E06FF0080501E06FF0010525
:100DD000284604B0BDE8F081896C8A0CBC21012052
:100DE00070B5054644680020AC4211D06668043CEA
:100DF0000CD0A06E626EAB6810F0100003EA020324
:100E000002D033B9184601E09A4202D03446EBE7EB
:100E100070BD201D01F0C8FC204601F03FF8A36E14
:100E20001B0704D5626EAB6823EA0203AB60AB68B4
:100E30000120002BEAD170BD70B50E46054678B191
:100E40004B1C0DD0C46874B9FFF79BFC01280DD072
:100E5000284601F063FC074BAE602046EB6070BD96
:100E60006FF0040070BD6FF0070070BD6FF00100FF
:100E700070BD00BF254F220EF7B500250446019531
:100E800010B96FF0040307E0C368114A23F0704300
:100E9000934203D06FF00803019315E0FFF771FC54
:100EA000012802D16FF00103F6E7FFF751FC074676
:100EB000204601F081F80646E5603846FFF74CFC15
:100EC000012E01D1FFF73AFC019803B0F0BD00BF3D
:100ED000254F220E2DE9F843089F884614461D46EB
:100EE000064630B329B3C3683A4A23F070439342AD
:100EF00022D1FFF746FC01280DD107BBFFF728FCE4
:100F0000B36814F0100F08EA030201D00ABB19E01D
:100F1000904517D11DE0FFF71BFCB36814F0100FCC
:100F2000814608EA030201D00ABB1DE090451BD1AF
:100F30001DE06FF004044AE06FF0080447E06FF032
:100F4000010444E005B12B606FF00304FFF704FCDB
:100F50003DE005B12B6014F00804F7D0B16800241F
:100F600021EA0801B160F1E7FDB12B601DE005B198
:100F70002B60230703D5B16821EA0801B160002482
:100F800027464846FFF7E8FB012F20D1FFF7D6FBA5
:100F9000114B1B689C6D14F10C0F18D11DB15B6EC9
:100FA00000242B6013E02C4611E06FB10A4B3A4647
:100FB000042130461B6801279C666FF00304C3F8C8
:100FC000648000F031FFDCE76FF00304D9E72046CE
:100FD000BDE8F883254F220EBC21012070B50D46D7
:100FE000044648B341B3C368174A23F070439342A1
:100FF00025D1FFF7C6FB01280CD1FFF7A9FBA36899
:10100000064620461D43A560FFF7EAFE3046FFF77F
:10101000A3FB17E0FFF79CFBA368064620461D4391
:10102000A560FFF7DDFE04463046FFF795FB012C77
:1010300008D1FFF783FB05E06FF0040070BD6FF08F
:10104000080070BD002070BD254F220E38B50D463A
:10105000044690B14B1C10D0C3680B4A23F0704378
:1010600093420DD1FFF78DFBFFF772FBA1680D4096
:10107000A560FFF771FB002038BD6FF0040038BD9C
:101080006FF0080038BD00BF254F220E2DE9F04754
:10109000DDF820900F4690461E46044618B96FF0C2
:1010A0000400BDE8F087B1F5803FF8D2056B002D54
:1010B00039D1002BF3D00029F1D0002AEFD002F172
:1010C00009034B45EBD8FFF75CFB01282FD004F157
:1010D000080AC4F828802046E662B14408F10808EE
:1010E00001F073FB504601F070FBB14508D90135A2
:1010F00031465046464401F072FBAF42F5D100E064
:101100002F466762002FCAD004F1100001F006FBE1
:1011100004F1180001F002FB636A00202362064B11
:101120002363BDE8F0876FF00700BDE8F0876FF03C
:101130000100BDE8F08700BFBD9E280470B50546DC
:10114000FFF71FFB01281ED02B6B104A23F07043C2
:10115000934215D10E4B1B68012B14D1FFF7F8FAFF
:101160000024064605F1180000F026FF05F11000E6
:1011700000F022FF30462C63FFF7EEFA204670BDE8
:101180006FF0080070BD6FF0010070BDBD9E2804B7
:10119000C42101202DE9FF410E4617461C46054695
:1011A000002800F08F80002900F08C80002A00F0D9
:1011B0008980036B494A23F07043934240F0858055
:1011C000FFF7DFFA012836D1002C40F08180FFF7CD
:1011D000BFFA082380460194009303AA05F1100387
:1011E0006FF005012846FFF79EFC04464046FFF7D6
:1011F000B3FA002C6EDB03993C46304605F1080635
:101200004B6808319F4228BF1C46224602F0AEFFC1
:10121000FFF79EFA03990746304601F0E0FA2B6A81
:10122000314605F1180001332B62FFF793FC384675
:10123000FFF792FA4EE0FFF78BFA082380460194FD
:10124000009303AA05F110036FF005012846FFF78C
:101250006AFC04464046FFF77FFA14F10B0F0AD1EF
:10126000FFF76CFA1E4B1B689C6D14F10C0F02D13A
:10127000DB6E039301E0002C2CDB03993C463046E7
:1012800005F108064B6808319F4228BF1C462246DC
:1012900002F06CFFFFF75CFA03990746304601F055
:1012A0009EFA2B6A314605F1180001332B62FFF7D5
:1012B00051FC05463846FFF74FFA0B350AD1FFF7C8
:1012C0003DFA07E06FF0040404E06FF0080401E069
:1012D0006FF00104204604B0BDE8F081BD9E2804F3
:1012E000BC2101202DE9F04385B00E4690461D46F5
:1012F0000C9F0446002800F09C80002900F0998093
:10130000002A00F09680036B504A23F0704393420A
:1013100040F09280FFF735FA01283CD1002D40F0D3
:101320008E80FFF715FA102301958146009303AADA
:1013300004F118034FF0FF3104F10800FFF7F3FB4D
:10134000054610B9236A013B23624846FFF704FAB9
:10135000002D76DBA26A31460398424500F1080071
:1013600028BF424640F8042C02F000FFFFF7F0F9D6
:10137000012F06460399204602D101F03AFA01E016
:1013800001F02DFA214604F11000FFF7E3FB30468F
:10139000FFF7E2F955E0FFF7DBF9102301958146ED
:1013A000009303AA04F118034FF0FF3104F1080081
:1013B000FFF7B9FB054610B9236A013B2362484693
:1013C000FFF7CAF915F10B0F0BD1FFF7B7F9204B57
:1013D0001B689D6D15F10C0F03D1DB6E0025039387
:1013E00001E0002D2DDBA26A31460398424500F151
:1013F000080028BF424640F8042C02F0B7FEFFF771
:10140000A7F9012F06460399204602D101F0F1F910
:1014100001E001F0E4F9214604F11000FFF79AFB26
:1014200004463046FFF798F90B340AD1FFF786F9E6
:1014300007E06FF0040504E06FF0080501E06FF0CD
:101440000105284605B0BDE8F08300BFBD9E280415
:10145000BC21012010B5044638B1FFF792F9FFF71F
:1014600077F9246AFFF778F901E04FF0FF3420465E
:1014700010BD10B5044650B1FFF783F9FFF768F9C6
:10148000226A636AD31A5C425C41FFF765F9204621
:1014900010BD00BF38B504460D4601F042F968B9E9
:1014A000204601F06CF930B1043804D0C56600F074
:1014B000F5FC01280DD06FF0080038BDE369E26843
:1014C000934209D2A269013300202A60A561E36139
:1014D00038BD6FF00A0038BD4FF0FF3038BD2DE940
:1014E000F041884616461F460446002845D000298C
:1014F00043D0036A002B40D1012F01D9032A04D81D
:101500000023E361E360236223E0FFF73AF9012857
:1015100037D0204608F1030501F000F9F01C25F052
:10152000030506FB078120F00300C4F81480256141
:1015300000FB0753A060E7608B42E66803D9013ED9
:101540001B1AE660F8E7012E4FF0000303D8E361B1
:10155000E360A36111E02A18711E8B4204D22A6055
:10156000013315460244F8E7002028602369E6614C
:10157000A361064B2362BDE8F0816FF00400BDE873
:10158000F0816FF00100BDE8F08100BF8BCEB7069F
:10159000F8B50546F0B1036A144A23F0704393424C
:1015A0001BD1FFF7EEF801281AD0114B1B68012B55
:1015B00016D1FFF7CDF800240746284600F0FCFCC2
:1015C00006462C623846FFF7C7F8012E0BD1FFF70D
:1015D000B5F808E06FF00400F8BD6FF00800F8BD42
:1015E0006FF00100F8BD2046F8BD00BF8BCEB706F6
:1015F000C4210120F8B50E4614460546002849D0FE
:10160000002947D0036A284A23F07043934244D10B
:10161000FFF7B7F8012811D1002C41D1FFF798F856
:10162000EB6933B1AA69013B1168EB61A9613260D2
:1016300001E06FF00504FFF78FF833E0FFF788F85B
:10164000EB6907463BB1AA69013B00241168EB61D5
:10165000A96132600BE044B122464FF400512846A4
:101660006FF00A0400F0E0FB01E06FF0050438467B
:10167000FFF772F814F10B0F14D1FFF75FF80B4B63
:101680001A68D26E32601B689C6D14F10C0F08BF93
:10169000002407E06FF0040404E06FF0080401E0A8
:1016A0006FF001042046F8BD8BCEB706BC210120A7
:1016B00070B50D46044660B359B3036A184A23F067
:1016C0007043934228D1FFF75CF801280FD1FFF750
:1016D0003FF8064629462046FFF7DCFE10F10B0FC7
:1016E00014BF044600243046FFF736F816E0FFF733
:1016F0002FF8294606462046FFF7CCFE0446304622
:10170000FFF72AF814F10B0F08D1FFF717F80024A0
:1017100004E06FF0040401E06FF00804204670BD9F
:101720008BCEB70638B50D460446C0B1436AB3B98F
:10173000012901D0042912D1FFF723F8012811D083
:10174000204600F0EBFF04F1080000F0E7FF002066
:10175000064B2561A06120626362606138BD6FF055
:10176000040038BD6FF0010038BD00BF459E120770
:101770002DE9F0410E46054600285DD0436A344A03
:1017800023F0704393425AD1FEF7FBFF012859D052
:10179000304FFEF7DDFFAC6980463868844233D0B5
:1017A00074B9A86105F10801203000F0E2FF2B694F
:1017B00013F004032CD03A68936A0133936228E053
:1017C0004EB32B693246284613F0040F0CBF202479
:1017D0004024214600F028FB402C11D13B68A86929
:1017E000596C036C99420BD26B6923B901236B616D
:1017F000C36A0133C362436C994201D200F070FAAC
:101800006FF00104012509E06FF00704002505E0F1
:101810001C46254602E06FF0050435464046FEF7BB
:101820009BFF012D10D1FEF789FF3B689C6D14F1E1
:101830000C0F08BF002407E06FF0040404E06FF011
:10184000080401E06FF001042046BDE8F08100BF0C
:10185000459E1207BC2101202DE9F8438F690E46F1
:10186000874265D1002F63D001F10809484600F096
:101870009BFF3469002314F004041CD07269012A10
:1018800009BFFC6A1C46736104F1FF34BB6A08BFE0
:10189000FC6203F1FF3308BFB4FA84F4FA6ABB6256
:1018A00008BF6409934206D13A6CBA641BB97B6CD9
:1018B0009A4218BF0124304600F033FF012802D1BC
:1018C0000025B5612DE0304600F059FF804630B369
:1018D000051F24D0284600F0E1FAB561494608F119
:1018E0001C0000F046FF33695B0701D4002518E0B7
:1018F000AB6A30460133AB6200F013FF0028F5D12C
:101900007368002BF2D0043BF0D05A6C2B6C9A42D7
:10191000ECD201237361EB6A0133EB62E6E76FF00F
:101920000105012C06D1B96C384600F0D9F901E067
:101930006FF007052846BDE8F883F8B50546F0B115
:10194000436A144A23F0704393421BD1FEF719FFF8
:1019500001281AD0FEF7FCFE00240746284600F0B6
:101960002BFB29460646A869FFF776FF6C623846CE
:10197000FEF7F2FE012E0BD1FEF7E0FE08E06FF05D
:101980000400F8BD6FF00800F8BD6FF00100F8BD6D
:101990002046F8BD459E120737B5044610B96FF0D2
:1019A000040307E0436A104A23F07043934203D0D4
:1019B0006FF00803019314E0FEF7E3FE012802D163
:1019C0006FF00103F6E7FEF7C3FE084B054621461C
:1019D0001868FFF741FF01902846FEF7BDFEFEF7AD
:1019E000ADFE019803B030BD459E1207BC21012019
:1019F00038B5054600F12004204600F092FE58B9A3
:101A0000204600F0BCFE0028F6D0B0F10801F3D06B
:101A10002846FFF721FFEFE738BD10B5446904B948
:101A200010BD204600F07DFE80B963689BB1043B89
:101A300011D0A2697AB1506C916C5B6C814228BF65
:101A400001468B4294BF5364516410BDA36913B126
:101A50009A6C5A6410BD10BDF8B50F46164605467F
:101A600088B182B18A420ED3046964B9FEF789FE57
:101A700001280BD0284600F051FE064BAF602046EF
:101A8000EE602B61F8BD6FF00400F8BD6FF001004F
:101A9000F8BD00BFEB73A10FF8B50546D0B10369DF
:101AA000124A23F07043934217D1FEF76AFE0128D1
:101AB00016D0FEF74DFE00240746284600F07CFABB
:101AC00006462C613846FEF747FE012E0BD1FEF785
:101AD00035FE08E06FF00400F8BD6FF00800F8BDB7
:101AE0006FF00100F8BD2046F8BD00BFEB73A10FF9
:101AF00010B5044600F015FE70B9204600F03FFE18
:101B0000A0B1043812D000F0C9F901280CBF6FF061
:101B10000A006FF0080010BDA368E268934203D288
:101B200001330020A36010BD4FF0FF3010BD38B569
:101B3000044628B30369164A23F07043934222D126
:101B4000FEF71FFE01280AD1FEF702FE05462046D9
:101B5000FFF7CEFF04462846FEF7FEFD15E0FEF730
:101B6000F7FD05462046FFF7C3FF04462846FEF76B
:101B7000F3FD14F10B0F08D1FEF7E0FD002404E0A3
:101B80006FF0040401E06FF00804204638BD00BF88
:101B9000EB73A10F38B583681BB1013B8360002054
:101BA00038BD22B100F040F96FF00A0038BD6FF087
:101BB000050038BD70B50D46044680B303691D4A63
:101BC00023F0704393422DD1FEF7DBFD01280DD1A8
:101BD0005DBBFEF7BDFD06462A4602212046FFF703
:101BE000D9FF04463046FEF7B7FD20E0FEF7B0FD12
:101BF0002A46064602212046FFF7CCFF044630461F
:101C0000FEF7AAFD14F10B0F11D1FEF797FD0A4B59
:101C10001B689C6D14F10C0F08BF002407E06FF0E7
:101C2000040404E06FF0080401E06FF001042046B2
:101C300070BD00BFEB73A10FBC21012038B5051D9D
:101C40000446284600F0B0FD626C29466069BDE894
:101C5000384000F076BD01210023094802680A409F
:101C600004D101334900202BF8D11346054A02EB79
:101C7000C3035B6803B1043B034A1360704700BFB2
:101C8000EC250120AC240120C0210120F8B5061D5F
:101C90000F46114C0546304600F086FD04EBC700A8
:101CA00000F03FFD012823460C4C04D12268B840C7
:101CB00022EA00002060686C314603EBC00000F0AF
:101CC00058FD696C012322688B4013432360BDE8F3
:101CD000F840FFF7C0BF00BFAC240120EC25012075
:101CE00038B5C36A04460D469BB9416CA94210D26F
:101CF000836C026C9A4208BF2B464364036D012B30
:101D00000FD05A071CD5BDE83840FFF797BF5B07D7
:101D10000BD4616C8D4213D2236D6564012BF6D117
:101D20002046BDE83840FFF7B1BF2046FFF786FFE9
:101D3000636D402B04D1636913B19C69002CE8D119
:101D400038BD036D70B5466C23F00103104D044699
:101D50000365043005EBC60500F026FD284600F0BB
:101D6000E0FC012809D10B4AB040136823EA0000C7
:101D7000BDE870401060FFF76EBF074B1A689442D1
:101D80001A4603D16B6803B1043B136070BD00BFFA
:101D9000AC240120EC250120C021012070B50023D6
:101DA0000125466C011D056504464361B5400848A0
:101DB00000EBC60000F0DDFC064A13681D43064B2D
:101DC00015601A681AB1526C964238BF1C6070BD1B
:101DD000AC240120EC250120C021012070474A1EBF
:101DE000033208B50B4616D807290C4A00F10C013E
:101DF000126807D8134403F00703C365084800EBD3
:101E0000C30004E002F007021344C365054800F074
:101E1000B0FC002008BD6FF0040008BD3024012094
:101E2000EC230120B4210120F8B5114C06460F46E1
:101E300015462068FFF785FF236804225F651A6551
:101E40009918DD651EB9084600F068FC05E05A6C7B
:101E5000304600F076FC23685E616B1E033305D8C4
:101E600029462068BDE8F840FFF7B9BFF8BD00BFBC
:101E7000BC21012038B500F10C040546204600F0D5
:101E800050FC50B94FF0FF332046EB6500F08CFC5E
:101E90002046BDE8384000F041BC38BD38B56FF091
:101EA0000B030025044683654561FFF7E3FF236DBF
:101EB0001B0704D42046FFF771FF012002E008232E
:101EC00028462365656538BD10B50446043000F02A
:101ED00025FC2046FFF7CEFF2046FFF789FDA26CC8
:101EE000002362641022E36222654FF0FF32A36296
:101EF00063616365A365E366E265236610BD2DE952
:101F0000F84F2A4F3C68FEF723FC064604F007050D
:101F100045B1274B4FF000086FF0030A03EBC504EF
:101F2000A14625E0234BDFF888805C6899464C4544
:101F3000EFD0B4F10C0BD4F804A014D0DBF85C3073
:101F4000083B072BCBF85C300DD8204600F02CFC6A
:101F50003868DBF85C302146184400F0070008EBD5
:101F6000C00000F006FC5446E1E7D9F804502DB952
:101F7000204600F0D6FB0028F7D011E0B5F10C07A1
:101F8000F6D038464FF00108FFF774FFA5F10800BE
:101F900000F00AFC3846FFF781FFC7F858A0E7E7D2
:101FA0003046FEF7D9FB4046BDE8F88F30240120CB
:101FB000EC230120B4210120F8B5064600256FF07E
:101FC0000907304600F0ADFB70B9304600F0D7FB92
:101FD0000028F6D0041FF4D02046FFF75FFF012849
:101FE00004BFA7650546ECE72846F8BD08B5036DB4
:101FF00013F008020FD1102B10D0012B06D10823AB
:102000000365FFF79EFE6FF00A0008BD43F008036A
:102010000365104608BD4FF0FF3008BD6FF00200A9
:1020200008BD2DE9F84FDDF828A004468B469846F8
:10203000DDF83090164612B919F0800F03E01F2A20
:1020400003D119F0400F01D15EE05DD8BAF15F0F06
:102050005AD9BBF1000F57D0002C55D0B8F1000F62
:1020600052D0E56C002D4FD1FEF78BFB01284FD0ED
:102070002B4F3B68012B02D1FEF76AFB05460B9BF9
:102080002849E363284BC4F838B0E3640023C4F85C
:102090003080C4F834A026646664A664626B934200
:1020A00003D248F804190133F8E704F1200004F1E1
:1020B000180600F033FB00233046A362E36200F011
:1020C0002DFB04F10C0000F029FB2046FFF7FCFE7D
:1020D000E26B216BA06BFEF75FFA3146206013487C
:1020E00000F047FB124A19F0C10F136803F1010316
:1020F000136002D02046FFF751FE3B68012B0BD145
:102100002846FEF729FB07E06FF00400BDE8F88FD2
:102110006FF00100BDE8F88F0020BDE8F88F00BF28
:10212000C4210120EFBEADDE69CFAB07342401200E
:102130002C240120154B10B51C68FEF722FB18BBA0
:10214000134B1B68012B1FD1FEF702FB2046FFF744
:102150004FFC2046FFF7F5FD2046FFF7B5FE04F1E2
:10216000180000F021FB0B4A20461368013B136066
:10217000E36C03F0A043B3F1A04F18BF0023E36466
:10218000BDE81040FEF7BEBA10BD00BFBC21012063
:10219000C42101202C24012038B5044600284BD04E
:1021A000C36C2A4A23F07043934248D1FEF7E9FA00
:1021B000012847D0264B1B68012B03D0254B1B68F9
:1021C0009C423FD0FEF7C4FA05462046FFF710FCBC
:1021D000236D012B03D12046FFF7B3FD11E05B0710
:1021E0000FD5201D00F0E0FAE36D013303D004F1B8
:1021F0000C0000F0D9FA636D402B02D12046FFF7A6
:102200000CFC2046FFF760FE04F1180000F0CCFA49
:10221000114A28461368013B1360E36C03F0E04366
:10222000B3F1A04F18BF0023E364FEF795FA2046F0
:10223000FFF7D4FD002038BD6FF0040038BD6FF00B
:10224000080038BD6FF0010038BD00BF69CFAB0793
:10225000C4210120BC2101202C24012038B50446D2
:1022600068B3C36C1B4A23F0704393422AD11A4BC4
:102270001B68012B29D1FEF784FA01280ED1FEF745
:1022800067FA05462046FFF7B1FE04462846FEF7EA
:1022900063FA14F10B0F08BF002418E0FEF758FA98
:1022A00005462046FFF7A2FE04462846FEF754FAEC
:1022B00014F10B0F0BD1FEF741FA002407E06FF089
:1022C000040404E06FF0080401E06FF0010420460C
:1022D00038BD00BF69CFAB07C421012038B5044623
:1022E000002849D0C36C294A23F07043934246D159
:1022F000274B1B68012B45D1FEF743FA01281CD15F
:10230000FEF726FA236D05461A070CD5580705D4A3
:1023100020466FF00A04FFF741FD06E023F00803B2
:102320002365002401E06FF002042846FEF714FA4A
:1023300014F10B0F08BF002426E0FEF709FA236D05
:10234000054619070CD55A0705D420466FF00A0434
:10235000FFF724FD06E023F008032365002401E0D5
:102360006FF002042846FEF7F7F914F10B0F0BD1BA
:10237000FEF7E4F9002407E06FF0040404E06FF0D6
:10238000080401E06FF00104204638BD69CFAB07B7
:10239000C421012070B50546B0B1FEF7F2F901285D
:1023A00015D00C4B1C68012C11D1FEF7D1F9064653
:1023B0002A4621460020FFF737FD3046FEF7CCF9CC
:1023C000FEF7BCF9002070BD6FF0040070BD6FF027
:1023D000010070BDC421012070B50446A0B3C36CD8
:1023E0001E4A23F07043934231D11D4B1D68012DCD
:1023F00030D1FEF7C6F9012810D1FEF7A9F9236DF7
:102400000546102B04D120460024FFF7C7FC01E04D
:102410006FF001042846FEF79FF91DE0FEF798F9DA
:10242000236D0646102B04D120460024FFF7B6FC8E
:1024300002E000256FF001043046FEF78DF9012D12
:102440000AD1FEF77BF907E06FF0040404E06FF0B7
:10245000080401E06FF00104204670BD69CFAB07AE
:10246000C421012070B50D46044610B96FF0040078
:1024700070BDC36C154A23F0704393421FD1FEF721
:1024800080F901281ED0124B1B68012B1AD16B1E3C
:102490001D2BEBD8FEF75CF9A36C06469D4203D3D7
:1024A000A26AE36A9A4200D1A564294620462564BF
:1024B000FFF716FC3046FEF74FF9002070BD6FF0B5
:1024C000080070BD6FF0010070BD00BF69CFAB07A1
:1024D000C421012010B5044600F023F940B9E060A2
:1024E000204600F061F92046BDE8104000F016B922
:1024F00010BDC36801460A4A072B08D81268134466
:1025000003F00703C360074800EBC30005E0106851
:1025100000F0070003440448CB6000F02AB900BF74
:102520003024012070210120C8210120F8B50E4679
:102530001746054688B181B1846974B9FEF721F95F
:1025400001280DD0284600F0E9F8074BAC60204682
:10255000EC602F616E61AB61F8BD6FF00400F8BDF7
:102560006FF00100F8BD00BF47D4040B70B50546FD
:10257000B0B183690F4A23F07043934213D1FEF741
:1025800000F9012812D0FEF7E3F800240646284699
:10259000FFF7A0FFAC613046FEF7DEF8204670BDC5
:1025A0006FF0040070BD6FF0080070BD6FF00100A7
:1025B00070BD00BF47D4040BF8B50E46154604465F
:1025C000E0B1D9B1531C19D08369114A23F070438B
:1025D000934216D1FEF7D5F8012815D0FEF7B8F8CA
:1025E00007462046FFF776FF2046E660A560FFF726
:1025F00080FF3846FEF7B0F80020F8BD6FF0040009
:10260000F8BD6FF00800F8BD6FF00100F8BD00BF25
:1026100047D4040B38B50446A0B183690E4A23F0B1
:102620007043934211D1FEF7ACF8012810D0FEF7A9
:102630008FF805462046FFF74DFF2846FEF78CF839
:10264000002038BD6FF0040038BD6FF0080038BDC1
:102650006FF0010038BD00BF47D4040B2DE9F347EC
:102660002B4F684600F05AF83D68FEF771F80646B1
:1026700005F0070525B1274B03EBC5052F461EE0E6
:10268000254BDFF890805C6899464C45F3D0E368B1
:10269000D4F804A0083B072BE3600CD8204600F0D8
:1026A00083F83868E3682146034403F0070008EB29
:1026B000C00000F05EF85446E7E77C682CB9284675
:1026C00000F02FF80028F8D016E02046FFF702FFB0
:1026D000A36823B1E3602146684600F04AF86369C5
:1026E000002BECD0216920469847E8E7684600F0C7
:1026F00046F808B1FFF7FDFE684600F012F8002822
:10270000F4D03046FEF728F8002002B0BDE8F0878C
:102710003024012070210120C82101204060006088
:1027200070474368984204D103681B1A58425841C5
:10273000704700207047436881E8090019604160D4
:102740007047436810B5834207D023B11C1F02D0E5
:10275000646C944207D85B68F5E71A684B600A60BE
:102760005160196010BD1A6851600A6019604B60B1
:1027700010BD036848600B605960016070470346F4
:1027800030B14068834204D0426813605A60704799
:102790007047002070470368984217BF1A680023EB
:1027A0005060026018467047426803685A60426889
:1027B000136070474368834203D08B4203D05B6849
:1027C000F9E7002070470120704700230360436051
:1027D000704703680BB11A680260184670470023FF
:1027E0000B6003680BB9016001E043681960416048
:1027F000704703680B6003B94160016070470000D7
:10280000E8B1E1B12F2A1AD9CB1D521A103023F0AA
:1028100007031A44A3F1080140F8083C22F007021C
:1028200040F8103C114440F8041C002183E80600E5
:1028300040F80C2C012201611146FFF70DB96FF031
:1028400004007047F8B50C46054600283FD0002923
:102850003FDD214E3368012B04D14FF0FF311030A2
:10286000FFF7A8F9E11D2868002221F007010831CF
:1028700010B347680468B9421BDCC1EB070E6B68F4
:10288000BEF10F0F0BDD0F180C50C7F804E00AB9AA
:102890002F6000E017604160591A696006E00AB9CC
:1028A0002C6000E01460DB1B47606B60002303605A
:1028B00002E002462046DBE700B1083033680446F8
:1028C000012B07D105F11000FFF731F902E00446B2
:1028D00000E000242046F8BDC42101202DE9F04786
:1028E00088460546002800F09280002900F08F807D
:1028F0004B4F3B68012B04D14FF0FF311030FFF7F5
:1029000059F9A8F1080359684A0776D158F8086CB4
:10291000002E72D1AA6893426FD303EB010EEA68CE
:10292000AEF1080A924568D8D5F800C0BCF1000F96
:1029300004D12B606B68194469604AE06246934297
:1029400050681BD2924558D296456C680DD16218DA
:102950006A601EB9DCF800202B6001E03268336049
:10296000014448F8082C596033E0214469600EB9ED
:102970002B6000E0336048F8082C2AE03DD0146852
:1029800000EB02093CB3A34244D2A24535D2A6458E
:102990006E6812D10E444B455C586E6007D10144FD
:1029A0005160DEF8040014600144516011E0DEF86B
:1029B000040013600144596009E04B4504D10E4402
:1029C00001446E60516004E031446960136048F86E
:1029D000084C002413E0A9F10806B3420DD94B4579
:1029E0006E680BBF76188919091869600BBF6E6095
:1029F0001360516048F8084C01E04FF0FF343B6829
:102A0000012B0AD105F11000FFF791F805E06FF0F6
:102A1000040402E01646224691E72046BDE8F0870E
:102A2000C4210120036823F0010303600023036035
:102A300043608360C360036121234361294B984253
:102A400017D0294B98421BD0284B984220D0284BB6
:102A5000984225D0274B98422AD0274B98422ED017
:102A6000264B984232D0264B984236D0254B98427E
:102A700003D13D2243F8082C7047234B984204D1E0
:102A80004FF4746243F8202C7047204B984204D1D5
:102A90004FF4741243F8382C70471D4B984204D100
:102AA0004FF0746243F8502C70471A4B984203D190
:102AB000194A43F8642C7047184B984203D1184ABE
:102AC00043F87C2C7047174B984203D1164A43F8C1
:102AD000942C7047154B984203D14FF03D5243F868
:102AE000AC2C7047106002402860024040600240F9
:102AF000586002407060024088600240A06002405E
:102B0000B860024010640240286402404064024001
:102B100058640240706402403D0000208864024016
:102B2000400F0020A064024000003D20B864024035
:102B30000268134B10B513400C68CA6814434A6905
:102B400014438A691443CA6914430A6A14434A6ADB
:102B500014438A6A14434A6B14438A6B2243CC6A37
:102B600013430360436923F007020B6B23431343B2
:102B700043610B6943604B6883608B68C36010BD21
:102B80003F801CF00023036043608360C3600361E7
:102B900043618361C361036243628362C36203630F
:102BA000436383637047036811B143F0010301E09D
:102BB00023F0010303607047036811B143F400433D
:102BC00001E023F4004303607047036811B143F050
:102BD000200301E023F02003036070474160704749
:102BE000406880B27047036812B143F4002301E0EB
:102BF00023F40023036001617047036811B143F4BB
:102C0000802301E023F48023036070470AB101614F
:102C10007047C16070470068C0F3C04070470068EB
:102C200000F001007047406900F0380070470B4B1E
:102C30000B4A10B50B4CA04294BF184610468B00AF
:102C400001D5436800E0036821F0F02121F08211F2
:102C5000194214BF0120002010BD00BF00600240D7
:102C6000006402400F6402400B0611D543694AB16B
:102C700043F080038029436114D0036801F01E01F2
:102C800019430EE023F080038029436104D170478B
:102C9000802907D0002AF0D1036801F01E0123EA41
:102CA000010101607047114A114B10B5114CA0424F
:102CB00094BF1C46144621F0F02323F0C3122AB11E
:102CC000006800F01E0000EAD12202E0406900F036
:102CD0008002890001D5606800E0206823F082133B
:102CE000184002D0101C18BF012010BD0064024023
:102CF000006002400F64024010B5094A094B0A4CBB
:102D0000A04294BF1846104611F0005F21F0F02158
:102D100021F0821101D0C16010BD816010BD00BFE3
:102D200000640240006002400F640240FFF7E4BF0D
:102D300008B52A4B984206D10121084601F0EEF869
:102D40000021012044E0264B984206D101210220B7
:102D500001F0E4F8002102203AE0224B984206D12B
:102D60000121042001F0DAF80021042030E01E4B9C
:102D7000984206D10121082001F0D0F80021082056
:102D800026E01A4B984206D10121102001F0C6F826
:102D9000002110201CE0164B984206D10121202072
:102DA00001F0BCF80021202012E0124B984206D11D
:102DB0000121402001F0B2F80021402008E00E4B34
:102DC000984209D10121802001F0A8F8002180203B
:102DD000BDE8084001F0A2B808BD00BF00000240F5
:102DE0000004024000080240000C024000100240B3
:102DF0000014024000180240001C02402DE9F0437C
:102E000000230F684FF0010E03260EFA03FC3CEA84
:102E1000070230D15A00056806FA02F4E44325405F
:102E200005600D79D0F8008005FA02F9013D49EA04
:102E30000808012DC0F8008011D885682C408460F6
:102E40004C798568944025438560446824EA0C04E5
:102E500044608C7945689C40A4B22C434460C468AB
:102E600006FA02F524EA0504CD79C46005FA02F2F7
:102E7000C4682243C2600133102BC6D1BDE8F08381
:102E80004FF6FF7303600023037143718371C371B5
:102E9000704782B04FF480330193019B0B43019341
:102EA000019BC361C161019BC361C3690193C36994
:102EB000019302B070470369194214BF012000203A
:102EC0007047006980B270474369194214BF0120FE
:102ED00000207047406980B270478161704781610E
:102EE0007047816170474161704743695940416152
:102EF000704701F00703C9089B0000EB81000F2118
:102F00009A40994010B5046A24EA01010162016AFD
:102F10000A43026210BD00BF2DE9F04F8A4689B016
:102F2000914698460446002800F0AC80FDF710FC5E
:102F3000E56B02230DB9E36300E01D46FDF70CFCD1
:102F4000002D40F0A2804FF0FF3304F1140714224B
:102F50002946636320462363A563C4F82C90C4F814
:102F6000288001F09DF914222946384601F098F98D
:102F7000012220461146FEF76FFD0646002840F06C
:102F80008680012229463846FEF766FD064600285F
:102F90007DD1414B082103950DF1200B1A6B0127C0
:102FA0003E4842F008021A631A6B02F008020392CC
:102FB000039A04951A6C42F480221A641A6C02F483
:102FC00080220492049A05951A6B42F400121A6347
:102FD00007221B6B03F400130593059BFFF789FF82
:102FE000072209212D48FFF784FF4FF48072022346
:102FF0002A484BF8082D594601928DF81C308DF85F
:103000001D308DF81E508DF81F70FFF7F7FE4FF43E
:103010000073594621480693FFF7F0FE51462048B9
:1030200000F0EAFD4FF00063019A04F140012364CF
:103030001C4B626663641FFA88F3C4F848902365EA
:103040004FF48063E564A3656565E5652566A5665F
:10305000E56627676567A5671348FFF769FD3A4688
:1030600040210F4800F0B0FD39460F48FFF79BFDA7
:1030700039460B4800F0B5FDFDF76AFBE763FDF745
:103080006BFB04E06FF0040601E06FF007063046CA
:1030900009B0BDE8F08F00BF00380240000C0240CC
:1030A00000480040244800402860024038B50546EA
:1030B000002834D0FDF74CFBEC6B0223012C14BF2D
:1030C0001C46EB63FDF748FB012C2BD1164B4FF44C
:1030D000804216480024C3F88020FFF7A3FC144860
:1030E000FFF7A0FC00224021124800F06DFD0022F5
:1030F0008021104800F068FD00210C48FFF753FDC7
:1031000000210B48FFF74FFD00210A4800F069FD40
:10311000FDF71EFBEC63FDF71FFB204638BD6FF08B
:10312000040038BD002038BD00E100E02860024006
:1031300058600240004800402DE9F8430F4604461D
:10314000002838D0002936D0002A34D0866A0025DD
:10315000436B9642DFF87080A946036328BF16468A
:10316000D8F80430A16BA26A0B44934214D1002D0D
:1031700026DC636B13B96FF0030521E0E06B0128D7
:103180001CD1FFF707F9636B0133E9D0236B013BD7
:103190002363002BEFD0E3E7E36A5B5C7B550135EB
:1031A000A36BA26A01339342A36328BFC4F838908B
:1031B000B542D5DB04E06FF0040501E06FF00705D0
:1031C0002846BDE8F88300BF286002402DE9F74F8C
:1031D000894690460446002867D0002965D0002A19
:1031E00063D04FF0FF31FEF7E5FC064600285ED1C4
:1031F000DFF8D0A0B8F5807F47462F4B494628BF5F
:103200004FF480770025184601263A46DFF8B8B01B
:1032100000F0ACFF40234FF00062A064E3644FF481
:103220008063226404F14001A3654FF400332667F4
:10323000A3662248C4F844A027656565E565256650
:103240006566E5666567A567FFF772FC3246802113
:103250001B4800F0B9FC324614211848FFF704FD62
:1032600031461648FFF79FFC4FF480438BF80E530E
:1032700041F28831CBF8003004F114000193FEF7DD
:1032800099FC06462A4680210D4800F09DFC019BD2
:10329000AE42CBF8803003DA2046FEF748FC06E069
:1032A000B8EB0708B944A5D1F6E76FF0040630463D
:1032B00003B0BDE8F08F00BF080101205860024054
:1032C000004800402848004000E100E010B50446F6
:1032D00040B101F0F5F8214682B20448BDE8104043
:1032E000FFF774BF6FF0070010BD00BF98200120EA
:1032F00007B502A9012201F8040D0348FFF766FF94
:1033000003B05DF804FB00BF982001200C4B0021A6
:103310001A6842F001021A6099601A6822F08472F9
:1033200022F480321A60074A5A601A6822F4802216
:103330001A604FF00062D960034B9A60704700BF7B
:10334000003802401030002400ED00E0324A93685B
:1033500003F00C03042B30B5054602D0082B02D035
:103360003FE02E4840E05368516803F03F034902B4
:103370000FD513B3506847F6C07292FAA2F2B2FAB0
:1033800082F247F6C071D2B2014021FA02F223491B
:103390000EE093B1506847F6C07292FAA2F2B2FA08
:1033A00082F247F6C071D2B2014021FA02F21C4902
:1033B000B1FBF3F303FB02F100E01946164B4FF4A7
:1033C00040345B6894FAA4F4B4FA84F403F4403211
:1033D000E3B222FA03F301335B0004D0B1FBF3F054
:1033E00002E00F4800E018460B4A286093680D4938
:1033F000C3F30313CB5C20FA03F36B609468C4F34C
:1034000082240C5D23FA04F4AC609268C2F3423269
:103410008A5CD340EB6030BD0038024000127A0075
:103420000024F400B8462000194BDB68C3F30223E4
:1034300030B5C3F107041D1D042C28BF0424062D3C
:103440004FF001058CBF033B002305FA04F400286C
:1034500004F1FF3404EA010404FA03F405FA03F367
:1034600003F1FF3302EA030242EA04024FEA0212C6
:1034700005DA00F00F00D2B2064B1A5430BD00F14D
:103480006040D2B200F5614080F8002330BD00BF3B
:1034900000ED00E014ED00E01FB504466846FFF7BC
:1034A00055FF154BF0219A6891FAA1F3B3FA83F313
:1034B0000A40DBB222FA03F3104AD35CD840104B27
:1034C00018604FF47A73B0FBF3F00138B0F1807FED
:1034D00008D20C4B0C4A586082F8231000229A60E4
:1034E00007221A60002221464FF0FF30FFF79CFFB1
:1034F000002004B010BD00BF00380240B8462000D4
:103500009420012010E000E000ED00E01FB56846C7
:10351000FFF71CFF0D4B9A68F02393FAA3F3B3FA5D
:1035200083F302F0F002DBB222FA03F3084AD35C21
:10353000D84040F6B833B0FBF3F0002808BF0120B4
:10354000FDF727F905B05DF804FB00BF0038024025
:10355000B84620000368F7B50446D80703D42368AB
:1035600099076AD4BCE0A44B9A6802F00C02042AC2
:1035700007D09A6802F00C02082A0BD15B685A0245
:1035800008D59D4B1B689B03E9D56368002BE6D1EA
:103590000120A2E1984B41F28A361A681D4622F4B6
:1035A00080321A601A6822F480221A601A6822F4A3
:1035B00080321A602A68904B970306D5013E01D1EC
:1035C00003208AE1FFF7A2FFF4E71A6822F48032B1
:1035D0001A606268B2F5803F03D11A6822F4802233
:1035E00005E0B2F5A02F08D11A6842F480221A60D3
:1035F0001A6842F480321A600CE0196821F48021C4
:103600001960196821F4803119601AB941F28A36BB
:103610001D460EE041F28A35774E336898039ED4FA
:10362000013DCDD0FFF772FFF7E7013EC8D0FFF7AD
:103630006DFF2B689903F8D491E76F4B9A6812F0ED
:103640000C0F07D09A6802F00C02082A18D15B68A8
:103650005A0215D4684A13689B0702D5E368012B08
:1036600096D11168F82393FAA3F3B3FA83F3206990
:10367000DBB221F0F80100FA03F30B4313602FE0F3
:10368000E2685D4BEAB11A6866261D4642F0010207
:103690001A602B6858489F0704D4013E90D0FFF76A
:1036A00035FFF6E70268F82393FAA3F3B3FA83F33E
:1036B0002169DBB222F0F80201FA03F3134303603D
:1036C0000EE01A6866261D4622F001021A602B6879
:1036D000990705D5013E3FF473AFFFF717FFF6E7F3
:1036E00023681A0703D423685B0721D45FE062696B
:1036F000414B72B15A6F66261D4642F001025A676D
:103700006B6F9F07EFD4013E3FF45AAFFFF7FEFE09
:10371000F6E75A6F66261D4622F001025A676B6F64
:103720009807E0D5013E3FF44BAFFFF7EFFEF6E719
:10373000002366260193304B1A6C42F080521A64C3
:103740001B6C03F080530193019B2C4B1A681D46A0
:1037500042F480721A602B68D9052CD5264B41F2B1
:103760008A361A6F1D4622F001021A671A6F22F07C
:1037700004021A671A6F22F001021A672A6F1E4BA1
:1037800092071ED41A6F22F001021A67A268012A5A
:103790001DD11A6F22F004021A671A6F42F001025B
:1037A0001A6741F28A35144E336F9F0728D5A169F5
:1037B000002934D178E0013E3FF402AFFFF7A6FEC6
:1037C000C9E7013E3FF4FCAEFFF7A0FED6E7052AAD
:1037D00003D11A6F42F00402DEE7196F21F00401F1
:1037E0001967196F21F001011967002AD9D141F237
:1037F0008A361D460FE000BF0038024000700040CE
:10380000013D3FF4DDAEFFF781FECDE7013E3FF421
:10381000D7AEFFF77BFE2B6F9807F7D4C7E7304B87
:103820009A6802F00C02082A3FF4B2AE1A68022924
:1038300022F080721A6045D166271D462B68284EFB
:10384000990133D447F6C07292FAA2F2B2FA82F228
:103850004FF4403090FAA0F0B0FA80F04FF0706171
:1038600091FAA1F1B1FA81F1256AD2B2E369C9B244
:103870002B43656A43F0005305FA02F243EA02055E
:10388000A36A5B085A1EC3B202FA03F3E26A662413
:103890002B4302FA01F10B437360336843F08073EA
:1038A000336033689A0107D5002016E0013F3FF4EA
:1038B00087AEFFF72BFEC1E7013C3FF481AEFFF777
:1038C00025FEEEE766251C4623689B01ECD5013DED
:1038D0003FF476AEFFF71AFEF6E703B0F0BD00BF87
:1038E00000380240644AF8B5136804460D4603F0F8
:1038F0000F038B425FD2136823F00F030B43136057
:10390000136803F00F03994201D00120F8BD01684C
:103910008F0706D55948836823F0F002A368134344
:103920008360CE070BD421684D0740F19680534841
:10393000836823F4E052E368134383608DE0636897
:103940004E4A012B116802D111F4003F06E0022B10
:1039500002D111F0007F01E011F0020FD5D0916883
:10396000012B41F28A35454E21F0030141EA030162
:1039700091600BD1B36803F00C03042BD3D0013D4D
:1039800001D10320F8BDFFF7C1FDF3E7022B0DD1F4
:10399000B36803F00C03082BC5D0013DF1D0FFF74D
:1039A000B5FDF5E7013DECD0FFF7B0FDB36813F0CE
:1039B0000C0FF7D1B7E70168880706D52F48836851
:1039C00023F0F002A36813438360CA070BD42A4A8A
:1039D000136823F00F032B431360136803F00F03E6
:1039E0009D4292D19FE76368244A012B116802D15E
:1039F00011F4003F06E0022B02D111F0007F01E03C
:103A000011F0020F81D09168012B41F28A361B4FD1
:103A100021F0030141EA0301916009D1BB6803F081
:103A20000C03042BD3D0013EABD0FFF76FFDF5E7BD
:103A3000022B0DD1BB6803F00C03082BC7D0013E4D
:103A40009FD0FFF763FDF5E7013E9AD0FFF75EFDDB
:103A5000BB6813F00C0FF7D1B9E70B0707D5074A7E
:103A60002169936823F4604343EAC10393600F2004
:103A7000FFF712FD0020F8BD003C02400038024074
:103A800070B594B0BFF34F8FBFF36F8F4B4B0021D6
:103A9000C3F850125A6942F400325A61BFF34F8F93
:103AA000BFF36F8FC3F88410BFF34F8FD3F880102C
:103AB000C1F34E32C1F3C901500143F6E074044032
:103AC000084644EA807610F1FF303C4DC3F860624E
:103AD000F7D212F1FF32EFD2BFF34F8F6B6943F48D
:103AE00080336B61BFF34F8FBFF36F8F344D002670
:103AF000344C4FF48002009608A82B6C43F080539E
:103B00002B642B6C03F080530093009B0196236879
:103B100023F4404343F40043236023680F920822B8
:103B200003F4404310924FF4D8720193019B012398
:103B3000119208934FF48033099302230E9312934A
:103B400009231393FFF706FD02962B6C43F0805375
:103B50002B642B6C40F2EA3503F080530293029BF6
:103B6000236843F4803323606268164BD20316D473
:103B7000013D11D10F23072103A8039302230493CE
:103B8000002305934FF4A05306934FF480530793FB
:103B9000FFF7A8FE14B070BDFFF7B8FCE4E71A68A1
:103BA00040F2EA351C4642F400321A6063689B0317
:103BB000E0D4013DDED0FFF7A9FCF7E700ED00E01F
:103BC000003802400070004083680AB1194302E0E7
:103BD000C94389B2194081607047C94389B2C16144
:103BE000704719B1036843F0010303E002684FF620
:103BF000FE731340036070477FB543680E46CA8862
:103C0000044623F440538988134332899BB20A4304
:103C10007189436003680A4323F4B05392B223F0DE
:103C20000C031343B2899BB20360836823F440738F
:103C300013439BB283606846FFF788FB194B9C4295
:103C400003D003F580639C4201D1039D00E0029DF7
:103C5000236819223168642613F4004F02FB05F231
:103C600014BF4D008D00B2FBF5F5B5FBF6F02268F0
:103C7000000112044FEA101106FB115307D5D900B9
:103C80003231B1FBF6F202F00702104306E01A01EE
:103C90003232B2FBF6F303F00F03184380B2E06058
:103CA00004B070BD001001402DE9F04F724F85B097
:103CB0000B680022DFF8C8C1BE46DFF8C881019357
:103CC0000124019B944034EA030340F0CD804D6809
:103CD00025F0100ABAF1020F14D14FEAD20902F00E
:103CE000070B0F2300EB89094FEA8B0BD9F82060F3
:103CF00003FA0BF326EA03060B6903FA0BF33343CB
:103D0000C9F820304FEA420B4FF00309036805F071
:103D1000030609FA0BF90AF1FF3A06FA0BF66FEA05
:103D20000909BAF1010F03EA090343EA0603036034
:103D30000FD88368CE6809EA030306FA0BF61E4320
:103D40008660C5F300164368964023EA04033343B4
:103D50004360C36809EA03098B6803FA0BF343EA7B
:103D60000903C360EB007FD5002322F0030902F0B2
:103D7000030A039309F18049DCF844604FEA8A0A98
:103D800009F59C393D4B46F480469842CCF8446096
:103D9000DCF8446006F480460396039E4FF00F065D
:103DA000D9F808B006FA0AF62BEA060624D003F57D
:103DB0008063984222D003F58063984220D003F5B7
:103DC000806398421ED003F5806398421CD0404522
:103DD0001CD003F5006398421AD003F58063984223
:103DE00018D003F58063984216D003F5806398429B
:103DF00014BF0A23092310E000230EE001230CE086
:103E000002230AE0032308E0042306E0052304E07C
:103E1000062302E0072300E0082303FA0AF315F45F
:103E2000803F43EA06036FEA0406C9F808303B689E
:103E30000CBF3340234315F4003FCEF80030DEF8CA
:103E400004300CBF3340234315F4801F7B60BB68F4
:103E50000CBF33402343AD02CEF80830DEF80C30FF
:103E600054BF33402343FB600132102A7FF428AF54
:103E700005B0BDE8F08F00BF003C014000000240EB
:103E8000003802400014024030B5174B89B050B9D9
:103E900001901A6B42F002021A631B6B03F00203DB
:103EA0000193019B0AE0002202921A6B42F0020287
:103EB0001A631B6B03F002030293029B0B4B03A9D3
:103EC00003EB400203EB8003148A01229D690492F4
:103ED0000022039428460592240403220692FFF749
:103EE000E3FEAC6109B030BD00380240B8462000A6
:103EF00002B90904816170474369594041617047C3
:103F0000054B03EB800203EB400391691B8A4A696E
:103F100053404B61704700BFB8462000044B1A69FC
:103F200009B1104301E022EA00001861704700BFA8
:103F30000038024010B50446E422002100F0B0F938
:103F400004F12803602204F13800636100210C4B66
:103F5000A2601B68E060A3610A4BE3610A4B236225
:103F60000A4B636200F09CF904F1A403C4F8983092
:103F70004023C4F89C300023C4F8A03010BD00BF1B
:103F80009C452000A0452000CD322000F1322000C9
:103F900008B50023012103481A46FCF789FE0020DA
:103FA00008BD00BF4021012008B5036A1BB10846C7
:103FB0009847002008BD4FF0FF3008BD036A10B5D8
:103FC00004463BB109B105489847236A044898471D
:103FD000002010BD4FF0FF3010BD00BFF3462000A1
:103FE000DC462000012303610020704708B5436AC6
:103FF0001BB108469847002008BD4FF0FF3008BDB0
:10400000036870B50446C3BB0D29436823D0866896
:10401000B34220DA082901D07F290ED1002B30DDF0
:10402000013B082120466360FFF7E0FF2021204686
:10403000FFF7DCFF0821204609E05D1CAE4220DDD1
:10404000A1F120065F2E1CD8C6684560F154BDE87A
:104050007040FFF7CBBFE26800212046D1540D210C
:10406000FFF7C4FF20460A21FFF7C0FF01232046C7
:104070002360BDE87040FFF78BBF032904BF012315
:10408000036170BDFFF7B2BF38B50025C3680446B1
:1040900045601D70FFF792FFFCF75AFB2560BDE8F5
:1040A0003840FCF759BB0023F0B51A4604461E46BB
:1040B0000B604B608B60CB60274614F8015B092DC9
:1040C00002D0202D00D045B953B104F8016C41F85D
:1040D00022000132032A08DC02E023B9384602E05C
:1040E0001DB10023E8E70123E6E71046F0BDF8B56F
:1040F00041690446C068FFF7D6FF002802DDA669C3
:10410000002502E000211CE00135B54211DAE36927
:10411000626953F8351003EBC507106800F00EF91B
:104120000028F1D17B682046984701212046FFF7FF
:10413000ABFFA3699D420AD10B492046FFF734FF2C
:10414000012120464FF0FF35FFF79EFF00E00025DC
:10415000A2680021E06800F0A3F810220021606945
:1041600000F09EF82846F8BDE3462000844641EA68
:10417000000313F003036DD1403A41D351F8043BDF
:1041800040F8043B51F8043B40F8043B51F8043B31
:1041900040F8043B51F8043B40F8043B51F8043B21
:1041A00040F8043B51F8043B40F8043B51F8043B11
:1041B00040F8043B51F8043B40F8043B51F8043B01
:1041C00040F8043B51F8043B40F8043B51F8043BF1
:1041D00040F8043B51F8043B40F8043B51F8043BE1
:1041E00040F8043B51F8043B40F8043B51F8043BD1
:1041F00040F8043B51F8043B40F8043B403ABDD240
:10420000303211D351F8043B40F8043B51F8043BE1
:1042100040F8043B51F8043B40F8043B51F8043BA0
:1042200040F8043B103AEDD20C3205D351F8043B70
:1042300040F8043B043AF9D2043208D0D2071CBF3C
:1042400011F8013B00F8013B01D30B880380604665
:10425000704700BF082A13D38B078DD010F00303DB
:104260008AD0C3F10403D21ADB071CBF11F8013B4B
:1042700000F8013B80D331F8023B20F8023B7BE79A
:10428000043AD9D3013A11F8013B00F8013BF9D2C5
:104290000B7803704B7843708B788370604670475F
:1042A00070B4840746D0541E002A41D0CDB20346D4
:1042B00002E0621EE4B3144603F8015B9A07F8D1EA
:1042C000032C2ED9CDB245EA05250F2C45EA05452C
:1042D00019D903F110022646103E0F2E42F8105C49
:1042E00042F80C5C42F8085C42F8045C02F11002EF
:1042F000F2D8A4F1100222F00F0204F00F041032E1
:10430000032C13440DD91E462246043A032A46F8CC
:10431000045BFAD8221F22F003020432134404F093
:1043200003042CB1C9B21C4403F8011BA342FBD106
:1043300070BC704714460346C2E700BF114B30B44F
:104340001D6810F8014B2B1922465B7803F003031C
:10435000012B11F8013B08BF04F12002EC1864782E
:1043600004F00304012C06D0D21A01D1002BE8D1AD
:10437000104630BC70472033D21AE2D0104630BC11
:10438000704700BF08020120830710B5044610D112
:104390000268A2F1013323EA020313F0803F08D13F
:1043A00050F8042FA2F1013323EA020313F0803FF7
:1043B000F6D003781BB110F8013F002BFBD100F0C1
:1043C00003F8204610BD00BF80EA0102844612F0C7
:1043D000030F4FD111F0030F32D14DF8044D11F0FE
:1043E000040F51F8043B0BD0A3F101329A4312F0B1
:1043F000803F04BF4CF8043B51F8043B16D100BF8A
:1044000051F8044BA3F101329A4312F0803FA4F11A
:1044100001320BD14CF8043BA24312F0803F04BFA1
:1044200051F8043B4CF8044BEAD023460CF8013B0E
:1044300013F0FF0F4FEA3323F8D15DF8044B7047B8
:1044400011F0010F06D011F8012B0CF8012B002AF6
:1044500008BF704711F0020FBFD031F8022B12F0E5
:10446000FF0F16BF2CF8022B8CF8002012F47F4FA0
:10447000B3D1704711F8012B0CF8012B002AF9D1A8
:10448000704700BF000000000000000000000000B6
:10449000000000000000000000000000000000001C
:1044A000000000000000000000000000000000000C
:1044B00000000000000000000000000000000000FC
:1044C00090F800F06DE9024520F007016FF0000C54
:1044D00010F0070491F820F040F049804FF00004FC
:1044E0006FF00700D1E9002391F840F000F10800D7
:1044F00082FA4CF2A4FA8CF283FA4CF3A2FA8CF30F
:104500004BBBD1E9022382FA4CF200F10800A4FA75
:104510008CF283FA4CF3A2FA8CF3E3B9D1E90423C9
:1045200082FA4CF200F10800A4FA8CF283FA4CF300
:10453000A2FA8CF37BB9D1E9062301F1200182FABA
:104540004CF200F10800A4FA8CF283FA4CF3A2FAC0
:104550008CF3002BC6D0002A04BF04301A4612BACE
:10456000B2FA82F2FDE8024500EBD2007047D1E9D1
:10457000002304F00305C4F100004FEAC50514F060
:10458000040F91F840F00CFA05F562EA05021CBF31
:1045900063EA050362464FF00004A9E70600000045
:1045A00083462000C901200087462000D901200051
:1045B0008B462000E901200090462000F9012000F0
:1045C00095462000090220009A4620007302200030
:1045D0005468697320697320612050535720636DBC
:1045E000642E0D0A00566572202D20332E302E0DBC
:1045F0000A0054686973206973206120434D443177
:104600002E0D0A0054686973206973206120434DA0
:1046100044322E0D0A0054686973206973206120AA
:10462000434D44332E0D0A00546865207374616352
:104630006B202255736167652220616E64202253CE
:10464000697A65222076616C7565732061726520D8
:10465000696E207468652027696E7427286E6F74F0
:10466000206279746573290D0A005461736B3A20D6
:104670000020200055736167653A200053697A6510
:104680003A20007073770076657200636D643100C4
:10469000636D643200636D64330064756D705F73C5
:1046A000746B00556E6B6E6F776E206D73672E0D99
:1046B0000A00436E743A2000000000000102030467
:1046C0000102030406070809010080000040000001
:1046D0000004024000040240000402405348454CDC
:1046E0004C3E000D0A57726F6E6720636F6D6D61EF
:1046F0006E64210D0A0000000020202020202020D0
:104700002020282828282820202020202020202081
:104710002020202020202020208810101010101091
:1047200010101010101010101004040404040404DD
:104730000404041010101010101041414141414177
:104740000101010101010101010101010101010159
:104750000101010110101010101042424242424269
:104760000202020202020202020202020202020229
:1047700002020202101010102000000000000000D1
:104780000000000000000000000000000000000029
:104790000000000000000000000000000000000019
:1047A0000000000000000000000000000000000009
:1047B00000000000000000000000000000000000F9
:1047C00000000000000000000000000000000000E9
:1047D00000000000000000000000000000000000D9
:1047E00000000000000000000000000000000000C9
:1047F000000000000000000000000000002041490F
:10480000414A91423CBF41F8040BFAE73F49404A14
:10481000404B9A423EBF51F8040B42F8040BF8E7B4
:10482000FEF774FD00200146FBF77EFEFEE7FEE783
:10483000FEE7FEE7FEE7FEE7FEE7FEE7FEE7FEE750
:10484000FEE7FEE7FEE7FEE7FEE7FEE7FEE7FEE740
:10485000FEE7FEE7FEE7FEE7FEE7FEE7FEE7FEE730
:10486000FEE7FEE7FEE7FEE7FEE7FEE7FEE7FEE720
:10487000FEE7FEE7FEE7FEE7FEE7FEE7FEE7FEE710
:10488000FEE7FEE7FEE7FEE7FEE7FEE7FEE7FEE700
:10489000FEE7FEE7FEE7FEE7FEE7FEE7FEE7FEE7F0
:1048A000FEE7FEE7FEE7FEE7FEE7FEE7FEE7FEE7E0
:1048B000FEE7FEE7FEE7FEE7FEE7FEE7FEE7FEE7D0
:1048C000FEE7FEE7FEE7FEE7FEE7FEE7FEE7FEE7C0
:1048D000FEE7FEE7FEE7FEE7FEE7FEE7FEE7FEE7B0
:1048E000FEE7FEE7FEE7FEE7FEE7FEE7FEE7FEE7A0
:1048F000FEE7FEE7FEE7FEE7FEE7FEE7FEE7FEE790
:10490000FEE7000010020120F025012018492000D8
:08491000000001200C0201204F
:04491800D023012087
:104920000000000000000000000000000000000087
:104930000000000000000000000000000000000077
:104940000000000000000000000000000000000067
:104950000000000000000000000000000000000057
:104960000000000000000000000000000000000047
:104970000000000000000000000000000000000037
:104980000000000000000000000000000000000027
:104990000000000000000000000000000000000017
:1049A0000000000000000000000000000000000007
:1049B00000000000000000000000000000000000F7
:1049C00000000000000000000000000000000000E7
:1049D00000000000000000000000000000000000D7
:1049E00000000000000000000000000000000000C7
:1049F00000000000000000000000000000000000B7
:104A000000000000000000000000000000000000A6
:104A10000000000000000000000000000000000096
:104A20000000000000000000000000000000000086
:104A30000000000000000000000000000000000076
:104A40000000000000000000000000000000000066
:104A50000000000000000000000000000000000056
:104A60000000000000000000000000000000000046
:104A70000000000000000000000000000000000036
:104A80000000000000000000000000000000000026
:104A90000000000000000000000000000000000016
:104AA0000000000000000000000000000000000006
:104AB00000000000000000000000000000000000F6
:104AC00000000000000000000000000000000000E6
:104AD00000000000000000000000000000000000D6
:104AE00000000000000000000000000000000000C6
:104AF00000000000000000000000000000000000B6
:104B000000000000000000000000000000000000A5
:104B10000000000000000000000000000000000095
:044B2000F846200033
:0400000500200000D7
:00000001FF
